{
  "abi": [
    {
      "type": "constructor",
      "inputs": [
        {
          "name": "_network",
          "type": "address",
          "internalType": "address"
        },
        {
          "name": "_vaultRegistry",
          "type": "address",
          "internalType": "address"
        },
        {
          "name": "_operatorNetOptIn",
          "type": "address",
          "internalType": "address"
        },
        {
          "name": "_epochDuration",
          "type": "uint48",
          "internalType": "uint48"
        }
      ],
      "stateMutability": "nonpayable"
    },
    {
      "type": "function",
      "name": "EPOCH_DURATION",
      "inputs": [],
      "outputs": [
        {
          "name": "",
          "type": "uint48",
          "internalType": "uint48"
        }
      ],
      "stateMutability": "view"
    },
    {
      "type": "function",
      "name": "NETWORK",
      "inputs": [],
      "outputs": [
        {
          "name": "",
          "type": "address",
          "internalType": "address"
        }
      ],
      "stateMutability": "view"
    },
    {
      "type": "function",
      "name": "OPERATOR_NET_OPT_IN",
      "inputs": [],
      "outputs": [
        {
          "name": "",
          "type": "address",
          "internalType": "address"
        }
      ],
      "stateMutability": "view"
    },
    {
      "type": "function",
      "name": "START_TIME",
      "inputs": [],
      "outputs": [
        {
          "name": "",
          "type": "uint48",
          "internalType": "uint48"
        }
      ],
      "stateMutability": "view"
    },
    {
      "type": "function",
      "name": "VAULT_REGISTRY",
      "inputs": [],
      "outputs": [
        {
          "name": "",
          "type": "address",
          "internalType": "address"
        }
      ],
      "stateMutability": "view"
    },
    {
      "type": "function",
      "name": "checkIncludingOperatingAddress",
      "inputs": [
        {
          "name": "currentOperating",
          "type": "address",
          "internalType": "address"
        }
      ],
      "outputs": [
        {
          "name": "",
          "type": "bool",
          "internalType": "bool"
        }
      ],
      "stateMutability": "view"
    },
    {
      "type": "function",
      "name": "createNewTask",
      "inputs": [
        {
          "name": "_clusterId",
          "type": "string",
          "internalType": "string"
        },
        {
          "name": "_rollupId",
          "type": "string",
          "internalType": "string"
        },
        {
          "name": "_blockNumber",
          "type": "uint256",
          "internalType": "uint256"
        },
        {
          "name": "_blockCommitment",
          "type": "bytes32",
          "internalType": "bytes32"
        }
      ],
      "outputs": [],
      "stateMutability": "nonpayable"
    },
    {
      "type": "function",
      "name": "getAllTokenTotalStakes",
      "inputs": [
        {
          "name": "epoch",
          "type": "uint48",
          "internalType": "uint48"
        }
      ],
      "outputs": [
        {
          "name": "tokenStakes",
          "type": "tuple[]",
          "internalType": "struct IValidationServiceManager.StakeInfo[]",
          "components": [
            {
              "name": "token",
              "type": "address",
              "internalType": "address"
            },
            {
              "name": "stakeAmount",
              "type": "uint256",
              "internalType": "uint256"
            }
          ]
        }
      ],
      "stateMutability": "view"
    },
    {
      "type": "function",
      "name": "getCurrentAllTokenTotalStakes",
      "inputs": [],
      "outputs": [
        {
          "name": "tokenStakes",
          "type": "tuple[]",
          "internalType": "struct IValidationServiceManager.StakeInfo[]",
          "components": [
            {
              "name": "token",
              "type": "address",
              "internalType": "address"
            },
            {
              "name": "stakeAmount",
              "type": "uint256",
              "internalType": "uint256"
            }
          ]
        }
      ],
      "stateMutability": "view"
    },
    {
      "type": "function",
      "name": "getCurrentEpoch",
      "inputs": [],
      "outputs": [
        {
          "name": "epoch",
          "type": "uint48",
          "internalType": "uint48"
        }
      ],
      "stateMutability": "view"
    },
    {
      "type": "function",
      "name": "getCurrentOperatingAddress",
      "inputs": [
        {
          "name": "operator",
          "type": "address",
          "internalType": "address"
        }
      ],
      "outputs": [
        {
          "name": "",
          "type": "address",
          "internalType": "address"
        }
      ],
      "stateMutability": "view"
    },
    {
      "type": "function",
      "name": "getCurrentOperatorAllTokenStakes",
      "inputs": [
        {
          "name": "operator",
          "type": "address",
          "internalType": "address"
        }
      ],
      "outputs": [
        {
          "name": "tokenStakes",
          "type": "tuple[]",
          "internalType": "struct IValidationServiceManager.StakeInfo[]",
          "components": [
            {
              "name": "token",
              "type": "address",
              "internalType": "address"
            },
            {
              "name": "stakeAmount",
              "type": "uint256",
              "internalType": "uint256"
            }
          ]
        }
      ],
      "stateMutability": "view"
    },
    {
      "type": "function",
      "name": "getCurrentOperatorInfos",
      "inputs": [],
      "outputs": [
        {
          "name": "operatorInfos",
          "type": "tuple[]",
          "internalType": "struct IValidationServiceManager.OperatorInfo[]",
          "components": [
            {
              "name": "operator",
              "type": "address",
              "internalType": "address"
            },
            {
              "name": "operating",
              "type": "address",
              "internalType": "address"
            },
            {
              "name": "stakeInfos",
              "type": "tuple[]",
              "internalType": "struct IValidationServiceManager.StakeInfo[]",
              "components": [
                {
                  "name": "token",
                  "type": "address",
                  "internalType": "address"
                },
                {
                  "name": "stakeAmount",
                  "type": "uint256",
                  "internalType": "uint256"
                }
              ]
            }
          ]
        }
      ],
      "stateMutability": "view"
    },
    {
      "type": "function",
      "name": "getCurrentOperatorTokenStake",
      "inputs": [
        {
          "name": "operator",
          "type": "address",
          "internalType": "address"
        },
        {
          "name": "token",
          "type": "address",
          "internalType": "address"
        }
      ],
      "outputs": [
        {
          "name": "stakeAmount",
          "type": "uint256",
          "internalType": "uint256"
        }
      ],
      "stateMutability": "view"
    },
    {
      "type": "function",
      "name": "getCurrentTokenTotalStake",
      "inputs": [
        {
          "name": "token",
          "type": "address",
          "internalType": "address"
        }
      ],
      "outputs": [
        {
          "name": "stakeAmount",
          "type": "uint256",
          "internalType": "uint256"
        }
      ],
      "stateMutability": "view"
    },
    {
      "type": "function",
      "name": "getCurrentTokens",
      "inputs": [],
      "outputs": [
        {
          "name": "",
          "type": "address[]",
          "internalType": "address[]"
        }
      ],
      "stateMutability": "view"
    },
    {
      "type": "function",
      "name": "getCurrentVaults",
      "inputs": [],
      "outputs": [
        {
          "name": "",
          "type": "address[]",
          "internalType": "address[]"
        }
      ],
      "stateMutability": "view"
    },
    {
      "type": "function",
      "name": "getEpochAtTs",
      "inputs": [
        {
          "name": "timestamp",
          "type": "uint48",
          "internalType": "uint48"
        }
      ],
      "outputs": [
        {
          "name": "epoch",
          "type": "uint48",
          "internalType": "uint48"
        }
      ],
      "stateMutability": "view"
    },
    {
      "type": "function",
      "name": "getEpochStartTs",
      "inputs": [
        {
          "name": "epoch",
          "type": "uint48",
          "internalType": "uint48"
        }
      ],
      "outputs": [
        {
          "name": "timestamp",
          "type": "uint48",
          "internalType": "uint48"
        }
      ],
      "stateMutability": "view"
    },
    {
      "type": "function",
      "name": "getOperatingAddressAt",
      "inputs": [
        {
          "name": "operator",
          "type": "address",
          "internalType": "address"
        },
        {
          "name": "timestamp",
          "type": "uint48",
          "internalType": "uint48"
        }
      ],
      "outputs": [
        {
          "name": "",
          "type": "address",
          "internalType": "address"
        }
      ],
      "stateMutability": "view"
    },
    {
      "type": "function",
      "name": "getOperatorAllTokenStakes",
      "inputs": [
        {
          "name": "operator",
          "type": "address",
          "internalType": "address"
        },
        {
          "name": "epoch",
          "type": "uint48",
          "internalType": "uint48"
        }
      ],
      "outputs": [
        {
          "name": "tokenStakes",
          "type": "tuple[]",
          "internalType": "struct IValidationServiceManager.StakeInfo[]",
          "components": [
            {
              "name": "token",
              "type": "address",
              "internalType": "address"
            },
            {
              "name": "stakeAmount",
              "type": "uint256",
              "internalType": "uint256"
            }
          ]
        }
      ],
      "stateMutability": "view"
    },
    {
      "type": "function",
      "name": "getOperatorInfos",
      "inputs": [
        {
          "name": "epoch",
          "type": "uint48",
          "internalType": "uint48"
        }
      ],
      "outputs": [
        {
          "name": "operatorInfos",
          "type": "tuple[]",
          "internalType": "struct IValidationServiceManager.OperatorInfo[]",
          "components": [
            {
              "name": "operator",
              "type": "address",
              "internalType": "address"
            },
            {
              "name": "operating",
              "type": "address",
              "internalType": "address"
            },
            {
              "name": "stakeInfos",
              "type": "tuple[]",
              "internalType": "struct IValidationServiceManager.StakeInfo[]",
              "components": [
                {
                  "name": "token",
                  "type": "address",
                  "internalType": "address"
                },
                {
                  "name": "stakeAmount",
                  "type": "uint256",
                  "internalType": "uint256"
                }
              ]
            }
          ]
        }
      ],
      "stateMutability": "view"
    },
    {
      "type": "function",
      "name": "getOperatorTokenStake",
      "inputs": [
        {
          "name": "operator",
          "type": "address",
          "internalType": "address"
        },
        {
          "name": "token",
          "type": "address",
          "internalType": "address"
        },
        {
          "name": "epoch",
          "type": "uint48",
          "internalType": "uint48"
        }
      ],
      "outputs": [
        {
          "name": "stakeAmount",
          "type": "uint256",
          "internalType": "uint256"
        }
      ],
      "stateMutability": "view"
    },
    {
      "type": "function",
      "name": "getOperatorWithOperatingAddress",
      "inputs": [
        {
          "name": "operating",
          "type": "address",
          "internalType": "address"
        }
      ],
      "outputs": [
        {
          "name": "",
          "type": "address",
          "internalType": "address"
        }
      ],
      "stateMutability": "view"
    },
    {
      "type": "function",
      "name": "getSubnetwork",
      "inputs": [
        {
          "name": "index",
          "type": "uint96",
          "internalType": "uint96"
        }
      ],
      "outputs": [
        {
          "name": "",
          "type": "bytes32",
          "internalType": "bytes32"
        }
      ],
      "stateMutability": "view"
    },
    {
      "type": "function",
      "name": "getTokenAddress",
      "inputs": [
        {
          "name": "collateralOrToken",
          "type": "address",
          "internalType": "address"
        }
      ],
      "outputs": [
        {
          "name": "",
          "type": "address",
          "internalType": "address"
        }
      ],
      "stateMutability": "view"
    },
    {
      "type": "function",
      "name": "getTokenTotalStake",
      "inputs": [
        {
          "name": "token",
          "type": "address",
          "internalType": "address"
        },
        {
          "name": "epoch",
          "type": "uint48",
          "internalType": "uint48"
        }
      ],
      "outputs": [
        {
          "name": "totalStakeAmount",
          "type": "uint256",
          "internalType": "uint256"
        }
      ],
      "stateMutability": "view"
    },
    {
      "type": "function",
      "name": "getTokens",
      "inputs": [
        {
          "name": "epoch",
          "type": "uint48",
          "internalType": "uint48"
        }
      ],
      "outputs": [
        {
          "name": "",
          "type": "address[]",
          "internalType": "address[]"
        }
      ],
      "stateMutability": "view"
    },
    {
      "type": "function",
      "name": "getVaults",
      "inputs": [
        {
          "name": "epoch",
          "type": "uint48",
          "internalType": "uint48"
        }
      ],
      "outputs": [
        {
          "name": "",
          "type": "address[]",
          "internalType": "address[]"
        }
      ],
      "stateMutability": "view"
    },
    {
      "type": "function",
      "name": "isActiveToken",
      "inputs": [
        {
          "name": "token",
          "type": "address",
          "internalType": "address"
        }
      ],
      "outputs": [
        {
          "name": "",
          "type": "bool",
          "internalType": "bool"
        }
      ],
      "stateMutability": "view"
    },
    {
      "type": "function",
      "name": "isActiveVault",
      "inputs": [
        {
          "name": "vault",
          "type": "address",
          "internalType": "address"
        }
      ],
      "outputs": [
        {
          "name": "",
          "type": "bool",
          "internalType": "bool"
        }
      ],
      "stateMutability": "view"
    },
    {
      "type": "function",
      "name": "minimumStakingAmounts",
      "inputs": [
        {
          "name": "",
          "type": "address",
          "internalType": "address"
        }
      ],
      "outputs": [
        {
          "name": "",
          "type": "uint256",
          "internalType": "uint256"
        }
      ],
      "stateMutability": "view"
    },
    {
      "type": "function",
      "name": "operatorStakeInfoCache",
      "inputs": [
        {
          "name": "",
          "type": "uint48",
          "internalType": "uint48"
        },
        {
          "name": "",
          "type": "address",
          "internalType": "address"
        },
        {
          "name": "",
          "type": "address",
          "internalType": "address"
        }
      ],
      "outputs": [
        {
          "name": "",
          "type": "uint256",
          "internalType": "uint256"
        }
      ],
      "stateMutability": "view"
    },
    {
      "type": "function",
      "name": "owner",
      "inputs": [],
      "outputs": [
        {
          "name": "",
          "type": "address",
          "internalType": "address"
        }
      ],
      "stateMutability": "view"
    },
    {
      "type": "function",
      "name": "pauseOperator",
      "inputs": [
        {
          "name": "operator",
          "type": "address",
          "internalType": "address"
        }
      ],
      "outputs": [],
      "stateMutability": "nonpayable"
    },
    {
      "type": "function",
      "name": "pauseToken",
      "inputs": [
        {
          "name": "token",
          "type": "address",
          "internalType": "address"
        }
      ],
      "outputs": [],
      "stateMutability": "nonpayable"
    },
    {
      "type": "function",
      "name": "pauseVault",
      "inputs": [
        {
          "name": "vault",
          "type": "address",
          "internalType": "address"
        }
      ],
      "outputs": [],
      "stateMutability": "nonpayable"
    },
    {
      "type": "function",
      "name": "registerOperator",
      "inputs": [
        {
          "name": "operator",
          "type": "address",
          "internalType": "address"
        },
        {
          "name": "operating",
          "type": "address",
          "internalType": "address"
        }
      ],
      "outputs": [],
      "stateMutability": "nonpayable"
    },
    {
      "type": "function",
      "name": "registerToken",
      "inputs": [
        {
          "name": "token",
          "type": "address",
          "internalType": "address"
        }
      ],
      "outputs": [],
      "stateMutability": "nonpayable"
    },
    {
      "type": "function",
      "name": "registerVault",
      "inputs": [
        {
          "name": "vault",
          "type": "address",
          "internalType": "address"
        }
      ],
      "outputs": [],
      "stateMutability": "nonpayable"
    },
    {
      "type": "function",
      "name": "renounceOwnership",
      "inputs": [],
      "outputs": [],
      "stateMutability": "nonpayable"
    },
    {
      "type": "function",
      "name": "respondToTask",
      "inputs": [
        {
          "name": "clusterId",
          "type": "string",
          "internalType": "string"
        },
        {
          "name": "rollupId",
          "type": "string",
          "internalType": "string"
        },
        {
          "name": "referenceTaskIndex",
          "type": "uint32",
          "internalType": "uint32"
        },
        {
          "name": "response",
          "type": "bool",
          "internalType": "bool"
        }
      ],
      "outputs": [],
      "stateMutability": "nonpayable"
    },
    {
      "type": "function",
      "name": "rollupTaskInfos",
      "inputs": [
        {
          "name": "",
          "type": "string",
          "internalType": "string"
        }
      ],
      "outputs": [
        {
          "name": "latestTaskNumber",
          "type": "uint256",
          "internalType": "uint256"
        }
      ],
      "stateMutability": "view"
    },
    {
      "type": "function",
      "name": "setMinimumStakingAmount",
      "inputs": [
        {
          "name": "token",
          "type": "address",
          "internalType": "address"
        },
        {
          "name": "amount",
          "type": "uint256",
          "internalType": "uint256"
        }
      ],
      "outputs": [],
      "stateMutability": "nonpayable"
    },
    {
      "type": "function",
      "name": "setSubnetworkCount",
      "inputs": [
        {
          "name": "_subnetworkCount",
          "type": "uint256",
          "internalType": "uint256"
        }
      ],
      "outputs": [],
      "stateMutability": "nonpayable"
    },
    {
      "type": "function",
      "name": "subnetworkCount",
      "inputs": [],
      "outputs": [
        {
          "name": "",
          "type": "uint256",
          "internalType": "uint256"
        }
      ],
      "stateMutability": "view"
    },
    {
      "type": "function",
      "name": "tokenTotalStakeCache",
      "inputs": [
        {
          "name": "",
          "type": "uint48",
          "internalType": "uint48"
        },
        {
          "name": "",
          "type": "address",
          "internalType": "address"
        }
      ],
      "outputs": [
        {
          "name": "",
          "type": "uint256",
          "internalType": "uint256"
        }
      ],
      "stateMutability": "view"
    },
    {
      "type": "function",
      "name": "totalStakeCached",
      "inputs": [
        {
          "name": "",
          "type": "uint48",
          "internalType": "uint48"
        }
      ],
      "outputs": [
        {
          "name": "",
          "type": "bool",
          "internalType": "bool"
        }
      ],
      "stateMutability": "view"
    },
    {
      "type": "function",
      "name": "transferOwnership",
      "inputs": [
        {
          "name": "newOwner",
          "type": "address",
          "internalType": "address"
        }
      ],
      "outputs": [],
      "stateMutability": "nonpayable"
    },
    {
      "type": "function",
      "name": "unpauseOperator",
      "inputs": [
        {
          "name": "operator",
          "type": "address",
          "internalType": "address"
        }
      ],
      "outputs": [],
      "stateMutability": "nonpayable"
    },
    {
      "type": "function",
      "name": "unpauseToken",
      "inputs": [
        {
          "name": "token",
          "type": "address",
          "internalType": "address"
        }
      ],
      "outputs": [],
      "stateMutability": "nonpayable"
    },
    {
      "type": "function",
      "name": "unpauseVault",
      "inputs": [
        {
          "name": "vault",
          "type": "address",
          "internalType": "address"
        }
      ],
      "outputs": [],
      "stateMutability": "nonpayable"
    },
    {
      "type": "function",
      "name": "unregisterOperator",
      "inputs": [
        {
          "name": "operator",
          "type": "address",
          "internalType": "address"
        }
      ],
      "outputs": [],
      "stateMutability": "nonpayable"
    },
    {
      "type": "function",
      "name": "unregisterToken",
      "inputs": [
        {
          "name": "token",
          "type": "address",
          "internalType": "address"
        }
      ],
      "outputs": [],
      "stateMutability": "nonpayable"
    },
    {
      "type": "function",
      "name": "unregisterVault",
      "inputs": [
        {
          "name": "vault",
          "type": "address",
          "internalType": "address"
        }
      ],
      "outputs": [],
      "stateMutability": "nonpayable"
    },
    {
      "type": "function",
      "name": "updateOperatingAddress",
      "inputs": [
        {
          "name": "operator",
          "type": "address",
          "internalType": "address"
        },
        {
          "name": "operating",
          "type": "address",
          "internalType": "address"
        }
      ],
      "outputs": [],
      "stateMutability": "nonpayable"
    },
    {
      "type": "event",
      "name": "NewTaskCreated",
      "inputs": [
        {
          "name": "clusterId",
          "type": "string",
          "indexed": false,
          "internalType": "string"
        },
        {
          "name": "rollupId",
          "type": "string",
          "indexed": false,
          "internalType": "string"
        },
        {
          "name": "referenceTaskIndex",
          "type": "uint256",
          "indexed": false,
          "internalType": "uint256"
        },
        {
          "name": "blockNumber",
          "type": "uint256",
          "indexed": false,
          "internalType": "uint256"
        },
        {
          "name": "blockCommitment",
          "type": "bytes32",
          "indexed": false,
          "internalType": "bytes32"
        }
      ],
      "anonymous": false
    },
    {
      "type": "event",
      "name": "OwnershipTransferred",
      "inputs": [
        {
          "name": "previousOwner",
          "type": "address",
          "indexed": true,
          "internalType": "address"
        },
        {
          "name": "newOwner",
          "type": "address",
          "indexed": true,
          "internalType": "address"
        }
      ],
      "anonymous": false
    },
    {
      "type": "event",
      "name": "RegisterOperator",
      "inputs": [
        {
          "name": "operator",
          "type": "address",
          "indexed": false,
          "internalType": "address"
        },
        {
          "name": "operatingAddress",
          "type": "address",
          "indexed": false,
          "internalType": "address"
        }
      ],
      "anonymous": false
    },
    {
      "type": "event",
      "name": "RegisterToken",
      "inputs": [
        {
          "name": "token",
          "type": "address",
          "indexed": false,
          "internalType": "address"
        }
      ],
      "anonymous": false
    },
    {
      "type": "event",
      "name": "RegisterVault",
      "inputs": [
        {
          "name": "vault",
          "type": "address",
          "indexed": false,
          "internalType": "address"
        }
      ],
      "anonymous": false
    },
    {
      "type": "event",
      "name": "SetMinimumStakeAmount",
      "inputs": [
        {
          "name": "token",
          "type": "address",
          "indexed": false,
          "internalType": "address"
        },
        {
          "name": "minimumStakeAmount",
          "type": "uint256",
          "indexed": false,
          "internalType": "uint256"
        }
      ],
      "anonymous": false
    },
    {
      "type": "event",
      "name": "TaskResponded",
      "inputs": [
        {
          "name": "clusterId",
          "type": "string",
          "indexed": false,
          "internalType": "string"
        },
        {
          "name": "rollupId",
          "type": "string",
          "indexed": false,
          "internalType": "string"
        },
        {
          "name": "referenceTaskIndex",
          "type": "uint256",
          "indexed": false,
          "internalType": "uint256"
        },
        {
          "name": "response",
          "type": "bool",
          "indexed": false,
          "internalType": "bool"
        }
      ],
      "anonymous": false
    },
    {
      "type": "event",
      "name": "UnregisterOperator",
      "inputs": [
        {
          "name": "operator",
          "type": "address",
          "indexed": false,
          "internalType": "address"
        }
      ],
      "anonymous": false
    },
    {
      "type": "event",
      "name": "UnregisterToken",
      "inputs": [
        {
          "name": "token",
          "type": "address",
          "indexed": false,
          "internalType": "address"
        }
      ],
      "anonymous": false
    },
    {
      "type": "event",
      "name": "UnregisterVault",
      "inputs": [
        {
          "name": "vault",
          "type": "address",
          "indexed": false,
          "internalType": "address"
        }
      ],
      "anonymous": false
    },
    {
      "type": "event",
      "name": "UpdateOperatingAddress",
      "inputs": [
        {
          "name": "operator",
          "type": "address",
          "indexed": false,
          "internalType": "address"
        },
        {
          "name": "operatingAddress",
          "type": "address",
          "indexed": false,
          "internalType": "address"
        }
      ],
      "anonymous": false
    },
    {
      "type": "error",
      "name": "AlreadyAdded",
      "inputs": []
    },
    {
      "type": "error",
      "name": "AlreadyEnabled",
      "inputs": []
    },
    {
      "type": "error",
      "name": "CheckpointUnorderedInsertion",
      "inputs": []
    },
    {
      "type": "error",
      "name": "DuplicateOperatingAddress",
      "inputs": []
    },
    {
      "type": "error",
      "name": "EnumerableMapNonexistentKey",
      "inputs": [
        {
          "name": "key",
          "type": "bytes32",
          "internalType": "bytes32"
        }
      ]
    },
    {
      "type": "error",
      "name": "InvalidEpoch",
      "inputs": []
    },
    {
      "type": "error",
      "name": "InvalidSubnetworkCount",
      "inputs": []
    },
    {
      "type": "error",
      "name": "NotEnabled",
      "inputs": []
    },
    {
      "type": "error",
      "name": "OperatorAlreadyRegistered",
      "inputs": []
    },
    {
      "type": "error",
      "name": "OperatorGracePeriodNotPassed",
      "inputs": []
    },
    {
      "type": "error",
      "name": "OperatorNotActive",
      "inputs": []
    },
    {
      "type": "error",
      "name": "OperatorNotOptedIn",
      "inputs": []
    },
    {
      "type": "error",
      "name": "OperatorNotRegistered",
      "inputs": []
    },
    {
      "type": "error",
      "name": "OwnableInvalidOwner",
      "inputs": [
        {
          "name": "owner",
          "type": "address",
          "internalType": "address"
        }
      ]
    },
    {
      "type": "error",
      "name": "OwnableUnauthorizedAccount",
      "inputs": [
        {
          "name": "account",
          "type": "address",
          "internalType": "address"
        }
      ]
    },
    {
      "type": "error",
      "name": "SafeCastOverflowedUintDowncast",
      "inputs": [
        {
          "name": "bits",
          "type": "uint8",
          "internalType": "uint8"
        },
        {
          "name": "value",
          "type": "uint256",
          "internalType": "uint256"
        }
      ]
    },
    {
      "type": "error",
      "name": "TokenAlreadyRegistered",
      "inputs": []
    },
    {
      "type": "error",
      "name": "TokenGracePeriodNotPassed",
      "inputs": []
    },
    {
      "type": "error",
      "name": "TokenNotWhitelisted",
      "inputs": []
    },
    {
      "type": "error",
      "name": "VaultAlreadyRegistered",
      "inputs": []
    },
    {
      "type": "error",
      "name": "VaultEpochTooShort",
      "inputs": []
    },
    {
      "type": "error",
      "name": "VaultGracePeriodNotPassed",
      "inputs": []
    },
    {
      "type": "error",
      "name": "VaultNotRegisteredInSymbiotic",
      "inputs": []
    }
  ],
  "bytecode": {
    "object": "0x6101203461019457601f613b4f38819003918201601f19168301916001600160401b038311848410176101995780849260809460405283398101031261019457610048816101af565b90610055602082016101af565b6060610063604084016101af565b9201519265ffffffffffff808516850361019457331561017b5760008054336001600160a01b03198216811783556040519290916001600160a01b0316907f8be0079c531659141344cd1fd0a4f28419497f9722a3daafe3b4186f6b6457e09080a381421161015f5750421660e05260805260c05260a052610100908152600160055560405161398b91826101c4833960805182818161145401528181611a2601528181611b060152612d18015260a051828181610d620152611b38015260c0518281816103ad0152610e68015260e051828181611cbe01528181611e0701526125d50152518181816117ee01528181611dd801526126030152f35b6306dfcc6560e41b815260306004820152426024820152604490fd5b604051631e4fbdf760e01b815260006004820152602490fd5b600080fd5b634e487b7160e01b600052604160045260246000fd5b51906001600160a01b03821682036101945756fe6080604052600436101561001257600080fd5b60003560e01c806302ace7fe1461039757806309824a80146103925780630d8285d21461038d57806311369f0f14610388578063173c3aef14610383578063179e32961461037e5780631c64c7ea14610379578063212c9c0e14610374578063235d87ab1461036f5780632633b70f1461036a57806327d74756146103655780632e5aaf33146103605780632efbab2c1461035b57806332a90e1b1461035657806339011ab8146103515780633a0035101461034c5780633b3bff0f1461034757806341df02f9146103425780634719eff81461033d57806349a6f99114610338578063575c51c2146103335780635f3ace691461032e5780636383eeb71461032957806366873c6e1461032457806367ccd1cb1461031f578063715018a61461031a57806372f9adab1461031557806377329af81461031057806377860cdd1461030b5780637c41ad2c146103065780637faffcdd1461030157806383f582b7146102fc5780638759e6d1146102f75780638da5cb5b146102f257806396115bc2146102ed5780639d94a1e3146102e85780639eea016c146102e3578063a70b9f0c146102de578063ab4e0a41146102d9578063b29331c4146102d4578063b6631df5146102cf578063b8d7b669146102ca578063b97dd9e2146102c5578063bf043a3b146102c0578063c0bd6f9e146102bb578063c1a05c58146102b6578063c3265f0f146102b1578063c974326b146102ac578063cc77828d146102a7578063cd5f3c30146102a2578063ce49f3611461029d578063d564ec0814610298578063dbdbe0a414610293578063ddaa26ad1461028e578063e3111cda146102895763f2fde38b1461028457600080fd5b611d2a565b611ce2565b611c9f565b611c3a565b611c13565b611ab3565b611a90565b611a6d565b611a4f565b6119e6565b6119a9565b61191a565b6118f3565b6118d4565b6118ad565b61186b565b611841565b611812565b6117cf565b6115ef565b6115d1565b6114ac565b611483565b61143e565b611400565b6113dd565b61134e565b6112bb565b611119565b611040565b610fe2565b610df0565b610d91565b610d4c565b610cdb565b610cb4565b610c90565b610c6d565b610c2e565b610c01565b610bdc565b610b63565b610a4d565b610a20565b6109f1565b6109c1565b610852565b610821565b6106bb565b610656565b610619565b610592565b61051a565b6104af565b6103f2565b346103dc5760003660031901126103dc576040517f00000000000000000000000000000000000000000000000000000000000000006001600160a01b03168152602090f35b600080fd5b6001600160a01b038116036103dc57565b346103dc5760203660031901126103dc5760043561040f816103e1565b610417612e5e565b6001600160a01b0381166000818152600a602052604090205490919061049d5781600052600b6020526000604081205561045082613802565b1561048b577ff7fe8023cb2e36bde1d59a88ac5763a8c11be6d25e6819f71bb7e23e5bf0dc1691610482602092612ed3565b604051908152a1005b60405163f411c32760e01b8152600490fd5b604051633ea7ffd960e11b8152600490fd5b346103dc5760203660031901126103dc5760206104e86004356104d1816103e1565b6104e26104dd426132b7565b6125c9565b90612819565b604051908152f35b6004359065ffffffffffff821682036103dc57565b6024359065ffffffffffff821682036103dc57565b346103dc5760203660031901126103dc57602061053d6105386104f0565b611dcc565b65ffffffffffff60405191168152f35b602090602060408183019282815285518094520193019160005b828110610575575050505090565b83516001600160a01b031685529381019392810192600101610567565b346103dc5760203660031901126103dc576105c26105b66105b16104f0565b611ebf565b6040519182918261054d565b0390f35b602090602060408183019282815285518094520193019160005b8281106105ee575050505090565b835180516001600160a01b0316865260209081015190860152604090940193928101926001016105e0565b346103dc5760403660031901126103dc576105c261064a60043561063c816103e1565b610644610505565b90611fa0565b604051918291826105c6565b346103dc5760203660031901126103dc57600435610672612e5e565b80600554101561068157600555005b60405163272cbfd960e11b8152600490fd5b60409060031901126103dc576004356106ab816103e1565b906024356106b8816103e1565b90565b346103dc576106c936610693565b906106d2612e5e565b60018060a01b0391828216916106f5836000526010602052604060002054151590565b1561080f57600093808316855260026020526040852054166107fd576107d07fc46cbd8bc8f11d2c21a5664957481bd71570773af20cb53ebd1a91a5e12cf88c9361073f83612a0b565b90865260016020526107938461077461075a60408a206131be565b6001600160d01b0316600090815260036020526040902090565b80546001600160a01b0319166001600160a01b03909216919091179055565b6001600160a01b03841660009081526002602052604090206107b6908490610774565b6001600160a01b0316600090815260026020526040902090565b80546001600160a01b0319169055604080516001600160a01b03928316815292909116602083015290a180f35b604051637b64317b60e01b8152600490fd5b6040516325ec6c1f60e01b8152600490fd5b346103dc5760203660031901126103dc576020610848600435610843816103e1565b612107565b6040519015158152f35b346103dc5760203660031901126103dc5760043561086f816103e1565b610877612e5e565b65ffffffffffff61088782613166565b905016156108dd5760207f87959c3c7654d20b2d42011ac741ae4d7722f97dd4e8ffda70d9874c82be49ec9160018060a01b031680600052600e8252600060408120556108d381613651565b50604051908152a1005b6040516347a11ef760e11b8152600490fd5b6020808201908083528351809252604092604081018260408560051b840101960194600080935b86851061092857505050505050505090565b909192939480969798603f198382030186528951826080606093888582019460018060a01b038082511684528582015116858401520151948982015284518094520192019085905b8082106109915750505090806001929a019501950193969594929190610916565b825180516001600160a01b03168552602090810151908501528a9460409094019390920191600190910190610970565b346103dc5760203660031901126103dc576105c26109e56109e06104f0565b61214d565b604051918291826108ef565b346103dc5760203660031901126103dc57610a1e600435610a11816103e1565b610a19612e5e565b612f46565b005b346103dc5760203660031901126103dc57610a1e600435610a40816103e1565b610a48612e5e565b612fa4565b346103dc5760203660031901126103dc576105c26105b6610a6c6104f0565b612276565b634e487b7160e01b600052604160045260246000fd5b6060810190811067ffffffffffffffff821117610aa357604052565b610a71565b90601f8019910116810190811067ffffffffffffffff821117610aa357604052565b604051906040820182811067ffffffffffffffff821117610aa357604052565b60405190610af782610a87565b565b92919267ffffffffffffffff8211610aa35760405191610b23601f8201601f191660200184610aa8565b8294818452818301116103dc578281602093846000960137010152565b60005b838110610b535750506000910152565b8181015183820152602001610b43565b346103dc5760203660031901126103dc5760043567ffffffffffffffff81116103dc57366023820112156103dc57610bc06020610bad6105c2933690602481600401359101610af9565b8160405193828580945193849201610b40565b8101601281520301902054604051918291829190602083019252565b346103dc5760206104e8610bef36610693565b610bfb6104dd426132b7565b91612c09565b346103dc5760203660031901126103dc57610a1e600435610c21816103e1565b610c29612e5e565b612ed3565b346103dc5760203660031901126103dc576020600435610c4d816103e1565b60018060a01b038091166000526002825260406000205416604051908152f35b346103dc5760003660031901126103dc576105c26105b6610a6c6104dd426132b7565b346103dc5760203660031901126103dc576105c261064a610caf6104f0565b6122f1565b346103dc5760203660031901126103dc576020610848600435610cd6816103e1565b612495565b346103dc5760403660031901126103dc577f58e6ea22e6b7a1505dc8727e6ea3466aea10cae34bd0cc66d2a22f54c8792de66040600435610d1b816103e1565b60243590610d27612e5e565b60018060a01b03169081600052601360205280836000205582519182526020820152a1005b346103dc5760003660031901126103dc576040517f00000000000000000000000000000000000000000000000000000000000000006001600160a01b03168152602090f35b346103dc5760403660031901126103dc576020610de7610daf6104f0565b65ffffffffffff60243591610dc3836103e1565b166000526007835260406000209060018060a01b0316600052602052604060002090565b54604051908152f35b346103dc576020806003193601126103dc576004803591610e10836103e1565b610e18612e5e565b6001600160a01b038381166000818152600d6020526040902054909190610fd1576040516302910f8b60e31b81526001600160a01b038616858201908152909184918391908290819060200103917f0000000000000000000000000000000000000000000000000000000000000000165afa908115610f8e57600091610fa4575b5015610f93578183916040519283809263d8dfeb4560e01b82525afa918215610f8e57610ef892610ef492610ed792600092610f61575b50506129b9565b6001600160a01b03166000908152600a6020526040902054151590565b1590565b610f52577f468adcfd40030ef2c9e5a66d79b4a16eac33fa50faab1226dbf838ddd82d9853610f4d83610f2a81612e8a565b610f3381612fa4565b6040516001600160a01b0390911681529081906020820190565b0390a1005b6040516307c241ad60e51b8152fd5b610f809250803d10610f87575b610f788183610aa8565b8101906124f0565b3880610ed0565b503d610f6e565b6124e4565b604051634ba0b1df60e01b81528390fd5b610fc49150833d8511610fca575b610fbc8183610aa8565b8101906124cf565b38610e99565b503d610fb2565b6040516324ec133760e11b81528490fd5b346103dc5760008060031936011261103d57610ffc612e5e565b80546001600160a01b03198116825581906001600160a01b03167f8be0079c531659141344cd1fd0a4f28419497f9722a3daafe3b4186f6b6457e08280a380f35b80fd5b346103dc5760203660031901126103dc5760043561105d816103e1565b611065612e5e565b6001600160a01b0316611077816132e9565b9065ffffffffffff808316159081156110d2575b506110c057610a1e9165ffffffffffff60301b6110a7426132b7565b60301b1617816000526011602052604060002055613873565b604051633f54562b60e11b8152600490fd5b90508260301c1615153861108b565b9181601f840112156103dc5782359167ffffffffffffffff83116103dc57602083818601950101116103dc57565b801515036103dc57565b346103dc5760803660031901126103dc5767ffffffffffffffff6004358181116103dc5761114b9036906004016110e1565b90916024359081116103dc576111659036906004016110e1565b929060443563ffffffff811681036103dc57606435906111848261110f565b61119a600161119233612a56565b151514612505565b60ff6111ea826111d56040518a88823760038b82019160128352602081339403019020019060018060a01b0316600052602052604060002090565b9063ffffffff16600052602052604060002090565b5416611263577f15f09ac3be4dd510cf733b625bc167cb7ddc800a47db359e81bbb1aaf8d4411a95610f4d9361125784611246856111d533600361122e8989612551565b019060018060a01b0316600052602052604060002090565b9060ff801983541691151516179055565b6040519687968761258b565b60405162461bcd60e51b815260206004820152602a60248201527f4f70657261746f722068617320616c726561647920726573706f6e64656420746044820152696f20746865207461736b60b01b6064820152608490fd5b346103dc5760203660031901126103dc576004356112d8816103e1565b6112e0612e5e565b65ffffffffffff6112f08261318b565b9050161561133c5760207fca2a890939276223a9122217752c67608466faee388aff53f077d00a186a389b9160018060a01b031680600052600b8252600060408120556108d3816136f6565b60405163a53697ff60e01b8152600490fd5b346103dc5760203660031901126103dc5760043561136b816103e1565b611373612e5e565b6001600160a01b031661138581613333565b9065ffffffffffff808316159081156113ce575b506110c057610a1e9165ffffffffffff60301b6113b5426132b7565b60301b161781600052600b602052604060002055613802565b90508260301c16151538611399565b346103dc5760003660031901126103dc576105c26109e56109e06104dd426132b7565b346103dc5760203660031901126103dc5765ffffffffffff6114206104f0565b166000526006602052602060ff604060002054166040519015158152f35b346103dc5760003660031901126103dc576040517f00000000000000000000000000000000000000000000000000000000000000006001600160a01b03168152602090f35b346103dc5760003660031901126103dc576000546040516001600160a01b039091168152602090f35b346103dc576020806003193601126103dc576004356114ca816103e1565b6114d2612e5e565b65ffffffffffff6114e28261319d565b905016156115bf576001600160a01b03818116600081815260118552604080822082905594909390926115148361377c565b508480526002845285852054166115ae5793846115a06115557fd1b48d1e49885298af5dc8adc7777836ef804b38af88eabf4e079c04ee1538a79697612a0b565b848852600186526107b661156d61075a868b206131be565b80546001600160a01b031990811690915589805260028852858a20805482166001600160a01b0390961695909517909455565b90815416905551908152a180f35b8451637b64317b60e01b8152600490fd5b60405163f1c9810160e01b8152600490fd5b346103dc5760203660031901126103dc57602061053d6104dd6104f0565b346103dc5760803660031901126103dc5767ffffffffffffffff6004358181116103dc576116219036906004016110e1565b916024359081116103dc5761163a9036906004016110e1565b9290916116496104dd426132b7565b9360009365ffffffffffff86168552600660205260ff60408620541615611681575b61167e9495506064359360443593612723565b80f35b61168a86611dcc565b6116938161329c565b600f549060095491875b818110611759575050865b8281106116ea575050506116e26116d561167e969765ffffffffffff166000526006602052604060002090565b805460ff19166001179055565b85945061166b565b8082611706610ef46116fd600195613002565b90949194613110565b6117535761174b6117178c83612819565b916117348d65ffffffffffff166000526007602052604060002090565b9060018060a01b0316600052602052604060002090565b555b016116a8565b5061174d565b82611769610ef46116fd8461305c565b6117c657895b8581106117825750506001905b0161169d565b808c6117bf84611734611796600196613002565b50506117346117a68c8386612c09565b9565ffffffffffff166000526008602052604060002090565b550161176f565b5060019061177c565b346103dc5760003660031901126103dc57602060405165ffffffffffff7f0000000000000000000000000000000000000000000000000000000000000000168152f35b346103dc5760203660031901126103dc576105c261064a600435611835816103e1565b6106446104dd426132b7565b346103dc5760403660031901126103dc5760206104e8600435611863816103e1565b6104e2610505565b346103dc5760403660031901126103dc57602061189b60043561188d816103e1565b611895610505565b906128c5565b6040516001600160a01b039091168152f35b346103dc5760203660031901126103dc57602061189b6004356118cf816103e1565b6129b9565b346103dc5760003660031901126103dc57602061053d6104dd426132b7565b346103dc5760203660031901126103dc57602061189b600435611915816103e1565b612a0b565b346103dc5760203660031901126103dc57600435611937816103e1565b61193f612e5e565b6001600160a01b031661195181613364565b9065ffffffffffff8083161590811561199a575b506110c057610a1e9165ffffffffffff60301b611981426132b7565b60301b161781600052600e6020526040600020556138e4565b90508260301c16151538611965565b346103dc5760203660031901126103dc576004356119c6816103e1565b60018060a01b031660005260136020526020604060002054604051908152f35b346103dc5760203660031901126103dc576004356001600160601b03811681036103dc576020906001600160601b03166bffffffffffffffffffffffff197f000000000000000000000000000000000000000000000000000000000000000060601b16176104e8565b346103dc5760003660031901126103dc576020600554604051908152f35b346103dc5760003660031901126103dc576105c26105b66105b16104dd426132b7565b346103dc5760003660031901126103dc576105c261064a610caf6104dd426132b7565b346103dc57611ac136610693565b611ac9612e5e565b6001600160a01b03828116600090815260106020526040902054611c01576040516308834cb560e21b81526001600160a01b0384811660048301527f000000000000000000000000000000000000000000000000000000000000000016602482015290602090829060449082907f0000000000000000000000000000000000000000000000000000000000000000165afa908115610f8e57600091611be2575b5015611bd05781611b9b827f6b79465d2d89e9355c00340dada48ce0cd05e807af465c48faed547fce4b5a70946131ea565b611ba481612eb2565b611bad81612f46565b604080516001600160a01b03928316815292909116602083015281908101610f4d565b604051634d1cc09f60e11b8152600490fd5b611bfb915060203d602011610fca57610fbc8183610aa8565b38611b69565b6040516342ee68b560e01b8152600490fd5b346103dc5760203660031901126103dc576020610848600435611c35816103e1565b612a56565b346103dc5760603660031901126103dc576020610de7611c586104f0565b611734602435611c67816103e1565b65ffffffffffff60443593611c7b856103e1565b166000526008855260406000209060018060a01b0316600052602052604060002090565b346103dc5760003660031901126103dc57602060405165ffffffffffff7f0000000000000000000000000000000000000000000000000000000000000000168152f35b346103dc5760603660031901126103dc57600435611cff816103e1565b60243590611d0c826103e1565b60443565ffffffffffff811681036103dc576020926104e892612c09565b346103dc5760203660031901126103dc57600435611d47816103e1565b611d4f612e5e565b6001600160a01b039081168015611d9d57600080546001600160a01b03198116831782559092167f8be0079c531659141344cd1fd0a4f28419497f9722a3daafe3b4186f6b6457e08380a380f35b604051631e4fbdf760e01b815260006004820152602490fd5b634e487b7160e01b600052601160045260246000fd5b65ffffffffffff9081167f0000000000000000000000000000000000000000000000000000000000000000821602808216908103611e3257817f00000000000000000000000000000000000000000000000000000000000000001601908111611e325790565b611db6565b67ffffffffffffffff8111610aa35760051b60200190565b90611e5982611e37565b611e666040519182610aa8565b8281528092611e77601f1991611e37565b0190602036910137565b6000198114611e325760010190565b634e487b7160e01b600052603260045260246000fd5b8051821015611eba5760209160051b010190565b611e90565b611ec890611dcc565b600954611ed481611e4f565b916000805b838110611ee7575050505090565b8083611f00611ef7600194613002565b90939193613110565b15611f2957611f18611f1185611e81565b9488611ea6565b90838060a01b031690525b01611ed9565b50611f23565b90611f3982611e37565b6040611f486040519283610aa8565b8382528193611f59601f1991611e37565b01906000805b838110611f6d575050505050565b8251908382019180831067ffffffffffffffff841117610aa3576020928552838152828481830152828801015201611f5f565b9190611fc8611fc18265ffffffffffff166000526006602052604060002090565b5460ff1690565b61207857611fd590611dcc565b60095492611fe284611f2f565b93600091825b828110611ff757505050835250565b849293612012610ef461200984613002565b90999199613110565b61206e5790612062600192612028868987612c09565b612042612033610aca565b6001600160a01b03909a168a52565b602089015261205081611e81565b9761205b828c611ea6565b5289611ea6565b505b0193929193611fe8565b9450600190612064565b90916009549061208782611f2f565b9260005b838110612099575050505090565b806120a5600192613002565b50506120cb85611734836117348865ffffffffffff166000526008602052604060002090565b546120e66120d7610aca565b6001600160a01b039093168352565b60208201526120f58288611ea6565b526121008187611ea6565b500161208b565b6001600160a01b0381166000908152600d602052604090205415612147576106b89061214161213b6105386104dd426132b7565b91613166565b90613110565b50600090565b61215690611dcc565b90600f549161216483611e37565b6040916121746040519283610aa8565b848252601f1961218386611e37565b0160005b8181106122455750508194600093845b8281106121a5575050505052565b83956121c3610ef46121ba849795969761305c565b909a919a613110565b61223b579061222f6001926121d8858a6128c5565b6122106121e5878c611fa0565b916122006121f1610aea565b6001600160a01b03909d168d52565b6001600160a01b031660208c0152565b868a015261221d81611e81565b98612228828a611ea6565b5287611ea6565b505b0192919092612197565b9550600190612231565b602090859793955161225681610a87565b600081528260008183015260608a83015282870101520195939195612187565b61227f90611dcc565b600c5461228b81611e4f565b916000805b83811061229e575050505090565b80836122ae611ef76001946130b6565b156122d0576122bf611f1185611e81565b90838060a01b031690525b01612290565b506122ca565b9060018201809211611e3257565b91908201809211611e3257565b612310611fc18265ffffffffffff166000526006602052604060002090565b61241d5761231d81611dcc565b600954600f549161232d82611f2f565b9360005b8381106123d2575060005b84811061234b57505050505090565b8261235b610ef46116fd8461305c565b6123c95760005b8581106123755750506001905b0161233c565b808585612392610ef4612389600196613002565b90959195613110565b6123c2576123a09185612c09565b6123b960206123af848d611ea6565b51019182516122e4565b90525b01612362565b50506123bc565b5060019061236f565b806123de600192613002565b50506123fa6123eb610aca565b6001600160a01b039092168252565b6000602082015261240b8289611ea6565b526124168188611ea6565b5001612331565b60095461242981611f2f565b9160005b82811061243a5750505090565b80612446600192613002565b5050612468816117348665ffffffffffff166000526007602052604060002090565b546124746120d7610aca565b60208201526124838287611ea6565b5261248e8186611ea6565b500161242d565b6001600160a01b0381166000908152600a602052604090205415612147576106b8906121416124c96105386104dd426132b7565b9161318b565b908160209103126103dc57516106b88161110f565b6040513d6000823e3d90fd5b908160209103126103dc57516106b8816103e1565b1561250c57565b60405162461bcd60e51b815260206004820152601a60248201527f4f70657261746f72206973206e6f7420726567697374657265640000000000006044820152606490fd5b6020908260405193849283378101601281520301902090565b908060209392818452848401376000828201840152601f01601f1916010190565b949695926060946125ad6125bb9363ffffffff9560808a5260808a019161256a565b91878303602089015261256a565b951660408401521515910152565b65ffffffffffff9081807f00000000000000000000000000000000000000000000000000000000000000001691160390808211611e3257807f00000000000000000000000000000000000000000000000000000000000000001691821561262f57160490565b634e487b7160e01b600052601260045260246000fd5b604051906080820182811067ffffffffffffffff821117610aa35760405260006060838181528160208201528260408201520152565b9060209161269481518092818552858086019101610b40565b601f01601f1916010190565b60208152608060606126d66126c0855184602087015260a086019061267b565b6020860151858203601f1901604087015261267b565b93604081015182850152015191015290565b9361270660809699989794926127149460a0885260a088019161256a565b91858303602087015261256a565b95604083015260608201520152565b9293612814927f05fb4857f318ab6dbaf38b3a0aff39c9a286fad4a2fe3778d39a4069e4d06cec96929561275b600161119233612a56565b612763612645565b9161276f368989610af9565b835261277c368383610af9565b60208401528360408401528460608401526127978282612551565b54926127a38383612551565b6127ad81546122d6565b9055856127d08560016127c08787612551565b0190600052602052604060002090565b556040516127f4816127e66020820194856126a0565b03601f198101835282610aa8565b5190206128078460026127c08686612551565b55604051978897886126e8565b0390a1565b60009165ffffffffffff8116600052600660205260ff604060002054166128a0579061284482611dcc565b91600f54916000935b83851061285c57505050505090565b90919293948161286e611ef78861305c565b1561289657848461287e92612c09565b8101809111611e3257600190955b019392919061284d565b509460019061288c565b6128c192506117349065ffffffffffff166000526007602052604060002090565b5490565b6001600160a01b0316600090815260016020818152604083208054939490939285915b8483106129685750505050801560001461293e575050805b6001600160d01b0382161561293957506001600160d01b031660009081526003602052604090206106b8905b546001600160a01b031690565b905090565b6129629161294e61295b926131af565b9060005260206000200190565b5460301c90565b90612900565b9091929380841690808518841c8201809211611e325786885265ffffffffffff8083888b20015416908416106000146129a65750935b9291906128e8565b949350828101809111611e32579261299e565b6040516338d52e0f60e01b81526020816004816001600160a01b0386165afa600091816129ea575b50612939575090565b612a0491925060203d602011610f8757610f788183610aa8565b90386129e1565b6001600160a01b0390811660009081526001602052604090206001600160d01b0390612a36906131be565b168015612a4f5760005260036020526040600020541690565b5050600090565b6001600160a01b03166000908152600260205260409020612a769061292c565b6001600160a01b0381166000908152601060205260409020541561080f57612aa36105386104dd426132b7565b90612abb612ab0426132b7565b65ffffffffffff1690565b65ffffffffffff831611612b7057612ad9610ef4836121418461319d565b612b5e576000916009549160005b838110612af6575b5050505090565b82612b06610ef46116fd84613002565b612b5557612b34612b18858386612c09565b6001600160a01b03909216600090815260136020526040902090565b541115612b45576001905b01612ae7565b5050505050600138808080612aef565b50600190612b3f565b604051631a8660cb60e01b8152600490fd5b60405163d5b25b6360e01b8152600490fd5b6001600160601b03809116908114611e325760010190565b6040516020810181811067ffffffffffffffff821117610aa35760405260008152906000368137565b908160209103126103dc575190565b9081526001600160a01b03909116602082015265ffffffffffff90911660408201526080606082018190526106b89291019061267b565b600092612c2b611fc18265ffffffffffff166000526006602052604060002090565b612e3857612c3b90929192611dcc565b91600c5492600092600554935b858110612c585750505050505090565b612c61816130b6565b60405163d8dfeb4560e01b8152916020836004816001600160a01b0388165afa928315610f8e578793612c9c91600091612e19575b506129b9565b6001600160a01b03878116911603612e0d5791610ef491612cbc93613110565b612e04576000905b866001600160601b03831610612ce05750506001905b01612c48565b604051630ce9b79360e41b8152919890916020816004816001600160a01b0387165afa908115610f8e57600091612de5575b506020867f000000000000000000000000000000000000000000000000000000000000000060601b6bffffffffffffffffffffffff19166001600160601b038d16179289612d5e612b9a565b94612d7f6040519687958694859463e02f693760e01b865260048601612bd2565b03916001600160a01b03165afa8015610f8e57612dae92612da892600092612db4575b506122e4565b98612b82565b90612cc4565b612dd791925060203d602011612dde575b612dcf8183610aa8565b810190612bc3565b9038612da2565b503d612dc5565b612dfe915060203d602011610f8757610f788183610aa8565b38612d12565b50600190612cda565b50505050600190612cda565b612e32915060203d602011610f8757610f788183610aa8565b38612c96565b6128c1935091611734611734929365ffffffffffff166000526008602052604060002090565b6000546001600160a01b03163303612e7257565b60405163118cdaa760e01b8152336004820152602490fd5b6001600160a01b03166000818152600e6020526040812055612eab906138e4565b1561048b57565b6001600160a01b0316600081815260116020526040812055612eab90613873565b6001600160a01b0316612ee581613333565b9065ffffffffffff918280821615159182612f38575b5050612f2657612f2391612f0e426132b7565b1681600052600b602052604060002055613802565b50565b604051637952fbad60e11b8152600490fd5b60301c161590508238612efb565b6001600160a01b0316612f58816132e9565b9065ffffffffffff918280821615159182612f96575b5050612f2657612f2391612f81426132b7565b16816000526011602052604060002055613873565b60301c161590508238612f6e565b6001600160a01b0316612fb681613364565b9065ffffffffffff918280821615159182612ff4575b5050612f2657612f2391612fdf426132b7565b1681600052600e6020526040600020556138e4565b60301c161590508238612fcc565b600954811015611eba577f6e1540171b6c0c960b71a7020d9f60077f6af931a8bbf590da0223dacf75c7af01546000818152600b60205260409020546001600160a01b039091169165ffffffffffff8083169260301c1690565b600f54811015611eba577f8d1108e10bcb7c27dddfc02ed9d693a074039d026cf4ea4240b40f7d581ac80201546000818152601160205260409020546001600160a01b039091169165ffffffffffff8083169260301c1690565b600c54811015611eba577fdf6966c971051c3d54ec59162606531493a51404a002842f56009d7e5cf4a8c701546000818152600e60205260409020546001600160a01b039091169165ffffffffffff8083169260301c1690565b65ffffffffffff90811680151593929084613159575b5083613133575b50505090565b81168015935091831561314c575b50505038808061312d565b1611159050388080613141565b8383161015935038613126565b613178906001600160a01b0316613364565b9065ffffffffffff8083169260301c1690565b613178906001600160a01b0316613333565b613178906001600160a01b03166132e9565b600019810191908211611e3257565b8054806131cc575050600090565b600019918183810111611e3257600052602060002001015460301c90565b60018060a01b0391828116600052600260205282604060002054166107fd57600454906001600160d01b0380831690818114611e3257610af79561077494600161328094019283169065ffffffffffff60d01b1617600455613262846107748460018060d01b03166000526003602052604060002090565b85166000526001602052604060002061327a426132b7565b90613489565b50506001600160a01b0316600090815260026020526040902090565b65ffffffffffff806132ad426132b7565b16911611612b7057565b65ffffffffffff908181116132ca571690565b604490604051906306dfcc6560e41b8252603060048301526024820152fd5b80600052601160205260406000205490811580613321575b613309575090565b6024906040519063015ab34360e11b82526004820152fd5b50601060205260406000205415613301565b80600052600b6020526040600020549081158061335257613309575090565b50600a60205260406000205415613301565b80600052600e6020526040600020549081158061338357613309575090565b50600d60205260406000205415613301565b600c54811015611eba57600c6000527fdf6966c971051c3d54ec59162606531493a51404a002842f56009d7e5cf4a8c70190600090565b600954811015611eba5760096000527f6e1540171b6c0c960b71a7020d9f60077f6af931a8bbf590da0223dacf75c7af0190600090565b600f54811015611eba57600f6000527f8d1108e10bcb7c27dddfc02ed9d693a074039d026cf4ea4240b40f7d581ac8020190600090565b908154600160401b811015610aa35760018101808455811015611eba5760009283526020928390208251929093015160301b65ffffffffffff191665ffffffffffff9290921691909117910155565b8054929392801561353e576134a06134ad916131af565b8260005260206000200190565b9182549265ffffffffffff9182851692811680841161352c578793036134f357506134ec92509065ffffffffffff82549181199060301b169116179055565b60301c9190565b91505061352791613513613505610aca565b65ffffffffffff9093168352565b6001600160d01b038616602083015261343a565b6134ec565b604051632520601d60e01b8152600490fd5b50906135639161354f613505610aca565b6001600160d01b038516602083015261343a565b60009190565b600c5480156135af5760001981019080821015611eba577fdf6966c971051c3d54ec59162606531493a51404a002842f56009d7e5cf4a8c6600091600c83520155600c55565b634e487b7160e01b600052603160045260246000fd5b60095480156135af5760001981019080821015611eba577f6e1540171b6c0c960b71a7020d9f60077f6af931a8bbf590da0223dacf75c7ae600091600983520155600955565b600f5480156135af5760001981019080821015611eba577f8d1108e10bcb7c27dddfc02ed9d693a074039d026cf4ea4240b40f7d581ac801600091600f83520155600f55565b6000818152600d60205260409020548015612a4f576000199181830191808311611e3257600c54938401938411611e325783836000956136ac95036136b2575b50505061369c613569565b600052600d602052604060002090565b55600190565b61369c6136d4916136c56136ed94613395565b90549060031b1c928391613395565b90919082549060031b91821b91600019901b1916179055565b55388080613691565b6000818152600a60205260409020548015612a4f576000199181830191808311611e3257600954938401938411611e325783836000956136ac9503613751575b5050506137416135c5565b600052600a602052604060002090565b6137416136d491613764613773946133cc565b90549060031b1c9283916133cc565b55388080613736565b6000818152601060205260409020548015612a4f576000199181830191808311611e3257600f54938401938411611e325783836000956136ac95036137d7575b5050506137c761360b565b6000526010602052604060002090565b6137c76136d4916137ea6137f994613403565b90549060031b1c928391613403565b553880806137bc565b80600052600a6020526040600020541560001461214757600954600160401b811015610aa3576001810180600955811015611eba5781907f6e1540171b6c0c960b71a7020d9f60077f6af931a8bbf590da0223dacf75c7af015560095490600052600a602052604060002055600190565b8060005260106020526040600020541560001461214757600f54600160401b811015610aa3576001810180600f55811015611eba5781907f8d1108e10bcb7c27dddfc02ed9d693a074039d026cf4ea4240b40f7d581ac8020155600f54906000526010602052604060002055600190565b80600052600d6020526040600020541560001461214757600c54600160401b811015610aa3576001810180600c55811015611eba5781907fdf6966c971051c3d54ec59162606531493a51404a002842f56009d7e5cf4a8c70155600c5490600052600d60205260406000205560019056fea26469706673582212206b556dc945454161895eca3cb2a5c375fb6dfbc58bf069fe40b6d7bbffb7dafb64736f6c63430008190033",
    "linkReferences": {}
  },
  "methodIdentifiers": {
    "EPOCH_DURATION()": "a70b9f0c",
    "NETWORK()": "8759e6d1",
    "OPERATOR_NET_OPT_IN()": "6383eeb7",
    "START_TIME()": "ddaa26ad",
    "VAULT_REGISTRY()": "02ace7fe",
    "checkIncludingOperatingAddress(address)": "d564ec08",
    "createNewTask(string,string,uint256,bytes32)": "9eea016c",
    "getAllTokenTotalStakes(uint48)": "49a6f991",
    "getCurrentAllTokenTotalStakes()": "cd5f3c30",
    "getCurrentEpoch()": "b97dd9e2",
    "getCurrentOperatingAddress(address)": "bf043a3b",
    "getCurrentOperatorAllTokenStakes(address)": "ab4e0a41",
    "getCurrentOperatorInfos()": "7faffcdd",
    "getCurrentOperatorTokenStake(address,address)": "3a003510",
    "getCurrentTokenTotalStake(address)": "0d8285d2",
    "getCurrentTokens()": "cc77828d",
    "getCurrentVaults()": "4719eff8",
    "getEpochAtTs(uint48)": "9d94a1e3",
    "getEpochStartTs(uint48)": "11369f0f",
    "getOperatingAddressAt(address,uint48)": "b6631df5",
    "getOperatorAllTokenStakes(address,uint48)": "179e3296",
    "getOperatorInfos(uint48)": "27d74756",
    "getOperatorTokenStake(address,address,uint48)": "e3111cda",
    "getOperatorWithOperatingAddress(address)": "41df02f9",
    "getSubnetwork(uint96)": "c3265f0f",
    "getTokenAddress(address)": "b8d7b669",
    "getTokenTotalStake(address,uint48)": "b29331c4",
    "getTokens(uint48)": "173c3aef",
    "getVaults(uint48)": "32a90e1b",
    "isActiveToken(address)": "575c51c2",
    "isActiveVault(address)": "235d87ab",
    "minimumStakingAmounts(address)": "c1a05c58",
    "operatorStakeInfoCache(uint48,address,address)": "dbdbe0a4",
    "owner()": "8da5cb5b",
    "pauseOperator(address)": "72f9adab",
    "pauseToken(address)": "7c41ad2c",
    "pauseVault(address)": "c0bd6f9e",
    "registerOperator(address,address)": "ce49f361",
    "registerToken(address)": "09824a80",
    "registerVault(address)": "67ccd1cb",
    "renounceOwnership()": "715018a6",
    "respondToTask(string,string,uint32,bool)": "77329af8",
    "rollupTaskInfos(string)": "39011ab8",
    "setMinimumStakingAmount(address,uint256)": "5f3ace69",
    "setSubnetworkCount(uint256)": "1c64c7ea",
    "subnetworkCount()": "c974326b",
    "tokenTotalStakeCache(uint48,address)": "66873c6e",
    "totalStakeCached(uint48)": "83f582b7",
    "transferOwnership(address)": "f2fde38b",
    "unpauseOperator(address)": "2e5aaf33",
    "unpauseToken(address)": "3b3bff0f",
    "unpauseVault(address)": "2efbab2c",
    "unregisterOperator(address)": "96115bc2",
    "unregisterToken(address)": "77860cdd",
    "unregisterVault(address)": "2633b70f",
    "updateOperatingAddress(address,address)": "212c9c0e"
  },
  "id": 50
}