{
    "abi": [
        {
            "type": "function",
            "name": "BLOCK_MARGIN",
            "inputs": [],
            "outputs": [
                {
                    "name": "",
                    "type": "uint256",
                    "internalType": "uint256"
                }
            ],
            "stateMutability": "view"
        },
        {
            "type": "function",
            "name": "MAX_SEQUENCER_COUNT",
            "inputs": [],
            "outputs": [
                {
                    "name": "",
                    "type": "uint256",
                    "internalType": "uint256"
                }
            ],
            "stateMutability": "view"
        },
        {
            "type": "function",
            "name": "deregisterSequencer",
            "inputs": [
                {
                    "name": "proposerSetId",
                    "type": "bytes32",
                    "internalType": "bytes32"
                }
            ],
            "outputs": [],
            "stateMutability": "nonpayable"
        },
        {
            "type": "function",
            "name": "getSequencerList",
            "inputs": [
                {
                    "name": "proposerSetId",
                    "type": "bytes32",
                    "internalType": "bytes32"
                }
            ],
            "outputs": [
                {
                    "name": "",
                    "type": "address[30]",
                    "internalType": "address[30]"
                }
            ],
            "stateMutability": "view"
        },
        {
            "type": "function",
            "name": "initializeProposerSet",
            "inputs": [],
            "outputs": [],
            "stateMutability": "nonpayable"
        },
        {
            "type": "function",
            "name": "isRegistered",
            "inputs": [
                {
                    "name": "proposerSetId",
                    "type": "bytes32",
                    "internalType": "bytes32"
                },
                {
                    "name": "sequencerAddress",
                    "type": "address",
                    "internalType": "address"
                }
            ],
            "outputs": [
                {
                    "name": "",
                    "type": "bool",
                    "internalType": "bool"
                }
            ],
            "stateMutability": "view"
        },
        {
            "type": "function",
            "name": "registerSequencer",
            "inputs": [
                {
                    "name": "proposerSetId",
                    "type": "bytes32",
                    "internalType": "bytes32"
                }
            ],
            "outputs": [],
            "stateMutability": "nonpayable"
        },
        {
            "type": "event",
            "name": "DeregisterSequencer",
            "inputs": [
                {
                    "name": "proposerSetId",
                    "type": "bytes32",
                    "indexed": false,
                    "internalType": "bytes32"
                },
                {
                    "name": "sequencerAddress",
                    "type": "address",
                    "indexed": false,
                    "internalType": "address"
                }
            ],
            "anonymous": false
        },
        {
            "type": "event",
            "name": "InitializeProposerSet",
            "inputs": [
                {
                    "name": "proposerSetId",
                    "type": "bytes32",
                    "indexed": false,
                    "internalType": "bytes32"
                },
                {
                    "name": "owner",
                    "type": "address",
                    "indexed": false,
                    "internalType": "address"
                }
            ],
            "anonymous": false
        },
        {
            "type": "event",
            "name": "RegisterSequencer",
            "inputs": [
                {
                    "name": "proposerSetId",
                    "type": "bytes32",
                    "indexed": false,
                    "internalType": "bytes32"
                },
                {
                    "name": "sequencerAddress",
                    "type": "address",
                    "indexed": false,
                    "internalType": "address"
                }
            ],
            "anonymous": false
        }
    ],
    "bytecode": {
        "object": "0x6080604052348015600f57600080fd5b506106f68061001f6000396000f3fe608060405234801561001057600080fd5b506004361061007d5760003560e01c806355cb83571161005b57806355cb8357146100ba5780636cfdfc3e146100c257806384da0add146100e2578063c13b5c7b146100f557600080fd5b80630418d1f714610082578063071c55ac146100975780635024bd62146100b2575b600080fd5b6100956100903660046105c1565b610118565b005b61009f600781565b6040519081526020015b60405180910390f35b61009f601e81565b6100956102c3565b6100d56100d03660046105c1565b6103d2565b6040516100a991906105da565b6100956100f03660046105c1565b61042c565b610108610103366004610615565b610574565b60405190151581526020016100a9565b600081815260208181526040808320338452600181019092529091205460ff161561018a5760405162461bcd60e51b815260206004820152601c60248201527f416c726561647920726567697374657265642073657175656e6365720000000060448201526064015b60405180910390fd5b601e8160200154106101de5760405162461bcd60e51b815260206004820152601c60248201527f4d61782073657175656e63657220636f756e74206578636565646564000000006044820152606401610181565b336000908152600182810160205260408220805460ff191690911790555b601e81101561026e5760006002830182601e811061021c5761021c610651565b01546001600160a01b03160361026657338260020182601e811061024257610242610651565b0180546001600160a01b0319166001600160a01b039290921691909117905561026e565b6001016101fc565b506020810180549060006102818361067d565b9091555050604080518381523360208201527f8fc658286c9b4f75762749c53540f49fbd75c86abf3166de09bd20b5f691402d91015b60405180910390a15050565b6000336102d1600143610696565b60405160609290921b6bffffffffffffffffffffffff1916602083015240603482015260540160408051601f19818403018152918152815160209283012060008181529283905291208054919250906001600160a01b0316156103765760405162461bcd60e51b815260206004820181905260248201527f416c726561647920696e697469616c697a65642070726f706f736572207365746044820152606401610181565b80546001600160a01b031916339081178255600060208301556040517fbfa525097147201029486e36a599cd1b9a18c126616f3d3d718f56b46566bef4916102b7918591909182526001600160a01b0316602082015260400190565b6103da6105a2565b6000828152602081905260409081902081516103c08101909252600201601e8282826020028201915b81546001600160a01b031681526001909101906020018083116104035750505050509050919050565b600081815260208181526040808320338452600181019092529091205460ff166104985760405162461bcd60e51b815260206004820152601860248201527f4e6f7420726567697374657265642073657175656e63657200000000000000006044820152606401610181565b3360009081526001820160205260408120805460ff191690555b816020015481101561052757336002830182601e81106104d4576104d4610651565b01546001600160a01b03160361051f5760008260020182601e81106104fb576104fb610651565b0180546001600160a01b0319166001600160a01b0392909216919091179055610527565b6001016104b2565b5060208101805490600061053a836106a9565b9091555050604080518381523360208201527fdbd3de35381856383ad03d983de94a1f5ce58099d306bd4fd6e0bee172ab5b7891016102b7565b6000828152602081815260408083206001600160a01b038516845260010190915290205460ff165b92915050565b604051806103c00160405280601e906020820280368337509192915050565b6000602082840312156105d357600080fd5b5035919050565b6103c08101818360005b601e81101561060c5781516001600160a01b03168352602092830192909101906001016105e4565b50505092915050565b6000806040838503121561062857600080fd5b8235915060208301356001600160a01b038116811461064657600080fd5b809150509250929050565b634e487b7160e01b600052603260045260246000fd5b634e487b7160e01b600052601160045260246000fd5b60006001820161068f5761068f610667565b5060010190565b8181038181111561059c5761059c610667565b6000816106b8576106b8610667565b50600019019056fea2646970667358221220a54e53f36ff08c19a3d4d5d834b29200d951cc31767609259d087018c38e9c1864736f6c634300081a0033",
        "linkReferences": {}
    },
    "methodIdentifiers": {
        "BLOCK_MARGIN()": "071c55ac",
        "MAX_SEQUENCER_COUNT()": "5024bd62",
        "deregisterSequencer(bytes32)": "84da0add",
        "getSequencerList(bytes32)": "6cfdfc3e",
        "initializeProposerSet()": "55cb8357",
        "isRegistered(bytes32,address)": "c13b5c7b",
        "registerSequencer(bytes32)": "0418d1f7"
    },
    "id": 99
}