{
    "abi": [
        {
            "type": "function",
            "name": "BLOCK_MARGIN",
            "inputs": [],
            "outputs": [
                {
                    "name": "",
                    "type": "uint256",
                    "internalType": "uint256"
                }
            ],
            "stateMutability": "view"
        },
        {
            "type": "function",
            "name": "MAX_SEQUENCER_COUNT",
            "inputs": [],
            "outputs": [
                {
                    "name": "",
                    "type": "uint256",
                    "internalType": "uint256"
                }
            ],
            "stateMutability": "view"
        },
        {
            "type": "function",
            "name": "deregisterSequencer",
            "inputs": [
                {
                    "name": "proposerSetId",
                    "type": "bytes32",
                    "internalType": "bytes32"
                }
            ],
            "outputs": [],
            "stateMutability": "nonpayable"
        },
        {
            "type": "function",
            "name": "getSequencerList",
            "inputs": [
                {
                    "name": "proposerSetId",
                    "type": "bytes32",
                    "internalType": "bytes32"
                }
            ],
            "outputs": [
                {
                    "name": "",
                    "type": "address[30]",
                    "internalType": "address[30]"
                }
            ],
            "stateMutability": "view"
        },
        {
            "type": "function",
            "name": "initializeProposerSet",
            "inputs": [],
            "outputs": [],
            "stateMutability": "nonpayable"
        },
        {
            "type": "function",
            "name": "registerSequencer",
            "inputs": [
                {
                    "name": "proposerSetId",
                    "type": "bytes32",
                    "internalType": "bytes32"
                }
            ],
            "outputs": [],
            "stateMutability": "nonpayable"
        },
        {
            "type": "event",
            "name": "DeregisterSequencer",
            "inputs": [
                {
                    "name": "proposerSetId",
                    "type": "bytes32",
                    "indexed": false,
                    "internalType": "bytes32"
                },
                {
                    "name": "sequencerAddress",
                    "type": "address",
                    "indexed": false,
                    "internalType": "address"
                }
            ],
            "anonymous": false
        },
        {
            "type": "event",
            "name": "InitializeProposerSet",
            "inputs": [
                {
                    "name": "proposerSetId",
                    "type": "bytes32",
                    "indexed": false,
                    "internalType": "bytes32"
                },
                {
                    "name": "owner",
                    "type": "address",
                    "indexed": false,
                    "internalType": "address"
                }
            ],
            "anonymous": false
        },
        {
            "type": "event",
            "name": "RegisterSequencer",
            "inputs": [
                {
                    "name": "proposerSetId",
                    "type": "bytes32",
                    "indexed": false,
                    "internalType": "bytes32"
                },
                {
                    "name": "sequencerAddress",
                    "type": "address",
                    "indexed": false,
                    "internalType": "address"
                }
            ],
            "anonymous": false
        }
    ],
    "bytecode": {
        "object": "0x6080604052348015600f57600080fd5b506106578061001f6000396000f3fe608060405234801561001057600080fd5b50600436106100625760003560e01c80630418d1f714610067578063071c55ac1461007c5780635024bd621461009757806355cb83571461009f5780636cfdfc3e146100a757806384da0add146100c7575b600080fd5b61007a610075366004610558565b6100da565b005b610084600781565b6040519081526020015b60405180910390f35b610084601e81565b61007a610288565b6100ba6100b5366004610558565b610397565b60405161008e9190610571565b61007a6100d5366004610558565b6103f1565b600081815260208181526040808320338452600181019092529091205460ff161561014c5760405162461bcd60e51b815260206004820152601c60248201527f416c726561647920726567697374657265642073657175656e6365720000000060448201526064015b60405180910390fd5b601e8160200154106101a05760405162461bcd60e51b815260206004820152601c60248201527f4d61782073657175656e63657220636f756e74206578636565646564000000006044820152606401610143565b336000908152600182810160205260408220805460ff191690911790555b81602001548110156102335760006002830182601e81106101e1576101e16105ac565b01546001600160a01b03160361022b57338260020182601e8110610207576102076105ac565b0180546001600160a01b0319166001600160a01b0392909216919091179055610233565b6001016101be565b50602081018054906000610246836105d8565b9091555050604080518381523360208201527f8fc658286c9b4f75762749c53540f49fbd75c86abf3166de09bd20b5f691402d91015b60405180910390a15050565b6000336102966001436105f1565b60405160609290921b6bffffffffffffffffffffffff1916602083015240603482015260540160408051601f19818403018152918152815160209283012060008181529283905291208054919250906001600160a01b03161561033b5760405162461bcd60e51b815260206004820181905260248201527f416c726561647920696e697469616c697a65642070726f706f736572207365746044820152606401610143565b80546001600160a01b031916339081178255600060208301556040517fbfa525097147201029486e36a599cd1b9a18c126616f3d3d718f56b46566bef49161027c918591909182526001600160a01b0316602082015260400190565b61039f610539565b6000828152602081905260409081902081516103c08101909252600201601e8282826020028201915b81546001600160a01b031681526001909101906020018083116103c85750505050509050919050565b600081815260208181526040808320338452600181019092529091205460ff1661045d5760405162461bcd60e51b815260206004820152601860248201527f4e6f7420726567697374657265642073657175656e63657200000000000000006044820152606401610143565b3360009081526001820160205260408120805460ff191690555b81602001548110156104ec57336002830182601e8110610499576104996105ac565b01546001600160a01b0316036104e45760008260020182601e81106104c0576104c06105ac565b0180546001600160a01b0319166001600160a01b03929092169190911790556104ec565b600101610477565b506020810180549060006104ff8361060a565b9091555050604080518381523360208201527fdbd3de35381856383ad03d983de94a1f5ce58099d306bd4fd6e0bee172ab5b78910161027c565b604051806103c00160405280601e906020820280368337509192915050565b60006020828403121561056a57600080fd5b5035919050565b6103c08101818360005b601e8110156105a35781516001600160a01b031683526020928301929091019060010161057b565b50505092915050565b634e487b7160e01b600052603260045260246000fd5b634e487b7160e01b600052601160045260246000fd5b6000600182016105ea576105ea6105c2565b5060010190565b81810381811115610604576106046105c2565b92915050565b600081610619576106196105c2565b50600019019056fea264697066735822122001345646f2a7112147887ec15e928fbdd66b10d56e04d63fd6efcdac8cb7800a64736f6c634300081a0033",
        "linkReferences": {}
    },
    "methodIdentifiers": {
        "BLOCK_MARGIN()": "071c55ac",
        "MAX_SEQUENCER_COUNT()": "5024bd62",
        "deregisterSequencer(bytes32)": "84da0add",
        "getSequencerList(bytes32)": "6cfdfc3e",
        "initializeProposerSet()": "55cb8357",
        "registerSequencer(bytes32)": "0418d1f7"
    },
    "id": 99
}