{
    "abi": [
        {
            "type": "function",
            "name": "BLOCK_MARGIN",
            "inputs": [],
            "outputs": [
                {
                    "name": "",
                    "type": "uint256",
                    "internalType": "uint256"
                }
            ],
            "stateMutability": "view"
        },
        {
            "type": "function",
            "name": "MAX_SEQUENCER_COUNT",
            "inputs": [],
            "outputs": [
                {
                    "name": "",
                    "type": "uint256",
                    "internalType": "uint256"
                }
            ],
            "stateMutability": "view"
        },
        {
            "type": "function",
            "name": "deregisterSequencer",
            "inputs": [
                {
                    "name": "proposerSetId",
                    "type": "bytes32",
                    "internalType": "bytes32"
                }
            ],
            "outputs": [],
            "stateMutability": "nonpayable"
        },
        {
            "type": "function",
            "name": "getSequencerList",
            "inputs": [
                {
                    "name": "proposerSetId",
                    "type": "bytes32",
                    "internalType": "bytes32"
                }
            ],
            "outputs": [
                {
                    "name": "",
                    "type": "address[30]",
                    "internalType": "address[30]"
                }
            ],
            "stateMutability": "view"
        },
        {
            "type": "function",
            "name": "initializeProposerSet",
            "inputs": [],
            "outputs": [],
            "stateMutability": "nonpayable"
        },
        {
            "type": "function",
            "name": "isRegistered",
            "inputs": [
                {
                    "name": "proposerSetId",
                    "type": "bytes32",
                    "internalType": "bytes32"
                }
            ],
            "outputs": [
                {
                    "name": "",
                    "type": "bool",
                    "internalType": "bool"
                }
            ],
            "stateMutability": "view"
        },
        {
            "type": "function",
            "name": "registerSequencer",
            "inputs": [
                {
                    "name": "proposerSetId",
                    "type": "bytes32",
                    "internalType": "bytes32"
                }
            ],
            "outputs": [],
            "stateMutability": "nonpayable"
        },
        {
            "type": "event",
            "name": "DeregisterSequencer",
            "inputs": [
                {
                    "name": "proposerSetId",
                    "type": "bytes32",
                    "indexed": false,
                    "internalType": "bytes32"
                },
                {
                    "name": "sequencerAddress",
                    "type": "address",
                    "indexed": false,
                    "internalType": "address"
                }
            ],
            "anonymous": false
        },
        {
            "type": "event",
            "name": "InitializeProposerSet",
            "inputs": [
                {
                    "name": "proposerSetId",
                    "type": "bytes32",
                    "indexed": false,
                    "internalType": "bytes32"
                },
                {
                    "name": "owner",
                    "type": "address",
                    "indexed": false,
                    "internalType": "address"
                }
            ],
            "anonymous": false
        },
        {
            "type": "event",
            "name": "RegisterSequencer",
            "inputs": [
                {
                    "name": "proposerSetId",
                    "type": "bytes32",
                    "indexed": false,
                    "internalType": "bytes32"
                },
                {
                    "name": "sequencerAddress",
                    "type": "address",
                    "indexed": false,
                    "internalType": "address"
                }
            ],
            "anonymous": false
        }
    ],
    "bytecode": {
        "object": "0x6080604052348015600f57600080fd5b506106b18061001f6000396000f3fe608060405234801561001057600080fd5b506004361061007d5760003560e01c80635024bd621161005b5780635024bd62146100f157806355cb8357146100f95780636cfdfc3e1461010157806384da0add1461012157600080fd5b80630418d1f714610082578063071c55ac1461009757806327258b22146100b2575b600080fd5b6100956100903660046105b2565b610134565b005b61009f600781565b6040519081526020015b60405180910390f35b6100e16100c03660046105b2565b60009081526020818152604080832033845260010190915290205460ff1690565b60405190151581526020016100a9565b61009f601e81565b6100956102e2565b61011461010f3660046105b2565b6103f1565b6040516100a991906105cb565b61009561012f3660046105b2565b61044b565b600081815260208181526040808320338452600181019092529091205460ff16156101a65760405162461bcd60e51b815260206004820152601c60248201527f416c726561647920726567697374657265642073657175656e6365720000000060448201526064015b60405180910390fd5b601e8160200154106101fa5760405162461bcd60e51b815260206004820152601c60248201527f4d61782073657175656e63657220636f756e7420657863656564656400000000604482015260640161019d565b336000908152600182810160205260408220805460ff191690911790555b816020015481101561028d5760006002830182601e811061023b5761023b610606565b01546001600160a01b03160361028557338260020182601e811061026157610261610606565b0180546001600160a01b0319166001600160a01b039290921691909117905561028d565b600101610218565b506020810180549060006102a083610632565b9091555050604080518381523360208201527f8fc658286c9b4f75762749c53540f49fbd75c86abf3166de09bd20b5f691402d91015b60405180910390a15050565b6000336102f060014361064b565b60405160609290921b6bffffffffffffffffffffffff1916602083015240603482015260540160408051601f19818403018152918152815160209283012060008181529283905291208054919250906001600160a01b0316156103955760405162461bcd60e51b815260206004820181905260248201527f416c726561647920696e697469616c697a65642070726f706f73657220736574604482015260640161019d565b80546001600160a01b031916339081178255600060208301556040517fbfa525097147201029486e36a599cd1b9a18c126616f3d3d718f56b46566bef4916102d6918591909182526001600160a01b0316602082015260400190565b6103f9610593565b6000828152602081905260409081902081516103c08101909252600201601e8282826020028201915b81546001600160a01b031681526001909101906020018083116104225750505050509050919050565b600081815260208181526040808320338452600181019092529091205460ff166104b75760405162461bcd60e51b815260206004820152601860248201527f4e6f7420726567697374657265642073657175656e6365720000000000000000604482015260640161019d565b3360009081526001820160205260408120805460ff191690555b816020015481101561054657336002830182601e81106104f3576104f3610606565b01546001600160a01b03160361053e5760008260020182601e811061051a5761051a610606565b0180546001600160a01b0319166001600160a01b0392909216919091179055610546565b6001016104d1565b5060208101805490600061055983610664565b9091555050604080518381523360208201527fdbd3de35381856383ad03d983de94a1f5ce58099d306bd4fd6e0bee172ab5b7891016102d6565b604051806103c00160405280601e906020820280368337509192915050565b6000602082840312156105c457600080fd5b5035919050565b6103c08101818360005b601e8110156105fd5781516001600160a01b03168352602092830192909101906001016105d5565b50505092915050565b634e487b7160e01b600052603260045260246000fd5b634e487b7160e01b600052601160045260246000fd5b6000600182016106445761064461061c565b5060010190565b8181038181111561065e5761065e61061c565b92915050565b6000816106735761067361061c565b50600019019056fea264697066735822122006e8f02e0ac74c749dfab6ba9daffbb43be971e1331c418d0e94222122b1428864736f6c634300081a0033",
        "linkReferences": {}
    },
    "methodIdentifiers": {
        "BLOCK_MARGIN()": "071c55ac",
        "MAX_SEQUENCER_COUNT()": "5024bd62",
        "deregisterSequencer(bytes32)": "84da0add",
        "getSequencerList(bytes32)": "6cfdfc3e",
        "initializeProposerSet()": "55cb8357",
        "isRegistered(bytes32)": "27258b22",
        "registerSequencer(bytes32)": "0418d1f7"
    },
    "id": 101
}