{
  "abi": [
    {
      "type": "constructor",
      "inputs": [],
      "stateMutability": "nonpayable"
    },
    {
      "type": "function",
      "name": "BLOCK_MARGIN",
      "inputs": [],
      "outputs": [
        {
          "name": "",
          "type": "uint256",
          "internalType": "uint256"
        }
      ],
      "stateMutability": "view"
    },
    {
      "type": "function",
      "name": "addRollup",
      "inputs": [
        {
          "name": "clusterId",
          "type": "string",
          "internalType": "string"
        },
        {
          "name": "rollupInfo",
          "type": "tuple",
          "internalType": "struct ILivenessRadius.AddRollupInfo",
          "components": [
            {
              "name": "rollupId",
              "type": "string",
              "internalType": "string"
            },
            {
              "name": "owner",
              "type": "address",
              "internalType": "address"
            },
            {
              "name": "rollupType",
              "type": "string",
              "internalType": "string"
            },
            {
              "name": "encryptedTransactionType",
              "type": "string",
              "internalType": "string"
            },
            {
              "name": "orderCommitmentType",
              "type": "string",
              "internalType": "string"
            },
            {
              "name": "executorAddress",
              "type": "address",
              "internalType": "address"
            },
            {
              "name": "validationInfo",
              "type": "tuple",
              "internalType": "struct ILivenessRadius.ValidationInfo",
              "components": [
                {
                  "name": "platform",
                  "type": "string",
                  "internalType": "string"
                },
                {
                  "name": "serviceProvider",
                  "type": "string",
                  "internalType": "string"
                },
                {
                  "name": "validationServiceManager",
                  "type": "address",
                  "internalType": "address"
                }
              ]
            }
          ]
        }
      ],
      "outputs": [],
      "stateMutability": "nonpayable"
    },
    {
      "type": "function",
      "name": "deregisterSequencer",
      "inputs": [
        {
          "name": "clusterId",
          "type": "string",
          "internalType": "string"
        }
      ],
      "outputs": [],
      "stateMutability": "nonpayable"
    },
    {
      "type": "function",
      "name": "getAllClusterIds",
      "inputs": [],
      "outputs": [
        {
          "name": "",
          "type": "string[]",
          "internalType": "string[]"
        }
      ],
      "stateMutability": "view"
    },
    {
      "type": "function",
      "name": "getClustersByOwner",
      "inputs": [
        {
          "name": "owner",
          "type": "address",
          "internalType": "address"
        }
      ],
      "outputs": [
        {
          "name": "",
          "type": "string[]",
          "internalType": "string[]"
        }
      ],
      "stateMutability": "view"
    },
    {
      "type": "function",
      "name": "getClustersBySequencer",
      "inputs": [
        {
          "name": "sequencer",
          "type": "address",
          "internalType": "address"
        }
      ],
      "outputs": [
        {
          "name": "",
          "type": "string[]",
          "internalType": "string[]"
        }
      ],
      "stateMutability": "view"
    },
    {
      "type": "function",
      "name": "getExecutorList",
      "inputs": [
        {
          "name": "clusterId",
          "type": "string",
          "internalType": "string"
        },
        {
          "name": "rollupId",
          "type": "string",
          "internalType": "string"
        }
      ],
      "outputs": [
        {
          "name": "",
          "type": "address[]",
          "internalType": "address[]"
        }
      ],
      "stateMutability": "view"
    },
    {
      "type": "function",
      "name": "getMaxSequencerNumber",
      "inputs": [
        {
          "name": "clusterId",
          "type": "string",
          "internalType": "string"
        }
      ],
      "outputs": [
        {
          "name": "",
          "type": "uint256",
          "internalType": "uint256"
        }
      ],
      "stateMutability": "view"
    },
    {
      "type": "function",
      "name": "getRollupInfo",
      "inputs": [
        {
          "name": "clusterId",
          "type": "string",
          "internalType": "string"
        },
        {
          "name": "rollupId",
          "type": "string",
          "internalType": "string"
        }
      ],
      "outputs": [
        {
          "name": "",
          "type": "tuple",
          "internalType": "struct ILivenessRadius.RollupInfo",
          "components": [
            {
              "name": "rollupId",
              "type": "string",
              "internalType": "string"
            },
            {
              "name": "owner",
              "type": "address",
              "internalType": "address"
            },
            {
              "name": "rollupType",
              "type": "string",
              "internalType": "string"
            },
            {
              "name": "encryptedTransactionType",
              "type": "string",
              "internalType": "string"
            },
            {
              "name": "orderCommitmentType",
              "type": "string",
              "internalType": "string"
            },
            {
              "name": "executorAddresses",
              "type": "address[]",
              "internalType": "address[]"
            },
            {
              "name": "validationInfo",
              "type": "tuple",
              "internalType": "struct ILivenessRadius.ValidationInfo",
              "components": [
                {
                  "name": "platform",
                  "type": "string",
                  "internalType": "string"
                },
                {
                  "name": "serviceProvider",
                  "type": "string",
                  "internalType": "string"
                },
                {
                  "name": "validationServiceManager",
                  "type": "address",
                  "internalType": "address"
                }
              ]
            }
          ]
        }
      ],
      "stateMutability": "view"
    },
    {
      "type": "function",
      "name": "getRollupInfoList",
      "inputs": [
        {
          "name": "clusterId",
          "type": "string",
          "internalType": "string"
        }
      ],
      "outputs": [
        {
          "name": "",
          "type": "tuple[]",
          "internalType": "struct ILivenessRadius.RollupInfo[]",
          "components": [
            {
              "name": "rollupId",
              "type": "string",
              "internalType": "string"
            },
            {
              "name": "owner",
              "type": "address",
              "internalType": "address"
            },
            {
              "name": "rollupType",
              "type": "string",
              "internalType": "string"
            },
            {
              "name": "encryptedTransactionType",
              "type": "string",
              "internalType": "string"
            },
            {
              "name": "orderCommitmentType",
              "type": "string",
              "internalType": "string"
            },
            {
              "name": "executorAddresses",
              "type": "address[]",
              "internalType": "address[]"
            },
            {
              "name": "validationInfo",
              "type": "tuple",
              "internalType": "struct ILivenessRadius.ValidationInfo",
              "components": [
                {
                  "name": "platform",
                  "type": "string",
                  "internalType": "string"
                },
                {
                  "name": "serviceProvider",
                  "type": "string",
                  "internalType": "string"
                },
                {
                  "name": "validationServiceManager",
                  "type": "address",
                  "internalType": "address"
                }
              ]
            }
          ]
        }
      ],
      "stateMutability": "view"
    },
    {
      "type": "function",
      "name": "getSequencerList",
      "inputs": [
        {
          "name": "clusterId",
          "type": "string",
          "internalType": "string"
        }
      ],
      "outputs": [
        {
          "name": "",
          "type": "address[]",
          "internalType": "address[]"
        }
      ],
      "stateMutability": "view"
    },
    {
      "type": "function",
      "name": "initializeCluster",
      "inputs": [
        {
          "name": "clusterId",
          "type": "string",
          "internalType": "string"
        },
        {
          "name": "maxSequencerNumber",
          "type": "uint256",
          "internalType": "uint256"
        }
      ],
      "outputs": [],
      "stateMutability": "nonpayable"
    },
    {
      "type": "function",
      "name": "isAddedRollup",
      "inputs": [
        {
          "name": "clusterId",
          "type": "string",
          "internalType": "string"
        },
        {
          "name": "rollupId",
          "type": "string",
          "internalType": "string"
        }
      ],
      "outputs": [
        {
          "name": "",
          "type": "bool",
          "internalType": "bool"
        }
      ],
      "stateMutability": "view"
    },
    {
      "type": "function",
      "name": "isRegisteredRollupExecutor",
      "inputs": [
        {
          "name": "clusterId",
          "type": "string",
          "internalType": "string"
        },
        {
          "name": "rollupId",
          "type": "string",
          "internalType": "string"
        },
        {
          "name": "executorAddress",
          "type": "address",
          "internalType": "address"
        }
      ],
      "outputs": [
        {
          "name": "",
          "type": "bool",
          "internalType": "bool"
        }
      ],
      "stateMutability": "view"
    },
    {
      "type": "function",
      "name": "isRegisteredSequencer",
      "inputs": [
        {
          "name": "clusterId",
          "type": "string",
          "internalType": "string"
        },
        {
          "name": "sequencerAddress",
          "type": "address",
          "internalType": "address"
        }
      ],
      "outputs": [
        {
          "name": "",
          "type": "bool",
          "internalType": "bool"
        }
      ],
      "stateMutability": "view"
    },
    {
      "type": "function",
      "name": "owner",
      "inputs": [],
      "outputs": [
        {
          "name": "",
          "type": "address",
          "internalType": "address"
        }
      ],
      "stateMutability": "view"
    },
    {
      "type": "function",
      "name": "registerRollupExecutor",
      "inputs": [
        {
          "name": "clusterId",
          "type": "string",
          "internalType": "string"
        },
        {
          "name": "rollupId",
          "type": "string",
          "internalType": "string"
        },
        {
          "name": "executorAddress",
          "type": "address",
          "internalType": "address"
        }
      ],
      "outputs": [],
      "stateMutability": "nonpayable"
    },
    {
      "type": "function",
      "name": "registerSequencer",
      "inputs": [
        {
          "name": "clusterId",
          "type": "string",
          "internalType": "string"
        }
      ],
      "outputs": [],
      "stateMutability": "nonpayable"
    },
    {
      "type": "function",
      "name": "renounceOwnership",
      "inputs": [],
      "outputs": [],
      "stateMutability": "nonpayable"
    },
    {
      "type": "function",
      "name": "transferOwnership",
      "inputs": [
        {
          "name": "newOwner",
          "type": "address",
          "internalType": "address"
        }
      ],
      "outputs": [],
      "stateMutability": "nonpayable"
    },
    {
      "type": "event",
      "name": "AddRollup",
      "inputs": [
        {
          "name": "clusterId",
          "type": "string",
          "indexed": false,
          "internalType": "string"
        },
        {
          "name": "rollupId",
          "type": "string",
          "indexed": false,
          "internalType": "string"
        },
        {
          "name": "rollupOwnerAddress",
          "type": "address",
          "indexed": false,
          "internalType": "address"
        }
      ],
      "anonymous": false
    },
    {
      "type": "event",
      "name": "DeregisterSequencer",
      "inputs": [
        {
          "name": "clusterId",
          "type": "string",
          "indexed": false,
          "internalType": "string"
        },
        {
          "name": "sequencerAddress",
          "type": "address",
          "indexed": false,
          "internalType": "address"
        }
      ],
      "anonymous": false
    },
    {
      "type": "event",
      "name": "InitializeCluster",
      "inputs": [
        {
          "name": "clusterId",
          "type": "string",
          "indexed": false,
          "internalType": "string"
        },
        {
          "name": "owner",
          "type": "address",
          "indexed": false,
          "internalType": "address"
        },
        {
          "name": "maxSequencerNumber",
          "type": "uint256",
          "indexed": false,
          "internalType": "uint256"
        }
      ],
      "anonymous": false
    },
    {
      "type": "event",
      "name": "OwnershipTransferred",
      "inputs": [
        {
          "name": "previousOwner",
          "type": "address",
          "indexed": true,
          "internalType": "address"
        },
        {
          "name": "newOwner",
          "type": "address",
          "indexed": true,
          "internalType": "address"
        }
      ],
      "anonymous": false
    },
    {
      "type": "event",
      "name": "RegisterRollupExecutor",
      "inputs": [
        {
          "name": "clusterId",
          "type": "string",
          "indexed": false,
          "internalType": "string"
        },
        {
          "name": "rollupId",
          "type": "string",
          "indexed": false,
          "internalType": "string"
        },
        {
          "name": "executorAddress",
          "type": "address",
          "indexed": false,
          "internalType": "address"
        }
      ],
      "anonymous": false
    },
    {
      "type": "event",
      "name": "RegisterSequencer",
      "inputs": [
        {
          "name": "clusterId",
          "type": "string",
          "indexed": false,
          "internalType": "string"
        },
        {
          "name": "sequencerAddress",
          "type": "address",
          "indexed": false,
          "internalType": "address"
        },
        {
          "name": "index",
          "type": "uint256",
          "indexed": false,
          "internalType": "uint256"
        }
      ],
      "anonymous": false
    },
    {
      "type": "error",
      "name": "OwnableInvalidOwner",
      "inputs": [
        {
          "name": "owner",
          "type": "address",
          "internalType": "address"
        }
      ]
    },
    {
      "type": "error",
      "name": "OwnableUnauthorizedAccount",
      "inputs": [
        {
          "name": "account",
          "type": "address",
          "internalType": "address"
        }
      ]
    }
  ],
  "bytecode": {
    "object": "0x60808060405234607857331560625760008054336001600160a01b03198216811783556040519290916001600160a01b0316907f8be0079c531659141344cd1fd0a4f28419497f9722a3daafe3b4186f6b6457e09080a361201e908161007e8239f35b631e4fbdf760e01b815260006004820152602490fd5b600080fdfe6080604081815260048036101561001557600080fd5b600092833560e01c908163071c55ac146115535750806315a45bdb146114c35780631a6b7d331461147557806323fd869f146113b05780632432fdfc146110a65780633edb0dbf14610e8857806350ef5a1714610c0a57806354fbb8bc14610bc557806365f413bb14610ac2578063715018a614610a6857806378a616f5146109da5780638a4abab8146107be5780638da5cb5b1461079657806399496f271461065f578063a7b1542014610576578063ccbd85ce14610528578063d4bb786f146104bb578063d7890c0414610228578063ee6d992f146101885763f2fde38b146100ff57600080fd5b34610184576020366003190112610184576101186117bd565b90610121611fbc565b6001600160a01b0391821692831561016e57505082546001600160a01b0319811683178455167f8be0079c531659141344cd1fd0a4f28419497f9722a3daafe3b4186f6b6457e08380a380f35b51631e4fbdf760e01b8152908101849052602490fd5b8280fd5b82843461022557602080600319360112610221576001600160a01b036101ac6117bd565b16825260036020528282208054916101c38361189e565b936101d08651958661187d565b83855291825260208083209085015b8484106101f7578651806101f388826115ae565b0390f35b600183819289516102138161020c81896118ef565b038261187d565b8152019201930192906101df565b5080fd5b80fd5b5090346101845760031981813601126104b7576001600160401b039083358281116104b35761025a9036908601611612565b9390926024359081116104af578086019260e0823603918201126104ab5782518686823760208188810160018152030190209060018060a01b0394858354163303610474576102b66102ac8280611f76565b600786019161199e565b928684541661043a5760086102d8916102cf8480611f76565b92909101611d80565b896024850193876102e886611fa8565b16976bffffffffffffffffffffffff60a01b988983541617825561031c6103126044890186611f76565b9060018501611cbb565b61033661032c6064890186611f76565b9060028501611cbb565b6103506103466084890186611f76565b9060068501611cbb565b60c487013594606219018512156101845761041460a4888a7fe1a954bd87863d105bde989337bb536ce0b77c9e2f9571ba90ef69e25203f0299f9660089561041b986104349f6103d66104299f9d6104219e01926103ce8c6103c46003848801926103bb8480611f76565b92909101611cbb565b6024860190611f76565b918d01611cbb565b826103e7604460058d019401611fa8565b16908254161790556103f88c611fa8565b1681526007870160205220805460ff1916600117905501611fa8565b9101611c7a565b80611f76565b929091611fa8565b925195869586611f3b565b0390a180f35b855162461bcd60e51b81526020818c015260146024820152730416c726561647920616464656420726f6c6c75760641b6044820152606490fd5b845162461bcd60e51b81526020818b015260116024820152702737ba1031b63ab9ba32b91037bbb732b960791b6044820152606490fd5b8780fd5b8680fd5b8580fd5b8380fd5b50346101845781600319360112610184578035906001600160401b0382116104b7576104e991369101611612565b6024356001600160a01b0381169290839003610524579360ff9260016105128694602098611985565b01908252855220541690519015158152f35b8480fd5b5050346102215760ff8160209360078061055a610553610547366117d3565b97929093949194611985565b019161199e565b6001600160a01b03909216835201855220549151911615158152f35b5082903461022157610587366117d3565b929487929192518686823760208188810160018152030190206105c3600760018060a01b03926105bb848254161515611df4565b01858561199e565b9181835416330361062957509761061f856008819695947fd78b57910d5f921c4da1543d476f86e9d30026b18c0973b08c4dd30a305542769b9c61043499168d5260078101602052848d20600160ff1982541617905501611c7a565b5195869586611f3b565b60649060208b519162461bcd60e51b8352820152601060248201526f2737ba103937b6363ab81037bbb732b960811b6044820152fd5b5082346102255750602061067236611644565b949261067f949194611e40565b50828751938492833781016001815203019020916106b6600760018060a01b03946106ae868254161515611df4565b01858361199e565b9283541691821561076057508492610749926106e46003936101f39851976106dd89611831565b3691611ad1565b8652602086015283516106fe8161020c81600186016118ef565b8486015283516107158161020c81600286016118ef565b6060860152835161072d8161020c81600686016118ef565b608086015261073e60088201611e94565b60a086015201611eee565b60c0830152519182916020835260208301906116d3565b606490602087519162461bcd60e51b8352820152601060248201526f04e6f7420616464656420726f6c6c75760841b6044820152fd5b505034610221578160031936011261022157905490516001600160a01b039091168152602090f35b50919034610221576020806003193601126101845783356001600160401b0381116104b7576107f09036908601611612565b919092805183858237828185810160018152030190209161081b60018060a01b038454161515611a50565b600183019233875283825260ff8388205416610997576005810190815489820154111561095457600681018054959060001980880191908883116109415761086383836119e9565b90549060031b1c981561092e57937fc438828bf84f8f56411b3c88a28310baf820d7cc3909fdc4d4b9ef6cccb0195e9a9998969383836003976108ad6104349c9a976002976119e9565b90918254918b1b1b1916905555338d528452858c20600160ff198254161790556108fa6108dc888784016119e9565b81546001600160a01b0360039290921b91821b19163390911b179055565b338c5201825284848b205561090f8154611a2b565b9055338952526109228486838a20611d80565b51938493339185611dc6565b634e487b7160e01b8c5260318d5260248cfd5b634e487b7160e01b8c5260118d5260248cfd5b835162461bcd60e51b8152808a01849052601c60248201527f4d61782073657175656e63657220636f756e74206578636565646564000000006044820152606490fd5b825162461bcd60e51b8152808901839052601c60248201527f416c726561647920726567697374657265642073657175656e636572000000006044820152606490fd5b82843461022557602080600319360112610221576001600160a01b036109fe6117bd565b1682526002602052828220805491610a158361189e565b93610a228651958661187d565b83855291825260208083209085015b848410610a45578651806101f388826115ae565b60018381928951610a5a8161020c81896118ef565b815201920193019290610a31565b8334610225578060031936011261022557610a81611fbc565b80546001600160a01b03198116825581906001600160a01b03167f8be0079c531659141344cd1fd0a4f28419497f9722a3daafe3b4186f6b6457e08280a380f35b5050346102215790600791610afc610ad936611644565b91808698929498519889378701966020816001996001815203019020019161199e565b600801805490928085815b848110610b8c575050610b19906119b7565b93815b838110610b30578451806101f3888261168e565b80610b3c8892846119e9565b90546001600160a01b039160039190821b1c8216610b5d575b505001610b1c565b90829591610b6e610b8494876119e9565b9054911b1c16610b7e828a611a17565b52611a2b565b923880610b55565b610b9681886119e9565b905460039190911b1c6001600160a01b0316610bb5575b018690610b07565b91610bbf90611a2b565b91610bad565b5034610184576020366003190112610184578035926001600160401b0384116102255750610c01610bfb60209436908401611612565b90611985565b01549051908152f35b503461018457602090816003193601126104b7578035906001600160401b03821161052457610c3d908592369101611612565b84519291819084378201918381600194858152030190209360018060a01b03610c6a818754161515611df4565b600880870191825492610c7c8461189e565b98610c8986519a8b61187d565b848a52610c958561189e565b601f1901875b818110610e61575050600701865b858110610d105750505050505080519380850191818652865180935281818701918460051b880101970193905b838210610ce35786880387f35b90919293948380610cff839a603f198b820301865289516116d3565b999701959493919091019101610cd6565b978887610d22839d9b869d9a9d6119e9565b50898251918c90805490610d35826118b5565b91888116908115610e4a5750600114610e10575b505091600391818489610de9965203019020610d6585896119e9565b50938982541661020c610d88835197610d7d89611831565b8451928380926118ef565b86528d8601528051610da08161020c818b87016118ef565b818601528051610db78161020c81600287016118ef565b606086015251610dce8161020c81600686016118ef565b6080850152610dde8a8201611e94565b60a085015201611eee565b60c0820152610df8828c611a17565b52610e03818b611a17565b5001999799989598610ca9565b9091508d528c868382205b838310610e2e5750505082018183610d49565b80919294939596505484870152019101918e9392868d93610e1b565b60ff19168652505080151502830190508183610d49565b9980979a610e739c9a9c979397611e40565b82828d010152019a989a999699959195610c9b565b5091903461022157806003193601126102215782356001600160401b03811161018457610eb89036908501611612565b90916024803595825184868237600181860181815282900360200190912080546001600160a01b0390818116611064576001600160a01b031916331782558382018a905560058201899055906003810190600019808c0191600601908c83118c8e5b8110610fd4575050505050505050805491600160401b831015610fc35760018301808355831015610fb2575091610f9d8486889994610434967f3eeb4f183f9a9835ec58b0a51ac151629bae00786134973c8f40c9b35bfa676b9a527f8a35acfbc15ff81a39ae7d344fd709f28e8600b4aa8c65c6b64bfe7fe36bd19b01611cbb565b33875260026020526109228486838a20611d80565b634e487b7160e01b87526032825286fd5b634e487b7160e01b87526041825286fd5b8161105257808f03830185811161104057610fef9085611a9c565b8554600160401b81101561102e578f97969594939291611015828b8094018955886119e9565b8982549160031b1b191690550190919293949596610f1a565b634e487b7160e01b8f5260418a528a8ffd5b634e487b7160e01b8f5260118a528a8ffd5b634e487b7160e01b8e5260118952898efd5b865162461bcd60e51b8152602081870152601b818801527f416c726561647920696e697469616c697a656420636c757374657200000000006044820152606490fd5b5091903461022157602090816003193601126101845783356001600160401b0381116104b7576110d99036908601611612565b929094825190848783376001828601818152839003840190922080546001600160a01b039061110b9082161515611a50565b6001820133895280865260ff878a2054161561136d573389528552858820805460ff1916905560028201808652868920549161114a83600386016119e9565b909182549160031b1b19169055338952855287868120556005906005830192835493841561135a5760001994850190556111879190600601611a9c565b338852600385528588209188855b6111e0575b50887f8e705b58b23a2bb7ce17d2ef262b1ffd19a1afe45787a31689acc56e928cefb88989896111d48f8351948486958652850191611c59565b9033908301520390a180f35b8354808210156113545761020c6112066111fa84886119e9565b508b51928380926118ef565b805190890120611217368c8f611ad1565b8981519101201461122b5750850185611195565b82819c97969c019081116113415761124661124e91866119e9565b5091856119e9565b61132f579061125c91611b75565b8254801561131c57019261127084846119e9565b91909161130a57899a5091816111d4969594936112af7f8e705b58b23a2bb7ce17d2ef262b1ffd19a1afe45787a31689acc56e928cefb89c94546118b5565b90816112c7575b50505050505595943880808061119a565b8490601f948584116001146112e857505050509050555b88388080806112b6565b849395839561130394528c86209601901c8501908501611b17565b55556112de565b634e487b7160e01b8a52898b5260248afd5b634e487b7160e01b8a5260318b5260248afd5b634e487b7160e01b8b528a8c5260248bfd5b634e487b7160e01b8b5260118c5260248bfd5b5061119a565b634e487b7160e01b8b526011865260248bfd5b865162461bcd60e51b8152808501879052601860248201527f4e6f7420726567697374657265642073657175656e63657200000000000000006044820152606490fd5b509190346102215760203660031901126102215782356001600160401b038111610184576113e19036908501611612565b82519491819086378401936020816001966001815203019020839181015491611409836119b7565b946003809301905b848110611425578551806101f3898261168e565b806114318992846119e9565b90546001600160a01b0391871b1c811661144d575b5001611411565b93819461145d61146e93866119e9565b905490881b1c16610b7e828b611a17565b9238611446565b5050346102215760209060076114b861148d36611644565b9180879692949651968737600190860190815285900387019094206001600160a01b0394019161199e565b541615159051908152f35b508234610225578060031936011261022557908054906114e28261189e565b926114ef8551948561187d565b82845290815260207f8a35acfbc15ff81a39ae7d344fd709f28e8600b4aa8c65c6b64bfe7fe36bd19b8185015b848410611530578651806101f388826115ae565b600183819289516115458161020c81896118ef565b81520192019301929061151c565b84903461022157816003193601126102215780600760209252f35b919082519283825260005b84811061159a575050826000602080949584010152601f8019910116010190565b602081830181015184830182015201611579565b6020808201906020835283518092526040830192602060408460051b8301019501936000915b8483106115e45750505050505090565b9091929394958480611602600193603f198682030187528a5161156e565b98019301930191949392906115d4565b9181601f8401121561163f578235916001600160401b03831161163f576020838186019501011161163f57565b600080fd5b604060031982011261163f576001600160401b039160043583811161163f578261167091600401611612565b9390939260243591821161163f5761168a91600401611612565b9091565b602090602060408183019282815285518094520193019160005b8281106116b6575050505090565b83516001600160a01b0316855293810193928101926001016116a8565b6116e6815160e0845260e084019061156e565b602061173a611728611716838601519460018060a01b0380961685890152604087015188820360408a015261156e565b6060860151878203606089015261156e565b6080850151868203608088015261156e565b9260a08101519385810360a087015282808651928381520195019060005b8181106117a75750505061179d6040939260c0859301519660c081880391015261178b875160608852606088019061156e565b9080880151908783039088015261156e565b9401511691015290565b8251861687529584019591840191600101611758565b600435906001600160a01b038216820361163f57565b606060031982011261163f576001600160401b039160043583811161163f57826117ff91600401611612565b9390939260243591821161163f5761181991600401611612565b90916044356001600160a01b038116810361163f5790565b60e081019081106001600160401b0382111761184c57604052565b634e487b7160e01b600052604160045260246000fd5b606081019081106001600160401b0382111761184c57604052565b90601f801991011681019081106001600160401b0382111761184c57604052565b6001600160401b03811161184c5760051b60200190565b90600182811c921680156118e5575b60208310146118cf57565b634e487b7160e01b600052602260045260246000fd5b91607f16916118c4565b8054600093926118fe826118b5565b918282526020936001916001811690816000146119665750600114611925575b5050505050565b90939495506000929192528360002092846000945b8386106119525750505050010190388080808061191e565b80548587018301529401938590820161193a565b60ff19168685015250505090151560051b01019150388080808061191e565b6020908260405193849283378101600181520301902090565b6020919283604051948593843782019081520301902090565b906119c18261189e565b6119ce604051918261187d565b82815280926119df601f199161189e565b0190602036910137565b8054821015611a015760005260206000200190600090565b634e487b7160e01b600052603260045260246000fd5b8051821015611a015760209160051b010190565b6000198114611a3a5760010190565b634e487b7160e01b600052601160045260246000fd5b15611a5757565b60405162461bcd60e51b815260206004820152601c60248201527f50726f706f73657220736574206e6f7420696e697469616c697a6564000000006044820152606490fd5b8054600160401b81101561184c57611ab9916001820181556119e9565b819291549060031b91821b91600019901b1916179055565b9291926001600160401b03821161184c5760405191611afa601f8201601f19166020018461187d565b82948184528183011161163f578281602093846000960137010152565b818110611b22575050565b60008155600101611b17565b9190601f8111611b3d57505050565b611b69926000526020600020906020601f840160051c83019310611b6b575b601f0160051c0190611b17565b565b9091508190611b5c565b90808214611c5557611b8781546118b5565b906001600160401b03821161184c57611baa82611ba485546118b5565b85611b2e565b600090601f8311600114611bea57611bdb929160009183611bdf575b50508160011b916000199060031b1c19161790565b9055565b015490503880611bc6565b815260208082208483528183209291601f1985169083905b828210611c3c575050908460019594939210611c23575b505050811b019055565b015460001960f88460031b161c19169055388080611c19565b8495819295850154815560018091019601940190611c02565b5050565b908060209392818452848401376000828201840152601f01601f1916010190565b90815491600160401b83101561184c5782611c9d916001611b69950181556119e9565b90919060018060a01b038084549260031b9316831b921b1916179055565b9092916001600160401b03811161184c57611ce081611cda84546118b5565b84611b2e565b6000601f8211600114611d1c578190611bdb939495600092611d115750508160011b916000199060031b1c19161790565b013590503880611bc6565b601f19821694838252602091602081209281905b888210611d6857505083600195969710611d4e57505050811b019055565b0135600019600384901b60f8161c19169055388080611c19565b80600184968294958701358155019501920190611d30565b9190918054600160401b81101561184c57611da0916001820181556119e9565b929092611db057611b6992611cbb565b634e487b7160e01b600052600060045260246000fd5b90611de09060409396959496606084526060840191611c59565b6001600160a01b0390951660208201520152565b15611dfb57565b60405162461bcd60e51b815260206004820152601760248201527f4e6f7420696e697469616c697a656420636c75737465720000000000000000006044820152606490fd5b60405190611e4d82611831565b8160c06060918281526000602082015282604082015282808201528260808201528260a082015260405192611e8184611862565b8084526020840152600060408401520152565b90604051918281549182825260209260208301916000526020600020936000905b828210611ecb57505050611b699250038361187d565b85546001600160a01b031684526001958601958895509381019390910190611eb5565b90604051611efb81611862565b604081938151611f0f8161020c81856118ef565b83528151611f248161020c81600186016118ef565b6020840152600201546001600160a01b0316910152565b93611f5860409492611f6694989798606088526060880191611c59565b918583036020870152611c59565b6001600160a01b03909416910152565b903590601e198136030182121561163f57018035906001600160401b03821161163f5760200191813603831361163f57565b356001600160a01b038116810361163f5790565b6000546001600160a01b03163303611fd057565b60405163118cdaa760e01b8152336004820152602490fdfea26469706673582212208e3e3299203cd9cb78cb77944bbcc0f65530bda2148f38e52078efc8e5bfea9c64736f6c63430008190033",
    "linkReferences": {}
  },
  "methodIdentifiers": {
    "BLOCK_MARGIN()": "071c55ac",
    "addRollup(string,(string,address,string,string,string,address,(string,string,address)))": "d7890c04",
    "deregisterSequencer(string)": "2432fdfc",
    "getAllClusterIds()": "15a45bdb",
    "getClustersByOwner(address)": "78a616f5",
    "getClustersBySequencer(address)": "ee6d992f",
    "getExecutorList(string,string)": "65f413bb",
    "getMaxSequencerNumber(string)": "54fbb8bc",
    "getRollupInfo(string,string)": "99496f27",
    "getRollupInfoList(string)": "50ef5a17",
    "getSequencerList(string)": "23fd869f",
    "initializeCluster(string,uint256)": "3edb0dbf",
    "isAddedRollup(string,string)": "1a6b7d33",
    "isRegisteredRollupExecutor(string,string,address)": "ccbd85ce",
    "isRegisteredSequencer(string,address)": "d4bb786f",
    "owner()": "8da5cb5b",
    "registerRollupExecutor(string,string,address)": "a7b15420",
    "registerSequencer(string)": "8a4abab8",
    "renounceOwnership()": "715018a6",
    "transferOwnership(address)": "f2fde38b"
  },
  "id": 182
}