{
  "_format": "hh-sol-artifact-1",
  "contractName": "LivenessRadius",
  "sourceName": "contracts/LivenessRadius.sol",
  "abi": [
    {
      "inputs": [],
      "stateMutability": "nonpayable",
      "type": "constructor"
    },
    {
      "inputs": [],
      "name": "AccessControlBadConfirmation",
      "type": "error"
    },
    {
      "inputs": [
        {
          "internalType": "address",
          "name": "account",
          "type": "address"
        },
        {
          "internalType": "bytes32",
          "name": "neededRole",
          "type": "bytes32"
        }
      ],
      "name": "AccessControlUnauthorizedAccount",
      "type": "error"
    },
    {
      "inputs": [],
      "name": "InvalidInitialization",
      "type": "error"
    },
    {
      "inputs": [],
      "name": "NotInitializing",
      "type": "error"
    },
    {
      "inputs": [
        {
          "internalType": "address",
          "name": "owner",
          "type": "address"
        }
      ],
      "name": "OwnableInvalidOwner",
      "type": "error"
    },
    {
      "inputs": [
        {
          "internalType": "address",
          "name": "account",
          "type": "address"
        }
      ],
      "name": "OwnableUnauthorizedAccount",
      "type": "error"
    },
    {
      "inputs": [],
      "name": "ReentrancyGuardReentrantCall",
      "type": "error"
    },
    {
      "anonymous": false,
      "inputs": [
        {
          "indexed": false,
          "internalType": "string",
          "name": "clusterId",
          "type": "string"
        },
        {
          "indexed": false,
          "internalType": "string",
          "name": "rollupId",
          "type": "string"
        },
        {
          "indexed": false,
          "internalType": "address",
          "name": "rollupOwnerAddress",
          "type": "address"
        }
      ],
      "name": "AddRollup",
      "type": "event"
    },
    {
      "anonymous": false,
      "inputs": [
        {
          "indexed": false,
          "internalType": "string",
          "name": "clusterId",
          "type": "string"
        },
        {
          "indexed": false,
          "internalType": "address",
          "name": "sequencerAddress",
          "type": "address"
        }
      ],
      "name": "DeregisterSequencer",
      "type": "event"
    },
    {
      "anonymous": false,
      "inputs": [
        {
          "indexed": false,
          "internalType": "string",
          "name": "clusterId",
          "type": "string"
        },
        {
          "indexed": false,
          "internalType": "address",
          "name": "owner",
          "type": "address"
        },
        {
          "indexed": false,
          "internalType": "uint256",
          "name": "maxSequencerNumber",
          "type": "uint256"
        }
      ],
      "name": "InitializeCluster",
      "type": "event"
    },
    {
      "anonymous": false,
      "inputs": [
        {
          "indexed": false,
          "internalType": "uint64",
          "name": "version",
          "type": "uint64"
        }
      ],
      "name": "Initialized",
      "type": "event"
    },
    {
      "anonymous": false,
      "inputs": [
        {
          "indexed": true,
          "internalType": "address",
          "name": "previousOwner",
          "type": "address"
        },
        {
          "indexed": true,
          "internalType": "address",
          "name": "newOwner",
          "type": "address"
        }
      ],
      "name": "OwnershipTransferred",
      "type": "event"
    },
    {
      "anonymous": false,
      "inputs": [
        {
          "indexed": false,
          "internalType": "string",
          "name": "clusterId",
          "type": "string"
        },
        {
          "indexed": false,
          "internalType": "string",
          "name": "rollupId",
          "type": "string"
        },
        {
          "indexed": false,
          "internalType": "address",
          "name": "executorAddress",
          "type": "address"
        }
      ],
      "name": "RegisterRollupExecutor",
      "type": "event"
    },
    {
      "anonymous": false,
      "inputs": [
        {
          "indexed": false,
          "internalType": "string",
          "name": "clusterId",
          "type": "string"
        },
        {
          "indexed": false,
          "internalType": "address",
          "name": "sequencerAddress",
          "type": "address"
        },
        {
          "indexed": false,
          "internalType": "uint256",
          "name": "index",
          "type": "uint256"
        }
      ],
      "name": "RegisterSequencer",
      "type": "event"
    },
    {
      "anonymous": false,
      "inputs": [
        {
          "indexed": true,
          "internalType": "bytes32",
          "name": "role",
          "type": "bytes32"
        },
        {
          "indexed": true,
          "internalType": "bytes32",
          "name": "previousAdminRole",
          "type": "bytes32"
        },
        {
          "indexed": true,
          "internalType": "bytes32",
          "name": "newAdminRole",
          "type": "bytes32"
        }
      ],
      "name": "RoleAdminChanged",
      "type": "event"
    },
    {
      "anonymous": false,
      "inputs": [
        {
          "indexed": true,
          "internalType": "bytes32",
          "name": "role",
          "type": "bytes32"
        },
        {
          "indexed": true,
          "internalType": "address",
          "name": "account",
          "type": "address"
        },
        {
          "indexed": true,
          "internalType": "address",
          "name": "sender",
          "type": "address"
        }
      ],
      "name": "RoleGranted",
      "type": "event"
    },
    {
      "anonymous": false,
      "inputs": [
        {
          "indexed": true,
          "internalType": "bytes32",
          "name": "role",
          "type": "bytes32"
        },
        {
          "indexed": true,
          "internalType": "address",
          "name": "account",
          "type": "address"
        },
        {
          "indexed": true,
          "internalType": "address",
          "name": "sender",
          "type": "address"
        }
      ],
      "name": "RoleRevoked",
      "type": "event"
    },
    {
      "inputs": [],
      "name": "BLOCK_MARGIN",
      "outputs": [
        {
          "internalType": "uint256",
          "name": "",
          "type": "uint256"
        }
      ],
      "stateMutability": "view",
      "type": "function"
    },
    {
      "inputs": [],
      "name": "DEFAULT_ADMIN_ROLE",
      "outputs": [
        {
          "internalType": "bytes32",
          "name": "",
          "type": "bytes32"
        }
      ],
      "stateMutability": "view",
      "type": "function"
    },
    {
      "inputs": [
        {
          "internalType": "string",
          "name": "clusterId",
          "type": "string"
        },
        {
          "components": [
            {
              "internalType": "string",
              "name": "rollupId",
              "type": "string"
            },
            {
              "internalType": "address",
              "name": "owner",
              "type": "address"
            },
            {
              "internalType": "string",
              "name": "rollupType",
              "type": "string"
            },
            {
              "internalType": "string",
              "name": "encryptedTransactionType",
              "type": "string"
            },
            {
              "components": [
                {
                  "internalType": "string",
                  "name": "platform",
                  "type": "string"
                },
                {
                  "internalType": "string",
                  "name": "serviceProvider",
                  "type": "string"
                }
              ],
              "internalType": "struct ILivenessRadius.ValidationInfo",
              "name": "validationInfo",
              "type": "tuple"
            },
            {
              "internalType": "string",
              "name": "orderCommitmentType",
              "type": "string"
            }
          ],
          "internalType": "struct ILivenessRadius.AddRollupInfo",
          "name": "rollupInfo",
          "type": "tuple"
        }
      ],
      "name": "addRollup",
      "outputs": [],
      "stateMutability": "nonpayable",
      "type": "function"
    },
    {
      "inputs": [
        {
          "internalType": "string",
          "name": "clusterId",
          "type": "string"
        }
      ],
      "name": "deregisterSequencer",
      "outputs": [],
      "stateMutability": "nonpayable",
      "type": "function"
    },
    {
      "inputs": [],
      "name": "getAllClusterIds",
      "outputs": [
        {
          "internalType": "string[]",
          "name": "",
          "type": "string[]"
        }
      ],
      "stateMutability": "view",
      "type": "function"
    },
    {
      "inputs": [
        {
          "internalType": "address",
          "name": "owner",
          "type": "address"
        }
      ],
      "name": "getClustersByOwner",
      "outputs": [
        {
          "internalType": "string[]",
          "name": "",
          "type": "string[]"
        }
      ],
      "stateMutability": "view",
      "type": "function"
    },
    {
      "inputs": [
        {
          "internalType": "address",
          "name": "sequencer",
          "type": "address"
        }
      ],
      "name": "getClustersBySequencer",
      "outputs": [
        {
          "internalType": "string[]",
          "name": "",
          "type": "string[]"
        }
      ],
      "stateMutability": "view",
      "type": "function"
    },
    {
      "inputs": [
        {
          "internalType": "string",
          "name": "clusterId",
          "type": "string"
        },
        {
          "internalType": "string",
          "name": "rollupId",
          "type": "string"
        }
      ],
      "name": "getExecutorList",
      "outputs": [
        {
          "internalType": "address[]",
          "name": "",
          "type": "address[]"
        }
      ],
      "stateMutability": "view",
      "type": "function"
    },
    {
      "inputs": [
        {
          "internalType": "string",
          "name": "clusterId",
          "type": "string"
        }
      ],
      "name": "getMaxSequencerNumber",
      "outputs": [
        {
          "internalType": "uint256",
          "name": "",
          "type": "uint256"
        }
      ],
      "stateMutability": "view",
      "type": "function"
    },
    {
      "inputs": [
        {
          "internalType": "bytes32",
          "name": "role",
          "type": "bytes32"
        }
      ],
      "name": "getRoleAdmin",
      "outputs": [
        {
          "internalType": "bytes32",
          "name": "",
          "type": "bytes32"
        }
      ],
      "stateMutability": "view",
      "type": "function"
    },
    {
      "inputs": [
        {
          "internalType": "string",
          "name": "clusterId",
          "type": "string"
        },
        {
          "internalType": "string",
          "name": "rollupId",
          "type": "string"
        }
      ],
      "name": "getRollupInfo",
      "outputs": [
        {
          "components": [
            {
              "internalType": "string",
              "name": "rollupId",
              "type": "string"
            },
            {
              "internalType": "address",
              "name": "owner",
              "type": "address"
            },
            {
              "internalType": "string",
              "name": "rollupType",
              "type": "string"
            },
            {
              "internalType": "string",
              "name": "encryptedTransactionType",
              "type": "string"
            },
            {
              "components": [
                {
                  "internalType": "string",
                  "name": "platform",
                  "type": "string"
                },
                {
                  "internalType": "string",
                  "name": "serviceProvider",
                  "type": "string"
                }
              ],
              "internalType": "struct ILivenessRadius.ValidationInfo",
              "name": "validationInfo",
              "type": "tuple"
            },
            {
              "internalType": "string",
              "name": "orderCommitmentType",
              "type": "string"
            },
            {
              "internalType": "address[]",
              "name": "executorAddresses",
              "type": "address[]"
            }
          ],
          "internalType": "struct ILivenessRadius.RollupInfo",
          "name": "",
          "type": "tuple"
        }
      ],
      "stateMutability": "view",
      "type": "function"
    },
    {
      "inputs": [
        {
          "internalType": "string",
          "name": "clusterId",
          "type": "string"
        }
      ],
      "name": "getRollupInfoList",
      "outputs": [
        {
          "components": [
            {
              "internalType": "string",
              "name": "rollupId",
              "type": "string"
            },
            {
              "internalType": "address",
              "name": "owner",
              "type": "address"
            },
            {
              "internalType": "string",
              "name": "rollupType",
              "type": "string"
            },
            {
              "internalType": "string",
              "name": "encryptedTransactionType",
              "type": "string"
            },
            {
              "components": [
                {
                  "internalType": "string",
                  "name": "platform",
                  "type": "string"
                },
                {
                  "internalType": "string",
                  "name": "serviceProvider",
                  "type": "string"
                }
              ],
              "internalType": "struct ILivenessRadius.ValidationInfo",
              "name": "validationInfo",
              "type": "tuple"
            },
            {
              "internalType": "string",
              "name": "orderCommitmentType",
              "type": "string"
            },
            {
              "internalType": "address[]",
              "name": "executorAddresses",
              "type": "address[]"
            }
          ],
          "internalType": "struct ILivenessRadius.RollupInfo[]",
          "name": "",
          "type": "tuple[]"
        }
      ],
      "stateMutability": "view",
      "type": "function"
    },
    {
      "inputs": [
        {
          "internalType": "string",
          "name": "clusterId",
          "type": "string"
        }
      ],
      "name": "getSequencerList",
      "outputs": [
        {
          "internalType": "address[]",
          "name": "",
          "type": "address[]"
        }
      ],
      "stateMutability": "view",
      "type": "function"
    },
    {
      "inputs": [
        {
          "internalType": "bytes32",
          "name": "role",
          "type": "bytes32"
        },
        {
          "internalType": "address",
          "name": "account",
          "type": "address"
        }
      ],
      "name": "grantRole",
      "outputs": [],
      "stateMutability": "nonpayable",
      "type": "function"
    },
    {
      "inputs": [
        {
          "internalType": "bytes32",
          "name": "role",
          "type": "bytes32"
        },
        {
          "internalType": "address",
          "name": "account",
          "type": "address"
        }
      ],
      "name": "hasRole",
      "outputs": [
        {
          "internalType": "bool",
          "name": "",
          "type": "bool"
        }
      ],
      "stateMutability": "view",
      "type": "function"
    },
    {
      "inputs": [],
      "name": "initialize",
      "outputs": [],
      "stateMutability": "nonpayable",
      "type": "function"
    },
    {
      "inputs": [
        {
          "internalType": "string",
          "name": "clusterId",
          "type": "string"
        },
        {
          "internalType": "uint256",
          "name": "maxSequencerNumber",
          "type": "uint256"
        }
      ],
      "name": "initializeCluster",
      "outputs": [],
      "stateMutability": "nonpayable",
      "type": "function"
    },
    {
      "inputs": [
        {
          "internalType": "string",
          "name": "clusterId",
          "type": "string"
        },
        {
          "internalType": "string",
          "name": "rollupId",
          "type": "string"
        }
      ],
      "name": "isAddedRollup",
      "outputs": [
        {
          "internalType": "bool",
          "name": "",
          "type": "bool"
        }
      ],
      "stateMutability": "view",
      "type": "function"
    },
    {
      "inputs": [
        {
          "internalType": "string",
          "name": "clusterId",
          "type": "string"
        },
        {
          "internalType": "string",
          "name": "rollupId",
          "type": "string"
        },
        {
          "internalType": "address",
          "name": "executorAddress",
          "type": "address"
        }
      ],
      "name": "isRegisteredRollupExecutor",
      "outputs": [
        {
          "internalType": "bool",
          "name": "",
          "type": "bool"
        }
      ],
      "stateMutability": "view",
      "type": "function"
    },
    {
      "inputs": [
        {
          "internalType": "string",
          "name": "clusterId",
          "type": "string"
        },
        {
          "internalType": "address",
          "name": "sequencerAddress",
          "type": "address"
        }
      ],
      "name": "isRegisteredSequencer",
      "outputs": [
        {
          "internalType": "bool",
          "name": "",
          "type": "bool"
        }
      ],
      "stateMutability": "view",
      "type": "function"
    },
    {
      "inputs": [],
      "name": "owner",
      "outputs": [
        {
          "internalType": "address",
          "name": "",
          "type": "address"
        }
      ],
      "stateMutability": "view",
      "type": "function"
    },
    {
      "inputs": [
        {
          "internalType": "string",
          "name": "clusterId",
          "type": "string"
        },
        {
          "internalType": "string",
          "name": "rollupId",
          "type": "string"
        },
        {
          "internalType": "address",
          "name": "rollupExecutorAddress",
          "type": "address"
        }
      ],
      "name": "registerRollupExecutor",
      "outputs": [],
      "stateMutability": "nonpayable",
      "type": "function"
    },
    {
      "inputs": [
        {
          "internalType": "string",
          "name": "clusterId",
          "type": "string"
        }
      ],
      "name": "registerSequencer",
      "outputs": [],
      "stateMutability": "nonpayable",
      "type": "function"
    },
    {
      "inputs": [],
      "name": "renounceOwnership",
      "outputs": [],
      "stateMutability": "nonpayable",
      "type": "function"
    },
    {
      "inputs": [
        {
          "internalType": "bytes32",
          "name": "role",
          "type": "bytes32"
        },
        {
          "internalType": "address",
          "name": "callerConfirmation",
          "type": "address"
        }
      ],
      "name": "renounceRole",
      "outputs": [],
      "stateMutability": "nonpayable",
      "type": "function"
    },
    {
      "inputs": [
        {
          "internalType": "bytes32",
          "name": "role",
          "type": "bytes32"
        },
        {
          "internalType": "address",
          "name": "account",
          "type": "address"
        }
      ],
      "name": "revokeRole",
      "outputs": [],
      "stateMutability": "nonpayable",
      "type": "function"
    },
    {
      "inputs": [
        {
          "internalType": "bytes4",
          "name": "interfaceId",
          "type": "bytes4"
        }
      ],
      "name": "supportsInterface",
      "outputs": [
        {
          "internalType": "bool",
          "name": "",
          "type": "bool"
        }
      ],
      "stateMutability": "view",
      "type": "function"
    },
    {
      "inputs": [
        {
          "internalType": "address",
          "name": "newOwner",
          "type": "address"
        }
      ],
      "name": "transferOwnership",
      "outputs": [],
      "stateMutability": "nonpayable",
      "type": "function"
    }
  ],
  "bytecode": "0x60806040523480156200001157600080fd5b50620000226200002860201b60201c565b6200019c565b60006200003a6200013260201b60201c565b90508060000160089054906101000a900460ff161562000086576040517ff92ee8a900000000000000000000000000000000000000000000000000000000815260040160405180910390fd5b67ffffffffffffffff80168160000160009054906101000a900467ffffffffffffffff1667ffffffffffffffff16146200012f5767ffffffffffffffff8160000160006101000a81548167ffffffffffffffff021916908367ffffffffffffffff1602179055507fc7f505b2f371ae2175ee4913f4499e1f2633a7b5936321eed1cdaeb6115181d267ffffffffffffffff6040516200012691906200017f565b60405180910390a15b50565b60007ff0c57e16840df040f15088dc2f81fe391c3923bec73e23a9662efc9c229c6a00905090565b600067ffffffffffffffff82169050919050565b62000179816200015a565b82525050565b60006020820190506200019660008301846200016e565b92915050565b614e7680620001ac6000396000f3fe608060405234801561001057600080fd5b50600436106101c45760003560e01c8063715018a6116100f9578063a217fddf11610097578063d4bb786f11610071578063d4bb786f14610529578063d547741f14610559578063ee6d992f14610575578063f2fde38b146105a5576101c4565b8063a217fddf146104bf578063a7b15420146104dd578063ccbd85ce146104f9576101c4565b80638a4abab8116100d35780638a4abab8146104255780638da5cb5b1461044157806391d148541461045f57806399496f271461048f576101c4565b8063715018a6146103e157806378a616f5146103eb5780638129fc1c1461041b576101c4565b8063248a9ca3116101665780633edb0dbf116101405780633edb0dbf1461033557806350ef5a171461035157806354fbb8bc1461038157806365f413bb146103b1576101c4565b8063248a9ca3146102cd5780632f2ff15d146102fd57806336568abe14610319576101c4565b806315a45bdb116101a257806315a45bdb146102335780631a6b7d331461025157806323fd869f146102815780632432fdfc146102b1576101c4565b806301ffc9a7146101c957806305a3a1bc146101f9578063071c55ac14610215575b600080fd5b6101e360048036038101906101de91906135ad565b6105c1565b6040516101f091906135f5565b60405180910390f35b610213600480360381019061020e9190613699565b61063b565b005b61021d610a2c565b60405161022a919061372e565b60405180910390f35b61023b610a31565b604051610248919061389b565b60405180910390f35b61026b600480360381019061026691906138bd565b610b0a565b60405161027891906135f5565b60405180910390f35b61029b6004803603810190610296919061393e565b610baa565b6040516102a89190613a7b565b60405180910390f35b6102cb60048036038101906102c6919061393e565b610d5b565b005b6102e760048036038101906102e29190613ad3565b6111a5565b6040516102f49190613b0f565b60405180910390f35b61031760048036038101906103129190613b56565b6111d3565b005b610333600480360381019061032e9190613b56565b6111f5565b005b61034f600480360381019061034a9190613bc2565b611270565b005b61036b6004803603810190610366919061393e565b611539565b6040516103789190613e56565b60405180910390f35b61039b6004803603810190610396919061393e565b611abd565b6040516103a8919061372e565b60405180910390f35b6103cb60048036038101906103c691906138bd565b611aea565b6040516103d89190613a7b565b60405180910390f35b6103e9611d68565b005b61040560048036038101906104009190613e78565b611d7c565b604051610412919061389b565b60405180910390f35b610423611e94565b005b61043f600480360381019061043a919061393e565b612032565b005b6104496123fa565b6040516104569190613eb4565b60405180910390f35b61047960048036038101906104749190613b56565b612432565b60405161048691906135f5565b60405180910390f35b6104a960048036038101906104a491906138bd565b6124ab565b6040516104b69190613f8e565b60405180910390f35b6104c761291d565b6040516104d49190613b0f565b60405180910390f35b6104f760048036038101906104f29190613fb0565b612924565b005b610513600480360381019061050e9190613fb0565b612b99565b60405161052091906135f5565b60405180910390f35b610543600480360381019061053e9190614045565b612c34565b60405161055091906135f5565b60405180910390f35b610573600480360381019061056e9190613b56565b612cac565b005b61058f600480360381019061058a9190613e78565b612cce565b60405161059c919061389b565b60405180910390f35b6105bf60048036038101906105ba9190613e78565b612de6565b005b60007f7965db0b000000000000000000000000000000000000000000000000000000007bffffffffffffffffffffffffffffffffffffffffffffffffffffffff1916827bffffffffffffffffffffffffffffffffffffffffffffffffffffffff19161480610634575061063382612e6c565b5b9050919050565b600080848460405161064e9291906140e4565b908152602001604051809103902090503373ffffffffffffffffffffffffffffffffffffffff168160000160009054906101000a900473ffffffffffffffffffffffffffffffffffffffff1673ffffffffffffffffffffffffffffffffffffffff16146106f0576040517f08c379a00000000000000000000000000000000000000000000000000000000081526004016106e79061415a565b60405180910390fd5b6000816007018380600001906107069190614189565b6040516107149291906140e4565b90815260200160405180910390209050600073ffffffffffffffffffffffffffffffffffffffff168160000160009054906101000a900473ffffffffffffffffffffffffffffffffffffffff1673ffffffffffffffffffffffffffffffffffffffff16146107b7576040517f08c379a00000000000000000000000000000000000000000000000000000000081526004016107ae90614238565b60405180910390fd5b816008018380600001906107cb9190614189565b9091806001815401808255809150506001900390600052602060002001600090919290919290919290919250918261080492919061449e565b508260200160208101906108189190613e78565b8160000160006101000a81548173ffffffffffffffffffffffffffffffffffffffff021916908373ffffffffffffffffffffffffffffffffffffffff16021790555082806040019061086a9190614189565b82600101918261087b92919061449e565b5082806060019061088c9190614189565b82600201918261089d92919061449e565b50828060a001906108ae9190614189565b8260050191826108bf92919061449e565b508280608001906108d0919061456e565b8160030181816108e091906145ec565b90505060018160060160008560200160208101906108fe9190613e78565b73ffffffffffffffffffffffffffffffffffffffff1673ffffffffffffffffffffffffffffffffffffffff16815260200190815260200160002060006101000a81548160ff021916908315150217905550806007018360200160208101906109669190613e78565b9080600181540180825580915050600190039060005260206000200160009091909190916101000a81548173ffffffffffffffffffffffffffffffffffffffff021916908373ffffffffffffffffffffffffffffffffffffffff1602179055507fe1a954bd87863d105bde989337bb536ce0b77c9e2f9571ba90ef69e25203f02985858580600001906109f99190614189565b876020016020810190610a0c9190613e78565b604051610a1d959493929190614627565b60405180910390a15050505050565b600781565b60606003805480602002602001604051908101604052809291908181526020016000905b82821015610b01578382906000526020600020018054610a74906142c1565b80601f0160208091040260200160405190810160405280929190818152602001828054610aa0906142c1565b8015610aed5780601f10610ac257610100808354040283529160200191610aed565b820191906000526020600020905b815481529060010190602001808311610ad057829003601f168201915b505050505081526020019060010190610a55565b50505050905090565b60008073ffffffffffffffffffffffffffffffffffffffff1660008686604051610b359291906140e4565b90815260200160405180910390206007018484604051610b569291906140e4565b908152602001604051809103902060000160009054906101000a900473ffffffffffffffffffffffffffffffffffffffff1673ffffffffffffffffffffffffffffffffffffffff1614159050949350505050565b60606000808484604051610bbf9291906140e4565b90815260200160405180910390209050600080826004015467ffffffffffffffff811115610bf057610bef614263565b5b604051908082528060200260200182016040528015610c1e5781602001602082028036833780820191505090505b50905060005b8360040154811015610d4e57600073ffffffffffffffffffffffffffffffffffffffff16846003018281548110610c5e57610c5d614670565b5b9060005260206000200160009054906101000a900473ffffffffffffffffffffffffffffffffffffffff1673ffffffffffffffffffffffffffffffffffffffff1614610d4157836003018181548110610cba57610cb9614670565b5b9060005260206000200160009054906101000a900473ffffffffffffffffffffffffffffffffffffffff16828481518110610cf857610cf7614670565b5b602002602001019073ffffffffffffffffffffffffffffffffffffffff16908173ffffffffffffffffffffffffffffffffffffffff16815250508280610d3d906146ce565b9350505b8080600101915050610c24565b5080935050505092915050565b6000808383604051610d6e9291906140e4565b90815260200160405180910390209050600073ffffffffffffffffffffffffffffffffffffffff168160000160009054906101000a900473ffffffffffffffffffffffffffffffffffffffff1673ffffffffffffffffffffffffffffffffffffffff1603610e11576040517f08c379a0000000000000000000000000000000000000000000000000000000008152600401610e0890614762565b60405180910390fd5b8060010160003373ffffffffffffffffffffffffffffffffffffffff1673ffffffffffffffffffffffffffffffffffffffff16815260200190815260200160002060009054906101000a900460ff16610e9f576040517f08c379a0000000000000000000000000000000000000000000000000000000008152600401610e96906147ce565b60405180910390fd5b60008160010160003373ffffffffffffffffffffffffffffffffffffffff1673ffffffffffffffffffffffffffffffffffffffff16815260200190815260200160002060006101000a81548160ff02191690831515021790555060008160020160003373ffffffffffffffffffffffffffffffffffffffff1673ffffffffffffffffffffffffffffffffffffffff1681526020019081526020016000205490506000826003018281548110610f5757610f56614670565b5b9060005260206000200160006101000a81548173ffffffffffffffffffffffffffffffffffffffff021916908373ffffffffffffffffffffffffffffffffffffffff1602179055508160020160003373ffffffffffffffffffffffffffffffffffffffff1673ffffffffffffffffffffffffffffffffffffffff16815260200190815260200160002060009055816005016000815480929190610ff9906147ee565b9190505550816006018190806001815401808255809150506001900390600052602060002001600090919091909150556000600260003373ffffffffffffffffffffffffffffffffffffffff1673ffffffffffffffffffffffffffffffffffffffff168152602001908152602001600020905060005b818054905081101561116257858560405161108b929190614847565b60405180910390208282815481106110a6576110a5614670565b5b906000526020600020016040516110bd91906148f8565b6040518091039020036111555781600183805490506110dc919061490f565b815481106110ed576110ec614670565b5b9060005260206000200182828154811061110a57611109614670565b5b906000526020600020019081611120919061496e565b508180548061113257611131614a56565b5b60019003818190600052602060002001600061114e919061347b565b9055611162565b808060010191505061106f565b507f8e705b58b23a2bb7ce17d2ef262b1ffd19a1afe45787a31689acc56e928cefb885853360405161119693929190614a85565b60405180910390a15050505050565b6000806111b0612ed6565b905080600001600084815260200190815260200160002060010154915050919050565b6111dc826111a5565b6111e581612efe565b6111ef8383612f12565b50505050565b6111fd613013565b73ffffffffffffffffffffffffffffffffffffffff168173ffffffffffffffffffffffffffffffffffffffff1614611261576040517f6697b23200000000000000000000000000000000000000000000000000000000815260040160405180910390fd5b61126b828261301b565b505050565b60008084846040516112839291906140e4565b90815260200160405180910390209050600073ffffffffffffffffffffffffffffffffffffffff168160000160009054906101000a900473ffffffffffffffffffffffffffffffffffffffff1673ffffffffffffffffffffffffffffffffffffffff1614611326576040517f08c379a000000000000000000000000000000000000000000000000000000000815260040161131d90614b03565b60405180910390fd5b338160000160006101000a81548173ffffffffffffffffffffffffffffffffffffffff021916908373ffffffffffffffffffffffffffffffffffffffff1602179055508181600401819055506000816005018190555060005b8281101561143c578160060181600185611399919061490f565b6113a3919061490f565b90806001815401808255809150506001900390600052602060002001600090919091909150558160030160009080600181540180825580915050600190039060005260206000200160009091909190916101000a81548173ffffffffffffffffffffffffffffffffffffffff021916908373ffffffffffffffffffffffffffffffffffffffff160217905550808060010191505061137f565b50600384849091806001815401808255809150506001900390600052602060002001600090919290919290919290919250918261147a92919061449e565b50600160003373ffffffffffffffffffffffffffffffffffffffff1673ffffffffffffffffffffffffffffffffffffffff1681526020019081526020016000208484909180600181540180825580915050600190039060005260206000200160009091929091929091929091925091826114f592919061449e565b507f3eeb4f183f9a9835ec58b0a51ac151629bae00786134973c8f40c9b35bfa676b8484338560405161152b9493929190614b23565b60405180910390a150505050565b6060600080848460405161154e9291906140e4565b908152602001604051809103902090506000816008018054905067ffffffffffffffff81111561158157611580614263565b5b6040519080825280602002602001820160405280156115ba57816020015b6115a76134bb565b81526020019060019003908161159f5790505b50905060005b8260080180549050811015611ab1576000836007018460080183815481106115eb576115ea614670565b5b906000526020600020016040516116029190614be6565b908152602001604051809103902090506040518060e0016040528085600801848154811061163357611632614670565b5b906000526020600020018054611648906142c1565b80601f0160208091040260200160405190810160405280929190818152602001828054611674906142c1565b80156116c15780601f10611696576101008083540402835291602001916116c1565b820191906000526020600020905b8154815290600101906020018083116116a457829003601f168201915b505050505081526020018260000160009054906101000a900473ffffffffffffffffffffffffffffffffffffffff1673ffffffffffffffffffffffffffffffffffffffff16815260200182600101805461171a906142c1565b80601f0160208091040260200160405190810160405280929190818152602001828054611746906142c1565b80156117935780601f1061176857610100808354040283529160200191611793565b820191906000526020600020905b81548152906001019060200180831161177657829003601f168201915b505050505081526020018260020180546117ac906142c1565b80601f01602080910402602001604051908101604052809291908181526020018280546117d8906142c1565b80156118255780601f106117fa57610100808354040283529160200191611825565b820191906000526020600020905b81548152906001019060200180831161180857829003601f168201915b505050505081526020018260030160405180604001604052908160008201805461184e906142c1565b80601f016020809104026020016040519081016040528092919081815260200182805461187a906142c1565b80156118c75780601f1061189c576101008083540402835291602001916118c7565b820191906000526020600020905b8154815290600101906020018083116118aa57829003601f168201915b505050505081526020016001820180546118e0906142c1565b80601f016020809104026020016040519081016040528092919081815260200182805461190c906142c1565b80156119595780601f1061192e57610100808354040283529160200191611959565b820191906000526020600020905b81548152906001019060200180831161193c57829003601f168201915b5050505050815250508152602001826005018054611976906142c1565b80601f01602080910402602001604051908101604052809291908181526020018280546119a2906142c1565b80156119ef5780601f106119c4576101008083540402835291602001916119ef565b820191906000526020600020905b8154815290600101906020018083116119d257829003601f168201915b5050505050815260200182600701805480602002602001604051908101604052809291908181526020018280548015611a7d57602002820191906000526020600020905b8160009054906101000a900473ffffffffffffffffffffffffffffffffffffffff1673ffffffffffffffffffffffffffffffffffffffff1681526020019060010190808311611a33575b5050505050815250838381518110611a9857611a97614670565b5b60200260200101819052505080806001019150506115c0565b50809250505092915050565b6000808383604051611ad09291906140e4565b908152602001604051809103902060040154905092915050565b60606000808686604051611aff9291906140e4565b908152602001604051809103902090506000816007018585604051611b259291906140e4565b908152602001604051809103902090506000805b8260070180549050811015611bd857600073ffffffffffffffffffffffffffffffffffffffff16836007018281548110611b7657611b75614670565b5b9060005260206000200160009054906101000a900473ffffffffffffffffffffffffffffffffffffffff1673ffffffffffffffffffffffffffffffffffffffff1614611bcb578180611bc7906146ce565b9250505b8080600101915050611b39565b5060008167ffffffffffffffff811115611bf557611bf4614263565b5b604051908082528060200260200182016040528015611c235781602001602082028036833780820191505090505b5090506000805b8460070180549050811015611d5757600073ffffffffffffffffffffffffffffffffffffffff16856007018281548110611c6757611c66614670565b5b9060005260206000200160009054906101000a900473ffffffffffffffffffffffffffffffffffffffff1673ffffffffffffffffffffffffffffffffffffffff1614611d4a57846007018181548110611cc357611cc2614670565b5b9060005260206000200160009054906101000a900473ffffffffffffffffffffffffffffffffffffffff16838381518110611d0157611d00614670565b5b602002602001019073ffffffffffffffffffffffffffffffffffffffff16908173ffffffffffffffffffffffffffffffffffffffff16815250508180611d46906146ce565b9250505b8080600101915050611c2a565b508195505050505050949350505050565b611d7061311d565b611d7a60006131a4565b565b6060600160008373ffffffffffffffffffffffffffffffffffffffff1673ffffffffffffffffffffffffffffffffffffffff168152602001908152602001600020805480602002602001604051908101604052809291908181526020016000905b82821015611e89578382906000526020600020018054611dfc906142c1565b80601f0160208091040260200160405190810160405280929190818152602001828054611e28906142c1565b8015611e755780601f10611e4a57610100808354040283529160200191611e75565b820191906000526020600020905b815481529060010190602001808311611e5857829003601f168201915b505050505081526020019060010190611ddd565b505050509050919050565b6000611e9e61327b565b905060008160000160089054906101000a900460ff1615905060008260000160009054906101000a900467ffffffffffffffff1690506000808267ffffffffffffffff16148015611eec5750825b9050600060018367ffffffffffffffff16148015611f21575060003073ffffffffffffffffffffffffffffffffffffffff163b145b905081158015611f2f575080155b15611f66576040517ff92ee8a900000000000000000000000000000000000000000000000000000000815260040160405180910390fd5b60018560000160006101000a81548167ffffffffffffffff021916908367ffffffffffffffff1602179055508315611fb65760018560000160086101000a81548160ff0219169083151502179055505b611fbe6132a3565b611fc66132ad565b611fcf336132bf565b831561202b5760008560000160086101000a81548160ff0219169083151502179055507fc7f505b2f371ae2175ee4913f4499e1f2633a7b5936321eed1cdaeb6115181d260016040516120229190614c4c565b60405180910390a15b5050505050565b60008083836040516120459291906140e4565b90815260200160405180910390209050600073ffffffffffffffffffffffffffffffffffffffff168160000160009054906101000a900473ffffffffffffffffffffffffffffffffffffffff1673ffffffffffffffffffffffffffffffffffffffff16036120e8576040517f08c379a00000000000000000000000000000000000000000000000000000000081526004016120df90614762565b60405180910390fd5b8060010160003373ffffffffffffffffffffffffffffffffffffffff1673ffffffffffffffffffffffffffffffffffffffff16815260200190815260200160002060009054906101000a900460ff1615612177576040517f08c379a000000000000000000000000000000000000000000000000000000000815260040161216e90614cb3565b60405180910390fd5b80600401548160050154106121c1576040517f08c379a00000000000000000000000000000000000000000000000000000000081526004016121b890614d1f565b60405180910390fd5b600081600601600183600601805490506121db919061490f565b815481106121ec576121eb614670565b5b906000526020600020015490508160060180548061220d5761220c614a56565b5b6001900381819060005260206000200160009055905560018260010160003373ffffffffffffffffffffffffffffffffffffffff1673ffffffffffffffffffffffffffffffffffffffff16815260200190815260200160002060006101000a81548160ff0219169083151502179055503382600301828154811061229457612293614670565b5b9060005260206000200160006101000a81548173ffffffffffffffffffffffffffffffffffffffff021916908373ffffffffffffffffffffffffffffffffffffffff160217905550808260020160003373ffffffffffffffffffffffffffffffffffffffff1673ffffffffffffffffffffffffffffffffffffffff16815260200190815260200160002081905550816005016000815480929190612337906146ce565b9190505550600260003373ffffffffffffffffffffffffffffffffffffffff1673ffffffffffffffffffffffffffffffffffffffff1681526020019081526020016000208484909180600181540180825580915050600190039060005260206000200160009091929091929091929091925091826123b692919061449e565b507fc438828bf84f8f56411b3c88a28310baf820d7cc3909fdc4d4b9ef6cccb0195e848433846040516123ec9493929190614b23565b60405180910390a150505050565b6000806124056132d3565b90508060000160009054906101000a900473ffffffffffffffffffffffffffffffffffffffff1691505090565b60008061243d612ed6565b905080600001600085815260200190815260200160002060000160008473ffffffffffffffffffffffffffffffffffffffff1673ffffffffffffffffffffffffffffffffffffffff16815260200190815260200160002060009054906101000a900460ff1691505092915050565b6124b36134bb565b60008086866040516124c69291906140e4565b9081526020016040518091039020905060008160070185856040516124ec9291906140e4565b9081526020016040518091039020905060006040518060e0016040528087878080601f016020809104026020016040519081016040528093929190818152602001838380828437600081840152601f19601f8201169050808301925050505050505081526020018360000160009054906101000a900473ffffffffffffffffffffffffffffffffffffffff1673ffffffffffffffffffffffffffffffffffffffff1681526020018360010180546125a2906142c1565b80601f01602080910402602001604051908101604052809291908181526020018280546125ce906142c1565b801561261b5780601f106125f05761010080835404028352916020019161261b565b820191906000526020600020905b8154815290600101906020018083116125fe57829003601f168201915b50505050508152602001836002018054612634906142c1565b80601f0160208091040260200160405190810160405280929190818152602001828054612660906142c1565b80156126ad5780601f10612682576101008083540402835291602001916126ad565b820191906000526020600020905b81548152906001019060200180831161269057829003601f168201915b50505050508152602001836003016040518060400160405290816000820180546126d6906142c1565b80601f0160208091040260200160405190810160405280929190818152602001828054612702906142c1565b801561274f5780601f106127245761010080835404028352916020019161274f565b820191906000526020600020905b81548152906001019060200180831161273257829003601f168201915b50505050508152602001600182018054612768906142c1565b80601f0160208091040260200160405190810160405280929190818152602001828054612794906142c1565b80156127e15780601f106127b6576101008083540402835291602001916127e1565b820191906000526020600020905b8154815290600101906020018083116127c457829003601f168201915b50505050508152505081526020018360050180546127fe906142c1565b80601f016020809104026020016040519081016040528092919081815260200182805461282a906142c1565b80156128775780601f1061284c57610100808354040283529160200191612877565b820191906000526020600020905b81548152906001019060200180831161285a57829003601f168201915b505050505081526020018360070180548060200260200160405190810160405280929190818152602001828054801561290557602002820191906000526020600020905b8160009054906101000a900473ffffffffffffffffffffffffffffffffffffffff1673ffffffffffffffffffffffffffffffffffffffff16815260200190600101908083116128bb575b50505050508152509050809350505050949350505050565b6000801b81565b60008086866040516129379291906140e4565b90815260200160405180910390209050600073ffffffffffffffffffffffffffffffffffffffff168160000160009054906101000a900473ffffffffffffffffffffffffffffffffffffffff1673ffffffffffffffffffffffffffffffffffffffff16036129da576040517f08c379a00000000000000000000000000000000000000000000000000000000081526004016129d190614d8b565b60405180910390fd5b60008160070185856040516129f09291906140e4565b908152602001604051809103902090503373ffffffffffffffffffffffffffffffffffffffff168160000160009054906101000a900473ffffffffffffffffffffffffffffffffffffffff1673ffffffffffffffffffffffffffffffffffffffff1614612a92576040517f08c379a0000000000000000000000000000000000000000000000000000000008152600401612a8990614df7565b60405180910390fd5b60018160060160008573ffffffffffffffffffffffffffffffffffffffff1673ffffffffffffffffffffffffffffffffffffffff16815260200190815260200160002060006101000a81548160ff02191690831515021790555080600701839080600181540180825580915050600190039060005260206000200160009091909190916101000a81548173ffffffffffffffffffffffffffffffffffffffff021916908373ffffffffffffffffffffffffffffffffffffffff1602179055507fd78b57910d5f921c4da1543d476f86e9d30026b18c0973b08c4dd30a305542768787878787604051612b88959493929190614627565b60405180910390a150505050505050565b6000808686604051612bac9291906140e4565b90815260200160405180910390206007018484604051612bcd9291906140e4565b908152602001604051809103902060060160008373ffffffffffffffffffffffffffffffffffffffff1673ffffffffffffffffffffffffffffffffffffffff16815260200190815260200160002060009054906101000a900460ff16905095945050505050565b6000808484604051612c479291906140e4565b908152602001604051809103902060010160008373ffffffffffffffffffffffffffffffffffffffff1673ffffffffffffffffffffffffffffffffffffffff16815260200190815260200160002060009054906101000a900460ff1690509392505050565b612cb5826111a5565b612cbe81612efe565b612cc8838361301b565b50505050565b6060600260008373ffffffffffffffffffffffffffffffffffffffff1673ffffffffffffffffffffffffffffffffffffffff168152602001908152602001600020805480602002602001604051908101604052809291908181526020016000905b82821015612ddb578382906000526020600020018054612d4e906142c1565b80601f0160208091040260200160405190810160405280929190818152602001828054612d7a906142c1565b8015612dc75780601f10612d9c57610100808354040283529160200191612dc7565b820191906000526020600020905b815481529060010190602001808311612daa57829003601f168201915b505050505081526020019060010190612d2f565b505050509050919050565b612dee61311d565b600073ffffffffffffffffffffffffffffffffffffffff168173ffffffffffffffffffffffffffffffffffffffff1603612e605760006040517f1e4fbdf7000000000000000000000000000000000000000000000000000000008152600401612e579190613eb4565b60405180910390fd5b612e69816131a4565b50565b60007f01ffc9a7000000000000000000000000000000000000000000000000000000007bffffffffffffffffffffffffffffffffffffffffffffffffffffffff1916827bffffffffffffffffffffffffffffffffffffffffffffffffffffffff1916149050919050565b60007f02dd7bc7dec4dceedda775e58dd541e08a116c6c53815c0bd028192f7b626800905090565b612f0f81612f0a613013565b6132fb565b50565b600080612f1d612ed6565b9050612f298484612432565b61300757600181600001600086815260200190815260200160002060000160008573ffffffffffffffffffffffffffffffffffffffff1673ffffffffffffffffffffffffffffffffffffffff16815260200190815260200160002060006101000a81548160ff021916908315150217905550612fa3613013565b73ffffffffffffffffffffffffffffffffffffffff168373ffffffffffffffffffffffffffffffffffffffff16857f2f8788117e7eff1d82e926ec794901d17c78024a50270940304540a733656f0d60405160405180910390a4600191505061300d565b60009150505b92915050565b600033905090565b600080613026612ed6565b90506130328484612432565b1561311157600081600001600086815260200190815260200160002060000160008573ffffffffffffffffffffffffffffffffffffffff1673ffffffffffffffffffffffffffffffffffffffff16815260200190815260200160002060006101000a81548160ff0219169083151502179055506130ad613013565b73ffffffffffffffffffffffffffffffffffffffff168373ffffffffffffffffffffffffffffffffffffffff16857ff6391f5c32d9c69d2a47ea670b442974b53935d1edc7fd64eb21e047a839171b60405160405180910390a46001915050613117565b60009150505b92915050565b613125613013565b73ffffffffffffffffffffffffffffffffffffffff166131436123fa565b73ffffffffffffffffffffffffffffffffffffffff16146131a257613166613013565b6040517f118cdaa70000000000000000000000000000000000000000000000000000000081526004016131999190613eb4565b60405180910390fd5b565b60006131ae6132d3565b905060008160000160009054906101000a900473ffffffffffffffffffffffffffffffffffffffff169050828260000160006101000a81548173ffffffffffffffffffffffffffffffffffffffff021916908373ffffffffffffffffffffffffffffffffffffffff1602179055508273ffffffffffffffffffffffffffffffffffffffff168173ffffffffffffffffffffffffffffffffffffffff167f8be0079c531659141344cd1fd0a4f28419497f9722a3daafe3b4186f6b6457e060405160405180910390a3505050565b60007ff0c57e16840df040f15088dc2f81fe391c3923bec73e23a9662efc9c229c6a00905090565b6132ab61334c565b565b6132b561334c565b6132bd61338c565b565b6132c761334c565b6132d0816133ad565b50565b60007f9016d09d72d40fdae2fd8ceac6b6234c7706214fd39c1cd1e609a0528c199300905090565b6133058282612432565b6133485780826040517fe2517d3f00000000000000000000000000000000000000000000000000000000815260040161333f929190614e17565b60405180910390fd5b5050565b613354613433565b61338a576040517fd7e6bcf800000000000000000000000000000000000000000000000000000000815260040160405180910390fd5b565b61339461334c565b600061339e613453565b90506001816000018190555050565b6133b561334c565b600073ffffffffffffffffffffffffffffffffffffffff168173ffffffffffffffffffffffffffffffffffffffff16036134275760006040517f1e4fbdf700000000000000000000000000000000000000000000000000000000815260040161341e9190613eb4565b60405180910390fd5b613430816131a4565b50565b600061343d61327b565b60000160089054906101000a900460ff16905090565b60007f9b779b17422d0df92223018b32b4d1fa46e071723d6817e2486d003becc55f00905090565b508054613487906142c1565b6000825580601f1061349957506134b8565b601f0160209004906000526020600020908101906134b79190613514565b5b50565b6040518060e0016040528060608152602001600073ffffffffffffffffffffffffffffffffffffffff1681526020016060815260200160608152602001613500613531565b815260200160608152602001606081525090565b5b8082111561352d576000816000905550600101613515565b5090565b604051806040016040528060608152602001606081525090565b600080fd5b600080fd5b60007fffffffff0000000000000000000000000000000000000000000000000000000082169050919050565b61358a81613555565b811461359557600080fd5b50565b6000813590506135a781613581565b92915050565b6000602082840312156135c3576135c261354b565b5b60006135d184828501613598565b91505092915050565b60008115159050919050565b6135ef816135da565b82525050565b600060208201905061360a60008301846135e6565b92915050565b600080fd5b600080fd5b600080fd5b60008083601f84011261363557613634613610565b5b8235905067ffffffffffffffff81111561365257613651613615565b5b60208301915083600182028301111561366e5761366d61361a565b5b9250929050565b600080fd5b600060c082840312156136905761368f613675565b5b81905092915050565b6000806000604084860312156136b2576136b161354b565b5b600084013567ffffffffffffffff8111156136d0576136cf613550565b5b6136dc8682870161361f565b9350935050602084013567ffffffffffffffff8111156136ff576136fe613550565b5b61370b8682870161367a565b9150509250925092565b6000819050919050565b61372881613715565b82525050565b6000602082019050613743600083018461371f565b92915050565b600081519050919050565b600082825260208201905092915050565b6000819050602082019050919050565b600081519050919050565b600082825260208201905092915050565b60005b838110156137af578082015181840152602081019050613794565b60008484015250505050565b6000601f19601f8301169050919050565b60006137d782613775565b6137e18185613780565b93506137f1818560208601613791565b6137fa816137bb565b840191505092915050565b600061381183836137cc565b905092915050565b6000602082019050919050565b600061383182613749565b61383b8185613754565b93508360208202850161384d85613765565b8060005b85811015613889578484038952815161386a8582613805565b945061387583613819565b925060208a01995050600181019050613851565b50829750879550505050505092915050565b600060208201905081810360008301526138b58184613826565b905092915050565b600080600080604085870312156138d7576138d661354b565b5b600085013567ffffffffffffffff8111156138f5576138f4613550565b5b6139018782880161361f565b9450945050602085013567ffffffffffffffff81111561392457613923613550565b5b6139308782880161361f565b925092505092959194509250565b600080602083850312156139555761395461354b565b5b600083013567ffffffffffffffff81111561397357613972613550565b5b61397f8582860161361f565b92509250509250929050565b600081519050919050565b600082825260208201905092915050565b6000819050602082019050919050565b600073ffffffffffffffffffffffffffffffffffffffff82169050919050565b60006139e2826139b7565b9050919050565b6139f2816139d7565b82525050565b6000613a0483836139e9565b60208301905092915050565b6000602082019050919050565b6000613a288261398b565b613a328185613996565b9350613a3d836139a7565b8060005b83811015613a6e578151613a5588826139f8565b9750613a6083613a10565b925050600181019050613a41565b5085935050505092915050565b60006020820190508181036000830152613a958184613a1d565b905092915050565b6000819050919050565b613ab081613a9d565b8114613abb57600080fd5b50565b600081359050613acd81613aa7565b92915050565b600060208284031215613ae957613ae861354b565b5b6000613af784828501613abe565b91505092915050565b613b0981613a9d565b82525050565b6000602082019050613b246000830184613b00565b92915050565b613b33816139d7565b8114613b3e57600080fd5b50565b600081359050613b5081613b2a565b92915050565b60008060408385031215613b6d57613b6c61354b565b5b6000613b7b85828601613abe565b9250506020613b8c85828601613b41565b9150509250929050565b613b9f81613715565b8114613baa57600080fd5b50565b600081359050613bbc81613b96565b92915050565b600080600060408486031215613bdb57613bda61354b565b5b600084013567ffffffffffffffff811115613bf957613bf8613550565b5b613c058682870161361f565b93509350506020613c1886828701613bad565b9150509250925092565b600081519050919050565b600082825260208201905092915050565b6000819050602082019050919050565b60006040830160008301518482036000860152613c6b82826137cc565b91505060208301518482036020860152613c8582826137cc565b9150508091505092915050565b600082825260208201905092915050565b6000613cae8261398b565b613cb88185613c92565b9350613cc3836139a7565b8060005b83811015613cf4578151613cdb88826139f8565b9750613ce683613a10565b925050600181019050613cc7565b5085935050505092915050565b600060e0830160008301518482036000860152613d1e82826137cc565b9150506020830151613d3360208601826139e9565b5060408301518482036040860152613d4b82826137cc565b91505060608301518482036060860152613d6582826137cc565b91505060808301518482036080860152613d7f8282613c4e565b91505060a083015184820360a0860152613d9982826137cc565b91505060c083015184820360c0860152613db38282613ca3565b9150508091505092915050565b6000613dcc8383613d01565b905092915050565b6000602082019050919050565b6000613dec82613c22565b613df68185613c2d565b935083602082028501613e0885613c3e565b8060005b85811015613e445784840389528151613e258582613dc0565b9450613e3083613dd4565b925060208a01995050600181019050613e0c565b50829750879550505050505092915050565b60006020820190508181036000830152613e708184613de1565b905092915050565b600060208284031215613e8e57613e8d61354b565b5b6000613e9c84828501613b41565b91505092915050565b613eae816139d7565b82525050565b6000602082019050613ec96000830184613ea5565b92915050565b600060e0830160008301518482036000860152613eec82826137cc565b9150506020830151613f0160208601826139e9565b5060408301518482036040860152613f1982826137cc565b91505060608301518482036060860152613f3382826137cc565b91505060808301518482036080860152613f4d8282613c4e565b91505060a083015184820360a0860152613f6782826137cc565b91505060c083015184820360c0860152613f818282613ca3565b9150508091505092915050565b60006020820190508181036000830152613fa88184613ecf565b905092915050565b600080600080600060608688031215613fcc57613fcb61354b565b5b600086013567ffffffffffffffff811115613fea57613fe9613550565b5b613ff68882890161361f565b9550955050602086013567ffffffffffffffff81111561401957614018613550565b5b6140258882890161361f565b9350935050604061403888828901613b41565b9150509295509295909350565b60008060006040848603121561405e5761405d61354b565b5b600084013567ffffffffffffffff81111561407c5761407b613550565b5b6140888682870161361f565b9350935050602061409b86828701613b41565b9150509250925092565b600081905092915050565b82818337600083830152505050565b60006140cb83856140a5565b93506140d88385846140b0565b82840190509392505050565b60006140f18284866140bf565b91508190509392505050565b600082825260208201905092915050565b7f4e6f7420636c7573746572206f776e6572000000000000000000000000000000600082015250565b60006141446011836140fd565b915061414f8261410e565b602082019050919050565b6000602082019050818103600083015261417381614137565b9050919050565b600080fd5b600080fd5b600080fd5b600080833560016020038436030381126141a6576141a561417a565b5b80840192508235915067ffffffffffffffff8211156141c8576141c761417f565b5b6020830192506001820236038313156141e4576141e3614184565b5b509250929050565b7f416c726561647920616464656420726f6c6c7570000000000000000000000000600082015250565b60006142226014836140fd565b915061422d826141ec565b602082019050919050565b6000602082019050818103600083015261425181614215565b9050919050565b600082905092915050565b7f4e487b7100000000000000000000000000000000000000000000000000000000600052604160045260246000fd5b7f4e487b7100000000000000000000000000000000000000000000000000000000600052602260045260246000fd5b600060028204905060018216806142d957607f821691505b6020821081036142ec576142eb614292565b5b50919050565b60008190508160005260206000209050919050565b60006020601f8301049050919050565b600082821b905092915050565b6000600883026143547fffffffffffffffffffffffffffffffffffffffffffffffffffffffffffffffff82614317565b61435e8683614317565b95508019841693508086168417925050509392505050565b6000819050919050565b600061439b61439661439184613715565b614376565b613715565b9050919050565b6000819050919050565b6143b583614380565b6143c96143c1826143a2565b848454614324565b825550505050565b600090565b6143de6143d1565b6143e98184846143ac565b505050565b5b8181101561440d576144026000826143d6565b6001810190506143ef565b5050565b601f82111561445257614423816142f2565b61442c84614307565b8101602085101561443b578190505b61444f61444785614307565b8301826143ee565b50505b505050565b600082821c905092915050565b600061447560001984600802614457565b1980831691505092915050565b600061448e8383614464565b9150826002028217905092915050565b6144a88383614258565b67ffffffffffffffff8111156144c1576144c0614263565b5b6144cb82546142c1565b6144d6828285614411565b6000601f83116001811461450557600084156144f3578287013590505b6144fd8582614482565b865550614565565b601f198416614513866142f2565b60005b8281101561453b57848901358255600182019150602085019450602081019050614516565b868310156145585784890135614554601f891682614464565b8355505b6001600288020188555050505b50505050505050565b60008235600160400383360303811261458a5761458961417a565b5b80830191505092915050565b6145a183838361449e565b505050565b60008101600083016145b88185614189565b6145c3818386614596565b5050505060018101602083016145d98185614189565b6145e4818386614596565b505050505050565b6145f682826145a6565b5050565b600061460683856140fd565b93506146138385846140b0565b61461c836137bb565b840190509392505050565b600060608201905081810360008301526146428187896145fa565b905081810360208301526146578185876145fa565b90506146666040830184613ea5565b9695505050505050565b7f4e487b7100000000000000000000000000000000000000000000000000000000600052603260045260246000fd5b7f4e487b7100000000000000000000000000000000000000000000000000000000600052601160045260246000fd5b60006146d982613715565b91507fffffffffffffffffffffffffffffffffffffffffffffffffffffffffffffffff820361470b5761470a61469f565b5b600182019050919050565b7f50726f706f73657220736574206e6f7420696e697469616c697a656400000000600082015250565b600061474c601c836140fd565b915061475782614716565b602082019050919050565b6000602082019050818103600083015261477b8161473f565b9050919050565b7f4e6f7420726567697374657265642073657175656e6365720000000000000000600082015250565b60006147b86018836140fd565b91506147c382614782565b602082019050919050565b600060208201905081810360008301526147e7816147ab565b9050919050565b60006147f982613715565b91506000820361480c5761480b61469f565b5b600182039050919050565b600081905092915050565b600061482e8385614817565b935061483b8385846140b0565b82840190509392505050565b6000614854828486614822565b91508190509392505050565b60008190508160005260206000209050919050565b60008154614882816142c1565b61488c8186614817565b945060018216600081146148a757600181146148bc576148ef565b60ff19831686528115158202860193506148ef565b6148c585614860565b60005b838110156148e7578154818901526001820191506020810190506148c8565b838801955050505b50505092915050565b60006149048284614875565b915081905092915050565b600061491a82613715565b915061492583613715565b925082820390508181111561493d5761493c61469f565b5b92915050565b600081549050614952816142c1565b9050919050565b60008190508160005260206000209050919050565b81810361497c575050614a54565b61498582614943565b67ffffffffffffffff81111561499e5761499d614263565b5b6149a882546142c1565b6149b3828285614411565b6000601f8311600181146149e257600084156149d0578287015490505b6149da8582614482565b865550614a4d565b601f1984166149f087614959565b96506149fb866142f2565b60005b82811015614a23578489015482556001820191506001850194506020810190506149fe565b86831015614a405784890154614a3c601f891682614464565b8355505b6001600288020188555050505b5050505050505b565b7f4e487b7100000000000000000000000000000000000000000000000000000000600052603160045260246000fd5b60006040820190508181036000830152614aa08185876145fa565b9050614aaf6020830184613ea5565b949350505050565b7f416c726561647920696e697469616c697a656420636c75737465720000000000600082015250565b6000614aed601b836140fd565b9150614af882614ab7565b602082019050919050565b60006020820190508181036000830152614b1c81614ae0565b9050919050565b60006060820190508181036000830152614b3e8186886145fa565b9050614b4d6020830185613ea5565b614b5a604083018461371f565b95945050505050565b60008154614b70816142c1565b614b7a81866140a5565b94506001821660008114614b955760018114614baa57614bdd565b60ff1983168652811515820286019350614bdd565b614bb3856142f2565b60005b83811015614bd557815481890152600182019150602081019050614bb6565b838801955050505b50505092915050565b6000614bf28284614b63565b915081905092915050565b6000819050919050565b600067ffffffffffffffff82169050919050565b6000614c36614c31614c2c84614bfd565b614376565b614c07565b9050919050565b614c4681614c1b565b82525050565b6000602082019050614c616000830184614c3d565b92915050565b7f416c726561647920726567697374657265642073657175656e63657200000000600082015250565b6000614c9d601c836140fd565b9150614ca882614c67565b602082019050919050565b60006020820190508181036000830152614ccc81614c90565b9050919050565b7f4d61782073657175656e63657220636f756e7420657863656564656400000000600082015250565b6000614d09601c836140fd565b9150614d1482614cd3565b602082019050919050565b60006020820190508181036000830152614d3881614cfc565b9050919050565b7f4e6f7420696e697469616c697a656420636c7573746572000000000000000000600082015250565b6000614d756017836140fd565b9150614d8082614d3f565b602082019050919050565b60006020820190508181036000830152614da481614d68565b9050919050565b7f4e6f7420726f6c6c7570206f776e657200000000000000000000000000000000600082015250565b6000614de16010836140fd565b9150614dec82614dab565b602082019050919050565b60006020820190508181036000830152614e1081614dd4565b9050919050565b6000604082019050614e2c6000830185613ea5565b614e396020830184613b00565b939250505056fea2646970667358221220da1c5838d8a74598e73c3f9fc73b0dce41c0380c4207fb5336cc06ef0d3e34d864736f6c63430008180033",
  "linkReferences": {},
  "deployedLinkReferences": {}
}