{
  "_format": "hh-sol-artifact-1",
  "contractName": "LivenessRadius",
  "sourceName": "contracts/LivenessRadius.sol",
  "abi": [
    {
      "inputs": [],
      "stateMutability": "nonpayable",
      "type": "constructor"
    },
    {
      "inputs": [],
      "name": "AccessControlBadConfirmation",
      "type": "error"
    },
    {
      "inputs": [
        {
          "internalType": "address",
          "name": "account",
          "type": "address"
        },
        {
          "internalType": "bytes32",
          "name": "neededRole",
          "type": "bytes32"
        }
      ],
      "name": "AccessControlUnauthorizedAccount",
      "type": "error"
    },
    {
      "inputs": [],
      "name": "InvalidInitialization",
      "type": "error"
    },
    {
      "inputs": [],
      "name": "NotInitializing",
      "type": "error"
    },
    {
      "inputs": [
        {
          "internalType": "address",
          "name": "owner",
          "type": "address"
        }
      ],
      "name": "OwnableInvalidOwner",
      "type": "error"
    },
    {
      "inputs": [
        {
          "internalType": "address",
          "name": "account",
          "type": "address"
        }
      ],
      "name": "OwnableUnauthorizedAccount",
      "type": "error"
    },
    {
      "inputs": [],
      "name": "ReentrancyGuardReentrantCall",
      "type": "error"
    },
    {
      "anonymous": false,
      "inputs": [
        {
          "indexed": false,
          "internalType": "string",
          "name": "clusterId",
          "type": "string"
        },
        {
          "indexed": false,
          "internalType": "string",
          "name": "rollupId",
          "type": "string"
        },
        {
          "indexed": false,
          "internalType": "address",
          "name": "rollupOwnerAddress",
          "type": "address"
        }
      ],
      "name": "AddRollup",
      "type": "event"
    },
    {
      "anonymous": false,
      "inputs": [
        {
          "indexed": false,
          "internalType": "string",
          "name": "clusterId",
          "type": "string"
        },
        {
          "indexed": false,
          "internalType": "address",
          "name": "sequencerAddress",
          "type": "address"
        }
      ],
      "name": "DeregisterSequencer",
      "type": "event"
    },
    {
      "anonymous": false,
      "inputs": [
        {
          "indexed": false,
          "internalType": "string",
          "name": "clusterId",
          "type": "string"
        },
        {
          "indexed": false,
          "internalType": "address",
          "name": "owner",
          "type": "address"
        }
      ],
      "name": "InitializeCluster",
      "type": "event"
    },
    {
      "anonymous": false,
      "inputs": [
        {
          "indexed": false,
          "internalType": "uint64",
          "name": "version",
          "type": "uint64"
        }
      ],
      "name": "Initialized",
      "type": "event"
    },
    {
      "anonymous": false,
      "inputs": [
        {
          "indexed": true,
          "internalType": "address",
          "name": "previousOwner",
          "type": "address"
        },
        {
          "indexed": true,
          "internalType": "address",
          "name": "newOwner",
          "type": "address"
        }
      ],
      "name": "OwnershipTransferred",
      "type": "event"
    },
    {
      "anonymous": false,
      "inputs": [
        {
          "indexed": false,
          "internalType": "string",
          "name": "clusterId",
          "type": "string"
        },
        {
          "indexed": false,
          "internalType": "string",
          "name": "rollupId",
          "type": "string"
        },
        {
          "indexed": false,
          "internalType": "address",
          "name": "executorAddress",
          "type": "address"
        }
      ],
      "name": "RegisterRollupExecutor",
      "type": "event"
    },
    {
      "anonymous": false,
      "inputs": [
        {
          "indexed": false,
          "internalType": "string",
          "name": "clusterId",
          "type": "string"
        },
        {
          "indexed": false,
          "internalType": "address",
          "name": "sequencerAddress",
          "type": "address"
        },
        {
          "indexed": false,
          "internalType": "uint256",
          "name": "index",
          "type": "uint256"
        }
      ],
      "name": "RegisterSequencer",
      "type": "event"
    },
    {
      "anonymous": false,
      "inputs": [
        {
          "indexed": true,
          "internalType": "bytes32",
          "name": "role",
          "type": "bytes32"
        },
        {
          "indexed": true,
          "internalType": "bytes32",
          "name": "previousAdminRole",
          "type": "bytes32"
        },
        {
          "indexed": true,
          "internalType": "bytes32",
          "name": "newAdminRole",
          "type": "bytes32"
        }
      ],
      "name": "RoleAdminChanged",
      "type": "event"
    },
    {
      "anonymous": false,
      "inputs": [
        {
          "indexed": true,
          "internalType": "bytes32",
          "name": "role",
          "type": "bytes32"
        },
        {
          "indexed": true,
          "internalType": "address",
          "name": "account",
          "type": "address"
        },
        {
          "indexed": true,
          "internalType": "address",
          "name": "sender",
          "type": "address"
        }
      ],
      "name": "RoleGranted",
      "type": "event"
    },
    {
      "anonymous": false,
      "inputs": [
        {
          "indexed": true,
          "internalType": "bytes32",
          "name": "role",
          "type": "bytes32"
        },
        {
          "indexed": true,
          "internalType": "address",
          "name": "account",
          "type": "address"
        },
        {
          "indexed": true,
          "internalType": "address",
          "name": "sender",
          "type": "address"
        }
      ],
      "name": "RoleRevoked",
      "type": "event"
    },
    {
      "inputs": [],
      "name": "BLOCK_MARGIN",
      "outputs": [
        {
          "internalType": "uint256",
          "name": "",
          "type": "uint256"
        }
      ],
      "stateMutability": "view",
      "type": "function"
    },
    {
      "inputs": [],
      "name": "DEFAULT_ADMIN_ROLE",
      "outputs": [
        {
          "internalType": "bytes32",
          "name": "",
          "type": "bytes32"
        }
      ],
      "stateMutability": "view",
      "type": "function"
    },
    {
      "inputs": [
        {
          "internalType": "string",
          "name": "clusterId",
          "type": "string"
        },
        {
          "internalType": "string",
          "name": "rollupId",
          "type": "string"
        },
        {
          "internalType": "address",
          "name": "rollupOwnerAddress",
          "type": "address"
        },
        {
          "internalType": "string",
          "name": "orderCommitmentType",
          "type": "string"
        },
        {
          "components": [
            {
              "internalType": "string",
              "name": "platform",
              "type": "string"
            },
            {
              "internalType": "string",
              "name": "serviceProvider",
              "type": "string"
            }
          ],
          "internalType": "struct ILivenessRadius.ValidationInfo",
          "name": "validationInfo",
          "type": "tuple"
        }
      ],
      "name": "addRollup",
      "outputs": [],
      "stateMutability": "nonpayable",
      "type": "function"
    },
    {
      "inputs": [
        {
          "internalType": "string",
          "name": "clusterId",
          "type": "string"
        }
      ],
      "name": "deregisterSequencer",
      "outputs": [],
      "stateMutability": "nonpayable",
      "type": "function"
    },
    {
      "inputs": [],
      "name": "getAllClusterIds",
      "outputs": [
        {
          "internalType": "string[]",
          "name": "",
          "type": "string[]"
        }
      ],
      "stateMutability": "view",
      "type": "function"
    },
    {
      "inputs": [
        {
          "internalType": "address",
          "name": "owner",
          "type": "address"
        }
      ],
      "name": "getClustersByOwner",
      "outputs": [
        {
          "internalType": "string[]",
          "name": "",
          "type": "string[]"
        }
      ],
      "stateMutability": "view",
      "type": "function"
    },
    {
      "inputs": [
        {
          "internalType": "address",
          "name": "sequencer",
          "type": "address"
        }
      ],
      "name": "getClustersBySequencer",
      "outputs": [
        {
          "internalType": "string[]",
          "name": "",
          "type": "string[]"
        }
      ],
      "stateMutability": "view",
      "type": "function"
    },
    {
      "inputs": [
        {
          "internalType": "string",
          "name": "clusterId",
          "type": "string"
        },
        {
          "internalType": "string",
          "name": "rollupId",
          "type": "string"
        }
      ],
      "name": "getExecutorList",
      "outputs": [
        {
          "internalType": "address[]",
          "name": "",
          "type": "address[]"
        }
      ],
      "stateMutability": "view",
      "type": "function"
    },
    {
      "inputs": [
        {
          "internalType": "string",
          "name": "clusterId",
          "type": "string"
        }
      ],
      "name": "getMaxSequencerNumber",
      "outputs": [
        {
          "internalType": "uint256",
          "name": "",
          "type": "uint256"
        }
      ],
      "stateMutability": "view",
      "type": "function"
    },
    {
      "inputs": [
        {
          "internalType": "bytes32",
          "name": "role",
          "type": "bytes32"
        }
      ],
      "name": "getRoleAdmin",
      "outputs": [
        {
          "internalType": "bytes32",
          "name": "",
          "type": "bytes32"
        }
      ],
      "stateMutability": "view",
      "type": "function"
    },
    {
      "inputs": [
        {
          "internalType": "string",
          "name": "clusterId",
          "type": "string"
        }
      ],
      "name": "getSequencerList",
      "outputs": [
        {
          "internalType": "address[]",
          "name": "",
          "type": "address[]"
        }
      ],
      "stateMutability": "view",
      "type": "function"
    },
    {
      "inputs": [
        {
          "internalType": "bytes32",
          "name": "role",
          "type": "bytes32"
        },
        {
          "internalType": "address",
          "name": "account",
          "type": "address"
        }
      ],
      "name": "grantRole",
      "outputs": [],
      "stateMutability": "nonpayable",
      "type": "function"
    },
    {
      "inputs": [
        {
          "internalType": "bytes32",
          "name": "role",
          "type": "bytes32"
        },
        {
          "internalType": "address",
          "name": "account",
          "type": "address"
        }
      ],
      "name": "hasRole",
      "outputs": [
        {
          "internalType": "bool",
          "name": "",
          "type": "bool"
        }
      ],
      "stateMutability": "view",
      "type": "function"
    },
    {
      "inputs": [],
      "name": "initialize",
      "outputs": [],
      "stateMutability": "nonpayable",
      "type": "function"
    },
    {
      "inputs": [
        {
          "internalType": "string",
          "name": "clusterId",
          "type": "string"
        },
        {
          "internalType": "uint256",
          "name": "maxSequencerNumber",
          "type": "uint256"
        }
      ],
      "name": "initializeCluster",
      "outputs": [],
      "stateMutability": "nonpayable",
      "type": "function"
    },
    {
      "inputs": [
        {
          "internalType": "string",
          "name": "clusterId",
          "type": "string"
        },
        {
          "internalType": "address",
          "name": "sequencerAddress",
          "type": "address"
        }
      ],
      "name": "isRegisteredSequencer",
      "outputs": [
        {
          "internalType": "bool",
          "name": "",
          "type": "bool"
        }
      ],
      "stateMutability": "view",
      "type": "function"
    },
    {
      "inputs": [],
      "name": "owner",
      "outputs": [
        {
          "internalType": "address",
          "name": "",
          "type": "address"
        }
      ],
      "stateMutability": "view",
      "type": "function"
    },
    {
      "inputs": [
        {
          "internalType": "string",
          "name": "clusterId",
          "type": "string"
        },
        {
          "internalType": "string",
          "name": "rollupId",
          "type": "string"
        },
        {
          "internalType": "address",
          "name": "rollupExecutorAddress",
          "type": "address"
        }
      ],
      "name": "registerRollupExecutor",
      "outputs": [],
      "stateMutability": "nonpayable",
      "type": "function"
    },
    {
      "inputs": [
        {
          "internalType": "string",
          "name": "clusterId",
          "type": "string"
        }
      ],
      "name": "registerSequencer",
      "outputs": [],
      "stateMutability": "nonpayable",
      "type": "function"
    },
    {
      "inputs": [],
      "name": "renounceOwnership",
      "outputs": [],
      "stateMutability": "nonpayable",
      "type": "function"
    },
    {
      "inputs": [
        {
          "internalType": "bytes32",
          "name": "role",
          "type": "bytes32"
        },
        {
          "internalType": "address",
          "name": "callerConfirmation",
          "type": "address"
        }
      ],
      "name": "renounceRole",
      "outputs": [],
      "stateMutability": "nonpayable",
      "type": "function"
    },
    {
      "inputs": [
        {
          "internalType": "bytes32",
          "name": "role",
          "type": "bytes32"
        },
        {
          "internalType": "address",
          "name": "account",
          "type": "address"
        }
      ],
      "name": "revokeRole",
      "outputs": [],
      "stateMutability": "nonpayable",
      "type": "function"
    },
    {
      "inputs": [
        {
          "internalType": "bytes4",
          "name": "interfaceId",
          "type": "bytes4"
        }
      ],
      "name": "supportsInterface",
      "outputs": [
        {
          "internalType": "bool",
          "name": "",
          "type": "bool"
        }
      ],
      "stateMutability": "view",
      "type": "function"
    },
    {
      "inputs": [
        {
          "internalType": "address",
          "name": "newOwner",
          "type": "address"
        }
      ],
      "name": "transferOwnership",
      "outputs": [],
      "stateMutability": "nonpayable",
      "type": "function"
    }
  ],
  "bytecode": "0x60806040523480156200001157600080fd5b50620000226200002860201b60201c565b6200019c565b60006200003a6200013260201b60201c565b90508060000160089054906101000a900460ff161562000086576040517ff92ee8a900000000000000000000000000000000000000000000000000000000815260040160405180910390fd5b67ffffffffffffffff80168160000160009054906101000a900467ffffffffffffffff1667ffffffffffffffff16146200012f5767ffffffffffffffff8160000160006101000a81548167ffffffffffffffff021916908367ffffffffffffffff1602179055507fc7f505b2f371ae2175ee4913f4499e1f2633a7b5936321eed1cdaeb6115181d267ffffffffffffffff6040516200012691906200017f565b60405180910390a15b50565b60007ff0c57e16840df040f15088dc2f81fe391c3923bec73e23a9662efc9c229c6a00905090565b600067ffffffffffffffff82169050919050565b62000179816200015a565b82525050565b60006020820190506200019660008301846200016e565b92915050565b613c1a80620001ac6000396000f3fe608060405234801561001057600080fd5b50600436106101585760003560e01c8063715018a6116100c3578063a217fddf1161007c578063a217fddf146103c3578063a7b15420146103e1578063d4bb786f146103fd578063d547741f1461042d578063ee6d992f14610449578063f2fde38b1461047957610158565b8063715018a61461031557806378a616f51461031f5780638129fc1c1461034f5780638a4abab8146103595780638da5cb5b1461037557806391d148541461039357610158565b80632a4f1823116101155780632a4f1823146102455780632f2ff15d1461026157806336568abe1461027d5780633edb0dbf1461029957806354fbb8bc146102b557806365f413bb146102e557610158565b806301ffc9a71461015d578063071c55ac1461018d57806315a45bdb146101ab57806323fd869f146101c95780632432fdfc146101f9578063248a9ca314610215575b600080fd5b6101776004803603810190610172919061273a565b610495565b6040516101849190612782565b60405180910390f35b61019561050f565b6040516101a291906127b6565b60405180910390f35b6101b3610514565b6040516101c09190612923565b60405180910390f35b6101e360048036038101906101de91906129aa565b6105ed565b6040516101f09190612ae7565b60405180910390f35b610213600480360381019061020e91906129aa565b61079e565b005b61022f600480360381019061022a9190612b3f565b610be8565b60405161023c9190612b7b565b60405180910390f35b61025f600480360381019061025a9190612be6565b610c16565b005b61027b60048036038101906102769190612cde565b610e66565b005b61029760048036038101906102929190612cde565b610e88565b005b6102b360048036038101906102ae9190612d4a565b610f03565b005b6102cf60048036038101906102ca91906129aa565b6111ca565b6040516102dc91906127b6565b60405180910390f35b6102ff60048036038101906102fa9190612daa565b6111f7565b60405161030c9190612ae7565b60405180910390f35b61031d611475565b005b61033960048036038101906103349190612e2b565b611489565b6040516103469190612923565b60405180910390f35b6103576115a1565b005b610373600480360381019061036e91906129aa565b61173f565b005b61037d611b07565b60405161038a9190612e67565b60405180910390f35b6103ad60048036038101906103a89190612cde565b611b3f565b6040516103ba9190612782565b60405180910390f35b6103cb611bb8565b6040516103d89190612b7b565b60405180910390f35b6103fb60048036038101906103f69190612e82565b611bbf565b005b61041760048036038101906104129190612f17565b611e34565b6040516104249190612782565b60405180910390f35b61044760048036038101906104429190612cde565b611eac565b005b610463600480360381019061045e9190612e2b565b611ece565b6040516104709190612923565b60405180910390f35b610493600480360381019061048e9190612e2b565b611fe6565b005b60007f7965db0b000000000000000000000000000000000000000000000000000000007bffffffffffffffffffffffffffffffffffffffffffffffffffffffff1916827bffffffffffffffffffffffffffffffffffffffffffffffffffffffff1916148061050857506105078261206c565b5b9050919050565b600781565b60606003805480602002602001604051908101604052809291908181526020016000905b828210156105e457838290600052602060002001805461055790612fa6565b80601f016020809104026020016040519081016040528092919081815260200182805461058390612fa6565b80156105d05780601f106105a5576101008083540402835291602001916105d0565b820191906000526020600020905b8154815290600101906020018083116105b357829003601f168201915b505050505081526020019060010190610538565b50505050905090565b60606000808484604051610602929190613016565b90815260200160405180910390209050600080826004015467ffffffffffffffff8111156106335761063261302f565b5b6040519080825280602002602001820160405280156106615781602001602082028036833780820191505090505b50905060005b836004015481101561079157600073ffffffffffffffffffffffffffffffffffffffff168460030182815481106106a1576106a061305e565b5b9060005260206000200160009054906101000a900473ffffffffffffffffffffffffffffffffffffffff1673ffffffffffffffffffffffffffffffffffffffff1614610784578360030181815481106106fd576106fc61305e565b5b9060005260206000200160009054906101000a900473ffffffffffffffffffffffffffffffffffffffff1682848151811061073b5761073a61305e565b5b602002602001019073ffffffffffffffffffffffffffffffffffffffff16908173ffffffffffffffffffffffffffffffffffffffff16815250508280610780906130bc565b9350505b8080600101915050610667565b5080935050505092915050565b60008083836040516107b1929190613016565b90815260200160405180910390209050600073ffffffffffffffffffffffffffffffffffffffff168160000160009054906101000a900473ffffffffffffffffffffffffffffffffffffffff1673ffffffffffffffffffffffffffffffffffffffff1603610854576040517f08c379a000000000000000000000000000000000000000000000000000000000815260040161084b90613161565b60405180910390fd5b8060010160003373ffffffffffffffffffffffffffffffffffffffff1673ffffffffffffffffffffffffffffffffffffffff16815260200190815260200160002060009054906101000a900460ff166108e2576040517f08c379a00000000000000000000000000000000000000000000000000000000081526004016108d9906131cd565b60405180910390fd5b60008160010160003373ffffffffffffffffffffffffffffffffffffffff1673ffffffffffffffffffffffffffffffffffffffff16815260200190815260200160002060006101000a81548160ff02191690831515021790555060008160020160003373ffffffffffffffffffffffffffffffffffffffff1673ffffffffffffffffffffffffffffffffffffffff168152602001908152602001600020549050600082600301828154811061099a5761099961305e565b5b9060005260206000200160006101000a81548173ffffffffffffffffffffffffffffffffffffffff021916908373ffffffffffffffffffffffffffffffffffffffff1602179055508160020160003373ffffffffffffffffffffffffffffffffffffffff1673ffffffffffffffffffffffffffffffffffffffff16815260200190815260200160002060009055816005016000815480929190610a3c906131ed565b9190505550816006018190806001815401808255809150506001900390600052602060002001600090919091909150556000600260003373ffffffffffffffffffffffffffffffffffffffff1673ffffffffffffffffffffffffffffffffffffffff168152602001908152602001600020905060005b8180549050811015610ba5578585604051610ace929190613246565b6040518091039020828281548110610ae957610ae861305e565b5b90600052602060002001604051610b0091906132f7565b604051809103902003610b98578160018380549050610b1f919061330e565b81548110610b3057610b2f61305e565b5b90600052602060002001828281548110610b4d57610b4c61305e565b5b906000526020600020019081610b639190613519565b5081805480610b7557610b74613601565b5b600190038181906000526020600020016000610b91919061267b565b9055610ba5565b8080600101915050610ab2565b507f8e705b58b23a2bb7ce17d2ef262b1ffd19a1afe45787a31689acc56e928cefb8858533604051610bd99392919061365d565b60405180910390a15050505050565b600080610bf36120d6565b905080600001600084815260200190815260200160002060010154915050919050565b6000808989604051610c29929190613016565b908152602001604051809103902090503373ffffffffffffffffffffffffffffffffffffffff168160000160009054906101000a900473ffffffffffffffffffffffffffffffffffffffff1673ffffffffffffffffffffffffffffffffffffffff1614610ccb576040517f08c379a0000000000000000000000000000000000000000000000000000000008152600401610cc2906136db565b60405180910390fd5b6000816007018888604051610ce1929190613016565b90815260200160405180910390209050858160000160006101000a81548173ffffffffffffffffffffffffffffffffffffffff021916908373ffffffffffffffffffffffffffffffffffffffff1602179055508484826003019182610d47929190613706565b5082816001018181610d59919061389e565b90505060018160040160008873ffffffffffffffffffffffffffffffffffffffff1673ffffffffffffffffffffffffffffffffffffffff16815260200190815260200160002060006101000a81548160ff02191690831515021790555080600501869080600181540180825580915050600190039060005260206000200160009091909190916101000a81548173ffffffffffffffffffffffffffffffffffffffff021916908373ffffffffffffffffffffffffffffffffffffffff1602179055507fe1a954bd87863d105bde989337bb536ce0b77c9e2f9571ba90ef69e25203f0298a8a8a8a8a604051610e529594939291906138ac565b60405180910390a150505050505050505050565b610e6f82610be8565b610e78816120fe565b610e828383612112565b50505050565b610e90612213565b73ffffffffffffffffffffffffffffffffffffffff168173ffffffffffffffffffffffffffffffffffffffff1614610ef4576040517f6697b23200000000000000000000000000000000000000000000000000000000815260040160405180910390fd5b610efe828261221b565b505050565b6000808484604051610f16929190613016565b90815260200160405180910390209050600073ffffffffffffffffffffffffffffffffffffffff168160000160009054906101000a900473ffffffffffffffffffffffffffffffffffffffff1673ffffffffffffffffffffffffffffffffffffffff1614610fb9576040517f08c379a0000000000000000000000000000000000000000000000000000000008152600401610fb090613941565b60405180910390fd5b338160000160006101000a81548173ffffffffffffffffffffffffffffffffffffffff021916908373ffffffffffffffffffffffffffffffffffffffff1602179055508181600401819055506000816005018190555060005b828110156110cf57816006018160018561102c919061330e565b611036919061330e565b90806001815401808255809150506001900390600052602060002001600090919091909150558160030160009080600181540180825580915050600190039060005260206000200160009091909190916101000a81548173ffffffffffffffffffffffffffffffffffffffff021916908373ffffffffffffffffffffffffffffffffffffffff1602179055508080600101915050611012565b50600384849091806001815401808255809150506001900390600052602060002001600090919290919290919290919250918261110d929190613706565b50600160003373ffffffffffffffffffffffffffffffffffffffff1673ffffffffffffffffffffffffffffffffffffffff168152602001908152602001600020848490918060018154018082558091505060019003906000526020600020016000909192909192909192909192509182611188929190613706565b507f0a76fd24146ad0c8934e1e4152d03c3d5679c78f95d7cf8f588825eb81166d508484336040516111bc9392919061365d565b60405180910390a150505050565b60008083836040516111dd929190613016565b908152602001604051809103902060040154905092915050565b6060600080868660405161120c929190613016565b908152602001604051809103902090506000816007018585604051611232929190613016565b908152602001604051809103902090506000805b82600501805490508110156112e557600073ffffffffffffffffffffffffffffffffffffffff168360050182815481106112835761128261305e565b5b9060005260206000200160009054906101000a900473ffffffffffffffffffffffffffffffffffffffff1673ffffffffffffffffffffffffffffffffffffffff16146112d85781806112d4906130bc565b9250505b8080600101915050611246565b5060008167ffffffffffffffff8111156113025761130161302f565b5b6040519080825280602002602001820160405280156113305781602001602082028036833780820191505090505b5090506000805b846005018054905081101561146457600073ffffffffffffffffffffffffffffffffffffffff168560050182815481106113745761137361305e565b5b9060005260206000200160009054906101000a900473ffffffffffffffffffffffffffffffffffffffff1673ffffffffffffffffffffffffffffffffffffffff1614611457578460050181815481106113d0576113cf61305e565b5b9060005260206000200160009054906101000a900473ffffffffffffffffffffffffffffffffffffffff1683838151811061140e5761140d61305e565b5b602002602001019073ffffffffffffffffffffffffffffffffffffffff16908173ffffffffffffffffffffffffffffffffffffffff16815250508180611453906130bc565b9250505b8080600101915050611337565b508195505050505050949350505050565b61147d61231d565b61148760006123a4565b565b6060600160008373ffffffffffffffffffffffffffffffffffffffff1673ffffffffffffffffffffffffffffffffffffffff168152602001908152602001600020805480602002602001604051908101604052809291908181526020016000905b8282101561159657838290600052602060002001805461150990612fa6565b80601f016020809104026020016040519081016040528092919081815260200182805461153590612fa6565b80156115825780601f1061155757610100808354040283529160200191611582565b820191906000526020600020905b81548152906001019060200180831161156557829003601f168201915b5050505050815260200190600101906114ea565b505050509050919050565b60006115ab61247b565b905060008160000160089054906101000a900460ff1615905060008260000160009054906101000a900467ffffffffffffffff1690506000808267ffffffffffffffff161480156115f95750825b9050600060018367ffffffffffffffff1614801561162e575060003073ffffffffffffffffffffffffffffffffffffffff163b145b90508115801561163c575080155b15611673576040517ff92ee8a900000000000000000000000000000000000000000000000000000000815260040160405180910390fd5b60018560000160006101000a81548167ffffffffffffffff021916908367ffffffffffffffff16021790555083156116c35760018560000160086101000a81548160ff0219169083151502179055505b6116cb6124a3565b6116d36124ad565b6116dc336124bf565b83156117385760008560000160086101000a81548160ff0219169083151502179055507fc7f505b2f371ae2175ee4913f4499e1f2633a7b5936321eed1cdaeb6115181d2600160405161172f91906139b0565b60405180910390a15b5050505050565b6000808383604051611752929190613016565b90815260200160405180910390209050600073ffffffffffffffffffffffffffffffffffffffff168160000160009054906101000a900473ffffffffffffffffffffffffffffffffffffffff1673ffffffffffffffffffffffffffffffffffffffff16036117f5576040517f08c379a00000000000000000000000000000000000000000000000000000000081526004016117ec90613161565b60405180910390fd5b8060010160003373ffffffffffffffffffffffffffffffffffffffff1673ffffffffffffffffffffffffffffffffffffffff16815260200190815260200160002060009054906101000a900460ff1615611884576040517f08c379a000000000000000000000000000000000000000000000000000000000815260040161187b90613a17565b60405180910390fd5b80600401548160050154106118ce576040517f08c379a00000000000000000000000000000000000000000000000000000000081526004016118c590613a83565b60405180910390fd5b600081600601600183600601805490506118e8919061330e565b815481106118f9576118f861305e565b5b906000526020600020015490508160060180548061191a57611919613601565b5b6001900381819060005260206000200160009055905560018260010160003373ffffffffffffffffffffffffffffffffffffffff1673ffffffffffffffffffffffffffffffffffffffff16815260200190815260200160002060006101000a81548160ff021916908315150217905550338260030182815481106119a1576119a061305e565b5b9060005260206000200160006101000a81548173ffffffffffffffffffffffffffffffffffffffff021916908373ffffffffffffffffffffffffffffffffffffffff160217905550808260020160003373ffffffffffffffffffffffffffffffffffffffff1673ffffffffffffffffffffffffffffffffffffffff16815260200190815260200160002081905550816005016000815480929190611a44906130bc565b9190505550600260003373ffffffffffffffffffffffffffffffffffffffff1673ffffffffffffffffffffffffffffffffffffffff168152602001908152602001600020848490918060018154018082558091505060019003906000526020600020016000909192909192909192909192509182611ac3929190613706565b507fc438828bf84f8f56411b3c88a28310baf820d7cc3909fdc4d4b9ef6cccb0195e84843384604051611af99493929190613aa3565b60405180910390a150505050565b600080611b126124d3565b90508060000160009054906101000a900473ffffffffffffffffffffffffffffffffffffffff1691505090565b600080611b4a6120d6565b905080600001600085815260200190815260200160002060000160008473ffffffffffffffffffffffffffffffffffffffff1673ffffffffffffffffffffffffffffffffffffffff16815260200190815260200160002060009054906101000a900460ff1691505092915050565b6000801b81565b6000808686604051611bd2929190613016565b90815260200160405180910390209050600073ffffffffffffffffffffffffffffffffffffffff168160000160009054906101000a900473ffffffffffffffffffffffffffffffffffffffff1673ffffffffffffffffffffffffffffffffffffffff1603611c75576040517f08c379a0000000000000000000000000000000000000000000000000000000008152600401611c6c90613b2f565b60405180910390fd5b6000816007018585604051611c8b929190613016565b908152602001604051809103902090503373ffffffffffffffffffffffffffffffffffffffff168160000160009054906101000a900473ffffffffffffffffffffffffffffffffffffffff1673ffffffffffffffffffffffffffffffffffffffff1614611d2d576040517f08c379a0000000000000000000000000000000000000000000000000000000008152600401611d2490613b9b565b60405180910390fd5b60018160040160008573ffffffffffffffffffffffffffffffffffffffff1673ffffffffffffffffffffffffffffffffffffffff16815260200190815260200160002060006101000a81548160ff02191690831515021790555080600501839080600181540180825580915050600190039060005260206000200160009091909190916101000a81548173ffffffffffffffffffffffffffffffffffffffff021916908373ffffffffffffffffffffffffffffffffffffffff1602179055507fd78b57910d5f921c4da1543d476f86e9d30026b18c0973b08c4dd30a305542768787878787604051611e239594939291906138ac565b60405180910390a150505050505050565b6000808484604051611e47929190613016565b908152602001604051809103902060010160008373ffffffffffffffffffffffffffffffffffffffff1673ffffffffffffffffffffffffffffffffffffffff16815260200190815260200160002060009054906101000a900460ff1690509392505050565b611eb582610be8565b611ebe816120fe565b611ec8838361221b565b50505050565b6060600260008373ffffffffffffffffffffffffffffffffffffffff1673ffffffffffffffffffffffffffffffffffffffff168152602001908152602001600020805480602002602001604051908101604052809291908181526020016000905b82821015611fdb578382906000526020600020018054611f4e90612fa6565b80601f0160208091040260200160405190810160405280929190818152602001828054611f7a90612fa6565b8015611fc75780601f10611f9c57610100808354040283529160200191611fc7565b820191906000526020600020905b815481529060010190602001808311611faa57829003601f168201915b505050505081526020019060010190611f2f565b505050509050919050565b611fee61231d565b600073ffffffffffffffffffffffffffffffffffffffff168173ffffffffffffffffffffffffffffffffffffffff16036120605760006040517f1e4fbdf70000000000000000000000000000000000000000000000000000000081526004016120579190612e67565b60405180910390fd5b612069816123a4565b50565b60007f01ffc9a7000000000000000000000000000000000000000000000000000000007bffffffffffffffffffffffffffffffffffffffffffffffffffffffff1916827bffffffffffffffffffffffffffffffffffffffffffffffffffffffff1916149050919050565b60007f02dd7bc7dec4dceedda775e58dd541e08a116c6c53815c0bd028192f7b626800905090565b61210f8161210a612213565b6124fb565b50565b60008061211d6120d6565b90506121298484611b3f565b61220757600181600001600086815260200190815260200160002060000160008573ffffffffffffffffffffffffffffffffffffffff1673ffffffffffffffffffffffffffffffffffffffff16815260200190815260200160002060006101000a81548160ff0219169083151502179055506121a3612213565b73ffffffffffffffffffffffffffffffffffffffff168373ffffffffffffffffffffffffffffffffffffffff16857f2f8788117e7eff1d82e926ec794901d17c78024a50270940304540a733656f0d60405160405180910390a4600191505061220d565b60009150505b92915050565b600033905090565b6000806122266120d6565b90506122328484611b3f565b1561231157600081600001600086815260200190815260200160002060000160008573ffffffffffffffffffffffffffffffffffffffff1673ffffffffffffffffffffffffffffffffffffffff16815260200190815260200160002060006101000a81548160ff0219169083151502179055506122ad612213565b73ffffffffffffffffffffffffffffffffffffffff168373ffffffffffffffffffffffffffffffffffffffff16857ff6391f5c32d9c69d2a47ea670b442974b53935d1edc7fd64eb21e047a839171b60405160405180910390a46001915050612317565b60009150505b92915050565b612325612213565b73ffffffffffffffffffffffffffffffffffffffff16612343611b07565b73ffffffffffffffffffffffffffffffffffffffff16146123a257612366612213565b6040517f118cdaa70000000000000000000000000000000000000000000000000000000081526004016123999190612e67565b60405180910390fd5b565b60006123ae6124d3565b905060008160000160009054906101000a900473ffffffffffffffffffffffffffffffffffffffff169050828260000160006101000a81548173ffffffffffffffffffffffffffffffffffffffff021916908373ffffffffffffffffffffffffffffffffffffffff1602179055508273ffffffffffffffffffffffffffffffffffffffff168173ffffffffffffffffffffffffffffffffffffffff167f8be0079c531659141344cd1fd0a4f28419497f9722a3daafe3b4186f6b6457e060405160405180910390a3505050565b60007ff0c57e16840df040f15088dc2f81fe391c3923bec73e23a9662efc9c229c6a00905090565b6124ab61254c565b565b6124b561254c565b6124bd61258c565b565b6124c761254c565b6124d0816125ad565b50565b60007f9016d09d72d40fdae2fd8ceac6b6234c7706214fd39c1cd1e609a0528c199300905090565b6125058282611b3f565b6125485780826040517fe2517d3f00000000000000000000000000000000000000000000000000000000815260040161253f929190613bbb565b60405180910390fd5b5050565b612554612633565b61258a576040517fd7e6bcf800000000000000000000000000000000000000000000000000000000815260040160405180910390fd5b565b61259461254c565b600061259e612653565b90506001816000018190555050565b6125b561254c565b600073ffffffffffffffffffffffffffffffffffffffff168173ffffffffffffffffffffffffffffffffffffffff16036126275760006040517f1e4fbdf700000000000000000000000000000000000000000000000000000000815260040161261e9190612e67565b60405180910390fd5b612630816123a4565b50565b600061263d61247b565b60000160089054906101000a900460ff16905090565b60007f9b779b17422d0df92223018b32b4d1fa46e071723d6817e2486d003becc55f00905090565b50805461268790612fa6565b6000825580601f1061269957506126b8565b601f0160209004906000526020600020908101906126b791906126bb565b5b50565b5b808211156126d45760008160009055506001016126bc565b5090565b600080fd5b600080fd5b60007fffffffff0000000000000000000000000000000000000000000000000000000082169050919050565b612717816126e2565b811461272257600080fd5b50565b6000813590506127348161270e565b92915050565b6000602082840312156127505761274f6126d8565b5b600061275e84828501612725565b91505092915050565b60008115159050919050565b61277c81612767565b82525050565b60006020820190506127976000830184612773565b92915050565b6000819050919050565b6127b08161279d565b82525050565b60006020820190506127cb60008301846127a7565b92915050565b600081519050919050565b600082825260208201905092915050565b6000819050602082019050919050565b600081519050919050565b600082825260208201905092915050565b60005b8381101561283757808201518184015260208101905061281c565b60008484015250505050565b6000601f19601f8301169050919050565b600061285f826127fd565b6128698185612808565b9350612879818560208601612819565b61288281612843565b840191505092915050565b60006128998383612854565b905092915050565b6000602082019050919050565b60006128b9826127d1565b6128c381856127dc565b9350836020820285016128d5856127ed565b8060005b8581101561291157848403895281516128f2858261288d565b94506128fd836128a1565b925060208a019950506001810190506128d9565b50829750879550505050505092915050565b6000602082019050818103600083015261293d81846128ae565b905092915050565b600080fd5b600080fd5b600080fd5b60008083601f84011261296a57612969612945565b5b8235905067ffffffffffffffff8111156129875761298661294a565b5b6020830191508360018202830111156129a3576129a261294f565b5b9250929050565b600080602083850312156129c1576129c06126d8565b5b600083013567ffffffffffffffff8111156129df576129de6126dd565b5b6129eb85828601612954565b92509250509250929050565b600081519050919050565b600082825260208201905092915050565b6000819050602082019050919050565b600073ffffffffffffffffffffffffffffffffffffffff82169050919050565b6000612a4e82612a23565b9050919050565b612a5e81612a43565b82525050565b6000612a708383612a55565b60208301905092915050565b6000602082019050919050565b6000612a94826129f7565b612a9e8185612a02565b9350612aa983612a13565b8060005b83811015612ada578151612ac18882612a64565b9750612acc83612a7c565b925050600181019050612aad565b5085935050505092915050565b60006020820190508181036000830152612b018184612a89565b905092915050565b6000819050919050565b612b1c81612b09565b8114612b2757600080fd5b50565b600081359050612b3981612b13565b92915050565b600060208284031215612b5557612b546126d8565b5b6000612b6384828501612b2a565b91505092915050565b612b7581612b09565b82525050565b6000602082019050612b906000830184612b6c565b92915050565b612b9f81612a43565b8114612baa57600080fd5b50565b600081359050612bbc81612b96565b92915050565b600080fd5b600060408284031215612bdd57612bdc612bc2565b5b81905092915050565b60008060008060008060008060a0898b031215612c0657612c056126d8565b5b600089013567ffffffffffffffff811115612c2457612c236126dd565b5b612c308b828c01612954565b9850985050602089013567ffffffffffffffff811115612c5357612c526126dd565b5b612c5f8b828c01612954565b96509650506040612c728b828c01612bad565b945050606089013567ffffffffffffffff811115612c9357612c926126dd565b5b612c9f8b828c01612954565b9350935050608089013567ffffffffffffffff811115612cc257612cc16126dd565b5b612cce8b828c01612bc7565b9150509295985092959890939650565b60008060408385031215612cf557612cf46126d8565b5b6000612d0385828601612b2a565b9250506020612d1485828601612bad565b9150509250929050565b612d278161279d565b8114612d3257600080fd5b50565b600081359050612d4481612d1e565b92915050565b600080600060408486031215612d6357612d626126d8565b5b600084013567ffffffffffffffff811115612d8157612d806126dd565b5b612d8d86828701612954565b93509350506020612da086828701612d35565b9150509250925092565b60008060008060408587031215612dc457612dc36126d8565b5b600085013567ffffffffffffffff811115612de257612de16126dd565b5b612dee87828801612954565b9450945050602085013567ffffffffffffffff811115612e1157612e106126dd565b5b612e1d87828801612954565b925092505092959194509250565b600060208284031215612e4157612e406126d8565b5b6000612e4f84828501612bad565b91505092915050565b612e6181612a43565b82525050565b6000602082019050612e7c6000830184612e58565b92915050565b600080600080600060608688031215612e9e57612e9d6126d8565b5b600086013567ffffffffffffffff811115612ebc57612ebb6126dd565b5b612ec888828901612954565b9550955050602086013567ffffffffffffffff811115612eeb57612eea6126dd565b5b612ef788828901612954565b93509350506040612f0a88828901612bad565b9150509295509295909350565b600080600060408486031215612f3057612f2f6126d8565b5b600084013567ffffffffffffffff811115612f4e57612f4d6126dd565b5b612f5a86828701612954565b93509350506020612f6d86828701612bad565b9150509250925092565b7f4e487b7100000000000000000000000000000000000000000000000000000000600052602260045260246000fd5b60006002820490506001821680612fbe57607f821691505b602082108103612fd157612fd0612f77565b5b50919050565b600081905092915050565b82818337600083830152505050565b6000612ffd8385612fd7565b935061300a838584612fe2565b82840190509392505050565b6000613023828486612ff1565b91508190509392505050565b7f4e487b7100000000000000000000000000000000000000000000000000000000600052604160045260246000fd5b7f4e487b7100000000000000000000000000000000000000000000000000000000600052603260045260246000fd5b7f4e487b7100000000000000000000000000000000000000000000000000000000600052601160045260246000fd5b60006130c78261279d565b91507fffffffffffffffffffffffffffffffffffffffffffffffffffffffffffffffff82036130f9576130f861308d565b5b600182019050919050565b600082825260208201905092915050565b7f50726f706f73657220736574206e6f7420696e697469616c697a656400000000600082015250565b600061314b601c83613104565b915061315682613115565b602082019050919050565b6000602082019050818103600083015261317a8161313e565b9050919050565b7f4e6f7420726567697374657265642073657175656e6365720000000000000000600082015250565b60006131b7601883613104565b91506131c282613181565b602082019050919050565b600060208201905081810360008301526131e6816131aa565b9050919050565b60006131f88261279d565b91506000820361320b5761320a61308d565b5b600182039050919050565b600081905092915050565b600061322d8385613216565b935061323a838584612fe2565b82840190509392505050565b6000613253828486613221565b91508190509392505050565b60008190508160005260206000209050919050565b6000815461328181612fa6565b61328b8186613216565b945060018216600081146132a657600181146132bb576132ee565b60ff19831686528115158202860193506132ee565b6132c48561325f565b60005b838110156132e6578154818901526001820191506020810190506132c7565b838801955050505b50505092915050565b60006133038284613274565b915081905092915050565b60006133198261279d565b91506133248361279d565b925082820390508181111561333c5761333b61308d565b5b92915050565b60008154905061335181612fa6565b9050919050565b60008190508160005260206000209050919050565b60008190508160005260206000209050919050565b60006020601f8301049050919050565b600082821b905092915050565b6000600883026133cf7fffffffffffffffffffffffffffffffffffffffffffffffffffffffffffffffff82613392565b6133d98683613392565b95508019841693508086168417925050509392505050565b6000819050919050565b600061341661341161340c8461279d565b6133f1565b61279d565b9050919050565b6000819050919050565b613430836133fb565b61344461343c8261341d565b84845461339f565b825550505050565b600090565b61345961344c565b613464818484613427565b505050565b5b818110156134885761347d600082613451565b60018101905061346a565b5050565b601f8211156134cd5761349e81613358565b6134a784613382565b810160208510156134b6578190505b6134ca6134c285613382565b830182613469565b50505b505050565b600082821c905092915050565b60006134f0600019846008026134d2565b1980831691505092915050565b600061350983836134df565b9150826002028217905092915050565b8181036135275750506135ff565b61353082613342565b67ffffffffffffffff8111156135495761354861302f565b5b6135538254612fa6565b61355e82828561348c565b6000601f83116001811461358d576000841561357b578287015490505b61358585826134fd565b8655506135f8565b601f19841661359b8761336d565b96506135a686613358565b60005b828110156135ce578489015482556001820191506001850194506020810190506135a9565b868310156135eb57848901546135e7601f8916826134df565b8355505b6001600288020188555050505b5050505050505b565b7f4e487b7100000000000000000000000000000000000000000000000000000000600052603160045260246000fd5b600061363c8385613104565b9350613649838584612fe2565b61365283612843565b840190509392505050565b60006040820190508181036000830152613678818587613630565b90506136876020830184612e58565b949350505050565b7f4e6f7420636c7573746572206f776e6572000000000000000000000000000000600082015250565b60006136c5601183613104565b91506136d08261368f565b602082019050919050565b600060208201905081810360008301526136f4816136b8565b9050919050565b600082905092915050565b61371083836136fb565b67ffffffffffffffff8111156137295761372861302f565b5b6137338254612fa6565b61373e82828561348c565b6000601f83116001811461376d576000841561375b578287013590505b61376585826134fd565b8655506137cd565b601f19841661377b86613358565b60005b828110156137a35784890135825560018201915060208501945060208101905061377e565b868310156137c057848901356137bc601f8916826134df565b8355505b6001600288020188555050505b50505050505050565b600080fd5b600080fd5b600080fd5b60008083356001602003843603038112613802576138016137d6565b5b80840192508235915067ffffffffffffffff821115613824576138236137db565b5b6020830192506001820236038313156138405761383f6137e0565b5b509250929050565b613853838383613706565b505050565b600081016000830161386a81856137e5565b613875818386613848565b50505050600181016020830161388b81856137e5565b613896818386613848565b505050505050565b6138a88282613858565b5050565b600060608201905081810360008301526138c7818789613630565b905081810360208301526138dc818587613630565b90506138eb6040830184612e58565b9695505050505050565b7f416c726561647920696e697469616c697a656420636c75737465720000000000600082015250565b600061392b601b83613104565b9150613936826138f5565b602082019050919050565b6000602082019050818103600083015261395a8161391e565b9050919050565b6000819050919050565b600067ffffffffffffffff82169050919050565b600061399a61399561399084613961565b6133f1565b61396b565b9050919050565b6139aa8161397f565b82525050565b60006020820190506139c560008301846139a1565b92915050565b7f416c726561647920726567697374657265642073657175656e63657200000000600082015250565b6000613a01601c83613104565b9150613a0c826139cb565b602082019050919050565b60006020820190508181036000830152613a30816139f4565b9050919050565b7f4d61782073657175656e63657220636f756e7420657863656564656400000000600082015250565b6000613a6d601c83613104565b9150613a7882613a37565b602082019050919050565b60006020820190508181036000830152613a9c81613a60565b9050919050565b60006060820190508181036000830152613abe818688613630565b9050613acd6020830185612e58565b613ada60408301846127a7565b95945050505050565b7f4e6f7420696e697469616c697a656420636c7573746572000000000000000000600082015250565b6000613b19601783613104565b9150613b2482613ae3565b602082019050919050565b60006020820190508181036000830152613b4881613b0c565b9050919050565b7f4e6f7420726f6c6c7570206f776e657200000000000000000000000000000000600082015250565b6000613b85601083613104565b9150613b9082613b4f565b602082019050919050565b60006020820190508181036000830152613bb481613b78565b9050919050565b6000604082019050613bd06000830185612e58565b613bdd6020830184612b6c565b939250505056fea2646970667358221220acb0ccd17e22ae50f7dda23e5f01489c49fb74442fd48752cc86fc5c8d70062964736f6c63430008180033",
  "linkReferences": {},
  "deployedLinkReferences": {}
}