{
  "_format": "hh-sol-artifact-1",
  "contractName": "LivenessRadius",
  "sourceName": "contracts/LivenessRadius.sol",
  "abi": [
    {
      "inputs": [],
      "stateMutability": "nonpayable",
      "type": "constructor"
    },
    {
      "inputs": [],
      "name": "AccessControlBadConfirmation",
      "type": "error"
    },
    {
      "inputs": [
        {
          "internalType": "address",
          "name": "account",
          "type": "address"
        },
        {
          "internalType": "bytes32",
          "name": "neededRole",
          "type": "bytes32"
        }
      ],
      "name": "AccessControlUnauthorizedAccount",
      "type": "error"
    },
    {
      "inputs": [],
      "name": "InvalidInitialization",
      "type": "error"
    },
    {
      "inputs": [],
      "name": "NotInitializing",
      "type": "error"
    },
    {
      "inputs": [
        {
          "internalType": "address",
          "name": "owner",
          "type": "address"
        }
      ],
      "name": "OwnableInvalidOwner",
      "type": "error"
    },
    {
      "inputs": [
        {
          "internalType": "address",
          "name": "account",
          "type": "address"
        }
      ],
      "name": "OwnableUnauthorizedAccount",
      "type": "error"
    },
    {
      "inputs": [],
      "name": "ReentrancyGuardReentrantCall",
      "type": "error"
    },
    {
      "anonymous": false,
      "inputs": [
        {
          "indexed": false,
          "internalType": "string",
          "name": "clusterId",
          "type": "string"
        },
        {
          "indexed": false,
          "internalType": "string",
          "name": "rollupId",
          "type": "string"
        }
      ],
      "name": "AddRollup",
      "type": "event"
    },
    {
      "anonymous": false,
      "inputs": [
        {
          "indexed": false,
          "internalType": "string",
          "name": "clusterId",
          "type": "string"
        },
        {
          "indexed": false,
          "internalType": "string",
          "name": "rollupId",
          "type": "string"
        },
        {
          "indexed": false,
          "internalType": "address",
          "name": "executorAddress",
          "type": "address"
        }
      ],
      "name": "AddRollupExecutor",
      "type": "event"
    },
    {
      "anonymous": false,
      "inputs": [
        {
          "indexed": false,
          "internalType": "string",
          "name": "clusterId",
          "type": "string"
        },
        {
          "indexed": false,
          "internalType": "address",
          "name": "sequencerAddress",
          "type": "address"
        }
      ],
      "name": "DeregisterSequencer",
      "type": "event"
    },
    {
      "anonymous": false,
      "inputs": [
        {
          "indexed": false,
          "internalType": "string",
          "name": "clusterId",
          "type": "string"
        },
        {
          "indexed": false,
          "internalType": "address",
          "name": "owner",
          "type": "address"
        }
      ],
      "name": "InitializeCluster",
      "type": "event"
    },
    {
      "anonymous": false,
      "inputs": [
        {
          "indexed": false,
          "internalType": "uint64",
          "name": "version",
          "type": "uint64"
        }
      ],
      "name": "Initialized",
      "type": "event"
    },
    {
      "anonymous": false,
      "inputs": [
        {
          "indexed": true,
          "internalType": "address",
          "name": "previousOwner",
          "type": "address"
        },
        {
          "indexed": true,
          "internalType": "address",
          "name": "newOwner",
          "type": "address"
        }
      ],
      "name": "OwnershipTransferred",
      "type": "event"
    },
    {
      "anonymous": false,
      "inputs": [
        {
          "indexed": false,
          "internalType": "string",
          "name": "clusterId",
          "type": "string"
        },
        {
          "indexed": false,
          "internalType": "address",
          "name": "sequencerAddress",
          "type": "address"
        },
        {
          "indexed": false,
          "internalType": "uint256",
          "name": "index",
          "type": "uint256"
        }
      ],
      "name": "RegisterSequencer",
      "type": "event"
    },
    {
      "anonymous": false,
      "inputs": [
        {
          "indexed": true,
          "internalType": "bytes32",
          "name": "role",
          "type": "bytes32"
        },
        {
          "indexed": true,
          "internalType": "bytes32",
          "name": "previousAdminRole",
          "type": "bytes32"
        },
        {
          "indexed": true,
          "internalType": "bytes32",
          "name": "newAdminRole",
          "type": "bytes32"
        }
      ],
      "name": "RoleAdminChanged",
      "type": "event"
    },
    {
      "anonymous": false,
      "inputs": [
        {
          "indexed": true,
          "internalType": "bytes32",
          "name": "role",
          "type": "bytes32"
        },
        {
          "indexed": true,
          "internalType": "address",
          "name": "account",
          "type": "address"
        },
        {
          "indexed": true,
          "internalType": "address",
          "name": "sender",
          "type": "address"
        }
      ],
      "name": "RoleGranted",
      "type": "event"
    },
    {
      "anonymous": false,
      "inputs": [
        {
          "indexed": true,
          "internalType": "bytes32",
          "name": "role",
          "type": "bytes32"
        },
        {
          "indexed": true,
          "internalType": "address",
          "name": "account",
          "type": "address"
        },
        {
          "indexed": true,
          "internalType": "address",
          "name": "sender",
          "type": "address"
        }
      ],
      "name": "RoleRevoked",
      "type": "event"
    },
    {
      "inputs": [],
      "name": "BLOCK_MARGIN",
      "outputs": [
        {
          "internalType": "uint256",
          "name": "",
          "type": "uint256"
        }
      ],
      "stateMutability": "view",
      "type": "function"
    },
    {
      "inputs": [],
      "name": "DEFAULT_ADMIN_ROLE",
      "outputs": [
        {
          "internalType": "bytes32",
          "name": "",
          "type": "bytes32"
        }
      ],
      "stateMutability": "view",
      "type": "function"
    },
    {
      "inputs": [],
      "name": "MAX_SEQUENCER_COUNT",
      "outputs": [
        {
          "internalType": "uint256",
          "name": "",
          "type": "uint256"
        }
      ],
      "stateMutability": "view",
      "type": "function"
    },
    {
      "inputs": [
        {
          "internalType": "string",
          "name": "clusterId",
          "type": "string"
        },
        {
          "internalType": "string",
          "name": "rollupId",
          "type": "string"
        },
        {
          "internalType": "address",
          "name": "rollupOwnerAddress",
          "type": "address"
        },
        {
          "internalType": "string",
          "name": "orderCommitmentType",
          "type": "string"
        },
        {
          "components": [
            {
              "internalType": "string",
              "name": "platform",
              "type": "string"
            },
            {
              "internalType": "string",
              "name": "serviceProvider",
              "type": "string"
            }
          ],
          "internalType": "struct ILivenessRadius.ValidationInfo",
          "name": "validationInfo",
          "type": "tuple"
        }
      ],
      "name": "addRollup",
      "outputs": [],
      "stateMutability": "nonpayable",
      "type": "function"
    },
    {
      "inputs": [
        {
          "internalType": "string",
          "name": "clusterId",
          "type": "string"
        },
        {
          "internalType": "string",
          "name": "rollupId",
          "type": "string"
        },
        {
          "internalType": "address",
          "name": "rollupExecutorAddress",
          "type": "address"
        }
      ],
      "name": "addRollupExecutor",
      "outputs": [],
      "stateMutability": "nonpayable",
      "type": "function"
    },
    {
      "inputs": [
        {
          "internalType": "string",
          "name": "clusterId",
          "type": "string"
        }
      ],
      "name": "deregisterSequencer",
      "outputs": [],
      "stateMutability": "nonpayable",
      "type": "function"
    },
    {
      "inputs": [],
      "name": "getAllClusterIds",
      "outputs": [
        {
          "internalType": "string[]",
          "name": "",
          "type": "string[]"
        }
      ],
      "stateMutability": "view",
      "type": "function"
    },
    {
      "inputs": [
        {
          "internalType": "address",
          "name": "owner",
          "type": "address"
        }
      ],
      "name": "getClustersByOwner",
      "outputs": [
        {
          "internalType": "string[]",
          "name": "",
          "type": "string[]"
        }
      ],
      "stateMutability": "view",
      "type": "function"
    },
    {
      "inputs": [
        {
          "internalType": "address",
          "name": "sequencer",
          "type": "address"
        }
      ],
      "name": "getClustersBySequencer",
      "outputs": [
        {
          "internalType": "string[]",
          "name": "",
          "type": "string[]"
        }
      ],
      "stateMutability": "view",
      "type": "function"
    },
    {
      "inputs": [
        {
          "internalType": "string",
          "name": "clusterId",
          "type": "string"
        },
        {
          "internalType": "string",
          "name": "rollupId",
          "type": "string"
        }
      ],
      "name": "getExecutorList",
      "outputs": [
        {
          "internalType": "address[]",
          "name": "",
          "type": "address[]"
        }
      ],
      "stateMutability": "view",
      "type": "function"
    },
    {
      "inputs": [
        {
          "internalType": "bytes32",
          "name": "role",
          "type": "bytes32"
        }
      ],
      "name": "getRoleAdmin",
      "outputs": [
        {
          "internalType": "bytes32",
          "name": "",
          "type": "bytes32"
        }
      ],
      "stateMutability": "view",
      "type": "function"
    },
    {
      "inputs": [
        {
          "internalType": "string",
          "name": "clusterId",
          "type": "string"
        }
      ],
      "name": "getSequencerList",
      "outputs": [
        {
          "internalType": "address[]",
          "name": "",
          "type": "address[]"
        }
      ],
      "stateMutability": "view",
      "type": "function"
    },
    {
      "inputs": [
        {
          "internalType": "bytes32",
          "name": "role",
          "type": "bytes32"
        },
        {
          "internalType": "address",
          "name": "account",
          "type": "address"
        }
      ],
      "name": "grantRole",
      "outputs": [],
      "stateMutability": "nonpayable",
      "type": "function"
    },
    {
      "inputs": [
        {
          "internalType": "bytes32",
          "name": "role",
          "type": "bytes32"
        },
        {
          "internalType": "address",
          "name": "account",
          "type": "address"
        }
      ],
      "name": "hasRole",
      "outputs": [
        {
          "internalType": "bool",
          "name": "",
          "type": "bool"
        }
      ],
      "stateMutability": "view",
      "type": "function"
    },
    {
      "inputs": [],
      "name": "initialize",
      "outputs": [],
      "stateMutability": "nonpayable",
      "type": "function"
    },
    {
      "inputs": [
        {
          "internalType": "string",
          "name": "clusterId",
          "type": "string"
        }
      ],
      "name": "initializeCluster",
      "outputs": [],
      "stateMutability": "nonpayable",
      "type": "function"
    },
    {
      "inputs": [
        {
          "internalType": "string",
          "name": "clusterId",
          "type": "string"
        },
        {
          "internalType": "address",
          "name": "sequencerAddress",
          "type": "address"
        }
      ],
      "name": "isRegistered",
      "outputs": [
        {
          "internalType": "bool",
          "name": "",
          "type": "bool"
        }
      ],
      "stateMutability": "view",
      "type": "function"
    },
    {
      "inputs": [],
      "name": "owner",
      "outputs": [
        {
          "internalType": "address",
          "name": "",
          "type": "address"
        }
      ],
      "stateMutability": "view",
      "type": "function"
    },
    {
      "inputs": [
        {
          "internalType": "string",
          "name": "clusterId",
          "type": "string"
        }
      ],
      "name": "registerSequencer",
      "outputs": [],
      "stateMutability": "nonpayable",
      "type": "function"
    },
    {
      "inputs": [],
      "name": "renounceOwnership",
      "outputs": [],
      "stateMutability": "nonpayable",
      "type": "function"
    },
    {
      "inputs": [
        {
          "internalType": "bytes32",
          "name": "role",
          "type": "bytes32"
        },
        {
          "internalType": "address",
          "name": "callerConfirmation",
          "type": "address"
        }
      ],
      "name": "renounceRole",
      "outputs": [],
      "stateMutability": "nonpayable",
      "type": "function"
    },
    {
      "inputs": [
        {
          "internalType": "bytes32",
          "name": "role",
          "type": "bytes32"
        },
        {
          "internalType": "address",
          "name": "account",
          "type": "address"
        }
      ],
      "name": "revokeRole",
      "outputs": [],
      "stateMutability": "nonpayable",
      "type": "function"
    },
    {
      "inputs": [
        {
          "internalType": "bytes4",
          "name": "interfaceId",
          "type": "bytes4"
        }
      ],
      "name": "supportsInterface",
      "outputs": [
        {
          "internalType": "bool",
          "name": "",
          "type": "bool"
        }
      ],
      "stateMutability": "view",
      "type": "function"
    },
    {
      "inputs": [
        {
          "internalType": "address",
          "name": "newOwner",
          "type": "address"
        }
      ],
      "name": "transferOwnership",
      "outputs": [],
      "stateMutability": "nonpayable",
      "type": "function"
    }
  ],
  "bytecode": "0x60806040523480156200001157600080fd5b50620000226200002860201b60201c565b6200019c565b60006200003a6200013260201b60201c565b90508060000160089054906101000a900460ff161562000086576040517ff92ee8a900000000000000000000000000000000000000000000000000000000815260040160405180910390fd5b67ffffffffffffffff80168160000160009054906101000a900467ffffffffffffffff1667ffffffffffffffff16146200012f5767ffffffffffffffff8160000160006101000a81548167ffffffffffffffff021916908367ffffffffffffffff1602179055507fc7f505b2f371ae2175ee4913f4499e1f2633a7b5936321eed1cdaeb6115181d267ffffffffffffffff6040516200012691906200017f565b60405180910390a15b50565b60007ff0c57e16840df040f15088dc2f81fe391c3923bec73e23a9662efc9c229c6a00905090565b600067ffffffffffffffff82169050919050565b62000179816200015a565b82525050565b60006020820190506200019660008301846200016e565b92915050565b613b3d80620001ac6000396000f3fe608060405234801561001057600080fd5b50600436106101585760003560e01c8063715018a6116100c35780639c992e8f1161007c5780639c992e8f146103b1578063a217fddf146103cd578063bd290b81146103eb578063d547741f1461041b578063ee6d992f14610437578063f2fde38b1461046757610158565b8063715018a61461030357806378a616f51461030d5780638129fc1c1461033d5780638a4abab8146103475780638da5cb5b1461036357806391d148541461038157610158565b80632a4f1823116101155780632a4f1823146102455780632f2ff15d1461026157806336568abe1461027d5780634a71a868146102995780635024bd62146102b557806365f413bb146102d357610158565b806301ffc9a71461015d578063071c55ac1461018d57806315a45bdb146101ab57806323fd869f146101c95780632432fdfc146101f9578063248a9ca314610215575b600080fd5b610177600480360381019061017291906126ae565b610483565b60405161018491906126f6565b60405180910390f35b6101956104fd565b6040516101a2919061272a565b60405180910390f35b6101b3610502565b6040516101c09190612897565b60405180910390f35b6101e360048036038101906101de919061291e565b6105db565b6040516101f09190612a5b565b60405180910390f35b610213600480360381019061020e919061291e565b610786565b005b61022f600480360381019061022a9190612ab3565b610bd0565b60405161023c9190612aef565b60405180910390f35b61025f600480360381019061025a9190612b5a565b610bfe565b005b61027b60048036038101906102769190612c52565b610e8b565b005b61029760048036038101906102929190612c52565b610ead565b005b6102b360048036038101906102ae919061291e565b610f28565b005b6102bd611169565b6040516102ca919061272a565b60405180910390f35b6102ed60048036038101906102e89190612c92565b61116e565b6040516102fa9190612a5b565b60405180910390f35b61030b6113ec565b005b61032760048036038101906103229190612d13565b611400565b6040516103349190612897565b60405180910390f35b610345611518565b005b610361600480360381019061035c919061291e565b6116b6565b005b61036b611a7b565b6040516103789190612d4f565b60405180910390f35b61039b60048036038101906103969190612c52565b611ab3565b6040516103a891906126f6565b60405180910390f35b6103cb60048036038101906103c69190612d6a565b611b2c565b005b6103d5611da1565b6040516103e29190612aef565b60405180910390f35b61040560048036038101906104009190612dff565b611da8565b60405161041291906126f6565b60405180910390f35b61043560048036038101906104309190612c52565b611e20565b005b610451600480360381019061044c9190612d13565b611e42565b60405161045e9190612897565b60405180910390f35b610481600480360381019061047c9190612d13565b611f5a565b005b60007f7965db0b000000000000000000000000000000000000000000000000000000007bffffffffffffffffffffffffffffffffffffffffffffffffffffffff1916827bffffffffffffffffffffffffffffffffffffffffffffffffffffffff191614806104f657506104f582611fe0565b5b9050919050565b600781565b60606003805480602002602001604051908101604052809291908181526020016000905b828210156105d257838290600052602060002001805461054590612e8e565b80601f016020809104026020016040519081016040528092919081815260200182805461057190612e8e565b80156105be5780601f10610593576101008083540402835291602001916105be565b820191906000526020600020905b8154815290600101906020018083116105a157829003601f168201915b505050505081526020019060010190610526565b50505050905090565b606060008084846040516105f0929190612efe565b90815260200160405180910390209050600080601e67ffffffffffffffff81111561061e5761061d612f17565b5b60405190808252806020026020018201604052801561064c5781602001602082028036833780820191505090505b50905060005b601e81101561077957600073ffffffffffffffffffffffffffffffffffffffff1684600301828154811061068957610688612f46565b5b9060005260206000200160009054906101000a900473ffffffffffffffffffffffffffffffffffffffff1673ffffffffffffffffffffffffffffffffffffffff161461076c578360030181815481106106e5576106e4612f46565b5b9060005260206000200160009054906101000a900473ffffffffffffffffffffffffffffffffffffffff1682848151811061072357610722612f46565b5b602002602001019073ffffffffffffffffffffffffffffffffffffffff16908173ffffffffffffffffffffffffffffffffffffffff1681525050828061076890612fa4565b9350505b8080600101915050610652565b5080935050505092915050565b6000808383604051610799929190612efe565b90815260200160405180910390209050600073ffffffffffffffffffffffffffffffffffffffff168160000160009054906101000a900473ffffffffffffffffffffffffffffffffffffffff1673ffffffffffffffffffffffffffffffffffffffff160361083c576040517f08c379a000000000000000000000000000000000000000000000000000000000815260040161083390613049565b60405180910390fd5b8060010160003373ffffffffffffffffffffffffffffffffffffffff1673ffffffffffffffffffffffffffffffffffffffff16815260200190815260200160002060009054906101000a900460ff166108ca576040517f08c379a00000000000000000000000000000000000000000000000000000000081526004016108c1906130b5565b60405180910390fd5b60008160010160003373ffffffffffffffffffffffffffffffffffffffff1673ffffffffffffffffffffffffffffffffffffffff16815260200190815260200160002060006101000a81548160ff02191690831515021790555060008160020160003373ffffffffffffffffffffffffffffffffffffffff1673ffffffffffffffffffffffffffffffffffffffff168152602001908152602001600020549050600082600301828154811061098257610981612f46565b5b9060005260206000200160006101000a81548173ffffffffffffffffffffffffffffffffffffffff021916908373ffffffffffffffffffffffffffffffffffffffff1602179055508160020160003373ffffffffffffffffffffffffffffffffffffffff1673ffffffffffffffffffffffffffffffffffffffff16815260200190815260200160002060009055816004016000815480929190610a24906130d5565b9190505550816005018190806001815401808255809150506001900390600052602060002001600090919091909150556000600260003373ffffffffffffffffffffffffffffffffffffffff1673ffffffffffffffffffffffffffffffffffffffff168152602001908152602001600020905060005b8180549050811015610b8d578585604051610ab692919061312e565b6040518091039020828281548110610ad157610ad0612f46565b5b90600052602060002001604051610ae891906131df565b604051809103902003610b80578160018380549050610b0791906131f6565b81548110610b1857610b17612f46565b5b90600052602060002001828281548110610b3557610b34612f46565b5b906000526020600020019081610b4b9190613401565b5081805480610b5d57610b5c6134e9565b5b600190038181906000526020600020016000610b7991906125ef565b9055610b8d565b8080600101915050610a9a565b507f8e705b58b23a2bb7ce17d2ef262b1ffd19a1afe45787a31689acc56e928cefb8858533604051610bc193929190613545565b60405180910390a15050505050565b600080610bdb61204a565b905080600001600084815260200190815260200160002060010154915050919050565b6000808989604051610c11929190612efe565b908152602001604051809103902090503373ffffffffffffffffffffffffffffffffffffffff168160000160009054906101000a900473ffffffffffffffffffffffffffffffffffffffff1673ffffffffffffffffffffffffffffffffffffffff1614610cb3576040517f08c379a0000000000000000000000000000000000000000000000000000000008152600401610caa906135c3565b60405180910390fd5b6000816006018888604051610cc9929190612efe565b90815260200160405180910390209050858160000160006101000a81548173ffffffffffffffffffffffffffffffffffffffff021916908373ffffffffffffffffffffffffffffffffffffffff1602179055508484826003019182610d2f9291906135ee565b5082816001018181610d419190613786565b90505060018160040160008873ffffffffffffffffffffffffffffffffffffffff1673ffffffffffffffffffffffffffffffffffffffff16815260200190815260200160002060006101000a81548160ff02191690831515021790555080600501869080600181540180825580915050600190039060005260206000200160009091909190916101000a81548173ffffffffffffffffffffffffffffffffffffffff021916908373ffffffffffffffffffffffffffffffffffffffff1602179055507f5088dc8176b124f3a31fa9caaac4d7f86dc112afbc93ceb311aefbb53ffe64508a8a8a8a604051610e389493929190613794565b60405180910390a17fb449fbcc265677f0019f9decc0272cad340aade0fc990be2eda7c934d32370e38a8a8a8a8a604051610e779594939291906137cf565b60405180910390a150505050505050505050565b610e9482610bd0565b610e9d81612072565b610ea78383612086565b50505050565b610eb5612187565b73ffffffffffffffffffffffffffffffffffffffff168173ffffffffffffffffffffffffffffffffffffffff1614610f19576040517f6697b23200000000000000000000000000000000000000000000000000000000815260040160405180910390fd5b610f23828261218f565b505050565b6000808383604051610f3b929190612efe565b90815260200160405180910390209050600073ffffffffffffffffffffffffffffffffffffffff168160000160009054906101000a900473ffffffffffffffffffffffffffffffffffffffff1673ffffffffffffffffffffffffffffffffffffffff1614610fde576040517f08c379a0000000000000000000000000000000000000000000000000000000008152600401610fd590613864565b60405180910390fd5b338160000160006101000a81548173ffffffffffffffffffffffffffffffffffffffff021916908373ffffffffffffffffffffffffffffffffffffffff1602179055506000816004018190555060005b601e81101561106f5781600501819080600181540180825580915050600190039060005260206000200160009091909190915055808060010191505061102e565b50600160003373ffffffffffffffffffffffffffffffffffffffff1673ffffffffffffffffffffffffffffffffffffffff1681526020019081526020016000208383909180600181540180825580915050600190039060005260206000200160009091929091929091929091925091826110ea9291906135ee565b5060038383909180600181540180825580915050600190039060005260206000200160009091929091929091929091925091826111289291906135ee565b507f0a76fd24146ad0c8934e1e4152d03c3d5679c78f95d7cf8f588825eb81166d5083833360405161115c93929190613545565b60405180910390a1505050565b601e81565b60606000808686604051611183929190612efe565b9081526020016040518091039020905060008160060185856040516111a9929190612efe565b908152602001604051809103902090506000805b826005018054905081101561125c57600073ffffffffffffffffffffffffffffffffffffffff168360050182815481106111fa576111f9612f46565b5b9060005260206000200160009054906101000a900473ffffffffffffffffffffffffffffffffffffffff1673ffffffffffffffffffffffffffffffffffffffff161461124f57818061124b90612fa4565b9250505b80806001019150506111bd565b5060008167ffffffffffffffff81111561127957611278612f17565b5b6040519080825280602002602001820160405280156112a75781602001602082028036833780820191505090505b5090506000805b84600501805490508110156113db57600073ffffffffffffffffffffffffffffffffffffffff168560050182815481106112eb576112ea612f46565b5b9060005260206000200160009054906101000a900473ffffffffffffffffffffffffffffffffffffffff1673ffffffffffffffffffffffffffffffffffffffff16146113ce5784600501818154811061134757611346612f46565b5b9060005260206000200160009054906101000a900473ffffffffffffffffffffffffffffffffffffffff1683838151811061138557611384612f46565b5b602002602001019073ffffffffffffffffffffffffffffffffffffffff16908173ffffffffffffffffffffffffffffffffffffffff168152505081806113ca90612fa4565b9250505b80806001019150506112ae565b508195505050505050949350505050565b6113f4612291565b6113fe6000612318565b565b6060600160008373ffffffffffffffffffffffffffffffffffffffff1673ffffffffffffffffffffffffffffffffffffffff168152602001908152602001600020805480602002602001604051908101604052809291908181526020016000905b8282101561150d57838290600052602060002001805461148090612e8e565b80601f01602080910402602001604051908101604052809291908181526020018280546114ac90612e8e565b80156114f95780601f106114ce576101008083540402835291602001916114f9565b820191906000526020600020905b8154815290600101906020018083116114dc57829003601f168201915b505050505081526020019060010190611461565b505050509050919050565b60006115226123ef565b905060008160000160089054906101000a900460ff1615905060008260000160009054906101000a900467ffffffffffffffff1690506000808267ffffffffffffffff161480156115705750825b9050600060018367ffffffffffffffff161480156115a5575060003073ffffffffffffffffffffffffffffffffffffffff163b145b9050811580156115b3575080155b156115ea576040517ff92ee8a900000000000000000000000000000000000000000000000000000000815260040160405180910390fd5b60018560000160006101000a81548167ffffffffffffffff021916908367ffffffffffffffff160217905550831561163a5760018560000160086101000a81548160ff0219169083151502179055505b611642612417565b61164a612421565b61165333612433565b83156116af5760008560000160086101000a81548160ff0219169083151502179055507fc7f505b2f371ae2175ee4913f4499e1f2633a7b5936321eed1cdaeb6115181d260016040516116a691906138d3565b60405180910390a15b5050505050565b60008083836040516116c9929190612efe565b90815260200160405180910390209050600073ffffffffffffffffffffffffffffffffffffffff168160000160009054906101000a900473ffffffffffffffffffffffffffffffffffffffff1673ffffffffffffffffffffffffffffffffffffffff160361176c576040517f08c379a000000000000000000000000000000000000000000000000000000000815260040161176390613049565b60405180910390fd5b8060010160003373ffffffffffffffffffffffffffffffffffffffff1673ffffffffffffffffffffffffffffffffffffffff16815260200190815260200160002060009054906101000a900460ff16156117fb576040517f08c379a00000000000000000000000000000000000000000000000000000000081526004016117f29061393a565b60405180910390fd5b601e816004015410611842576040517f08c379a0000000000000000000000000000000000000000000000000000000008152600401611839906139a6565b60405180910390fd5b60018160010160003373ffffffffffffffffffffffffffffffffffffffff1673ffffffffffffffffffffffffffffffffffffffff16815260200190815260200160002060006101000a81548160ff021916908315150217905550600081600501600183600501805490506118b691906131f6565b815481106118c7576118c6612f46565b5b90600052602060002001549050816005018054806118e8576118e76134e9565b5b600190038181906000526020600020016000905590553382600301828154811061191557611914612f46565b5b9060005260206000200160006101000a81548173ffffffffffffffffffffffffffffffffffffffff021916908373ffffffffffffffffffffffffffffffffffffffff160217905550808260020160003373ffffffffffffffffffffffffffffffffffffffff1673ffffffffffffffffffffffffffffffffffffffff168152602001908152602001600020819055508160040160008154809291906119b890612fa4565b9190505550600260003373ffffffffffffffffffffffffffffffffffffffff1673ffffffffffffffffffffffffffffffffffffffff168152602001908152602001600020848490918060018154018082558091505060019003906000526020600020016000909192909192909192909192509182611a379291906135ee565b507fc438828bf84f8f56411b3c88a28310baf820d7cc3909fdc4d4b9ef6cccb0195e84843384604051611a6d94939291906139c6565b60405180910390a150505050565b600080611a86612447565b90508060000160009054906101000a900473ffffffffffffffffffffffffffffffffffffffff1691505090565b600080611abe61204a565b905080600001600085815260200190815260200160002060000160008473ffffffffffffffffffffffffffffffffffffffff1673ffffffffffffffffffffffffffffffffffffffff16815260200190815260200160002060009054906101000a900460ff1691505092915050565b6000808686604051611b3f929190612efe565b90815260200160405180910390209050600073ffffffffffffffffffffffffffffffffffffffff168160000160009054906101000a900473ffffffffffffffffffffffffffffffffffffffff1673ffffffffffffffffffffffffffffffffffffffff1603611be2576040517f08c379a0000000000000000000000000000000000000000000000000000000008152600401611bd990613a52565b60405180910390fd5b6000816006018585604051611bf8929190612efe565b908152602001604051809103902090503373ffffffffffffffffffffffffffffffffffffffff168160000160009054906101000a900473ffffffffffffffffffffffffffffffffffffffff1673ffffffffffffffffffffffffffffffffffffffff1614611c9a576040517f08c379a0000000000000000000000000000000000000000000000000000000008152600401611c9190613abe565b60405180910390fd5b60018160040160008573ffffffffffffffffffffffffffffffffffffffff1673ffffffffffffffffffffffffffffffffffffffff16815260200190815260200160002060006101000a81548160ff02191690831515021790555080600501839080600181540180825580915050600190039060005260206000200160009091909190916101000a81548173ffffffffffffffffffffffffffffffffffffffff021916908373ffffffffffffffffffffffffffffffffffffffff1602179055507fb449fbcc265677f0019f9decc0272cad340aade0fc990be2eda7c934d32370e38787878787604051611d909594939291906137cf565b60405180910390a150505050505050565b6000801b81565b6000808484604051611dbb929190612efe565b908152602001604051809103902060010160008373ffffffffffffffffffffffffffffffffffffffff1673ffffffffffffffffffffffffffffffffffffffff16815260200190815260200160002060009054906101000a900460ff1690509392505050565b611e2982610bd0565b611e3281612072565b611e3c838361218f565b50505050565b6060600260008373ffffffffffffffffffffffffffffffffffffffff1673ffffffffffffffffffffffffffffffffffffffff168152602001908152602001600020805480602002602001604051908101604052809291908181526020016000905b82821015611f4f578382906000526020600020018054611ec290612e8e565b80601f0160208091040260200160405190810160405280929190818152602001828054611eee90612e8e565b8015611f3b5780601f10611f1057610100808354040283529160200191611f3b565b820191906000526020600020905b815481529060010190602001808311611f1e57829003601f168201915b505050505081526020019060010190611ea3565b505050509050919050565b611f62612291565b600073ffffffffffffffffffffffffffffffffffffffff168173ffffffffffffffffffffffffffffffffffffffff1603611fd45760006040517f1e4fbdf7000000000000000000000000000000000000000000000000000000008152600401611fcb9190612d4f565b60405180910390fd5b611fdd81612318565b50565b60007f01ffc9a7000000000000000000000000000000000000000000000000000000007bffffffffffffffffffffffffffffffffffffffffffffffffffffffff1916827bffffffffffffffffffffffffffffffffffffffffffffffffffffffff1916149050919050565b60007f02dd7bc7dec4dceedda775e58dd541e08a116c6c53815c0bd028192f7b626800905090565b6120838161207e612187565b61246f565b50565b60008061209161204a565b905061209d8484611ab3565b61217b57600181600001600086815260200190815260200160002060000160008573ffffffffffffffffffffffffffffffffffffffff1673ffffffffffffffffffffffffffffffffffffffff16815260200190815260200160002060006101000a81548160ff021916908315150217905550612117612187565b73ffffffffffffffffffffffffffffffffffffffff168373ffffffffffffffffffffffffffffffffffffffff16857f2f8788117e7eff1d82e926ec794901d17c78024a50270940304540a733656f0d60405160405180910390a46001915050612181565b60009150505b92915050565b600033905090565b60008061219a61204a565b90506121a68484611ab3565b1561228557600081600001600086815260200190815260200160002060000160008573ffffffffffffffffffffffffffffffffffffffff1673ffffffffffffffffffffffffffffffffffffffff16815260200190815260200160002060006101000a81548160ff021916908315150217905550612221612187565b73ffffffffffffffffffffffffffffffffffffffff168373ffffffffffffffffffffffffffffffffffffffff16857ff6391f5c32d9c69d2a47ea670b442974b53935d1edc7fd64eb21e047a839171b60405160405180910390a4600191505061228b565b60009150505b92915050565b612299612187565b73ffffffffffffffffffffffffffffffffffffffff166122b7611a7b565b73ffffffffffffffffffffffffffffffffffffffff1614612316576122da612187565b6040517f118cdaa700000000000000000000000000000000000000000000000000000000815260040161230d9190612d4f565b60405180910390fd5b565b6000612322612447565b905060008160000160009054906101000a900473ffffffffffffffffffffffffffffffffffffffff169050828260000160006101000a81548173ffffffffffffffffffffffffffffffffffffffff021916908373ffffffffffffffffffffffffffffffffffffffff1602179055508273ffffffffffffffffffffffffffffffffffffffff168173ffffffffffffffffffffffffffffffffffffffff167f8be0079c531659141344cd1fd0a4f28419497f9722a3daafe3b4186f6b6457e060405160405180910390a3505050565b60007ff0c57e16840df040f15088dc2f81fe391c3923bec73e23a9662efc9c229c6a00905090565b61241f6124c0565b565b6124296124c0565b612431612500565b565b61243b6124c0565b61244481612521565b50565b60007f9016d09d72d40fdae2fd8ceac6b6234c7706214fd39c1cd1e609a0528c199300905090565b6124798282611ab3565b6124bc5780826040517fe2517d3f0000000000000000000000000000000000000000000000000000000081526004016124b3929190613ade565b60405180910390fd5b5050565b6124c86125a7565b6124fe576040517fd7e6bcf800000000000000000000000000000000000000000000000000000000815260040160405180910390fd5b565b6125086124c0565b60006125126125c7565b90506001816000018190555050565b6125296124c0565b600073ffffffffffffffffffffffffffffffffffffffff168173ffffffffffffffffffffffffffffffffffffffff160361259b5760006040517f1e4fbdf70000000000000000000000000000000000000000000000000000000081526004016125929190612d4f565b60405180910390fd5b6125a481612318565b50565b60006125b16123ef565b60000160089054906101000a900460ff16905090565b60007f9b779b17422d0df92223018b32b4d1fa46e071723d6817e2486d003becc55f00905090565b5080546125fb90612e8e565b6000825580601f1061260d575061262c565b601f01602090049060005260206000209081019061262b919061262f565b5b50565b5b80821115612648576000816000905550600101612630565b5090565b600080fd5b600080fd5b60007fffffffff0000000000000000000000000000000000000000000000000000000082169050919050565b61268b81612656565b811461269657600080fd5b50565b6000813590506126a881612682565b92915050565b6000602082840312156126c4576126c361264c565b5b60006126d284828501612699565b91505092915050565b60008115159050919050565b6126f0816126db565b82525050565b600060208201905061270b60008301846126e7565b92915050565b6000819050919050565b61272481612711565b82525050565b600060208201905061273f600083018461271b565b92915050565b600081519050919050565b600082825260208201905092915050565b6000819050602082019050919050565b600081519050919050565b600082825260208201905092915050565b60005b838110156127ab578082015181840152602081019050612790565b60008484015250505050565b6000601f19601f8301169050919050565b60006127d382612771565b6127dd818561277c565b93506127ed81856020860161278d565b6127f6816127b7565b840191505092915050565b600061280d83836127c8565b905092915050565b6000602082019050919050565b600061282d82612745565b6128378185612750565b93508360208202850161284985612761565b8060005b8581101561288557848403895281516128668582612801565b945061287183612815565b925060208a0199505060018101905061284d565b50829750879550505050505092915050565b600060208201905081810360008301526128b18184612822565b905092915050565b600080fd5b600080fd5b600080fd5b60008083601f8401126128de576128dd6128b9565b5b8235905067ffffffffffffffff8111156128fb576128fa6128be565b5b602083019150836001820283011115612917576129166128c3565b5b9250929050565b600080602083850312156129355761293461264c565b5b600083013567ffffffffffffffff81111561295357612952612651565b5b61295f858286016128c8565b92509250509250929050565b600081519050919050565b600082825260208201905092915050565b6000819050602082019050919050565b600073ffffffffffffffffffffffffffffffffffffffff82169050919050565b60006129c282612997565b9050919050565b6129d2816129b7565b82525050565b60006129e483836129c9565b60208301905092915050565b6000602082019050919050565b6000612a088261296b565b612a128185612976565b9350612a1d83612987565b8060005b83811015612a4e578151612a3588826129d8565b9750612a40836129f0565b925050600181019050612a21565b5085935050505092915050565b60006020820190508181036000830152612a7581846129fd565b905092915050565b6000819050919050565b612a9081612a7d565b8114612a9b57600080fd5b50565b600081359050612aad81612a87565b92915050565b600060208284031215612ac957612ac861264c565b5b6000612ad784828501612a9e565b91505092915050565b612ae981612a7d565b82525050565b6000602082019050612b046000830184612ae0565b92915050565b612b13816129b7565b8114612b1e57600080fd5b50565b600081359050612b3081612b0a565b92915050565b600080fd5b600060408284031215612b5157612b50612b36565b5b81905092915050565b60008060008060008060008060a0898b031215612b7a57612b7961264c565b5b600089013567ffffffffffffffff811115612b9857612b97612651565b5b612ba48b828c016128c8565b9850985050602089013567ffffffffffffffff811115612bc757612bc6612651565b5b612bd38b828c016128c8565b96509650506040612be68b828c01612b21565b945050606089013567ffffffffffffffff811115612c0757612c06612651565b5b612c138b828c016128c8565b9350935050608089013567ffffffffffffffff811115612c3657612c35612651565b5b612c428b828c01612b3b565b9150509295985092959890939650565b60008060408385031215612c6957612c6861264c565b5b6000612c7785828601612a9e565b9250506020612c8885828601612b21565b9150509250929050565b60008060008060408587031215612cac57612cab61264c565b5b600085013567ffffffffffffffff811115612cca57612cc9612651565b5b612cd6878288016128c8565b9450945050602085013567ffffffffffffffff811115612cf957612cf8612651565b5b612d05878288016128c8565b925092505092959194509250565b600060208284031215612d2957612d2861264c565b5b6000612d3784828501612b21565b91505092915050565b612d49816129b7565b82525050565b6000602082019050612d646000830184612d40565b92915050565b600080600080600060608688031215612d8657612d8561264c565b5b600086013567ffffffffffffffff811115612da457612da3612651565b5b612db0888289016128c8565b9550955050602086013567ffffffffffffffff811115612dd357612dd2612651565b5b612ddf888289016128c8565b93509350506040612df288828901612b21565b9150509295509295909350565b600080600060408486031215612e1857612e1761264c565b5b600084013567ffffffffffffffff811115612e3657612e35612651565b5b612e42868287016128c8565b93509350506020612e5586828701612b21565b9150509250925092565b7f4e487b7100000000000000000000000000000000000000000000000000000000600052602260045260246000fd5b60006002820490506001821680612ea657607f821691505b602082108103612eb957612eb8612e5f565b5b50919050565b600081905092915050565b82818337600083830152505050565b6000612ee58385612ebf565b9350612ef2838584612eca565b82840190509392505050565b6000612f0b828486612ed9565b91508190509392505050565b7f4e487b7100000000000000000000000000000000000000000000000000000000600052604160045260246000fd5b7f4e487b7100000000000000000000000000000000000000000000000000000000600052603260045260246000fd5b7f4e487b7100000000000000000000000000000000000000000000000000000000600052601160045260246000fd5b6000612faf82612711565b91507fffffffffffffffffffffffffffffffffffffffffffffffffffffffffffffffff8203612fe157612fe0612f75565b5b600182019050919050565b600082825260208201905092915050565b7f50726f706f73657220736574206e6f7420696e697469616c697a656400000000600082015250565b6000613033601c83612fec565b915061303e82612ffd565b602082019050919050565b6000602082019050818103600083015261306281613026565b9050919050565b7f4e6f7420726567697374657265642073657175656e6365720000000000000000600082015250565b600061309f601883612fec565b91506130aa82613069565b602082019050919050565b600060208201905081810360008301526130ce81613092565b9050919050565b60006130e082612711565b9150600082036130f3576130f2612f75565b5b600182039050919050565b600081905092915050565b600061311583856130fe565b9350613122838584612eca565b82840190509392505050565b600061313b828486613109565b91508190509392505050565b60008190508160005260206000209050919050565b6000815461316981612e8e565b61317381866130fe565b9450600182166000811461318e57600181146131a3576131d6565b60ff19831686528115158202860193506131d6565b6131ac85613147565b60005b838110156131ce578154818901526001820191506020810190506131af565b838801955050505b50505092915050565b60006131eb828461315c565b915081905092915050565b600061320182612711565b915061320c83612711565b925082820390508181111561322457613223612f75565b5b92915050565b60008154905061323981612e8e565b9050919050565b60008190508160005260206000209050919050565b60008190508160005260206000209050919050565b60006020601f8301049050919050565b600082821b905092915050565b6000600883026132b77fffffffffffffffffffffffffffffffffffffffffffffffffffffffffffffffff8261327a565b6132c1868361327a565b95508019841693508086168417925050509392505050565b6000819050919050565b60006132fe6132f96132f484612711565b6132d9565b612711565b9050919050565b6000819050919050565b613318836132e3565b61332c61332482613305565b848454613287565b825550505050565b600090565b613341613334565b61334c81848461330f565b505050565b5b8181101561337057613365600082613339565b600181019050613352565b5050565b601f8211156133b55761338681613240565b61338f8461326a565b8101602085101561339e578190505b6133b26133aa8561326a565b830182613351565b50505b505050565b600082821c905092915050565b60006133d8600019846008026133ba565b1980831691505092915050565b60006133f183836133c7565b9150826002028217905092915050565b81810361340f5750506134e7565b6134188261322a565b67ffffffffffffffff81111561343157613430612f17565b5b61343b8254612e8e565b613446828285613374565b6000601f8311600181146134755760008415613463578287015490505b61346d85826133e5565b8655506134e0565b601f19841661348387613255565b965061348e86613240565b60005b828110156134b657848901548255600182019150600185019450602081019050613491565b868310156134d357848901546134cf601f8916826133c7565b8355505b6001600288020188555050505b5050505050505b565b7f4e487b7100000000000000000000000000000000000000000000000000000000600052603160045260246000fd5b60006135248385612fec565b9350613531838584612eca565b61353a836127b7565b840190509392505050565b60006040820190508181036000830152613560818587613518565b905061356f6020830184612d40565b949350505050565b7f4e6f7420636c7573746572206f776e6572000000000000000000000000000000600082015250565b60006135ad601183612fec565b91506135b882613577565b602082019050919050565b600060208201905081810360008301526135dc816135a0565b9050919050565b600082905092915050565b6135f883836135e3565b67ffffffffffffffff81111561361157613610612f17565b5b61361b8254612e8e565b613626828285613374565b6000601f8311600181146136555760008415613643578287013590505b61364d85826133e5565b8655506136b5565b601f19841661366386613240565b60005b8281101561368b57848901358255600182019150602085019450602081019050613666565b868310156136a857848901356136a4601f8916826133c7565b8355505b6001600288020188555050505b50505050505050565b600080fd5b600080fd5b600080fd5b600080833560016020038436030381126136ea576136e96136be565b5b80840192508235915067ffffffffffffffff82111561370c5761370b6136c3565b5b602083019250600182023603831315613728576137276136c8565b5b509250929050565b61373b8383836135ee565b505050565b600081016000830161375281856136cd565b61375d818386613730565b50505050600181016020830161377381856136cd565b61377e818386613730565b505050505050565b6137908282613740565b5050565b600060408201905081810360008301526137af818688613518565b905081810360208301526137c4818486613518565b905095945050505050565b600060608201905081810360008301526137ea818789613518565b905081810360208301526137ff818587613518565b905061380e6040830184612d40565b9695505050505050565b7f416c726561647920696e697469616c697a656420636c75737465720000000000600082015250565b600061384e601b83612fec565b915061385982613818565b602082019050919050565b6000602082019050818103600083015261387d81613841565b9050919050565b6000819050919050565b600067ffffffffffffffff82169050919050565b60006138bd6138b86138b384613884565b6132d9565b61388e565b9050919050565b6138cd816138a2565b82525050565b60006020820190506138e860008301846138c4565b92915050565b7f416c726561647920726567697374657265642073657175656e63657200000000600082015250565b6000613924601c83612fec565b915061392f826138ee565b602082019050919050565b6000602082019050818103600083015261395381613917565b9050919050565b7f4d61782073657175656e63657220636f756e7420657863656564656400000000600082015250565b6000613990601c83612fec565b915061399b8261395a565b602082019050919050565b600060208201905081810360008301526139bf81613983565b9050919050565b600060608201905081810360008301526139e1818688613518565b90506139f06020830185612d40565b6139fd604083018461271b565b95945050505050565b7f4e6f7420696e697469616c697a656420636c7573746572000000000000000000600082015250565b6000613a3c601783612fec565b9150613a4782613a06565b602082019050919050565b60006020820190508181036000830152613a6b81613a2f565b9050919050565b7f4e6f7420726f6c6c7570206f776e657200000000000000000000000000000000600082015250565b6000613aa8601083612fec565b9150613ab382613a72565b602082019050919050565b60006020820190508181036000830152613ad781613a9b565b9050919050565b6000604082019050613af36000830185612d40565b613b006020830184612ae0565b939250505056fea26469706673582212205ee1c6b7178c25a4c1aded63c5a1c89b0d61b3c89648ce49835b7c99d12b381d64736f6c63430008180033",
  "linkReferences": {},
  "deployedLinkReferences": {}
}