{
  "_format": "hh-sol-artifact-1",
  "contractName": "LivenessRadius",
  "sourceName": "contracts/LivenessRadius.sol",
  "abi": [
    {
      "inputs": [],
      "stateMutability": "nonpayable",
      "type": "constructor"
    },
    {
      "inputs": [],
      "name": "AccessControlBadConfirmation",
      "type": "error"
    },
    {
      "inputs": [
        {
          "internalType": "address",
          "name": "account",
          "type": "address"
        },
        {
          "internalType": "bytes32",
          "name": "neededRole",
          "type": "bytes32"
        }
      ],
      "name": "AccessControlUnauthorizedAccount",
      "type": "error"
    },
    {
      "inputs": [],
      "name": "InvalidInitialization",
      "type": "error"
    },
    {
      "inputs": [],
      "name": "NotInitializing",
      "type": "error"
    },
    {
      "inputs": [
        {
          "internalType": "address",
          "name": "owner",
          "type": "address"
        }
      ],
      "name": "OwnableInvalidOwner",
      "type": "error"
    },
    {
      "inputs": [
        {
          "internalType": "address",
          "name": "account",
          "type": "address"
        }
      ],
      "name": "OwnableUnauthorizedAccount",
      "type": "error"
    },
    {
      "inputs": [],
      "name": "ReentrancyGuardReentrantCall",
      "type": "error"
    },
    {
      "anonymous": false,
      "inputs": [
        {
          "indexed": false,
          "internalType": "string",
          "name": "clusterId",
          "type": "string"
        },
        {
          "indexed": false,
          "internalType": "string",
          "name": "rollupId",
          "type": "string"
        }
      ],
      "name": "AddRollup",
      "type": "event"
    },
    {
      "anonymous": false,
      "inputs": [
        {
          "indexed": false,
          "internalType": "string",
          "name": "clusterId",
          "type": "string"
        },
        {
          "indexed": false,
          "internalType": "address",
          "name": "sequencerAddress",
          "type": "address"
        }
      ],
      "name": "DeregisterSequencer",
      "type": "event"
    },
    {
      "anonymous": false,
      "inputs": [
        {
          "indexed": false,
          "internalType": "string",
          "name": "clusterId",
          "type": "string"
        },
        {
          "indexed": false,
          "internalType": "address",
          "name": "owner",
          "type": "address"
        }
      ],
      "name": "InitializeCluster",
      "type": "event"
    },
    {
      "anonymous": false,
      "inputs": [
        {
          "indexed": false,
          "internalType": "uint64",
          "name": "version",
          "type": "uint64"
        }
      ],
      "name": "Initialized",
      "type": "event"
    },
    {
      "anonymous": false,
      "inputs": [
        {
          "indexed": true,
          "internalType": "address",
          "name": "previousOwner",
          "type": "address"
        },
        {
          "indexed": true,
          "internalType": "address",
          "name": "newOwner",
          "type": "address"
        }
      ],
      "name": "OwnershipTransferred",
      "type": "event"
    },
    {
      "anonymous": false,
      "inputs": [
        {
          "indexed": false,
          "internalType": "string",
          "name": "clusterId",
          "type": "string"
        },
        {
          "indexed": false,
          "internalType": "string",
          "name": "rollupId",
          "type": "string"
        },
        {
          "indexed": false,
          "internalType": "address",
          "name": "executorAddress",
          "type": "address"
        }
      ],
      "name": "RegisterRollupExecutor",
      "type": "event"
    },
    {
      "anonymous": false,
      "inputs": [
        {
          "indexed": false,
          "internalType": "string",
          "name": "clusterId",
          "type": "string"
        },
        {
          "indexed": false,
          "internalType": "address",
          "name": "sequencerAddress",
          "type": "address"
        },
        {
          "indexed": false,
          "internalType": "uint256",
          "name": "index",
          "type": "uint256"
        }
      ],
      "name": "RegisterSequencer",
      "type": "event"
    },
    {
      "anonymous": false,
      "inputs": [
        {
          "indexed": true,
          "internalType": "bytes32",
          "name": "role",
          "type": "bytes32"
        },
        {
          "indexed": true,
          "internalType": "bytes32",
          "name": "previousAdminRole",
          "type": "bytes32"
        },
        {
          "indexed": true,
          "internalType": "bytes32",
          "name": "newAdminRole",
          "type": "bytes32"
        }
      ],
      "name": "RoleAdminChanged",
      "type": "event"
    },
    {
      "anonymous": false,
      "inputs": [
        {
          "indexed": true,
          "internalType": "bytes32",
          "name": "role",
          "type": "bytes32"
        },
        {
          "indexed": true,
          "internalType": "address",
          "name": "account",
          "type": "address"
        },
        {
          "indexed": true,
          "internalType": "address",
          "name": "sender",
          "type": "address"
        }
      ],
      "name": "RoleGranted",
      "type": "event"
    },
    {
      "anonymous": false,
      "inputs": [
        {
          "indexed": true,
          "internalType": "bytes32",
          "name": "role",
          "type": "bytes32"
        },
        {
          "indexed": true,
          "internalType": "address",
          "name": "account",
          "type": "address"
        },
        {
          "indexed": true,
          "internalType": "address",
          "name": "sender",
          "type": "address"
        }
      ],
      "name": "RoleRevoked",
      "type": "event"
    },
    {
      "inputs": [],
      "name": "BLOCK_MARGIN",
      "outputs": [
        {
          "internalType": "uint256",
          "name": "",
          "type": "uint256"
        }
      ],
      "stateMutability": "view",
      "type": "function"
    },
    {
      "inputs": [],
      "name": "DEFAULT_ADMIN_ROLE",
      "outputs": [
        {
          "internalType": "bytes32",
          "name": "",
          "type": "bytes32"
        }
      ],
      "stateMutability": "view",
      "type": "function"
    },
    {
      "inputs": [
        {
          "internalType": "string",
          "name": "clusterId",
          "type": "string"
        },
        {
          "internalType": "string",
          "name": "rollupId",
          "type": "string"
        },
        {
          "internalType": "address",
          "name": "rollupOwnerAddress",
          "type": "address"
        },
        {
          "internalType": "string",
          "name": "orderCommitmentType",
          "type": "string"
        },
        {
          "components": [
            {
              "internalType": "string",
              "name": "platform",
              "type": "string"
            },
            {
              "internalType": "string",
              "name": "serviceProvider",
              "type": "string"
            }
          ],
          "internalType": "struct ILivenessRadius.ValidationInfo",
          "name": "validationInfo",
          "type": "tuple"
        }
      ],
      "name": "addRollup",
      "outputs": [],
      "stateMutability": "nonpayable",
      "type": "function"
    },
    {
      "inputs": [
        {
          "internalType": "string",
          "name": "clusterId",
          "type": "string"
        }
      ],
      "name": "deregisterSequencer",
      "outputs": [],
      "stateMutability": "nonpayable",
      "type": "function"
    },
    {
      "inputs": [],
      "name": "getAllClusterIds",
      "outputs": [
        {
          "internalType": "string[]",
          "name": "",
          "type": "string[]"
        }
      ],
      "stateMutability": "view",
      "type": "function"
    },
    {
      "inputs": [
        {
          "internalType": "address",
          "name": "owner",
          "type": "address"
        }
      ],
      "name": "getClustersByOwner",
      "outputs": [
        {
          "internalType": "string[]",
          "name": "",
          "type": "string[]"
        }
      ],
      "stateMutability": "view",
      "type": "function"
    },
    {
      "inputs": [
        {
          "internalType": "address",
          "name": "sequencer",
          "type": "address"
        }
      ],
      "name": "getClustersBySequencer",
      "outputs": [
        {
          "internalType": "string[]",
          "name": "",
          "type": "string[]"
        }
      ],
      "stateMutability": "view",
      "type": "function"
    },
    {
      "inputs": [
        {
          "internalType": "string",
          "name": "clusterId",
          "type": "string"
        },
        {
          "internalType": "string",
          "name": "rollupId",
          "type": "string"
        }
      ],
      "name": "getExecutorList",
      "outputs": [
        {
          "internalType": "address[]",
          "name": "",
          "type": "address[]"
        }
      ],
      "stateMutability": "view",
      "type": "function"
    },
    {
      "inputs": [
        {
          "internalType": "string",
          "name": "clusterId",
          "type": "string"
        }
      ],
      "name": "getMaxSequencerNumber",
      "outputs": [
        {
          "internalType": "uint256",
          "name": "",
          "type": "uint256"
        }
      ],
      "stateMutability": "view",
      "type": "function"
    },
    {
      "inputs": [
        {
          "internalType": "bytes32",
          "name": "role",
          "type": "bytes32"
        }
      ],
      "name": "getRoleAdmin",
      "outputs": [
        {
          "internalType": "bytes32",
          "name": "",
          "type": "bytes32"
        }
      ],
      "stateMutability": "view",
      "type": "function"
    },
    {
      "inputs": [
        {
          "internalType": "string",
          "name": "clusterId",
          "type": "string"
        }
      ],
      "name": "getSequencerList",
      "outputs": [
        {
          "internalType": "address[]",
          "name": "",
          "type": "address[]"
        }
      ],
      "stateMutability": "view",
      "type": "function"
    },
    {
      "inputs": [
        {
          "internalType": "bytes32",
          "name": "role",
          "type": "bytes32"
        },
        {
          "internalType": "address",
          "name": "account",
          "type": "address"
        }
      ],
      "name": "grantRole",
      "outputs": [],
      "stateMutability": "nonpayable",
      "type": "function"
    },
    {
      "inputs": [
        {
          "internalType": "bytes32",
          "name": "role",
          "type": "bytes32"
        },
        {
          "internalType": "address",
          "name": "account",
          "type": "address"
        }
      ],
      "name": "hasRole",
      "outputs": [
        {
          "internalType": "bool",
          "name": "",
          "type": "bool"
        }
      ],
      "stateMutability": "view",
      "type": "function"
    },
    {
      "inputs": [],
      "name": "initialize",
      "outputs": [],
      "stateMutability": "nonpayable",
      "type": "function"
    },
    {
      "inputs": [
        {
          "internalType": "string",
          "name": "clusterId",
          "type": "string"
        },
        {
          "internalType": "uint256",
          "name": "maxSequencerNumber",
          "type": "uint256"
        }
      ],
      "name": "initializeCluster",
      "outputs": [],
      "stateMutability": "nonpayable",
      "type": "function"
    },
    {
      "inputs": [
        {
          "internalType": "string",
          "name": "clusterId",
          "type": "string"
        },
        {
          "internalType": "address",
          "name": "sequencerAddress",
          "type": "address"
        }
      ],
      "name": "isRegisteredSequencer",
      "outputs": [
        {
          "internalType": "bool",
          "name": "",
          "type": "bool"
        }
      ],
      "stateMutability": "view",
      "type": "function"
    },
    {
      "inputs": [],
      "name": "owner",
      "outputs": [
        {
          "internalType": "address",
          "name": "",
          "type": "address"
        }
      ],
      "stateMutability": "view",
      "type": "function"
    },
    {
      "inputs": [
        {
          "internalType": "string",
          "name": "clusterId",
          "type": "string"
        },
        {
          "internalType": "string",
          "name": "rollupId",
          "type": "string"
        },
        {
          "internalType": "address",
          "name": "rollupExecutorAddress",
          "type": "address"
        }
      ],
      "name": "registerRollupExecutor",
      "outputs": [],
      "stateMutability": "nonpayable",
      "type": "function"
    },
    {
      "inputs": [
        {
          "internalType": "string",
          "name": "clusterId",
          "type": "string"
        }
      ],
      "name": "registerSequencer",
      "outputs": [],
      "stateMutability": "nonpayable",
      "type": "function"
    },
    {
      "inputs": [],
      "name": "renounceOwnership",
      "outputs": [],
      "stateMutability": "nonpayable",
      "type": "function"
    },
    {
      "inputs": [
        {
          "internalType": "bytes32",
          "name": "role",
          "type": "bytes32"
        },
        {
          "internalType": "address",
          "name": "callerConfirmation",
          "type": "address"
        }
      ],
      "name": "renounceRole",
      "outputs": [],
      "stateMutability": "nonpayable",
      "type": "function"
    },
    {
      "inputs": [
        {
          "internalType": "bytes32",
          "name": "role",
          "type": "bytes32"
        },
        {
          "internalType": "address",
          "name": "account",
          "type": "address"
        }
      ],
      "name": "revokeRole",
      "outputs": [],
      "stateMutability": "nonpayable",
      "type": "function"
    },
    {
      "inputs": [
        {
          "internalType": "bytes4",
          "name": "interfaceId",
          "type": "bytes4"
        }
      ],
      "name": "supportsInterface",
      "outputs": [
        {
          "internalType": "bool",
          "name": "",
          "type": "bool"
        }
      ],
      "stateMutability": "view",
      "type": "function"
    },
    {
      "inputs": [
        {
          "internalType": "address",
          "name": "newOwner",
          "type": "address"
        }
      ],
      "name": "transferOwnership",
      "outputs": [],
      "stateMutability": "nonpayable",
      "type": "function"
    }
  ],
  "bytecode": "0x60806040523480156200001157600080fd5b50620000226200002860201b60201c565b6200019c565b60006200003a6200013260201b60201c565b90508060000160089054906101000a900460ff161562000086576040517ff92ee8a900000000000000000000000000000000000000000000000000000000815260040160405180910390fd5b67ffffffffffffffff80168160000160009054906101000a900467ffffffffffffffff1667ffffffffffffffff16146200012f5767ffffffffffffffff8160000160006101000a81548167ffffffffffffffff021916908367ffffffffffffffff1602179055507fc7f505b2f371ae2175ee4913f4499e1f2633a7b5936321eed1cdaeb6115181d267ffffffffffffffff6040516200012691906200017f565b60405180910390a15b50565b60007ff0c57e16840df040f15088dc2f81fe391c3923bec73e23a9662efc9c229c6a00905090565b600067ffffffffffffffff82169050919050565b62000179816200015a565b82525050565b60006020820190506200019660008301846200016e565b92915050565b613c9280620001ac6000396000f3fe608060405234801561001057600080fd5b50600436106101585760003560e01c8063715018a6116100c3578063a217fddf1161007c578063a217fddf146103c3578063a7b15420146103e1578063d4bb786f146103fd578063d547741f1461042d578063ee6d992f14610449578063f2fde38b1461047957610158565b8063715018a61461031557806378a616f51461031f5780638129fc1c1461034f5780638a4abab8146103595780638da5cb5b1461037557806391d148541461039357610158565b80632a4f1823116101155780632a4f1823146102455780632f2ff15d1461026157806336568abe1461027d5780633edb0dbf1461029957806354fbb8bc146102b557806365f413bb146102e557610158565b806301ffc9a71461015d578063071c55ac1461018d57806315a45bdb146101ab57806323fd869f146101c95780632432fdfc146101f9578063248a9ca314610215575b600080fd5b61017760048036038101906101729190612777565b610495565b60405161018491906127bf565b60405180910390f35b61019561050f565b6040516101a291906127f3565b60405180910390f35b6101b3610514565b6040516101c09190612960565b60405180910390f35b6101e360048036038101906101de91906129e7565b6105ed565b6040516101f09190612b24565b60405180910390f35b610213600480360381019061020e91906129e7565b61079e565b005b61022f600480360381019061022a9190612b7c565b610be8565b60405161023c9190612bb8565b60405180910390f35b61025f600480360381019061025a9190612c23565b610c16565b005b61027b60048036038101906102769190612d1b565b610ea3565b005b61029760048036038101906102929190612d1b565b610ec5565b005b6102b360048036038101906102ae9190612d87565b610f40565b005b6102cf60048036038101906102ca91906129e7565b611207565b6040516102dc91906127f3565b60405180910390f35b6102ff60048036038101906102fa9190612de7565b611234565b60405161030c9190612b24565b60405180910390f35b61031d6114b2565b005b61033960048036038101906103349190612e68565b6114c6565b6040516103469190612960565b60405180910390f35b6103576115de565b005b610373600480360381019061036e91906129e7565b61177c565b005b61037d611b44565b60405161038a9190612ea4565b60405180910390f35b6103ad60048036038101906103a89190612d1b565b611b7c565b6040516103ba91906127bf565b60405180910390f35b6103cb611bf5565b6040516103d89190612bb8565b60405180910390f35b6103fb60048036038101906103f69190612ebf565b611bfc565b005b61041760048036038101906104129190612f54565b611e71565b60405161042491906127bf565b60405180910390f35b61044760048036038101906104429190612d1b565b611ee9565b005b610463600480360381019061045e9190612e68565b611f0b565b6040516104709190612960565b60405180910390f35b610493600480360381019061048e9190612e68565b612023565b005b60007f7965db0b000000000000000000000000000000000000000000000000000000007bffffffffffffffffffffffffffffffffffffffffffffffffffffffff1916827bffffffffffffffffffffffffffffffffffffffffffffffffffffffff191614806105085750610507826120a9565b5b9050919050565b600781565b60606003805480602002602001604051908101604052809291908181526020016000905b828210156105e457838290600052602060002001805461055790612fe3565b80601f016020809104026020016040519081016040528092919081815260200182805461058390612fe3565b80156105d05780601f106105a5576101008083540402835291602001916105d0565b820191906000526020600020905b8154815290600101906020018083116105b357829003601f168201915b505050505081526020019060010190610538565b50505050905090565b60606000808484604051610602929190613053565b90815260200160405180910390209050600080826004015467ffffffffffffffff8111156106335761063261306c565b5b6040519080825280602002602001820160405280156106615781602001602082028036833780820191505090505b50905060005b836004015481101561079157600073ffffffffffffffffffffffffffffffffffffffff168460030182815481106106a1576106a061309b565b5b9060005260206000200160009054906101000a900473ffffffffffffffffffffffffffffffffffffffff1673ffffffffffffffffffffffffffffffffffffffff1614610784578360030181815481106106fd576106fc61309b565b5b9060005260206000200160009054906101000a900473ffffffffffffffffffffffffffffffffffffffff1682848151811061073b5761073a61309b565b5b602002602001019073ffffffffffffffffffffffffffffffffffffffff16908173ffffffffffffffffffffffffffffffffffffffff16815250508280610780906130f9565b9350505b8080600101915050610667565b5080935050505092915050565b60008083836040516107b1929190613053565b90815260200160405180910390209050600073ffffffffffffffffffffffffffffffffffffffff168160000160009054906101000a900473ffffffffffffffffffffffffffffffffffffffff1673ffffffffffffffffffffffffffffffffffffffff1603610854576040517f08c379a000000000000000000000000000000000000000000000000000000000815260040161084b9061319e565b60405180910390fd5b8060010160003373ffffffffffffffffffffffffffffffffffffffff1673ffffffffffffffffffffffffffffffffffffffff16815260200190815260200160002060009054906101000a900460ff166108e2576040517f08c379a00000000000000000000000000000000000000000000000000000000081526004016108d99061320a565b60405180910390fd5b60008160010160003373ffffffffffffffffffffffffffffffffffffffff1673ffffffffffffffffffffffffffffffffffffffff16815260200190815260200160002060006101000a81548160ff02191690831515021790555060008160020160003373ffffffffffffffffffffffffffffffffffffffff1673ffffffffffffffffffffffffffffffffffffffff168152602001908152602001600020549050600082600301828154811061099a5761099961309b565b5b9060005260206000200160006101000a81548173ffffffffffffffffffffffffffffffffffffffff021916908373ffffffffffffffffffffffffffffffffffffffff1602179055508160020160003373ffffffffffffffffffffffffffffffffffffffff1673ffffffffffffffffffffffffffffffffffffffff16815260200190815260200160002060009055816005016000815480929190610a3c9061322a565b9190505550816006018190806001815401808255809150506001900390600052602060002001600090919091909150556000600260003373ffffffffffffffffffffffffffffffffffffffff1673ffffffffffffffffffffffffffffffffffffffff168152602001908152602001600020905060005b8180549050811015610ba5578585604051610ace929190613283565b6040518091039020828281548110610ae957610ae861309b565b5b90600052602060002001604051610b009190613334565b604051809103902003610b98578160018380549050610b1f919061334b565b81548110610b3057610b2f61309b565b5b90600052602060002001828281548110610b4d57610b4c61309b565b5b906000526020600020019081610b639190613556565b5081805480610b7557610b7461363e565b5b600190038181906000526020600020016000610b9191906126b8565b9055610ba5565b8080600101915050610ab2565b507f8e705b58b23a2bb7ce17d2ef262b1ffd19a1afe45787a31689acc56e928cefb8858533604051610bd99392919061369a565b60405180910390a15050505050565b600080610bf3612113565b905080600001600084815260200190815260200160002060010154915050919050565b6000808989604051610c29929190613053565b908152602001604051809103902090503373ffffffffffffffffffffffffffffffffffffffff168160000160009054906101000a900473ffffffffffffffffffffffffffffffffffffffff1673ffffffffffffffffffffffffffffffffffffffff1614610ccb576040517f08c379a0000000000000000000000000000000000000000000000000000000008152600401610cc290613718565b60405180910390fd5b6000816007018888604051610ce1929190613053565b90815260200160405180910390209050858160000160006101000a81548173ffffffffffffffffffffffffffffffffffffffff021916908373ffffffffffffffffffffffffffffffffffffffff1602179055508484826003019182610d47929190613743565b5082816001018181610d5991906138db565b90505060018160040160008873ffffffffffffffffffffffffffffffffffffffff1673ffffffffffffffffffffffffffffffffffffffff16815260200190815260200160002060006101000a81548160ff02191690831515021790555080600501869080600181540180825580915050600190039060005260206000200160009091909190916101000a81548173ffffffffffffffffffffffffffffffffffffffff021916908373ffffffffffffffffffffffffffffffffffffffff1602179055507f5088dc8176b124f3a31fa9caaac4d7f86dc112afbc93ceb311aefbb53ffe64508a8a8a8a604051610e5094939291906138e9565b60405180910390a17fd78b57910d5f921c4da1543d476f86e9d30026b18c0973b08c4dd30a305542768a8a8a8a8a604051610e8f959493929190613924565b60405180910390a150505050505050505050565b610eac82610be8565b610eb58161213b565b610ebf838361214f565b50505050565b610ecd612250565b73ffffffffffffffffffffffffffffffffffffffff168173ffffffffffffffffffffffffffffffffffffffff1614610f31576040517f6697b23200000000000000000000000000000000000000000000000000000000815260040160405180910390fd5b610f3b8282612258565b505050565b6000808484604051610f53929190613053565b90815260200160405180910390209050600073ffffffffffffffffffffffffffffffffffffffff168160000160009054906101000a900473ffffffffffffffffffffffffffffffffffffffff1673ffffffffffffffffffffffffffffffffffffffff1614610ff6576040517f08c379a0000000000000000000000000000000000000000000000000000000008152600401610fed906139b9565b60405180910390fd5b338160000160006101000a81548173ffffffffffffffffffffffffffffffffffffffff021916908373ffffffffffffffffffffffffffffffffffffffff1602179055508181600401819055506000816005018190555060005b8281101561110c578160060181600185611069919061334b565b611073919061334b565b90806001815401808255809150506001900390600052602060002001600090919091909150558160030160009080600181540180825580915050600190039060005260206000200160009091909190916101000a81548173ffffffffffffffffffffffffffffffffffffffff021916908373ffffffffffffffffffffffffffffffffffffffff160217905550808060010191505061104f565b50600384849091806001815401808255809150506001900390600052602060002001600090919290919290919290919250918261114a929190613743565b50600160003373ffffffffffffffffffffffffffffffffffffffff1673ffffffffffffffffffffffffffffffffffffffff1681526020019081526020016000208484909180600181540180825580915050600190039060005260206000200160009091929091929091929091925091826111c5929190613743565b507f0a76fd24146ad0c8934e1e4152d03c3d5679c78f95d7cf8f588825eb81166d508484336040516111f99392919061369a565b60405180910390a150505050565b600080838360405161121a929190613053565b908152602001604051809103902060040154905092915050565b60606000808686604051611249929190613053565b90815260200160405180910390209050600081600701858560405161126f929190613053565b908152602001604051809103902090506000805b826005018054905081101561132257600073ffffffffffffffffffffffffffffffffffffffff168360050182815481106112c0576112bf61309b565b5b9060005260206000200160009054906101000a900473ffffffffffffffffffffffffffffffffffffffff1673ffffffffffffffffffffffffffffffffffffffff1614611315578180611311906130f9565b9250505b8080600101915050611283565b5060008167ffffffffffffffff81111561133f5761133e61306c565b5b60405190808252806020026020018201604052801561136d5781602001602082028036833780820191505090505b5090506000805b84600501805490508110156114a157600073ffffffffffffffffffffffffffffffffffffffff168560050182815481106113b1576113b061309b565b5b9060005260206000200160009054906101000a900473ffffffffffffffffffffffffffffffffffffffff1673ffffffffffffffffffffffffffffffffffffffff16146114945784600501818154811061140d5761140c61309b565b5b9060005260206000200160009054906101000a900473ffffffffffffffffffffffffffffffffffffffff1683838151811061144b5761144a61309b565b5b602002602001019073ffffffffffffffffffffffffffffffffffffffff16908173ffffffffffffffffffffffffffffffffffffffff16815250508180611490906130f9565b9250505b8080600101915050611374565b508195505050505050949350505050565b6114ba61235a565b6114c460006123e1565b565b6060600160008373ffffffffffffffffffffffffffffffffffffffff1673ffffffffffffffffffffffffffffffffffffffff168152602001908152602001600020805480602002602001604051908101604052809291908181526020016000905b828210156115d357838290600052602060002001805461154690612fe3565b80601f016020809104026020016040519081016040528092919081815260200182805461157290612fe3565b80156115bf5780601f10611594576101008083540402835291602001916115bf565b820191906000526020600020905b8154815290600101906020018083116115a257829003601f168201915b505050505081526020019060010190611527565b505050509050919050565b60006115e86124b8565b905060008160000160089054906101000a900460ff1615905060008260000160009054906101000a900467ffffffffffffffff1690506000808267ffffffffffffffff161480156116365750825b9050600060018367ffffffffffffffff1614801561166b575060003073ffffffffffffffffffffffffffffffffffffffff163b145b905081158015611679575080155b156116b0576040517ff92ee8a900000000000000000000000000000000000000000000000000000000815260040160405180910390fd5b60018560000160006101000a81548167ffffffffffffffff021916908367ffffffffffffffff16021790555083156117005760018560000160086101000a81548160ff0219169083151502179055505b6117086124e0565b6117106124ea565b611719336124fc565b83156117755760008560000160086101000a81548160ff0219169083151502179055507fc7f505b2f371ae2175ee4913f4499e1f2633a7b5936321eed1cdaeb6115181d2600160405161176c9190613a28565b60405180910390a15b5050505050565b600080838360405161178f929190613053565b90815260200160405180910390209050600073ffffffffffffffffffffffffffffffffffffffff168160000160009054906101000a900473ffffffffffffffffffffffffffffffffffffffff1673ffffffffffffffffffffffffffffffffffffffff1603611832576040517f08c379a00000000000000000000000000000000000000000000000000000000081526004016118299061319e565b60405180910390fd5b8060010160003373ffffffffffffffffffffffffffffffffffffffff1673ffffffffffffffffffffffffffffffffffffffff16815260200190815260200160002060009054906101000a900460ff16156118c1576040517f08c379a00000000000000000000000000000000000000000000000000000000081526004016118b890613a8f565b60405180910390fd5b806004015481600501541061190b576040517f08c379a000000000000000000000000000000000000000000000000000000000815260040161190290613afb565b60405180910390fd5b60008160060160018360060180549050611925919061334b565b815481106119365761193561309b565b5b90600052602060002001549050816006018054806119575761195661363e565b5b6001900381819060005260206000200160009055905560018260010160003373ffffffffffffffffffffffffffffffffffffffff1673ffffffffffffffffffffffffffffffffffffffff16815260200190815260200160002060006101000a81548160ff021916908315150217905550338260030182815481106119de576119dd61309b565b5b9060005260206000200160006101000a81548173ffffffffffffffffffffffffffffffffffffffff021916908373ffffffffffffffffffffffffffffffffffffffff160217905550808260020160003373ffffffffffffffffffffffffffffffffffffffff1673ffffffffffffffffffffffffffffffffffffffff16815260200190815260200160002081905550816005016000815480929190611a81906130f9565b9190505550600260003373ffffffffffffffffffffffffffffffffffffffff1673ffffffffffffffffffffffffffffffffffffffff168152602001908152602001600020848490918060018154018082558091505060019003906000526020600020016000909192909192909192909192509182611b00929190613743565b507fc438828bf84f8f56411b3c88a28310baf820d7cc3909fdc4d4b9ef6cccb0195e84843384604051611b369493929190613b1b565b60405180910390a150505050565b600080611b4f612510565b90508060000160009054906101000a900473ffffffffffffffffffffffffffffffffffffffff1691505090565b600080611b87612113565b905080600001600085815260200190815260200160002060000160008473ffffffffffffffffffffffffffffffffffffffff1673ffffffffffffffffffffffffffffffffffffffff16815260200190815260200160002060009054906101000a900460ff1691505092915050565b6000801b81565b6000808686604051611c0f929190613053565b90815260200160405180910390209050600073ffffffffffffffffffffffffffffffffffffffff168160000160009054906101000a900473ffffffffffffffffffffffffffffffffffffffff1673ffffffffffffffffffffffffffffffffffffffff1603611cb2576040517f08c379a0000000000000000000000000000000000000000000000000000000008152600401611ca990613ba7565b60405180910390fd5b6000816007018585604051611cc8929190613053565b908152602001604051809103902090503373ffffffffffffffffffffffffffffffffffffffff168160000160009054906101000a900473ffffffffffffffffffffffffffffffffffffffff1673ffffffffffffffffffffffffffffffffffffffff1614611d6a576040517f08c379a0000000000000000000000000000000000000000000000000000000008152600401611d6190613c13565b60405180910390fd5b60018160040160008573ffffffffffffffffffffffffffffffffffffffff1673ffffffffffffffffffffffffffffffffffffffff16815260200190815260200160002060006101000a81548160ff02191690831515021790555080600501839080600181540180825580915050600190039060005260206000200160009091909190916101000a81548173ffffffffffffffffffffffffffffffffffffffff021916908373ffffffffffffffffffffffffffffffffffffffff1602179055507fd78b57910d5f921c4da1543d476f86e9d30026b18c0973b08c4dd30a305542768787878787604051611e60959493929190613924565b60405180910390a150505050505050565b6000808484604051611e84929190613053565b908152602001604051809103902060010160008373ffffffffffffffffffffffffffffffffffffffff1673ffffffffffffffffffffffffffffffffffffffff16815260200190815260200160002060009054906101000a900460ff1690509392505050565b611ef282610be8565b611efb8161213b565b611f058383612258565b50505050565b6060600260008373ffffffffffffffffffffffffffffffffffffffff1673ffffffffffffffffffffffffffffffffffffffff168152602001908152602001600020805480602002602001604051908101604052809291908181526020016000905b82821015612018578382906000526020600020018054611f8b90612fe3565b80601f0160208091040260200160405190810160405280929190818152602001828054611fb790612fe3565b80156120045780601f10611fd957610100808354040283529160200191612004565b820191906000526020600020905b815481529060010190602001808311611fe757829003601f168201915b505050505081526020019060010190611f6c565b505050509050919050565b61202b61235a565b600073ffffffffffffffffffffffffffffffffffffffff168173ffffffffffffffffffffffffffffffffffffffff160361209d5760006040517f1e4fbdf70000000000000000000000000000000000000000000000000000000081526004016120949190612ea4565b60405180910390fd5b6120a6816123e1565b50565b60007f01ffc9a7000000000000000000000000000000000000000000000000000000007bffffffffffffffffffffffffffffffffffffffffffffffffffffffff1916827bffffffffffffffffffffffffffffffffffffffffffffffffffffffff1916149050919050565b60007f02dd7bc7dec4dceedda775e58dd541e08a116c6c53815c0bd028192f7b626800905090565b61214c81612147612250565b612538565b50565b60008061215a612113565b90506121668484611b7c565b61224457600181600001600086815260200190815260200160002060000160008573ffffffffffffffffffffffffffffffffffffffff1673ffffffffffffffffffffffffffffffffffffffff16815260200190815260200160002060006101000a81548160ff0219169083151502179055506121e0612250565b73ffffffffffffffffffffffffffffffffffffffff168373ffffffffffffffffffffffffffffffffffffffff16857f2f8788117e7eff1d82e926ec794901d17c78024a50270940304540a733656f0d60405160405180910390a4600191505061224a565b60009150505b92915050565b600033905090565b600080612263612113565b905061226f8484611b7c565b1561234e57600081600001600086815260200190815260200160002060000160008573ffffffffffffffffffffffffffffffffffffffff1673ffffffffffffffffffffffffffffffffffffffff16815260200190815260200160002060006101000a81548160ff0219169083151502179055506122ea612250565b73ffffffffffffffffffffffffffffffffffffffff168373ffffffffffffffffffffffffffffffffffffffff16857ff6391f5c32d9c69d2a47ea670b442974b53935d1edc7fd64eb21e047a839171b60405160405180910390a46001915050612354565b60009150505b92915050565b612362612250565b73ffffffffffffffffffffffffffffffffffffffff16612380611b44565b73ffffffffffffffffffffffffffffffffffffffff16146123df576123a3612250565b6040517f118cdaa70000000000000000000000000000000000000000000000000000000081526004016123d69190612ea4565b60405180910390fd5b565b60006123eb612510565b905060008160000160009054906101000a900473ffffffffffffffffffffffffffffffffffffffff169050828260000160006101000a81548173ffffffffffffffffffffffffffffffffffffffff021916908373ffffffffffffffffffffffffffffffffffffffff1602179055508273ffffffffffffffffffffffffffffffffffffffff168173ffffffffffffffffffffffffffffffffffffffff167f8be0079c531659141344cd1fd0a4f28419497f9722a3daafe3b4186f6b6457e060405160405180910390a3505050565b60007ff0c57e16840df040f15088dc2f81fe391c3923bec73e23a9662efc9c229c6a00905090565b6124e8612589565b565b6124f2612589565b6124fa6125c9565b565b612504612589565b61250d816125ea565b50565b60007f9016d09d72d40fdae2fd8ceac6b6234c7706214fd39c1cd1e609a0528c199300905090565b6125428282611b7c565b6125855780826040517fe2517d3f00000000000000000000000000000000000000000000000000000000815260040161257c929190613c33565b60405180910390fd5b5050565b612591612670565b6125c7576040517fd7e6bcf800000000000000000000000000000000000000000000000000000000815260040160405180910390fd5b565b6125d1612589565b60006125db612690565b90506001816000018190555050565b6125f2612589565b600073ffffffffffffffffffffffffffffffffffffffff168173ffffffffffffffffffffffffffffffffffffffff16036126645760006040517f1e4fbdf700000000000000000000000000000000000000000000000000000000815260040161265b9190612ea4565b60405180910390fd5b61266d816123e1565b50565b600061267a6124b8565b60000160089054906101000a900460ff16905090565b60007f9b779b17422d0df92223018b32b4d1fa46e071723d6817e2486d003becc55f00905090565b5080546126c490612fe3565b6000825580601f106126d657506126f5565b601f0160209004906000526020600020908101906126f491906126f8565b5b50565b5b808211156127115760008160009055506001016126f9565b5090565b600080fd5b600080fd5b60007fffffffff0000000000000000000000000000000000000000000000000000000082169050919050565b6127548161271f565b811461275f57600080fd5b50565b6000813590506127718161274b565b92915050565b60006020828403121561278d5761278c612715565b5b600061279b84828501612762565b91505092915050565b60008115159050919050565b6127b9816127a4565b82525050565b60006020820190506127d460008301846127b0565b92915050565b6000819050919050565b6127ed816127da565b82525050565b600060208201905061280860008301846127e4565b92915050565b600081519050919050565b600082825260208201905092915050565b6000819050602082019050919050565b600081519050919050565b600082825260208201905092915050565b60005b83811015612874578082015181840152602081019050612859565b60008484015250505050565b6000601f19601f8301169050919050565b600061289c8261283a565b6128a68185612845565b93506128b6818560208601612856565b6128bf81612880565b840191505092915050565b60006128d68383612891565b905092915050565b6000602082019050919050565b60006128f68261280e565b6129008185612819565b9350836020820285016129128561282a565b8060005b8581101561294e578484038952815161292f85826128ca565b945061293a836128de565b925060208a01995050600181019050612916565b50829750879550505050505092915050565b6000602082019050818103600083015261297a81846128eb565b905092915050565b600080fd5b600080fd5b600080fd5b60008083601f8401126129a7576129a6612982565b5b8235905067ffffffffffffffff8111156129c4576129c3612987565b5b6020830191508360018202830111156129e0576129df61298c565b5b9250929050565b600080602083850312156129fe576129fd612715565b5b600083013567ffffffffffffffff811115612a1c57612a1b61271a565b5b612a2885828601612991565b92509250509250929050565b600081519050919050565b600082825260208201905092915050565b6000819050602082019050919050565b600073ffffffffffffffffffffffffffffffffffffffff82169050919050565b6000612a8b82612a60565b9050919050565b612a9b81612a80565b82525050565b6000612aad8383612a92565b60208301905092915050565b6000602082019050919050565b6000612ad182612a34565b612adb8185612a3f565b9350612ae683612a50565b8060005b83811015612b17578151612afe8882612aa1565b9750612b0983612ab9565b925050600181019050612aea565b5085935050505092915050565b60006020820190508181036000830152612b3e8184612ac6565b905092915050565b6000819050919050565b612b5981612b46565b8114612b6457600080fd5b50565b600081359050612b7681612b50565b92915050565b600060208284031215612b9257612b91612715565b5b6000612ba084828501612b67565b91505092915050565b612bb281612b46565b82525050565b6000602082019050612bcd6000830184612ba9565b92915050565b612bdc81612a80565b8114612be757600080fd5b50565b600081359050612bf981612bd3565b92915050565b600080fd5b600060408284031215612c1a57612c19612bff565b5b81905092915050565b60008060008060008060008060a0898b031215612c4357612c42612715565b5b600089013567ffffffffffffffff811115612c6157612c6061271a565b5b612c6d8b828c01612991565b9850985050602089013567ffffffffffffffff811115612c9057612c8f61271a565b5b612c9c8b828c01612991565b96509650506040612caf8b828c01612bea565b945050606089013567ffffffffffffffff811115612cd057612ccf61271a565b5b612cdc8b828c01612991565b9350935050608089013567ffffffffffffffff811115612cff57612cfe61271a565b5b612d0b8b828c01612c04565b9150509295985092959890939650565b60008060408385031215612d3257612d31612715565b5b6000612d4085828601612b67565b9250506020612d5185828601612bea565b9150509250929050565b612d64816127da565b8114612d6f57600080fd5b50565b600081359050612d8181612d5b565b92915050565b600080600060408486031215612da057612d9f612715565b5b600084013567ffffffffffffffff811115612dbe57612dbd61271a565b5b612dca86828701612991565b93509350506020612ddd86828701612d72565b9150509250925092565b60008060008060408587031215612e0157612e00612715565b5b600085013567ffffffffffffffff811115612e1f57612e1e61271a565b5b612e2b87828801612991565b9450945050602085013567ffffffffffffffff811115612e4e57612e4d61271a565b5b612e5a87828801612991565b925092505092959194509250565b600060208284031215612e7e57612e7d612715565b5b6000612e8c84828501612bea565b91505092915050565b612e9e81612a80565b82525050565b6000602082019050612eb96000830184612e95565b92915050565b600080600080600060608688031215612edb57612eda612715565b5b600086013567ffffffffffffffff811115612ef957612ef861271a565b5b612f0588828901612991565b9550955050602086013567ffffffffffffffff811115612f2857612f2761271a565b5b612f3488828901612991565b93509350506040612f4788828901612bea565b9150509295509295909350565b600080600060408486031215612f6d57612f6c612715565b5b600084013567ffffffffffffffff811115612f8b57612f8a61271a565b5b612f9786828701612991565b93509350506020612faa86828701612bea565b9150509250925092565b7f4e487b7100000000000000000000000000000000000000000000000000000000600052602260045260246000fd5b60006002820490506001821680612ffb57607f821691505b60208210810361300e5761300d612fb4565b5b50919050565b600081905092915050565b82818337600083830152505050565b600061303a8385613014565b935061304783858461301f565b82840190509392505050565b600061306082848661302e565b91508190509392505050565b7f4e487b7100000000000000000000000000000000000000000000000000000000600052604160045260246000fd5b7f4e487b7100000000000000000000000000000000000000000000000000000000600052603260045260246000fd5b7f4e487b7100000000000000000000000000000000000000000000000000000000600052601160045260246000fd5b6000613104826127da565b91507fffffffffffffffffffffffffffffffffffffffffffffffffffffffffffffffff8203613136576131356130ca565b5b600182019050919050565b600082825260208201905092915050565b7f50726f706f73657220736574206e6f7420696e697469616c697a656400000000600082015250565b6000613188601c83613141565b915061319382613152565b602082019050919050565b600060208201905081810360008301526131b78161317b565b9050919050565b7f4e6f7420726567697374657265642073657175656e6365720000000000000000600082015250565b60006131f4601883613141565b91506131ff826131be565b602082019050919050565b60006020820190508181036000830152613223816131e7565b9050919050565b6000613235826127da565b915060008203613248576132476130ca565b5b600182039050919050565b600081905092915050565b600061326a8385613253565b935061327783858461301f565b82840190509392505050565b600061329082848661325e565b91508190509392505050565b60008190508160005260206000209050919050565b600081546132be81612fe3565b6132c88186613253565b945060018216600081146132e357600181146132f85761332b565b60ff198316865281151582028601935061332b565b6133018561329c565b60005b8381101561332357815481890152600182019150602081019050613304565b838801955050505b50505092915050565b600061334082846132b1565b915081905092915050565b6000613356826127da565b9150613361836127da565b9250828203905081811115613379576133786130ca565b5b92915050565b60008154905061338e81612fe3565b9050919050565b60008190508160005260206000209050919050565b60008190508160005260206000209050919050565b60006020601f8301049050919050565b600082821b905092915050565b60006008830261340c7fffffffffffffffffffffffffffffffffffffffffffffffffffffffffffffffff826133cf565b61341686836133cf565b95508019841693508086168417925050509392505050565b6000819050919050565b600061345361344e613449846127da565b61342e565b6127da565b9050919050565b6000819050919050565b61346d83613438565b6134816134798261345a565b8484546133dc565b825550505050565b600090565b613496613489565b6134a1818484613464565b505050565b5b818110156134c5576134ba60008261348e565b6001810190506134a7565b5050565b601f82111561350a576134db81613395565b6134e4846133bf565b810160208510156134f3578190505b6135076134ff856133bf565b8301826134a6565b50505b505050565b600082821c905092915050565b600061352d6000198460080261350f565b1980831691505092915050565b6000613546838361351c565b9150826002028217905092915050565b81810361356457505061363c565b61356d8261337f565b67ffffffffffffffff8111156135865761358561306c565b5b6135908254612fe3565b61359b8282856134c9565b6000601f8311600181146135ca57600084156135b8578287015490505b6135c2858261353a565b865550613635565b601f1984166135d8876133aa565b96506135e386613395565b60005b8281101561360b578489015482556001820191506001850194506020810190506135e6565b868310156136285784890154613624601f89168261351c565b8355505b6001600288020188555050505b5050505050505b565b7f4e487b7100000000000000000000000000000000000000000000000000000000600052603160045260246000fd5b60006136798385613141565b935061368683858461301f565b61368f83612880565b840190509392505050565b600060408201905081810360008301526136b581858761366d565b90506136c46020830184612e95565b949350505050565b7f4e6f7420636c7573746572206f776e6572000000000000000000000000000000600082015250565b6000613702601183613141565b915061370d826136cc565b602082019050919050565b60006020820190508181036000830152613731816136f5565b9050919050565b600082905092915050565b61374d8383613738565b67ffffffffffffffff8111156137665761376561306c565b5b6137708254612fe3565b61377b8282856134c9565b6000601f8311600181146137aa5760008415613798578287013590505b6137a2858261353a565b86555061380a565b601f1984166137b886613395565b60005b828110156137e0578489013582556001820191506020850194506020810190506137bb565b868310156137fd57848901356137f9601f89168261351c565b8355505b6001600288020188555050505b50505050505050565b600080fd5b600080fd5b600080fd5b6000808335600160200384360303811261383f5761383e613813565b5b80840192508235915067ffffffffffffffff82111561386157613860613818565b5b60208301925060018202360383131561387d5761387c61381d565b5b509250929050565b613890838383613743565b505050565b60008101600083016138a78185613822565b6138b2818386613885565b5050505060018101602083016138c88185613822565b6138d3818386613885565b505050505050565b6138e58282613895565b5050565b6000604082019050818103600083015261390481868861366d565b9050818103602083015261391981848661366d565b905095945050505050565b6000606082019050818103600083015261393f81878961366d565b9050818103602083015261395481858761366d565b90506139636040830184612e95565b9695505050505050565b7f416c726561647920696e697469616c697a656420636c75737465720000000000600082015250565b60006139a3601b83613141565b91506139ae8261396d565b602082019050919050565b600060208201905081810360008301526139d281613996565b9050919050565b6000819050919050565b600067ffffffffffffffff82169050919050565b6000613a12613a0d613a08846139d9565b61342e565b6139e3565b9050919050565b613a22816139f7565b82525050565b6000602082019050613a3d6000830184613a19565b92915050565b7f416c726561647920726567697374657265642073657175656e63657200000000600082015250565b6000613a79601c83613141565b9150613a8482613a43565b602082019050919050565b60006020820190508181036000830152613aa881613a6c565b9050919050565b7f4d61782073657175656e63657220636f756e7420657863656564656400000000600082015250565b6000613ae5601c83613141565b9150613af082613aaf565b602082019050919050565b60006020820190508181036000830152613b1481613ad8565b9050919050565b60006060820190508181036000830152613b3681868861366d565b9050613b456020830185612e95565b613b5260408301846127e4565b95945050505050565b7f4e6f7420696e697469616c697a656420636c7573746572000000000000000000600082015250565b6000613b91601783613141565b9150613b9c82613b5b565b602082019050919050565b60006020820190508181036000830152613bc081613b84565b9050919050565b7f4e6f7420726f6c6c7570206f776e657200000000000000000000000000000000600082015250565b6000613bfd601083613141565b9150613c0882613bc7565b602082019050919050565b60006020820190508181036000830152613c2c81613bf0565b9050919050565b6000604082019050613c486000830185612e95565b613c556020830184612ba9565b939250505056fea26469706673582212209670e77c68ccbbda1588bbac947327d849e846f8940315e5051a7b42537bc78964736f6c63430008180033",
  "linkReferences": {},
  "deployedLinkReferences": {}
}