{
  "_format": "hh-sol-artifact-1",
  "contractName": "LivenessRadius",
  "sourceName": "contracts/LivenessRadius.sol",
  "abi": [
    {
      "inputs": [],
      "stateMutability": "nonpayable",
      "type": "constructor"
    },
    {
      "inputs": [],
      "name": "AccessControlBadConfirmation",
      "type": "error"
    },
    {
      "inputs": [
        {
          "internalType": "address",
          "name": "account",
          "type": "address"
        },
        {
          "internalType": "bytes32",
          "name": "neededRole",
          "type": "bytes32"
        }
      ],
      "name": "AccessControlUnauthorizedAccount",
      "type": "error"
    },
    {
      "inputs": [],
      "name": "InvalidInitialization",
      "type": "error"
    },
    {
      "inputs": [],
      "name": "NotInitializing",
      "type": "error"
    },
    {
      "inputs": [
        {
          "internalType": "address",
          "name": "owner",
          "type": "address"
        }
      ],
      "name": "OwnableInvalidOwner",
      "type": "error"
    },
    {
      "inputs": [
        {
          "internalType": "address",
          "name": "account",
          "type": "address"
        }
      ],
      "name": "OwnableUnauthorizedAccount",
      "type": "error"
    },
    {
      "inputs": [],
      "name": "ReentrancyGuardReentrantCall",
      "type": "error"
    },
    {
      "anonymous": false,
      "inputs": [
        {
          "indexed": false,
          "internalType": "string",
          "name": "clusterId",
          "type": "string"
        },
        {
          "indexed": false,
          "internalType": "string",
          "name": "rollupId",
          "type": "string"
        },
        {
          "indexed": false,
          "internalType": "address",
          "name": "rollupOwnerAddress",
          "type": "address"
        }
      ],
      "name": "AddRollup",
      "type": "event"
    },
    {
      "anonymous": false,
      "inputs": [
        {
          "indexed": false,
          "internalType": "string",
          "name": "clusterId",
          "type": "string"
        },
        {
          "indexed": false,
          "internalType": "address",
          "name": "sequencerAddress",
          "type": "address"
        }
      ],
      "name": "DeregisterSequencer",
      "type": "event"
    },
    {
      "anonymous": false,
      "inputs": [
        {
          "indexed": false,
          "internalType": "string",
          "name": "clusterId",
          "type": "string"
        },
        {
          "indexed": false,
          "internalType": "address",
          "name": "owner",
          "type": "address"
        }
      ],
      "name": "InitializeCluster",
      "type": "event"
    },
    {
      "anonymous": false,
      "inputs": [
        {
          "indexed": false,
          "internalType": "uint64",
          "name": "version",
          "type": "uint64"
        }
      ],
      "name": "Initialized",
      "type": "event"
    },
    {
      "anonymous": false,
      "inputs": [
        {
          "indexed": true,
          "internalType": "address",
          "name": "previousOwner",
          "type": "address"
        },
        {
          "indexed": true,
          "internalType": "address",
          "name": "newOwner",
          "type": "address"
        }
      ],
      "name": "OwnershipTransferred",
      "type": "event"
    },
    {
      "anonymous": false,
      "inputs": [
        {
          "indexed": false,
          "internalType": "string",
          "name": "clusterId",
          "type": "string"
        },
        {
          "indexed": false,
          "internalType": "string",
          "name": "rollupId",
          "type": "string"
        },
        {
          "indexed": false,
          "internalType": "address",
          "name": "executorAddress",
          "type": "address"
        }
      ],
      "name": "RegisterRollupExecutor",
      "type": "event"
    },
    {
      "anonymous": false,
      "inputs": [
        {
          "indexed": false,
          "internalType": "string",
          "name": "clusterId",
          "type": "string"
        },
        {
          "indexed": false,
          "internalType": "address",
          "name": "sequencerAddress",
          "type": "address"
        },
        {
          "indexed": false,
          "internalType": "uint256",
          "name": "index",
          "type": "uint256"
        }
      ],
      "name": "RegisterSequencer",
      "type": "event"
    },
    {
      "anonymous": false,
      "inputs": [
        {
          "indexed": true,
          "internalType": "bytes32",
          "name": "role",
          "type": "bytes32"
        },
        {
          "indexed": true,
          "internalType": "bytes32",
          "name": "previousAdminRole",
          "type": "bytes32"
        },
        {
          "indexed": true,
          "internalType": "bytes32",
          "name": "newAdminRole",
          "type": "bytes32"
        }
      ],
      "name": "RoleAdminChanged",
      "type": "event"
    },
    {
      "anonymous": false,
      "inputs": [
        {
          "indexed": true,
          "internalType": "bytes32",
          "name": "role",
          "type": "bytes32"
        },
        {
          "indexed": true,
          "internalType": "address",
          "name": "account",
          "type": "address"
        },
        {
          "indexed": true,
          "internalType": "address",
          "name": "sender",
          "type": "address"
        }
      ],
      "name": "RoleGranted",
      "type": "event"
    },
    {
      "anonymous": false,
      "inputs": [
        {
          "indexed": true,
          "internalType": "bytes32",
          "name": "role",
          "type": "bytes32"
        },
        {
          "indexed": true,
          "internalType": "address",
          "name": "account",
          "type": "address"
        },
        {
          "indexed": true,
          "internalType": "address",
          "name": "sender",
          "type": "address"
        }
      ],
      "name": "RoleRevoked",
      "type": "event"
    },
    {
      "inputs": [],
      "name": "BLOCK_MARGIN",
      "outputs": [
        {
          "internalType": "uint256",
          "name": "",
          "type": "uint256"
        }
      ],
      "stateMutability": "view",
      "type": "function"
    },
    {
      "inputs": [],
      "name": "DEFAULT_ADMIN_ROLE",
      "outputs": [
        {
          "internalType": "bytes32",
          "name": "",
          "type": "bytes32"
        }
      ],
      "stateMutability": "view",
      "type": "function"
    },
    {
      "inputs": [
        {
          "internalType": "string",
          "name": "clusterId",
          "type": "string"
        },
        {
          "internalType": "string",
          "name": "rollupId",
          "type": "string"
        },
        {
          "internalType": "string",
          "name": "chainType",
          "type": "string"
        },
        {
          "internalType": "address",
          "name": "rollupOwnerAddress",
          "type": "address"
        },
        {
          "internalType": "string",
          "name": "orderCommitmentType",
          "type": "string"
        },
        {
          "components": [
            {
              "internalType": "string",
              "name": "platform",
              "type": "string"
            },
            {
              "internalType": "string",
              "name": "serviceProvider",
              "type": "string"
            }
          ],
          "internalType": "struct ILivenessRadius.ValidationInfo",
          "name": "validationInfo",
          "type": "tuple"
        }
      ],
      "name": "addRollup",
      "outputs": [],
      "stateMutability": "nonpayable",
      "type": "function"
    },
    {
      "inputs": [
        {
          "internalType": "string",
          "name": "clusterId",
          "type": "string"
        }
      ],
      "name": "deregisterSequencer",
      "outputs": [],
      "stateMutability": "nonpayable",
      "type": "function"
    },
    {
      "inputs": [],
      "name": "getAllClusterIds",
      "outputs": [
        {
          "internalType": "string[]",
          "name": "",
          "type": "string[]"
        }
      ],
      "stateMutability": "view",
      "type": "function"
    },
    {
      "inputs": [
        {
          "internalType": "address",
          "name": "owner",
          "type": "address"
        }
      ],
      "name": "getClustersByOwner",
      "outputs": [
        {
          "internalType": "string[]",
          "name": "",
          "type": "string[]"
        }
      ],
      "stateMutability": "view",
      "type": "function"
    },
    {
      "inputs": [
        {
          "internalType": "address",
          "name": "sequencer",
          "type": "address"
        }
      ],
      "name": "getClustersBySequencer",
      "outputs": [
        {
          "internalType": "string[]",
          "name": "",
          "type": "string[]"
        }
      ],
      "stateMutability": "view",
      "type": "function"
    },
    {
      "inputs": [
        {
          "internalType": "string",
          "name": "clusterId",
          "type": "string"
        },
        {
          "internalType": "string",
          "name": "rollupId",
          "type": "string"
        }
      ],
      "name": "getExecutorList",
      "outputs": [
        {
          "internalType": "address[]",
          "name": "",
          "type": "address[]"
        }
      ],
      "stateMutability": "view",
      "type": "function"
    },
    {
      "inputs": [
        {
          "internalType": "string",
          "name": "clusterId",
          "type": "string"
        }
      ],
      "name": "getMaxSequencerNumber",
      "outputs": [
        {
          "internalType": "uint256",
          "name": "",
          "type": "uint256"
        }
      ],
      "stateMutability": "view",
      "type": "function"
    },
    {
      "inputs": [
        {
          "internalType": "bytes32",
          "name": "role",
          "type": "bytes32"
        }
      ],
      "name": "getRoleAdmin",
      "outputs": [
        {
          "internalType": "bytes32",
          "name": "",
          "type": "bytes32"
        }
      ],
      "stateMutability": "view",
      "type": "function"
    },
    {
      "inputs": [
        {
          "internalType": "string",
          "name": "clusterId",
          "type": "string"
        },
        {
          "internalType": "string",
          "name": "rollupId",
          "type": "string"
        }
      ],
      "name": "getRollupInfo",
      "outputs": [
        {
          "components": [
            {
              "internalType": "string",
              "name": "rollupId",
              "type": "string"
            },
            {
              "internalType": "address",
              "name": "owner",
              "type": "address"
            },
            {
              "internalType": "string",
              "name": "chainType",
              "type": "string"
            },
            {
              "components": [
                {
                  "internalType": "string",
                  "name": "platform",
                  "type": "string"
                },
                {
                  "internalType": "string",
                  "name": "serviceProvider",
                  "type": "string"
                }
              ],
              "internalType": "struct ILivenessRadius.ValidationInfo",
              "name": "validationInfo",
              "type": "tuple"
            },
            {
              "internalType": "string",
              "name": "orderCommitmentType",
              "type": "string"
            },
            {
              "internalType": "address[]",
              "name": "executorAddresses",
              "type": "address[]"
            }
          ],
          "internalType": "struct ILivenessRadius.RollupInfo",
          "name": "",
          "type": "tuple"
        }
      ],
      "stateMutability": "view",
      "type": "function"
    },
    {
      "inputs": [
        {
          "internalType": "string",
          "name": "clusterId",
          "type": "string"
        }
      ],
      "name": "getRollupInfoList",
      "outputs": [
        {
          "components": [
            {
              "internalType": "string",
              "name": "rollupId",
              "type": "string"
            },
            {
              "internalType": "address",
              "name": "owner",
              "type": "address"
            },
            {
              "internalType": "string",
              "name": "chainType",
              "type": "string"
            },
            {
              "components": [
                {
                  "internalType": "string",
                  "name": "platform",
                  "type": "string"
                },
                {
                  "internalType": "string",
                  "name": "serviceProvider",
                  "type": "string"
                }
              ],
              "internalType": "struct ILivenessRadius.ValidationInfo",
              "name": "validationInfo",
              "type": "tuple"
            },
            {
              "internalType": "string",
              "name": "orderCommitmentType",
              "type": "string"
            },
            {
              "internalType": "address[]",
              "name": "executorAddresses",
              "type": "address[]"
            }
          ],
          "internalType": "struct ILivenessRadius.RollupInfo[]",
          "name": "",
          "type": "tuple[]"
        }
      ],
      "stateMutability": "view",
      "type": "function"
    },
    {
      "inputs": [
        {
          "internalType": "string",
          "name": "clusterId",
          "type": "string"
        }
      ],
      "name": "getSequencerList",
      "outputs": [
        {
          "internalType": "address[]",
          "name": "",
          "type": "address[]"
        }
      ],
      "stateMutability": "view",
      "type": "function"
    },
    {
      "inputs": [
        {
          "internalType": "bytes32",
          "name": "role",
          "type": "bytes32"
        },
        {
          "internalType": "address",
          "name": "account",
          "type": "address"
        }
      ],
      "name": "grantRole",
      "outputs": [],
      "stateMutability": "nonpayable",
      "type": "function"
    },
    {
      "inputs": [
        {
          "internalType": "bytes32",
          "name": "role",
          "type": "bytes32"
        },
        {
          "internalType": "address",
          "name": "account",
          "type": "address"
        }
      ],
      "name": "hasRole",
      "outputs": [
        {
          "internalType": "bool",
          "name": "",
          "type": "bool"
        }
      ],
      "stateMutability": "view",
      "type": "function"
    },
    {
      "inputs": [],
      "name": "initialize",
      "outputs": [],
      "stateMutability": "nonpayable",
      "type": "function"
    },
    {
      "inputs": [
        {
          "internalType": "string",
          "name": "clusterId",
          "type": "string"
        },
        {
          "internalType": "uint256",
          "name": "maxSequencerNumber",
          "type": "uint256"
        }
      ],
      "name": "initializeCluster",
      "outputs": [],
      "stateMutability": "nonpayable",
      "type": "function"
    },
    {
      "inputs": [
        {
          "internalType": "string",
          "name": "clusterId",
          "type": "string"
        },
        {
          "internalType": "string",
          "name": "rollupId",
          "type": "string"
        }
      ],
      "name": "isAddedRollup",
      "outputs": [
        {
          "internalType": "bool",
          "name": "",
          "type": "bool"
        }
      ],
      "stateMutability": "view",
      "type": "function"
    },
    {
      "inputs": [
        {
          "internalType": "string",
          "name": "clusterId",
          "type": "string"
        },
        {
          "internalType": "string",
          "name": "rollupId",
          "type": "string"
        },
        {
          "internalType": "address",
          "name": "executorAddress",
          "type": "address"
        }
      ],
      "name": "isRegisteredRollupExecutor",
      "outputs": [
        {
          "internalType": "bool",
          "name": "",
          "type": "bool"
        }
      ],
      "stateMutability": "view",
      "type": "function"
    },
    {
      "inputs": [
        {
          "internalType": "string",
          "name": "clusterId",
          "type": "string"
        },
        {
          "internalType": "address",
          "name": "sequencerAddress",
          "type": "address"
        }
      ],
      "name": "isRegisteredSequencer",
      "outputs": [
        {
          "internalType": "bool",
          "name": "",
          "type": "bool"
        }
      ],
      "stateMutability": "view",
      "type": "function"
    },
    {
      "inputs": [],
      "name": "owner",
      "outputs": [
        {
          "internalType": "address",
          "name": "",
          "type": "address"
        }
      ],
      "stateMutability": "view",
      "type": "function"
    },
    {
      "inputs": [
        {
          "internalType": "string",
          "name": "clusterId",
          "type": "string"
        },
        {
          "internalType": "string",
          "name": "rollupId",
          "type": "string"
        },
        {
          "internalType": "address",
          "name": "rollupExecutorAddress",
          "type": "address"
        }
      ],
      "name": "registerRollupExecutor",
      "outputs": [],
      "stateMutability": "nonpayable",
      "type": "function"
    },
    {
      "inputs": [
        {
          "internalType": "string",
          "name": "clusterId",
          "type": "string"
        }
      ],
      "name": "registerSequencer",
      "outputs": [],
      "stateMutability": "nonpayable",
      "type": "function"
    },
    {
      "inputs": [],
      "name": "renounceOwnership",
      "outputs": [],
      "stateMutability": "nonpayable",
      "type": "function"
    },
    {
      "inputs": [
        {
          "internalType": "bytes32",
          "name": "role",
          "type": "bytes32"
        },
        {
          "internalType": "address",
          "name": "callerConfirmation",
          "type": "address"
        }
      ],
      "name": "renounceRole",
      "outputs": [],
      "stateMutability": "nonpayable",
      "type": "function"
    },
    {
      "inputs": [
        {
          "internalType": "bytes32",
          "name": "role",
          "type": "bytes32"
        },
        {
          "internalType": "address",
          "name": "account",
          "type": "address"
        }
      ],
      "name": "revokeRole",
      "outputs": [],
      "stateMutability": "nonpayable",
      "type": "function"
    },
    {
      "inputs": [
        {
          "internalType": "bytes4",
          "name": "interfaceId",
          "type": "bytes4"
        }
      ],
      "name": "supportsInterface",
      "outputs": [
        {
          "internalType": "bool",
          "name": "",
          "type": "bool"
        }
      ],
      "stateMutability": "view",
      "type": "function"
    },
    {
      "inputs": [
        {
          "internalType": "address",
          "name": "newOwner",
          "type": "address"
        }
      ],
      "name": "transferOwnership",
      "outputs": [],
      "stateMutability": "nonpayable",
      "type": "function"
    }
  ],
  "bytecode": "0x60806040523480156200001157600080fd5b50620000226200002860201b60201c565b6200019c565b60006200003a6200013260201b60201c565b90508060000160089054906101000a900460ff161562000086576040517ff92ee8a900000000000000000000000000000000000000000000000000000000815260040160405180910390fd5b67ffffffffffffffff80168160000160009054906101000a900467ffffffffffffffff1667ffffffffffffffff16146200012f5767ffffffffffffffff8160000160006101000a81548167ffffffffffffffff021916908367ffffffffffffffff1602179055507fc7f505b2f371ae2175ee4913f4499e1f2633a7b5936321eed1cdaeb6115181d267ffffffffffffffff6040516200012691906200017f565b60405180910390a15b50565b60007ff0c57e16840df040f15088dc2f81fe391c3923bec73e23a9662efc9c229c6a00905090565b600067ffffffffffffffff82169050919050565b62000179816200015a565b82525050565b60006020820190506200019660008301846200016e565b92915050565b614be680620001ac6000396000f3fe608060405234801561001057600080fd5b50600436106101c45760003560e01c806378a616f5116100f9578063a217fddf11610097578063d4bb786f11610071578063d4bb786f14610529578063d547741f14610559578063ee6d992f14610575578063f2fde38b146105a5576101c4565b8063a217fddf146104bf578063a7b15420146104dd578063ccbd85ce146104f9576101c4565b80638a4abab8116100d35780638a4abab8146104255780638da5cb5b1461044157806391d148541461045f57806399496f271461048f576101c4565b806378a616f5146103cf5780638129fc1c146103ff578063867e05e814610409576101c4565b80632f2ff15d1161016657806350ef5a171161014057806350ef5a171461033557806354fbb8bc1461036557806365f413bb14610395578063715018a6146103c5576101c4565b80632f2ff15d146102e157806336568abe146102fd5780633edb0dbf14610319576101c4565b80631a6b7d33116101a25780631a6b7d331461023557806323fd869f146102655780632432fdfc14610295578063248a9ca3146102b1576101c4565b806301ffc9a7146101c9578063071c55ac146101f957806315a45bdb14610217575b600080fd5b6101e360048036038101906101de9190613335565b6105c1565b6040516101f0919061337d565b60405180910390f35b61020161063b565b60405161020e91906133b1565b60405180910390f35b61021f610640565b60405161022c919061351e565b60405180910390f35b61024f600480360381019061024a91906135a5565b610719565b60405161025c919061337d565b60405180910390f35b61027f600480360381019061027a9190613626565b6107b9565b60405161028c9190613763565b60405180910390f35b6102af60048036038101906102aa9190613626565b61096a565b005b6102cb60048036038101906102c691906137bb565b610db4565b6040516102d891906137f7565b60405180910390f35b6102fb60048036038101906102f6919061383e565b610de2565b005b6103176004803603810190610312919061383e565b610e04565b005b610333600480360381019061032e91906138aa565b610e7f565b005b61034f600480360381019061034a9190613626565b611146565b60405161035c9190613b24565b60405180910390f35b61037f600480360381019061037a9190613626565b611638565b60405161038c91906133b1565b60405180910390f35b6103af60048036038101906103aa91906135a5565b611665565b6040516103bc9190613763565b60405180910390f35b6103cd6118e3565b005b6103e960048036038101906103e49190613b46565b6118f7565b6040516103f6919061351e565b60405180910390f35b610407611a0f565b005b610423600480360381019061041e9190613b97565b611bad565b005b61043f600480360381019061043a9190613626565b611e53565b005b61044961221b565b6040516104569190613cd2565b60405180910390f35b6104796004803603810190610474919061383e565b612253565b604051610486919061337d565b60405180910390f35b6104a960048036038101906104a491906135a5565b6122cc565b6040516104b69190613d92565b60405180910390f35b6104c76126ac565b6040516104d491906137f7565b60405180910390f35b6104f760048036038101906104f29190613db4565b6126b3565b005b610513600480360381019061050e9190613db4565b612928565b604051610520919061337d565b60405180910390f35b610543600480360381019061053e9190613e49565b6129c3565b604051610550919061337d565b60405180910390f35b610573600480360381019061056e919061383e565b612a3b565b005b61058f600480360381019061058a9190613b46565b612a5d565b60405161059c919061351e565b60405180910390f35b6105bf60048036038101906105ba9190613b46565b612b75565b005b60007f7965db0b000000000000000000000000000000000000000000000000000000007bffffffffffffffffffffffffffffffffffffffffffffffffffffffff1916827bffffffffffffffffffffffffffffffffffffffffffffffffffffffff19161480610634575061063382612bfb565b5b9050919050565b600781565b60606003805480602002602001604051908101604052809291908181526020016000905b8282101561071057838290600052602060002001805461068390613ed8565b80601f01602080910402602001604051908101604052809291908181526020018280546106af90613ed8565b80156106fc5780601f106106d1576101008083540402835291602001916106fc565b820191906000526020600020905b8154815290600101906020018083116106df57829003601f168201915b505050505081526020019060010190610664565b50505050905090565b60008073ffffffffffffffffffffffffffffffffffffffff1660008686604051610744929190613f48565b90815260200160405180910390206007018484604051610765929190613f48565b908152602001604051809103902060000160009054906101000a900473ffffffffffffffffffffffffffffffffffffffff1673ffffffffffffffffffffffffffffffffffffffff1614159050949350505050565b606060008084846040516107ce929190613f48565b90815260200160405180910390209050600080826004015467ffffffffffffffff8111156107ff576107fe613f61565b5b60405190808252806020026020018201604052801561082d5781602001602082028036833780820191505090505b50905060005b836004015481101561095d57600073ffffffffffffffffffffffffffffffffffffffff1684600301828154811061086d5761086c613f90565b5b9060005260206000200160009054906101000a900473ffffffffffffffffffffffffffffffffffffffff1673ffffffffffffffffffffffffffffffffffffffff1614610950578360030181815481106108c9576108c8613f90565b5b9060005260206000200160009054906101000a900473ffffffffffffffffffffffffffffffffffffffff1682848151811061090757610906613f90565b5b602002602001019073ffffffffffffffffffffffffffffffffffffffff16908173ffffffffffffffffffffffffffffffffffffffff1681525050828061094c90613fee565b9350505b8080600101915050610833565b5080935050505092915050565b600080838360405161097d929190613f48565b90815260200160405180910390209050600073ffffffffffffffffffffffffffffffffffffffff168160000160009054906101000a900473ffffffffffffffffffffffffffffffffffffffff1673ffffffffffffffffffffffffffffffffffffffff1603610a20576040517f08c379a0000000000000000000000000000000000000000000000000000000008152600401610a1790614093565b60405180910390fd5b8060010160003373ffffffffffffffffffffffffffffffffffffffff1673ffffffffffffffffffffffffffffffffffffffff16815260200190815260200160002060009054906101000a900460ff16610aae576040517f08c379a0000000000000000000000000000000000000000000000000000000008152600401610aa5906140ff565b60405180910390fd5b60008160010160003373ffffffffffffffffffffffffffffffffffffffff1673ffffffffffffffffffffffffffffffffffffffff16815260200190815260200160002060006101000a81548160ff02191690831515021790555060008160020160003373ffffffffffffffffffffffffffffffffffffffff1673ffffffffffffffffffffffffffffffffffffffff1681526020019081526020016000205490506000826003018281548110610b6657610b65613f90565b5b9060005260206000200160006101000a81548173ffffffffffffffffffffffffffffffffffffffff021916908373ffffffffffffffffffffffffffffffffffffffff1602179055508160020160003373ffffffffffffffffffffffffffffffffffffffff1673ffffffffffffffffffffffffffffffffffffffff16815260200190815260200160002060009055816005016000815480929190610c089061411f565b9190505550816006018190806001815401808255809150506001900390600052602060002001600090919091909150556000600260003373ffffffffffffffffffffffffffffffffffffffff1673ffffffffffffffffffffffffffffffffffffffff168152602001908152602001600020905060005b8180549050811015610d71578585604051610c9a929190614178565b6040518091039020828281548110610cb557610cb4613f90565b5b90600052602060002001604051610ccc9190614229565b604051809103902003610d64578160018380549050610ceb9190614240565b81548110610cfc57610cfb613f90565b5b90600052602060002001828281548110610d1957610d18613f90565b5b906000526020600020019081610d2f919061444b565b5081805480610d4157610d40614533565b5b600190038181906000526020600020016000610d5d919061320a565b9055610d71565b8080600101915050610c7e565b507f8e705b58b23a2bb7ce17d2ef262b1ffd19a1afe45787a31689acc56e928cefb8858533604051610da59392919061458f565b60405180910390a15050505050565b600080610dbf612c65565b905080600001600084815260200190815260200160002060010154915050919050565b610deb82610db4565b610df481612c8d565b610dfe8383612ca1565b50505050565b610e0c612da2565b73ffffffffffffffffffffffffffffffffffffffff168173ffffffffffffffffffffffffffffffffffffffff1614610e70576040517f6697b23200000000000000000000000000000000000000000000000000000000815260040160405180910390fd5b610e7a8282612daa565b505050565b6000808484604051610e92929190613f48565b90815260200160405180910390209050600073ffffffffffffffffffffffffffffffffffffffff168160000160009054906101000a900473ffffffffffffffffffffffffffffffffffffffff1673ffffffffffffffffffffffffffffffffffffffff1614610f35576040517f08c379a0000000000000000000000000000000000000000000000000000000008152600401610f2c9061460d565b60405180910390fd5b338160000160006101000a81548173ffffffffffffffffffffffffffffffffffffffff021916908373ffffffffffffffffffffffffffffffffffffffff1602179055508181600401819055506000816005018190555060005b8281101561104b578160060181600185610fa89190614240565b610fb29190614240565b90806001815401808255809150506001900390600052602060002001600090919091909150558160030160009080600181540180825580915050600190039060005260206000200160009091909190916101000a81548173ffffffffffffffffffffffffffffffffffffffff021916908373ffffffffffffffffffffffffffffffffffffffff1602179055508080600101915050610f8e565b506003848490918060018154018082558091505060019003906000526020600020016000909192909192909192909192509182611089929190614638565b50600160003373ffffffffffffffffffffffffffffffffffffffff1673ffffffffffffffffffffffffffffffffffffffff168152602001908152602001600020848490918060018154018082558091505060019003906000526020600020016000909192909192909192909192509182611104929190614638565b507f0a76fd24146ad0c8934e1e4152d03c3d5679c78f95d7cf8f588825eb81166d508484336040516111389392919061458f565b60405180910390a150505050565b6060600080848460405161115b929190613f48565b908152602001604051809103902090506000816008018054905067ffffffffffffffff81111561118e5761118d613f61565b5b6040519080825280602002602001820160405280156111c757816020015b6111b461324a565b8152602001906001900390816111ac5790505b50905060005b826008018054905081101561162c576000836007018460080183815481106111f8576111f7613f90565b5b9060005260206000200160405161120f919061478b565b908152602001604051809103902090506040518060c001604052808560080184815481106112405761123f613f90565b5b90600052602060002001805461125590613ed8565b80601f016020809104026020016040519081016040528092919081815260200182805461128190613ed8565b80156112ce5780601f106112a3576101008083540402835291602001916112ce565b820191906000526020600020905b8154815290600101906020018083116112b157829003601f168201915b505050505081526020018260000160009054906101000a900473ffffffffffffffffffffffffffffffffffffffff1673ffffffffffffffffffffffffffffffffffffffff16815260200182600101805461132790613ed8565b80601f016020809104026020016040519081016040528092919081815260200182805461135390613ed8565b80156113a05780601f10611375576101008083540402835291602001916113a0565b820191906000526020600020905b81548152906001019060200180831161138357829003601f168201915b50505050508152602001826002016040518060400160405290816000820180546113c990613ed8565b80601f01602080910402602001604051908101604052809291908181526020018280546113f590613ed8565b80156114425780601f1061141757610100808354040283529160200191611442565b820191906000526020600020905b81548152906001019060200180831161142557829003601f168201915b5050505050815260200160018201805461145b90613ed8565b80601f016020809104026020016040519081016040528092919081815260200182805461148790613ed8565b80156114d45780601f106114a9576101008083540402835291602001916114d4565b820191906000526020600020905b8154815290600101906020018083116114b757829003601f168201915b50505050508152505081526020018260040180546114f190613ed8565b80601f016020809104026020016040519081016040528092919081815260200182805461151d90613ed8565b801561156a5780601f1061153f5761010080835404028352916020019161156a565b820191906000526020600020905b81548152906001019060200180831161154d57829003601f168201915b50505050508152602001826006018054806020026020016040519081016040528092919081815260200182805480156115f857602002820191906000526020600020905b8160009054906101000a900473ffffffffffffffffffffffffffffffffffffffff1673ffffffffffffffffffffffffffffffffffffffff16815260200190600101908083116115ae575b505050505081525083838151811061161357611612613f90565b5b60200260200101819052505080806001019150506111cd565b50809250505092915050565b600080838360405161164b929190613f48565b908152602001604051809103902060040154905092915050565b6060600080868660405161167a929190613f48565b9081526020016040518091039020905060008160070185856040516116a0929190613f48565b908152602001604051809103902090506000805b826006018054905081101561175357600073ffffffffffffffffffffffffffffffffffffffff168360060182815481106116f1576116f0613f90565b5b9060005260206000200160009054906101000a900473ffffffffffffffffffffffffffffffffffffffff1673ffffffffffffffffffffffffffffffffffffffff161461174657818061174290613fee565b9250505b80806001019150506116b4565b5060008167ffffffffffffffff8111156117705761176f613f61565b5b60405190808252806020026020018201604052801561179e5781602001602082028036833780820191505090505b5090506000805b84600601805490508110156118d257600073ffffffffffffffffffffffffffffffffffffffff168560060182815481106117e2576117e1613f90565b5b9060005260206000200160009054906101000a900473ffffffffffffffffffffffffffffffffffffffff1673ffffffffffffffffffffffffffffffffffffffff16146118c55784600601818154811061183e5761183d613f90565b5b9060005260206000200160009054906101000a900473ffffffffffffffffffffffffffffffffffffffff1683838151811061187c5761187b613f90565b5b602002602001019073ffffffffffffffffffffffffffffffffffffffff16908173ffffffffffffffffffffffffffffffffffffffff168152505081806118c190613fee565b9250505b80806001019150506117a5565b508195505050505050949350505050565b6118eb612eac565b6118f56000612f33565b565b6060600160008373ffffffffffffffffffffffffffffffffffffffff1673ffffffffffffffffffffffffffffffffffffffff168152602001908152602001600020805480602002602001604051908101604052809291908181526020016000905b82821015611a0457838290600052602060002001805461197790613ed8565b80601f01602080910402602001604051908101604052809291908181526020018280546119a390613ed8565b80156119f05780601f106119c5576101008083540402835291602001916119f0565b820191906000526020600020905b8154815290600101906020018083116119d357829003601f168201915b505050505081526020019060010190611958565b505050509050919050565b6000611a1961300a565b905060008160000160089054906101000a900460ff1615905060008260000160009054906101000a900467ffffffffffffffff1690506000808267ffffffffffffffff16148015611a675750825b9050600060018367ffffffffffffffff16148015611a9c575060003073ffffffffffffffffffffffffffffffffffffffff163b145b905081158015611aaa575080155b15611ae1576040517ff92ee8a900000000000000000000000000000000000000000000000000000000815260040160405180910390fd5b60018560000160006101000a81548167ffffffffffffffff021916908367ffffffffffffffff1602179055508315611b315760018560000160086101000a81548160ff0219169083151502179055505b611b39613032565b611b4161303c565b611b4a3361304e565b8315611ba65760008560000160086101000a81548160ff0219169083151502179055507fc7f505b2f371ae2175ee4913f4499e1f2633a7b5936321eed1cdaeb6115181d26001604051611b9d91906147f1565b60405180910390a15b5050505050565b6000808b8b604051611bc0929190613f48565b908152602001604051809103902090503373ffffffffffffffffffffffffffffffffffffffff168160000160009054906101000a900473ffffffffffffffffffffffffffffffffffffffff1673ffffffffffffffffffffffffffffffffffffffff1614611c62576040517f08c379a0000000000000000000000000000000000000000000000000000000008152600401611c5990614858565b60405180910390fd5b6000816007018a8a604051611c78929190613f48565b90815260200160405180910390209050816008018a8a90918060018154018082558091505060019003906000526020600020016000909192909192909192909192509182611cc7929190614638565b50858160000160006101000a81548173ffffffffffffffffffffffffffffffffffffffff021916908373ffffffffffffffffffffffffffffffffffffffff1602179055508787826001019182611d1e929190614638565b508484826004019182611d32929190614638565b5082816002018181611d449190614940565b90505060018160050160008873ffffffffffffffffffffffffffffffffffffffff1673ffffffffffffffffffffffffffffffffffffffff16815260200190815260200160002060006101000a81548160ff02191690831515021790555080600601869080600181540180825580915050600190039060005260206000200160009091909190916101000a81548173ffffffffffffffffffffffffffffffffffffffff021916908373ffffffffffffffffffffffffffffffffffffffff1602179055507fe1a954bd87863d105bde989337bb536ce0b77c9e2f9571ba90ef69e25203f0298c8c8c8c8a604051611e3d95949392919061494e565b60405180910390a1505050505050505050505050565b6000808383604051611e66929190613f48565b90815260200160405180910390209050600073ffffffffffffffffffffffffffffffffffffffff168160000160009054906101000a900473ffffffffffffffffffffffffffffffffffffffff1673ffffffffffffffffffffffffffffffffffffffff1603611f09576040517f08c379a0000000000000000000000000000000000000000000000000000000008152600401611f0090614093565b60405180910390fd5b8060010160003373ffffffffffffffffffffffffffffffffffffffff1673ffffffffffffffffffffffffffffffffffffffff16815260200190815260200160002060009054906101000a900460ff1615611f98576040517f08c379a0000000000000000000000000000000000000000000000000000000008152600401611f8f906149e3565b60405180910390fd5b8060040154816005015410611fe2576040517f08c379a0000000000000000000000000000000000000000000000000000000008152600401611fd990614a4f565b60405180910390fd5b60008160060160018360060180549050611ffc9190614240565b8154811061200d5761200c613f90565b5b906000526020600020015490508160060180548061202e5761202d614533565b5b6001900381819060005260206000200160009055905560018260010160003373ffffffffffffffffffffffffffffffffffffffff1673ffffffffffffffffffffffffffffffffffffffff16815260200190815260200160002060006101000a81548160ff021916908315150217905550338260030182815481106120b5576120b4613f90565b5b9060005260206000200160006101000a81548173ffffffffffffffffffffffffffffffffffffffff021916908373ffffffffffffffffffffffffffffffffffffffff160217905550808260020160003373ffffffffffffffffffffffffffffffffffffffff1673ffffffffffffffffffffffffffffffffffffffff1681526020019081526020016000208190555081600501600081548092919061215890613fee565b9190505550600260003373ffffffffffffffffffffffffffffffffffffffff1673ffffffffffffffffffffffffffffffffffffffff1681526020019081526020016000208484909180600181540180825580915050600190039060005260206000200160009091929091929091929091925091826121d7929190614638565b507fc438828bf84f8f56411b3c88a28310baf820d7cc3909fdc4d4b9ef6cccb0195e8484338460405161220d9493929190614a6f565b60405180910390a150505050565b600080612226613062565b90508060000160009054906101000a900473ffffffffffffffffffffffffffffffffffffffff1691505090565b60008061225e612c65565b905080600001600085815260200190815260200160002060000160008473ffffffffffffffffffffffffffffffffffffffff1673ffffffffffffffffffffffffffffffffffffffff16815260200190815260200160002060009054906101000a900460ff1691505092915050565b6122d461324a565b60008086866040516122e7929190613f48565b90815260200160405180910390209050600081600701858560405161230d929190613f48565b9081526020016040518091039020905060006040518060c0016040528087878080601f016020809104026020016040519081016040528093929190818152602001838380828437600081840152601f19601f8201169050808301925050505050505081526020018360000160009054906101000a900473ffffffffffffffffffffffffffffffffffffffff1673ffffffffffffffffffffffffffffffffffffffff1681526020018360010180546123c390613ed8565b80601f01602080910402602001604051908101604052809291908181526020018280546123ef90613ed8565b801561243c5780601f106124115761010080835404028352916020019161243c565b820191906000526020600020905b81548152906001019060200180831161241f57829003601f168201915b505050505081526020018360020160405180604001604052908160008201805461246590613ed8565b80601f016020809104026020016040519081016040528092919081815260200182805461249190613ed8565b80156124de5780601f106124b3576101008083540402835291602001916124de565b820191906000526020600020905b8154815290600101906020018083116124c157829003601f168201915b505050505081526020016001820180546124f790613ed8565b80601f016020809104026020016040519081016040528092919081815260200182805461252390613ed8565b80156125705780601f1061254557610100808354040283529160200191612570565b820191906000526020600020905b81548152906001019060200180831161255357829003601f168201915b505050505081525050815260200183600401805461258d90613ed8565b80601f01602080910402602001604051908101604052809291908181526020018280546125b990613ed8565b80156126065780601f106125db57610100808354040283529160200191612606565b820191906000526020600020905b8154815290600101906020018083116125e957829003601f168201915b505050505081526020018360060180548060200260200160405190810160405280929190818152602001828054801561269457602002820191906000526020600020905b8160009054906101000a900473ffffffffffffffffffffffffffffffffffffffff1673ffffffffffffffffffffffffffffffffffffffff168152602001906001019080831161264a575b50505050508152509050809350505050949350505050565b6000801b81565b60008086866040516126c6929190613f48565b90815260200160405180910390209050600073ffffffffffffffffffffffffffffffffffffffff168160000160009054906101000a900473ffffffffffffffffffffffffffffffffffffffff1673ffffffffffffffffffffffffffffffffffffffff1603612769576040517f08c379a000000000000000000000000000000000000000000000000000000000815260040161276090614afb565b60405180910390fd5b600081600701858560405161277f929190613f48565b908152602001604051809103902090503373ffffffffffffffffffffffffffffffffffffffff168160000160009054906101000a900473ffffffffffffffffffffffffffffffffffffffff1673ffffffffffffffffffffffffffffffffffffffff1614612821576040517f08c379a000000000000000000000000000000000000000000000000000000000815260040161281890614b67565b60405180910390fd5b60018160050160008573ffffffffffffffffffffffffffffffffffffffff1673ffffffffffffffffffffffffffffffffffffffff16815260200190815260200160002060006101000a81548160ff02191690831515021790555080600601839080600181540180825580915050600190039060005260206000200160009091909190916101000a81548173ffffffffffffffffffffffffffffffffffffffff021916908373ffffffffffffffffffffffffffffffffffffffff1602179055507fd78b57910d5f921c4da1543d476f86e9d30026b18c0973b08c4dd30a30554276878787878760405161291795949392919061494e565b60405180910390a150505050505050565b600080868660405161293b929190613f48565b9081526020016040518091039020600701848460405161295c929190613f48565b908152602001604051809103902060050160008373ffffffffffffffffffffffffffffffffffffffff1673ffffffffffffffffffffffffffffffffffffffff16815260200190815260200160002060009054906101000a900460ff16905095945050505050565b60008084846040516129d6929190613f48565b908152602001604051809103902060010160008373ffffffffffffffffffffffffffffffffffffffff1673ffffffffffffffffffffffffffffffffffffffff16815260200190815260200160002060009054906101000a900460ff1690509392505050565b612a4482610db4565b612a4d81612c8d565b612a578383612daa565b50505050565b6060600260008373ffffffffffffffffffffffffffffffffffffffff1673ffffffffffffffffffffffffffffffffffffffff168152602001908152602001600020805480602002602001604051908101604052809291908181526020016000905b82821015612b6a578382906000526020600020018054612add90613ed8565b80601f0160208091040260200160405190810160405280929190818152602001828054612b0990613ed8565b8015612b565780601f10612b2b57610100808354040283529160200191612b56565b820191906000526020600020905b815481529060010190602001808311612b3957829003601f168201915b505050505081526020019060010190612abe565b505050509050919050565b612b7d612eac565b600073ffffffffffffffffffffffffffffffffffffffff168173ffffffffffffffffffffffffffffffffffffffff1603612bef5760006040517f1e4fbdf7000000000000000000000000000000000000000000000000000000008152600401612be69190613cd2565b60405180910390fd5b612bf881612f33565b50565b60007f01ffc9a7000000000000000000000000000000000000000000000000000000007bffffffffffffffffffffffffffffffffffffffffffffffffffffffff1916827bffffffffffffffffffffffffffffffffffffffffffffffffffffffff1916149050919050565b60007f02dd7bc7dec4dceedda775e58dd541e08a116c6c53815c0bd028192f7b626800905090565b612c9e81612c99612da2565b61308a565b50565b600080612cac612c65565b9050612cb88484612253565b612d9657600181600001600086815260200190815260200160002060000160008573ffffffffffffffffffffffffffffffffffffffff1673ffffffffffffffffffffffffffffffffffffffff16815260200190815260200160002060006101000a81548160ff021916908315150217905550612d32612da2565b73ffffffffffffffffffffffffffffffffffffffff168373ffffffffffffffffffffffffffffffffffffffff16857f2f8788117e7eff1d82e926ec794901d17c78024a50270940304540a733656f0d60405160405180910390a46001915050612d9c565b60009150505b92915050565b600033905090565b600080612db5612c65565b9050612dc18484612253565b15612ea057600081600001600086815260200190815260200160002060000160008573ffffffffffffffffffffffffffffffffffffffff1673ffffffffffffffffffffffffffffffffffffffff16815260200190815260200160002060006101000a81548160ff021916908315150217905550612e3c612da2565b73ffffffffffffffffffffffffffffffffffffffff168373ffffffffffffffffffffffffffffffffffffffff16857ff6391f5c32d9c69d2a47ea670b442974b53935d1edc7fd64eb21e047a839171b60405160405180910390a46001915050612ea6565b60009150505b92915050565b612eb4612da2565b73ffffffffffffffffffffffffffffffffffffffff16612ed261221b565b73ffffffffffffffffffffffffffffffffffffffff1614612f3157612ef5612da2565b6040517f118cdaa7000000000000000000000000000000000000000000000000000000008152600401612f289190613cd2565b60405180910390fd5b565b6000612f3d613062565b905060008160000160009054906101000a900473ffffffffffffffffffffffffffffffffffffffff169050828260000160006101000a81548173ffffffffffffffffffffffffffffffffffffffff021916908373ffffffffffffffffffffffffffffffffffffffff1602179055508273ffffffffffffffffffffffffffffffffffffffff168173ffffffffffffffffffffffffffffffffffffffff167f8be0079c531659141344cd1fd0a4f28419497f9722a3daafe3b4186f6b6457e060405160405180910390a3505050565b60007ff0c57e16840df040f15088dc2f81fe391c3923bec73e23a9662efc9c229c6a00905090565b61303a6130db565b565b6130446130db565b61304c61311b565b565b6130566130db565b61305f8161313c565b50565b60007f9016d09d72d40fdae2fd8ceac6b6234c7706214fd39c1cd1e609a0528c199300905090565b6130948282612253565b6130d75780826040517fe2517d3f0000000000000000000000000000000000000000000000000000000081526004016130ce929190614b87565b60405180910390fd5b5050565b6130e36131c2565b613119576040517fd7e6bcf800000000000000000000000000000000000000000000000000000000815260040160405180910390fd5b565b6131236130db565b600061312d6131e2565b90506001816000018190555050565b6131446130db565b600073ffffffffffffffffffffffffffffffffffffffff168173ffffffffffffffffffffffffffffffffffffffff16036131b65760006040517f1e4fbdf70000000000000000000000000000000000000000000000000000000081526004016131ad9190613cd2565b60405180910390fd5b6131bf81612f33565b50565b60006131cc61300a565b60000160089054906101000a900460ff16905090565b60007f9b779b17422d0df92223018b32b4d1fa46e071723d6817e2486d003becc55f00905090565b50805461321690613ed8565b6000825580601f106132285750613247565b601f016020900490600052602060002090810190613246919061329c565b5b50565b6040518060c0016040528060608152602001600073ffffffffffffffffffffffffffffffffffffffff168152602001606081526020016132886132b9565b815260200160608152602001606081525090565b5b808211156132b557600081600090555060010161329d565b5090565b604051806040016040528060608152602001606081525090565b600080fd5b600080fd5b60007fffffffff0000000000000000000000000000000000000000000000000000000082169050919050565b613312816132dd565b811461331d57600080fd5b50565b60008135905061332f81613309565b92915050565b60006020828403121561334b5761334a6132d3565b5b600061335984828501613320565b91505092915050565b60008115159050919050565b61337781613362565b82525050565b6000602082019050613392600083018461336e565b92915050565b6000819050919050565b6133ab81613398565b82525050565b60006020820190506133c660008301846133a2565b92915050565b600081519050919050565b600082825260208201905092915050565b6000819050602082019050919050565b600081519050919050565b600082825260208201905092915050565b60005b83811015613432578082015181840152602081019050613417565b60008484015250505050565b6000601f19601f8301169050919050565b600061345a826133f8565b6134648185613403565b9350613474818560208601613414565b61347d8161343e565b840191505092915050565b6000613494838361344f565b905092915050565b6000602082019050919050565b60006134b4826133cc565b6134be81856133d7565b9350836020820285016134d0856133e8565b8060005b8581101561350c57848403895281516134ed8582613488565b94506134f88361349c565b925060208a019950506001810190506134d4565b50829750879550505050505092915050565b6000602082019050818103600083015261353881846134a9565b905092915050565b600080fd5b600080fd5b600080fd5b60008083601f84011261356557613564613540565b5b8235905067ffffffffffffffff81111561358257613581613545565b5b60208301915083600182028301111561359e5761359d61354a565b5b9250929050565b600080600080604085870312156135bf576135be6132d3565b5b600085013567ffffffffffffffff8111156135dd576135dc6132d8565b5b6135e98782880161354f565b9450945050602085013567ffffffffffffffff81111561360c5761360b6132d8565b5b6136188782880161354f565b925092505092959194509250565b6000806020838503121561363d5761363c6132d3565b5b600083013567ffffffffffffffff81111561365b5761365a6132d8565b5b6136678582860161354f565b92509250509250929050565b600081519050919050565b600082825260208201905092915050565b6000819050602082019050919050565b600073ffffffffffffffffffffffffffffffffffffffff82169050919050565b60006136ca8261369f565b9050919050565b6136da816136bf565b82525050565b60006136ec83836136d1565b60208301905092915050565b6000602082019050919050565b600061371082613673565b61371a818561367e565b93506137258361368f565b8060005b8381101561375657815161373d88826136e0565b9750613748836136f8565b925050600181019050613729565b5085935050505092915050565b6000602082019050818103600083015261377d8184613705565b905092915050565b6000819050919050565b61379881613785565b81146137a357600080fd5b50565b6000813590506137b58161378f565b92915050565b6000602082840312156137d1576137d06132d3565b5b60006137df848285016137a6565b91505092915050565b6137f181613785565b82525050565b600060208201905061380c60008301846137e8565b92915050565b61381b816136bf565b811461382657600080fd5b50565b60008135905061383881613812565b92915050565b60008060408385031215613855576138546132d3565b5b6000613863858286016137a6565b925050602061387485828601613829565b9150509250929050565b61388781613398565b811461389257600080fd5b50565b6000813590506138a48161387e565b92915050565b6000806000604084860312156138c3576138c26132d3565b5b600084013567ffffffffffffffff8111156138e1576138e06132d8565b5b6138ed8682870161354f565b9350935050602061390086828701613895565b9150509250925092565b600081519050919050565b600082825260208201905092915050565b6000819050602082019050919050565b60006040830160008301518482036000860152613953828261344f565b9150506020830151848203602086015261396d828261344f565b9150508091505092915050565b600082825260208201905092915050565b600061399682613673565b6139a0818561397a565b93506139ab8361368f565b8060005b838110156139dc5781516139c388826136e0565b97506139ce836136f8565b9250506001810190506139af565b5085935050505092915050565b600060c0830160008301518482036000860152613a06828261344f565b9150506020830151613a1b60208601826136d1565b5060408301518482036040860152613a33828261344f565b91505060608301518482036060860152613a4d8282613936565b91505060808301518482036080860152613a67828261344f565b91505060a083015184820360a0860152613a81828261398b565b9150508091505092915050565b6000613a9a83836139e9565b905092915050565b6000602082019050919050565b6000613aba8261390a565b613ac48185613915565b935083602082028501613ad685613926565b8060005b85811015613b125784840389528151613af38582613a8e565b9450613afe83613aa2565b925060208a01995050600181019050613ada565b50829750879550505050505092915050565b60006020820190508181036000830152613b3e8184613aaf565b905092915050565b600060208284031215613b5c57613b5b6132d3565b5b6000613b6a84828501613829565b91505092915050565b600080fd5b600060408284031215613b8e57613b8d613b73565b5b81905092915050565b60008060008060008060008060008060c08b8d031215613bba57613bb96132d3565b5b60008b013567ffffffffffffffff811115613bd857613bd76132d8565b5b613be48d828e0161354f565b9a509a505060208b013567ffffffffffffffff811115613c0757613c066132d8565b5b613c138d828e0161354f565b985098505060408b013567ffffffffffffffff811115613c3657613c356132d8565b5b613c428d828e0161354f565b96509650506060613c558d828e01613829565b94505060808b013567ffffffffffffffff811115613c7657613c756132d8565b5b613c828d828e0161354f565b935093505060a08b013567ffffffffffffffff811115613ca557613ca46132d8565b5b613cb18d828e01613b78565b9150509295989b9194979a5092959850565b613ccc816136bf565b82525050565b6000602082019050613ce76000830184613cc3565b92915050565b600060c0830160008301518482036000860152613d0a828261344f565b9150506020830151613d1f60208601826136d1565b5060408301518482036040860152613d37828261344f565b91505060608301518482036060860152613d518282613936565b91505060808301518482036080860152613d6b828261344f565b91505060a083015184820360a0860152613d85828261398b565b9150508091505092915050565b60006020820190508181036000830152613dac8184613ced565b905092915050565b600080600080600060608688031215613dd057613dcf6132d3565b5b600086013567ffffffffffffffff811115613dee57613ded6132d8565b5b613dfa8882890161354f565b9550955050602086013567ffffffffffffffff811115613e1d57613e1c6132d8565b5b613e298882890161354f565b93509350506040613e3c88828901613829565b9150509295509295909350565b600080600060408486031215613e6257613e616132d3565b5b600084013567ffffffffffffffff811115613e8057613e7f6132d8565b5b613e8c8682870161354f565b93509350506020613e9f86828701613829565b9150509250925092565b7f4e487b7100000000000000000000000000000000000000000000000000000000600052602260045260246000fd5b60006002820490506001821680613ef057607f821691505b602082108103613f0357613f02613ea9565b5b50919050565b600081905092915050565b82818337600083830152505050565b6000613f2f8385613f09565b9350613f3c838584613f14565b82840190509392505050565b6000613f55828486613f23565b91508190509392505050565b7f4e487b7100000000000000000000000000000000000000000000000000000000600052604160045260246000fd5b7f4e487b7100000000000000000000000000000000000000000000000000000000600052603260045260246000fd5b7f4e487b7100000000000000000000000000000000000000000000000000000000600052601160045260246000fd5b6000613ff982613398565b91507fffffffffffffffffffffffffffffffffffffffffffffffffffffffffffffffff820361402b5761402a613fbf565b5b600182019050919050565b600082825260208201905092915050565b7f50726f706f73657220736574206e6f7420696e697469616c697a656400000000600082015250565b600061407d601c83614036565b915061408882614047565b602082019050919050565b600060208201905081810360008301526140ac81614070565b9050919050565b7f4e6f7420726567697374657265642073657175656e6365720000000000000000600082015250565b60006140e9601883614036565b91506140f4826140b3565b602082019050919050565b60006020820190508181036000830152614118816140dc565b9050919050565b600061412a82613398565b91506000820361413d5761413c613fbf565b5b600182039050919050565b600081905092915050565b600061415f8385614148565b935061416c838584613f14565b82840190509392505050565b6000614185828486614153565b91508190509392505050565b60008190508160005260206000209050919050565b600081546141b381613ed8565b6141bd8186614148565b945060018216600081146141d857600181146141ed57614220565b60ff1983168652811515820286019350614220565b6141f685614191565b60005b83811015614218578154818901526001820191506020810190506141f9565b838801955050505b50505092915050565b600061423582846141a6565b915081905092915050565b600061424b82613398565b915061425683613398565b925082820390508181111561426e5761426d613fbf565b5b92915050565b60008154905061428381613ed8565b9050919050565b60008190508160005260206000209050919050565b60008190508160005260206000209050919050565b60006020601f8301049050919050565b600082821b905092915050565b6000600883026143017fffffffffffffffffffffffffffffffffffffffffffffffffffffffffffffffff826142c4565b61430b86836142c4565b95508019841693508086168417925050509392505050565b6000819050919050565b600061434861434361433e84613398565b614323565b613398565b9050919050565b6000819050919050565b6143628361432d565b61437661436e8261434f565b8484546142d1565b825550505050565b600090565b61438b61437e565b614396818484614359565b505050565b5b818110156143ba576143af600082614383565b60018101905061439c565b5050565b601f8211156143ff576143d08161428a565b6143d9846142b4565b810160208510156143e8578190505b6143fc6143f4856142b4565b83018261439b565b50505b505050565b600082821c905092915050565b600061442260001984600802614404565b1980831691505092915050565b600061443b8383614411565b9150826002028217905092915050565b818103614459575050614531565b61446282614274565b67ffffffffffffffff81111561447b5761447a613f61565b5b6144858254613ed8565b6144908282856143be565b6000601f8311600181146144bf57600084156144ad578287015490505b6144b7858261442f565b86555061452a565b601f1984166144cd8761429f565b96506144d88661428a565b60005b82811015614500578489015482556001820191506001850194506020810190506144db565b8683101561451d5784890154614519601f891682614411565b8355505b6001600288020188555050505b5050505050505b565b7f4e487b7100000000000000000000000000000000000000000000000000000000600052603160045260246000fd5b600061456e8385614036565b935061457b838584613f14565b6145848361343e565b840190509392505050565b600060408201905081810360008301526145aa818587614562565b90506145b96020830184613cc3565b949350505050565b7f416c726561647920696e697469616c697a656420636c75737465720000000000600082015250565b60006145f7601b83614036565b9150614602826145c1565b602082019050919050565b60006020820190508181036000830152614626816145ea565b9050919050565b600082905092915050565b614642838361462d565b67ffffffffffffffff81111561465b5761465a613f61565b5b6146658254613ed8565b6146708282856143be565b6000601f83116001811461469f576000841561468d578287013590505b614697858261442f565b8655506146ff565b601f1984166146ad8661428a565b60005b828110156146d5578489013582556001820191506020850194506020810190506146b0565b868310156146f257848901356146ee601f891682614411565b8355505b6001600288020188555050505b50505050505050565b6000815461471581613ed8565b61471f8186613f09565b9450600182166000811461473a576001811461474f57614782565b60ff1983168652811515820286019350614782565b6147588561428a565b60005b8381101561477a5781548189015260018201915060208101905061475b565b838801955050505b50505092915050565b60006147978284614708565b915081905092915050565b6000819050919050565b600067ffffffffffffffff82169050919050565b60006147db6147d66147d1846147a2565b614323565b6147ac565b9050919050565b6147eb816147c0565b82525050565b600060208201905061480660008301846147e2565b92915050565b7f4e6f7420636c7573746572206f776e6572000000000000000000000000000000600082015250565b6000614842601183614036565b915061484d8261480c565b602082019050919050565b6000602082019050818103600083015261487181614835565b9050919050565b600080fd5b600080fd5b600080fd5b600080833560016020038436030381126148a4576148a3614878565b5b80840192508235915067ffffffffffffffff8211156148c6576148c561487d565b5b6020830192506001820236038313156148e2576148e1614882565b5b509250929050565b6148f5838383614638565b505050565b600081016000830161490c8185614887565b6149178183866148ea565b50505050600181016020830161492d8185614887565b6149388183866148ea565b505050505050565b61494a82826148fa565b5050565b60006060820190508181036000830152614969818789614562565b9050818103602083015261497e818587614562565b905061498d6040830184613cc3565b9695505050505050565b7f416c726561647920726567697374657265642073657175656e63657200000000600082015250565b60006149cd601c83614036565b91506149d882614997565b602082019050919050565b600060208201905081810360008301526149fc816149c0565b9050919050565b7f4d61782073657175656e63657220636f756e7420657863656564656400000000600082015250565b6000614a39601c83614036565b9150614a4482614a03565b602082019050919050565b60006020820190508181036000830152614a6881614a2c565b9050919050565b60006060820190508181036000830152614a8a818688614562565b9050614a996020830185613cc3565b614aa660408301846133a2565b95945050505050565b7f4e6f7420696e697469616c697a656420636c7573746572000000000000000000600082015250565b6000614ae5601783614036565b9150614af082614aaf565b602082019050919050565b60006020820190508181036000830152614b1481614ad8565b9050919050565b7f4e6f7420726f6c6c7570206f776e657200000000000000000000000000000000600082015250565b6000614b51601083614036565b9150614b5c82614b1b565b602082019050919050565b60006020820190508181036000830152614b8081614b44565b9050919050565b6000604082019050614b9c6000830185613cc3565b614ba960208301846137e8565b939250505056fea264697066735822122097a7f2d61191a66eafcca04923806966a5c923aba8de8cf8f915b0cb70b30eff64736f6c63430008180033",
  "linkReferences": {},
  "deployedLinkReferences": {}
}