{
  "abi": [
    {
      "type": "constructor",
      "inputs": [],
      "stateMutability": "nonpayable"
    },
    {
      "type": "function",
      "name": "BLOCK_MARGIN",
      "inputs": [],
      "outputs": [
        {
          "name": "",
          "type": "uint256",
          "internalType": "uint256"
        }
      ],
      "stateMutability": "view"
    },
    {
      "type": "function",
      "name": "addRollup",
      "inputs": [
        {
          "name": "clusterId",
          "type": "string",
          "internalType": "string"
        },
        {
          "name": "newRollup",
          "type": "tuple",
          "internalType": "struct ILivenessRadius.NewRollup",
          "components": [
            {
              "name": "rollupId",
              "type": "string",
              "internalType": "string"
            },
            {
              "name": "owner",
              "type": "address",
              "internalType": "address"
            },
            {
              "name": "rollupType",
              "type": "string",
              "internalType": "string"
            },
            {
              "name": "encryptedTransactionType",
              "type": "string",
              "internalType": "string"
            },
            {
              "name": "orderCommitmentType",
              "type": "string",
              "internalType": "string"
            },
            {
              "name": "executor",
              "type": "address",
              "internalType": "address"
            },
            {
              "name": "validationInfo",
              "type": "tuple",
              "internalType": "struct ILivenessRadius.ValidationInfo",
              "components": [
                {
                  "name": "platform",
                  "type": "string",
                  "internalType": "string"
                },
                {
                  "name": "serviceProvider",
                  "type": "string",
                  "internalType": "string"
                },
                {
                  "name": "validationServiceManager",
                  "type": "address",
                  "internalType": "address"
                }
              ]
            }
          ]
        }
      ],
      "outputs": [],
      "stateMutability": "nonpayable"
    },
    {
      "type": "function",
      "name": "deregisterSequencer",
      "inputs": [
        {
          "name": "clusterId",
          "type": "string",
          "internalType": "string"
        }
      ],
      "outputs": [],
      "stateMutability": "nonpayable"
    },
    {
      "type": "function",
      "name": "getAllClusterIds",
      "inputs": [],
      "outputs": [
        {
          "name": "",
          "type": "string[]",
          "internalType": "string[]"
        }
      ],
      "stateMutability": "view"
    },
    {
      "type": "function",
      "name": "getClusterIdsByOwner",
      "inputs": [
        {
          "name": "owner",
          "type": "address",
          "internalType": "address"
        }
      ],
      "outputs": [
        {
          "name": "",
          "type": "string[]",
          "internalType": "string[]"
        }
      ],
      "stateMutability": "view"
    },
    {
      "type": "function",
      "name": "getClusterIdsBySequencer",
      "inputs": [
        {
          "name": "sequencer",
          "type": "address",
          "internalType": "address"
        }
      ],
      "outputs": [
        {
          "name": "",
          "type": "string[]",
          "internalType": "string[]"
        }
      ],
      "stateMutability": "view"
    },
    {
      "type": "function",
      "name": "getExecutors",
      "inputs": [
        {
          "name": "clusterId",
          "type": "string",
          "internalType": "string"
        },
        {
          "name": "rollupId",
          "type": "string",
          "internalType": "string"
        }
      ],
      "outputs": [
        {
          "name": "",
          "type": "address[]",
          "internalType": "address[]"
        }
      ],
      "stateMutability": "view"
    },
    {
      "type": "function",
      "name": "getMaxSequencerNumber",
      "inputs": [
        {
          "name": "clusterId",
          "type": "string",
          "internalType": "string"
        }
      ],
      "outputs": [
        {
          "name": "",
          "type": "uint256",
          "internalType": "uint256"
        }
      ],
      "stateMutability": "view"
    },
    {
      "type": "function",
      "name": "getRollup",
      "inputs": [
        {
          "name": "clusterId",
          "type": "string",
          "internalType": "string"
        },
        {
          "name": "rollupId",
          "type": "string",
          "internalType": "string"
        }
      ],
      "outputs": [
        {
          "name": "",
          "type": "tuple",
          "internalType": "struct ILivenessRadius.Rollup",
          "components": [
            {
              "name": "id",
              "type": "string",
              "internalType": "string"
            },
            {
              "name": "owner",
              "type": "address",
              "internalType": "address"
            },
            {
              "name": "rollupType",
              "type": "string",
              "internalType": "string"
            },
            {
              "name": "encryptedTransactionType",
              "type": "string",
              "internalType": "string"
            },
            {
              "name": "orderCommitmentType",
              "type": "string",
              "internalType": "string"
            },
            {
              "name": "executors",
              "type": "address[]",
              "internalType": "address[]"
            },
            {
              "name": "validationInfo",
              "type": "tuple",
              "internalType": "struct ILivenessRadius.ValidationInfo",
              "components": [
                {
                  "name": "platform",
                  "type": "string",
                  "internalType": "string"
                },
                {
                  "name": "serviceProvider",
                  "type": "string",
                  "internalType": "string"
                },
                {
                  "name": "validationServiceManager",
                  "type": "address",
                  "internalType": "address"
                }
              ]
            }
          ]
        }
      ],
      "stateMutability": "view"
    },
    {
      "type": "function",
      "name": "getRollups",
      "inputs": [
        {
          "name": "clusterId",
          "type": "string",
          "internalType": "string"
        }
      ],
      "outputs": [
        {
          "name": "",
          "type": "tuple[]",
          "internalType": "struct ILivenessRadius.Rollup[]",
          "components": [
            {
              "name": "id",
              "type": "string",
              "internalType": "string"
            },
            {
              "name": "owner",
              "type": "address",
              "internalType": "address"
            },
            {
              "name": "rollupType",
              "type": "string",
              "internalType": "string"
            },
            {
              "name": "encryptedTransactionType",
              "type": "string",
              "internalType": "string"
            },
            {
              "name": "orderCommitmentType",
              "type": "string",
              "internalType": "string"
            },
            {
              "name": "executors",
              "type": "address[]",
              "internalType": "address[]"
            },
            {
              "name": "validationInfo",
              "type": "tuple",
              "internalType": "struct ILivenessRadius.ValidationInfo",
              "components": [
                {
                  "name": "platform",
                  "type": "string",
                  "internalType": "string"
                },
                {
                  "name": "serviceProvider",
                  "type": "string",
                  "internalType": "string"
                },
                {
                  "name": "validationServiceManager",
                  "type": "address",
                  "internalType": "address"
                }
              ]
            }
          ]
        }
      ],
      "stateMutability": "view"
    },
    {
      "type": "function",
      "name": "getSequencers",
      "inputs": [
        {
          "name": "clusterId",
          "type": "string",
          "internalType": "string"
        }
      ],
      "outputs": [
        {
          "name": "",
          "type": "address[]",
          "internalType": "address[]"
        }
      ],
      "stateMutability": "view"
    },
    {
      "type": "function",
      "name": "initializeCluster",
      "inputs": [
        {
          "name": "clusterId",
          "type": "string",
          "internalType": "string"
        },
        {
          "name": "maxSequencerNumber",
          "type": "uint256",
          "internalType": "uint256"
        }
      ],
      "outputs": [],
      "stateMutability": "nonpayable"
    },
    {
      "type": "function",
      "name": "isExecutorRegistered",
      "inputs": [
        {
          "name": "",
          "type": "string",
          "internalType": "string"
        },
        {
          "name": "",
          "type": "string",
          "internalType": "string"
        },
        {
          "name": "",
          "type": "address",
          "internalType": "address"
        }
      ],
      "outputs": [
        {
          "name": "",
          "type": "bool",
          "internalType": "bool"
        }
      ],
      "stateMutability": "view"
    },
    {
      "type": "function",
      "name": "isRollupAdded",
      "inputs": [
        {
          "name": "clusterId",
          "type": "string",
          "internalType": "string"
        },
        {
          "name": "rollupId",
          "type": "string",
          "internalType": "string"
        }
      ],
      "outputs": [
        {
          "name": "",
          "type": "bool",
          "internalType": "bool"
        }
      ],
      "stateMutability": "view"
    },
    {
      "type": "function",
      "name": "isRollupExecutorRegistered",
      "inputs": [
        {
          "name": "clusterId",
          "type": "string",
          "internalType": "string"
        },
        {
          "name": "rollupId",
          "type": "string",
          "internalType": "string"
        },
        {
          "name": "executor",
          "type": "address",
          "internalType": "address"
        }
      ],
      "outputs": [
        {
          "name": "",
          "type": "bool",
          "internalType": "bool"
        }
      ],
      "stateMutability": "view"
    },
    {
      "type": "function",
      "name": "isSequencerRegistered",
      "inputs": [
        {
          "name": "",
          "type": "string",
          "internalType": "string"
        },
        {
          "name": "",
          "type": "address",
          "internalType": "address"
        }
      ],
      "outputs": [
        {
          "name": "",
          "type": "bool",
          "internalType": "bool"
        }
      ],
      "stateMutability": "view"
    },
    {
      "type": "function",
      "name": "owner",
      "inputs": [],
      "outputs": [
        {
          "name": "",
          "type": "address",
          "internalType": "address"
        }
      ],
      "stateMutability": "view"
    },
    {
      "type": "function",
      "name": "registerRollupExecutor",
      "inputs": [
        {
          "name": "clusterId",
          "type": "string",
          "internalType": "string"
        },
        {
          "name": "rollupId",
          "type": "string",
          "internalType": "string"
        },
        {
          "name": "executor",
          "type": "address",
          "internalType": "address"
        }
      ],
      "outputs": [],
      "stateMutability": "nonpayable"
    },
    {
      "type": "function",
      "name": "registerSequencer",
      "inputs": [
        {
          "name": "clusterId",
          "type": "string",
          "internalType": "string"
        }
      ],
      "outputs": [],
      "stateMutability": "nonpayable"
    },
    {
      "type": "function",
      "name": "renounceOwnership",
      "inputs": [],
      "outputs": [],
      "stateMutability": "nonpayable"
    },
    {
      "type": "function",
      "name": "rollups",
      "inputs": [
        {
          "name": "",
          "type": "string",
          "internalType": "string"
        },
        {
          "name": "",
          "type": "string",
          "internalType": "string"
        }
      ],
      "outputs": [
        {
          "name": "id",
          "type": "string",
          "internalType": "string"
        },
        {
          "name": "owner",
          "type": "address",
          "internalType": "address"
        },
        {
          "name": "rollupType",
          "type": "string",
          "internalType": "string"
        },
        {
          "name": "encryptedTransactionType",
          "type": "string",
          "internalType": "string"
        },
        {
          "name": "orderCommitmentType",
          "type": "string",
          "internalType": "string"
        },
        {
          "name": "validationInfo",
          "type": "tuple",
          "internalType": "struct ILivenessRadius.ValidationInfo",
          "components": [
            {
              "name": "platform",
              "type": "string",
              "internalType": "string"
            },
            {
              "name": "serviceProvider",
              "type": "string",
              "internalType": "string"
            },
            {
              "name": "validationServiceManager",
              "type": "address",
              "internalType": "address"
            }
          ]
        }
      ],
      "stateMutability": "view"
    },
    {
      "type": "function",
      "name": "transferOwnership",
      "inputs": [
        {
          "name": "newOwner",
          "type": "address",
          "internalType": "address"
        }
      ],
      "outputs": [],
      "stateMutability": "nonpayable"
    },
    {
      "type": "event",
      "name": "AddedRollup",
      "inputs": [
        {
          "name": "clusterId",
          "type": "string",
          "indexed": false,
          "internalType": "string"
        },
        {
          "name": "rollupId",
          "type": "string",
          "indexed": false,
          "internalType": "string"
        },
        {
          "name": "rollupOwner",
          "type": "address",
          "indexed": false,
          "internalType": "address"
        }
      ],
      "anonymous": false
    },
    {
      "type": "event",
      "name": "DeregisteredSequencer",
      "inputs": [
        {
          "name": "clusterId",
          "type": "string",
          "indexed": false,
          "internalType": "string"
        },
        {
          "name": "sequencer",
          "type": "address",
          "indexed": false,
          "internalType": "address"
        }
      ],
      "anonymous": false
    },
    {
      "type": "event",
      "name": "InitializedCluster",
      "inputs": [
        {
          "name": "clusterId",
          "type": "string",
          "indexed": false,
          "internalType": "string"
        },
        {
          "name": "owner",
          "type": "address",
          "indexed": false,
          "internalType": "address"
        },
        {
          "name": "maxSequencerNumber",
          "type": "uint256",
          "indexed": false,
          "internalType": "uint256"
        }
      ],
      "anonymous": false
    },
    {
      "type": "event",
      "name": "OwnershipTransferred",
      "inputs": [
        {
          "name": "previousOwner",
          "type": "address",
          "indexed": true,
          "internalType": "address"
        },
        {
          "name": "newOwner",
          "type": "address",
          "indexed": true,
          "internalType": "address"
        }
      ],
      "anonymous": false
    },
    {
      "type": "event",
      "name": "RegisteredRollupExecutor",
      "inputs": [
        {
          "name": "clusterId",
          "type": "string",
          "indexed": false,
          "internalType": "string"
        },
        {
          "name": "rollupId",
          "type": "string",
          "indexed": false,
          "internalType": "string"
        },
        {
          "name": "executor",
          "type": "address",
          "indexed": false,
          "internalType": "address"
        }
      ],
      "anonymous": false
    },
    {
      "type": "event",
      "name": "RegisteredSequencer",
      "inputs": [
        {
          "name": "clusterId",
          "type": "string",
          "indexed": false,
          "internalType": "string"
        },
        {
          "name": "sequencer",
          "type": "address",
          "indexed": false,
          "internalType": "address"
        },
        {
          "name": "index",
          "type": "uint256",
          "indexed": false,
          "internalType": "uint256"
        }
      ],
      "anonymous": false
    },
    {
      "type": "error",
      "name": "AlreadyAddedRollup",
      "inputs": []
    },
    {
      "type": "error",
      "name": "AlreadyInitializedCluster",
      "inputs": []
    },
    {
      "type": "error",
      "name": "AlreadyRegisteredExecutor",
      "inputs": []
    },
    {
      "type": "error",
      "name": "AlreadyRegisteredSequencer",
      "inputs": []
    },
    {
      "type": "error",
      "name": "ExceededMaxSequencerNumber",
      "inputs": []
    },
    {
      "type": "error",
      "name": "NotAddedRollup",
      "inputs": []
    },
    {
      "type": "error",
      "name": "NotClusterOwner",
      "inputs": []
    },
    {
      "type": "error",
      "name": "NotInitializedCluster",
      "inputs": []
    },
    {
      "type": "error",
      "name": "NotRegisteredSequencer",
      "inputs": []
    },
    {
      "type": "error",
      "name": "NotRollupOwner",
      "inputs": []
    },
    {
      "type": "error",
      "name": "OwnableInvalidOwner",
      "inputs": [
        {
          "name": "owner",
          "type": "address",
          "internalType": "address"
        }
      ]
    },
    {
      "type": "error",
      "name": "OwnableUnauthorizedAccount",
      "inputs": [
        {
          "name": "account",
          "type": "address",
          "internalType": "address"
        }
      ]
    }
  ],
  "bytecode": {
    "object": "0x60808060405234607857331560625760008054336001600160a01b03198216811783556040519290916001600160a01b0316907f8be0079c531659141344cd1fd0a4f28419497f9722a3daafe3b4186f6b6457e09080a361212b908161007e8239f35b631e4fbdf760e01b815260006004820152602490fd5b600080fdfe6080604081815260048036101561001557600080fd5b600092833560e01c908162a5e42c1461132357508063071c55ac1461130757806309d47feb1461127957806315a45bdb146111e95780632432fdfc14610ec85780633edb0dbf14610d1457806354fbb8bc14610cc0578063715018a614610c665780637d25364e14610bc25780637e1c1f3b14610a79578063800522cc14610a27578063814169ed146109aa5780638a4abab81461096e5780638da5cb5b14610946578063a7b15420146107f4578063b061e361146107ab578063baba5fac146106f9578063d4ee4033146105b2578063d7890c0414610321578063d874f88d14610289578063eaa53c731461019d5763f2fde38b1461011457600080fd5b346101995760203660031901126101995761012d611644565b906101366120c9565b6001600160a01b0391821692831561018357505082546001600160a01b0319811683178455167f8be0079c531659141344cd1fd0a4f28419497f9722a3daafe3b4186f6b6457e08380a380f35b51631e4fbdf760e01b8152908101849052602490fd5b8280fd5b509190346102855760203660031901126102855782356001600160401b038111610199576101ce90369085016114c4565b825194918190863784019360208160019660018152030190209060018060a01b03806001840154161561027657849160039061020d6003860154612051565b9694018054945b85811061022c578651806102288a82611977565b0390f35b80846102398b9385611a40565b905490861b1c1661024b575b01610214565b846102568285611a40565b905490861b1c1661027061026988611e4c565b978b611a6e565b52610245565b508251630f3a9b7b60e41b8152fd5b5080fd5b82843461031e57602080600319360112610285576001600160a01b036102ad611644565b16825260036020528282208054916102c4836119d5565b936102d18651958661170a565b83855291825260208083209085015b8484106102f457865180610228888261165a565b600183819289516103108161030981896117ec565b038261170a565b8152019201930192906102e0565b80fd5b5090346101995760031981813601126105ae576001600160401b039280358481116105aa5761035390369083016114c4565b9390926024359586116105a6578583019560e0813603928301126105a25782518686823760208188810160018152030190209060018060a01b0397886001840154163303610592576103c28551898982376020818b810160058152030190206103bc8380612083565b906119bc565b9560018701938a855416610583576103da8380612083565b9091600501916103e992611dd8565b6103f38280612083565b6103fd9189611cd2565b60248301938a61040c866120b5565b16906bffffffffffffffffffffffff60a01b9182825416179055604484016104349084612083565b6104419160028b01611cd2565b61044e6064850184612083565b61045b9160038b01611cd2565b6104686084850184612083565b610474918a8501611cd2565b60a48401610481816120b5565b61048e9060058b01611d97565b8b88518c8c8237808d8101600781520360200190206104ad8680612083565b6104b792916119bc565b916104c1906120b5565b168d52602052868c2060ff19815416600117905560c4840135956062190186121561057f577f18db6fcfea280ecb727a03f5ca204ed1ca6d0eec29ff482ec55182f5282da9b99a610558604460086105799b61055061054661056e9c6105669b0198890161053c6105328280612083565b9060068701611cd2565b60248a0190612083565b9060078401611cd2565b0194016120b5565b169082541617905580612083565b9290916120b5565b925195869586612016565b0390a180f35b8b80fd5b50855163345c2d8960e01b8152fd5b84516304b016c960e41b81528690fd5b8780fd5b8680fd5b8580fd5b8380fd5b50919034610285576105c33661192d565b84969396519280888537600184820181815285900360200190942084015493976001600160a01b03948516156106e957906020610614949392828951938492833781016005815203019020916119bc565b9181600184015416156106db575083600581930194868654945b8581106106ab57505061064090612051565b94815b848110610657578551806102288982611977565b8084806106658b9486611a40565b919054600392831b1c1661067c575b505001610643565b9082959161068d6106a39487611a40565b9054911b1c1661069d828b611a6e565b52611e4c565b928438610674565b846106b6828a611a40565b90549060031b1c166106cb575b01879061062e565b916106d590611e4c565b916106c3565b83516388be050b60e01b8152fd5b8651630f3a9b7b60e41b81528690fd5b50913461031e575061070a3661192d565b90916107179593956119ec565b5084519581818837818701600181526001886020828060a01b039a8b94030190200154161561079b57906020610761949392828851938492833781016005815203019020916119bc565b926001840154161561078d575061077a61022892611a82565b905191829160208352602083019061157c565b90516388be050b60e01b8152fd5b8551630f3a9b7b60e41b81528590fd5b505034610285576020906107e860016107c33661192d565b9091808796949651968737850194600586528781868060a01b039703019020916119bc565b01541615159051908152f35b5082903461028557610805366118cf565b969092948151868682376001878201818152829003602090810190922001546001600160a01b03908116156109365761085184518989823783818b8101600581520301902087876119bc565b928160018501541680156109275733036109195761088285518a8a823784818c8101600781520301902088886119bc565b918b1691828b52835260ff858b20541661090b57508960058a9b96947fdf35285e4361ea929c1956ad37fc70f50091a8eabedc44affbf4c6a3fb26624e9b85610901956108ea8e8b998f6105799f9d8390519384928337810160078152030190208b8b6119bc565b925252848d20805460ff1916600117905501611d97565b5195869586612016565b8451633992362960e21b8152fd5b845163720bba3360e11b8152fd5b5084516388be050b60e01b8152fd5b8351630f3a9b7b60e41b81528390fd5b505034610285578160031936011261028557905490516001600160a01b039091168152602090f35b8382346102855760203660031901126102855780356001600160401b038111610199576109a7916109a1913691016114c4565b90611e71565b80f35b50346101995781600319360112610199578035906001600160401b0382116105ae576109d891369101611771565b6024356001600160a01b03811691908290036105ae5760209360ff92610a0c868694818651938285809451938492016114f6565b81016006815203019020908252855220541690519015158152f35b5050346102855760ff8160209384610a5e610a41366118cf565b9590929193828951938492833781016007815203019020916119bc565b6001600160a01b039091168252855220549151911615158152f35b50823461031e578260031936011261031e576001600160401b03823581811161019957610aa99036908501611771565b9160243591821161031e575092610bb4610b13610ba6610afe61022895610aee6020610adb610b869b36908c01611771565b92818951938285809451938492016114f6565b810160058152030190209061178c565b95610b98855197610b1a89610b1381846117ec565b038a61170a565b60018060a01b0360018201541690610b726006895192610b4884610b4181600285016117ec565b038561170a565b610b6c8b5197610b5f89610b1381600387016117ec565b8c519a8b809285016117ec565b01611882565b9780519b8c9b60c08d5260c08d0190611519565b9260208c01528a8303908b0152611519565b908782036060890152611519565b908582036080870152611519565b9083820360a085015261153e565b5034610199576060366003190112610199576001600160401b038135818111610c6257610bf29036908401611771565b91602435918211610c6257610c0991369101611771565b6044356001600160a01b0381169290839003610c62579360ff92610c518593610c4160208099818851938285809451938492016114f6565b810160078152030190209061178c565b908252855220541690519015158152f35b8480fd5b833461031e578060031936011261031e57610c7f6120c9565b80546001600160a01b03198116825581906001600160a01b03167f8be0079c531659141344cd1fd0a4f28419497f9722a3daafe3b4186f6b6457e08280a380f35b50913461031e57602036600319011261031e578235906001600160401b03821161031e57506020610cf781946002933691016114c4565b919082855193849283378101600181520301902001549051908152f35b5091903461028557806003193601126102855782356001600160401b03811161019957610d4490369085016114c4565b909160249060243591815190848683376001828601818152839003602001909220808301805491926001600160a01b03929091908316610eb857610d8b888a869496611cd2565b80546001600160a01b031916331790556002810186905560038082018a9055908a01895b878110610e76575050505050503385526002602052610dd18385838820611dd8565b8554600160401b811015610e635760018101808855811015610e505790610e4484866105799594899a7f4066deb65dfc09986782df9c2d6c361127e5762c5109c37572155956967496709a527f8a35acfbc15ff81a39ae7d344fd709f28e8600b4aa8c65c6b64bfe7fe36bd19b01611cd2565b51938493339185611e1e565b634e487b7160e01b865260328752602486fd5b634e487b7160e01b865260418752602486fd5b8154600160401b811015610ea65790610e958288809401855584611a40565b86825491871b1b1916905501610daf565b634e487b7160e01b8c5260418d52858cfd5b8551631771fe6b60e01b81528b90fd5b5091903461028557602090816003193601126101995783356001600160401b0381116105ae57610efb90369086016114c4565b9290948251908487833760018286018181528390038401909220808301546001600160a01b03908116156111d9578551878a823785818981016006815203019020338952855260ff8689205416156111c957839082840189835b611172575b505050506003908551878a823785818981016006815203019020338952855285882060ff19815416905501805490811561115f576000199182019055338752600384528487209087845b610fee575b887f9f02e3e1fa91a7f2c78ccfe8397a411540edbf4303c97aae8b5ebd13bc53c9a2898989610fe28f8351948486958652850191611cb1565b9033908301520390a180f35b825480821015611159576103096110146110088487611a40565b508a51928380926117ec565b805190880120611025368b8e61172b565b888151910120146110395750840184610fa4565b82819b96959b019081116111465761105461105c9185611a40565b509184611a40565b611134579061106a91611bcd565b8154801561112157019161107e8383611a40565b61110f5788995097610fe294939291896110b97f9f02e3e1fa91a7f2c78ccfe8397a411540edbf4303c97aae8b5ebd13bc53c9a29b546117b2565b806110ce575b50505050559594388080610fa9565b83601f938483116001146110ec575050509050555b883880806110bf565b839294829461110893528b8520950160051c8501908501611b6f565b55556110e3565b634e487b7160e01b8952888a52602489fd5b634e487b7160e01b895260318a52602489fd5b634e487b7160e01b8a52898b5260248afd5b634e487b7160e01b8a5260118b5260248afd5b50610fa9565b634e487b7160e01b885260118352602488fd5b81548110156111c4576111858183611a40565b9054600391821b1c8416331461119e5750830183610f55565b916003959450906111ae91611a40565b81939154921b1b19169055905082388080610f5a565b610f5a565b855163e2b5f7bf60e01b81528390fd5b8551630f3a9b7b60e41b81528390fd5b50823461031e578060031936011261031e5790805490611208826119d5565b926112158551948561170a565b82845290815260207f8a35acfbc15ff81a39ae7d344fd709f28e8600b4aa8c65c6b64bfe7fe36bd19b8185015b84841061125657865180610228888261165a565b6001838192895161126b8161030981896117ec565b815201920193019290611242565b82843461031e57602080600319360112610285576001600160a01b0361129d611644565b16825260026020528282208054916112b4836119d5565b936112c18651958661170a565b83855291825260208083209085015b8484106112e457865180610228888261165a565b600183819289516112f98161030981896117ec565b8152019201930192906112d0565b5050346102855781600319360112610285576020905160078152f35b9390503461031e576020806003193601126102855782356001600160401b0381116101995761135590369085016114c4565b8082889693963760018782018181528890038401909720808801549092906001600160a01b0316156114b6575060058097959796939692019687549261139a846119d5565b986113a786519a8b61170a565b848a526113b3856119d5565b601f1901875b818110611495575050865b85811061142b5750505050505080519380850191818652865180935281818701918460051b880101970193905b8382106113fe5786880387f35b9091929394838061141a839a603f198b8203018652895161157c565b9997019594939190910191016113f1565b9799959895978a9061147361146e6103096114568e61144a8689611a40565b509051928380926117ec565b8d51898982378b818b81018a8152030190209061178c565b611a82565b61147d828c611a6e565b52611488818b611a6e565b50019997999895986113c4565b9980979a6114a49c9a9c6119ec565b82828d010152019a989a9996996113b9565b8651630f3a9b7b60e41b8152fd5b9181601f840112156114f1578235916001600160401b0383116114f157602083818601950101116114f157565b600080fd5b60005b8381106115095750506000910152565b81810151838201526020016114f9565b90602091611532815180928185528580860191016114f6565b601f01601f1916010190565b9060406115696115578451606085526060850190611519565b60208501518482036020860152611519565b928101516001600160a01b031691015290565b9190611591835160e0835260e0830190611519565b906020916115e76115d56115c3858801519360018060a01b038095168787015260408901518682036040880152611519565b60608801518582036060870152611519565b60808701518482036080860152611519565b60a08601519383820360a08501528080865193848152019501926000905b83821061162b57505050505060c0611628939401519060c081840391015261153e565b90565b8451811687529582019593820193600190910190611605565b600435906001600160a01b03821682036114f157565b6020808201906020835283518092526040830192602060408460051b8301019501936000915b8483106116905750505050505090565b90919293949584806116ae600193603f198682030187528a51611519565b9801930193019194939290611680565b606081019081106001600160401b038211176116d957604052565b634e487b7160e01b600052604160045260246000fd5b60e081019081106001600160401b038211176116d957604052565b90601f801991011681019081106001600160401b038211176116d957604052565b9291926001600160401b0382116116d95760405191611754601f8201601f19166020018461170a565b8294818452818301116114f1578281602093846000960137010152565b9080601f830112156114f1578160206116289335910161172b565b6020906117a69282604051948386809551938492016114f6565b82019081520301902090565b90600182811c921680156117e2575b60208310146117cc57565b634e487b7160e01b600052602260045260246000fd5b91607f16916117c1565b8054600093926117fb826117b2565b918282526020936001916001811690816000146118635750600114611822575b5050505050565b90939495506000929192528360002092846000945b83861061184f5750505050010190388080808061181b565b805485870183015294019385908201611837565b60ff19168685015250505090151560051b01019150388080808061181b565b9060405161188f816116be565b6040819381516118a38161030981856117ec565b835281516118b88161030981600186016117ec565b6020840152600201546001600160a01b0316910152565b60606003198201126114f1576001600160401b03916004358381116114f157826118fb916004016114c4565b939093926024359182116114f157611915916004016114c4565b90916044356001600160a01b03811681036114f15790565b60406003198201126114f1576001600160401b03916004358381116114f15782611959916004016114c4565b939093926024359182116114f157611973916004016114c4565b9091565b602090602060408183019282815285518094520193019160005b82811061199f575050505090565b83516001600160a01b031685529381019392810192600101611991565b6020919283604051948593843782019081520301902090565b6001600160401b0381116116d95760051b60200190565b604051906119f9826116ef565b8160c06060918281526000602082015282604082015282808201528260808201528260a082015260405192611a2d846116be565b8084526020840152600060408401520152565b8054821015611a585760005260206000200190600090565b634e487b7160e01b600052603260045260246000fd5b8051821015611a585760209160051b010190565b90604091825190611a92826116ef565b81938051611aa48161030981866117ec565b835260018060a01b03906001826001850154169060209160208701528251611ad3816103098160028a016117ec565b838701528251611aea816103098160038a016117ec565b60608701528251611b02816103098160048a016117ec565b60808701526005850192518094602085549283815201946000526020600020936000915b838310611b585750505050505060c09282611b48611b5394600694038261170a565b60a086015201611882565b910152565b855481168752958101959484019491840191611b26565b818110611b7a575050565b60008155600101611b6f565b9190601f8111611b9557505050565b611bc1926000526020600020906020601f840160051c83019310611bc3575b601f0160051c0190611b6f565b565b9091508190611bb4565b90808214611cad57611bdf81546117b2565b906001600160401b0382116116d957611c0282611bfc85546117b2565b85611b86565b600090601f8311600114611c4257611c33929160009183611c37575b50508160011b916000199060031b1c19161790565b9055565b015490503880611c1e565b815260208082208483528183209291601f1985169083905b828210611c94575050908460019594939210611c7b575b505050811b019055565b015460001960f88460031b161c19169055388080611c71565b8495819295850154815560018091019601940190611c5a565b5050565b908060209392818452848401376000828201840152601f01601f1916010190565b9092916001600160401b0381116116d957611cf781611cf184546117b2565b84611b86565b6000601f8211600114611d33578190611c33939495600092611d285750508160011b916000199060031b1c19161790565b013590503880611c1e565b601f19821694838252602091602081209281905b888210611d7f57505083600195969710611d6557505050811b019055565b0135600019600384901b60f8161c19169055388080611c71565b80600184968294958701358155019501920190611d47565b90815491600160401b8310156116d95782611dba916001611bc195018155611a40565b90919060018060a01b038084549260031b9316831b921b1916179055565b9190918054600160401b8110156116d957611df891600182018155611a40565b929092611e0857611bc192611cd2565b634e487b7160e01b600052600060045260246000fd5b90611e389060409396959496606084526060840191611cb1565b6001600160a01b0390951660208201520152565b6000198114611e5b5760010190565b634e487b7160e01b600052601160045260246000fd5b919060409182519382818637600185840181815286900360209081019096208082015490969194916001600160a01b03918216156120055786519083858337838201918181600694600681520301902092600093338552825260ff8985205416611ff45760039260038b0191825460028d01541115611fe35789906004879d01915b611f09575b8b516393af120360e01b8152600490fd5b819b9a9b548d1015611fdb5780611f208e84611a40565b905490881b1c1615611f39578b809d9c9b9c019c611ef3565b5094610e449487999c9794899b97947f9a016d457b2699d52da218844cc42a1e9179c2391017f80667b1d74939a548e09d8995611f9b611f7d8d611fd69f9a611a40565b81546001600160a01b0360039290921b91821b19163390911b179055565b83875180928b8b83378b82019081520301902033865283528585209060ff19825416179055611fca8154611e4c565b90553383525220611dd8565b0390a1565b8a9b50611ef8565b8a516393af120360e01b8152600490fd5b8851631eb7162560e11b8152600490fd5b8651630f3a9b7b60e41b8152600490fd5b936120336040949261204194989798606088526060880191611cb1565b918583036020870152611cb1565b6001600160a01b03909416910152565b9061205b826119d5565b612068604051918261170a565b8281528092612079601f19916119d5565b0190602036910137565b903590601e19813603018212156114f157018035906001600160401b0382116114f1576020019181360383136114f157565b356001600160a01b03811681036114f15790565b6000546001600160a01b031633036120dd57565b60405163118cdaa760e01b8152336004820152602490fdfea26469706673582212204e78f819ccf66d9bea58beb7b80d29100da82a68a06be20ff8e4f7bb8d7ce9b664736f6c63430008190033",
    "linkReferences": {}
  },
  "methodIdentifiers": {
    "BLOCK_MARGIN()": "071c55ac",
    "addRollup(string,(string,address,string,string,string,address,(string,string,address)))": "d7890c04",
    "deregisterSequencer(string)": "2432fdfc",
    "getAllClusterIds()": "15a45bdb",
    "getClusterIdsByOwner(address)": "09d47feb",
    "getClusterIdsBySequencer(address)": "d874f88d",
    "getExecutors(string,string)": "d4ee4033",
    "getMaxSequencerNumber(string)": "54fbb8bc",
    "getRollup(string,string)": "baba5fac",
    "getRollups(string)": "00a5e42c",
    "getSequencers(string)": "eaa53c73",
    "initializeCluster(string,uint256)": "3edb0dbf",
    "isExecutorRegistered(string,string,address)": "7d25364e",
    "isRollupAdded(string,string)": "b061e361",
    "isRollupExecutorRegistered(string,string,address)": "800522cc",
    "isSequencerRegistered(string,address)": "814169ed",
    "owner()": "8da5cb5b",
    "registerRollupExecutor(string,string,address)": "a7b15420",
    "registerSequencer(string)": "8a4abab8",
    "renounceOwnership()": "715018a6",
    "rollups(string,string)": "7e1c1f3b",
    "transferOwnership(address)": "f2fde38b"
  },
  "id": 41
}