{
  "abi": [
    {
      "type": "constructor",
      "inputs": [
        {
          "name": "_owner",
          "type": "address",
          "internalType": "address"
        },
        {
          "name": "_network",
          "type": "address",
          "internalType": "address"
        },
        {
          "name": "_operatorRegistry",
          "type": "address",
          "internalType": "address"
        },
        {
          "name": "_vaultRegistry",
          "type": "address",
          "internalType": "address"
        },
        {
          "name": "_operatorNetOptin",
          "type": "address",
          "internalType": "address"
        },
        {
          "name": "_epochDuration",
          "type": "uint48",
          "internalType": "uint48"
        },
        {
          "name": "_slashingWindow",
          "type": "uint48",
          "internalType": "uint48"
        }
      ],
      "stateMutability": "nonpayable"
    },
    {
      "type": "function",
      "name": "EPOCH_DURATION",
      "inputs": [],
      "outputs": [
        {
          "name": "",
          "type": "uint48",
          "internalType": "uint48"
        }
      ],
      "stateMutability": "view"
    },
    {
      "type": "function",
      "name": "NETWORK",
      "inputs": [],
      "outputs": [
        {
          "name": "",
          "type": "address",
          "internalType": "address"
        }
      ],
      "stateMutability": "view"
    },
    {
      "type": "function",
      "name": "OPERATOR_NET_OPTIN",
      "inputs": [],
      "outputs": [
        {
          "name": "",
          "type": "address",
          "internalType": "address"
        }
      ],
      "stateMutability": "view"
    },
    {
      "type": "function",
      "name": "OPERATOR_REGISTRY",
      "inputs": [],
      "outputs": [
        {
          "name": "",
          "type": "address",
          "internalType": "address"
        }
      ],
      "stateMutability": "view"
    },
    {
      "type": "function",
      "name": "SLASHING_WINDOW",
      "inputs": [],
      "outputs": [
        {
          "name": "",
          "type": "uint48",
          "internalType": "uint48"
        }
      ],
      "stateMutability": "view"
    },
    {
      "type": "function",
      "name": "START_TIME",
      "inputs": [],
      "outputs": [
        {
          "name": "",
          "type": "uint48",
          "internalType": "uint48"
        }
      ],
      "stateMutability": "view"
    },
    {
      "type": "function",
      "name": "VAULT_REGISTRY",
      "inputs": [],
      "outputs": [
        {
          "name": "",
          "type": "address",
          "internalType": "address"
        }
      ],
      "stateMutability": "view"
    },
    {
      "type": "function",
      "name": "calcAndCacheStakes",
      "inputs": [
        {
          "name": "epoch",
          "type": "uint48",
          "internalType": "uint48"
        }
      ],
      "outputs": [
        {
          "name": "totalStake",
          "type": "uint256",
          "internalType": "uint256"
        }
      ],
      "stateMutability": "nonpayable"
    },
    {
      "type": "function",
      "name": "createNewTask",
      "inputs": [
        {
          "name": "_commitment",
          "type": "bytes",
          "internalType": "bytes"
        },
        {
          "name": "_blockNumber",
          "type": "uint64",
          "internalType": "uint64"
        },
        {
          "name": "rollupId",
          "type": "string",
          "internalType": "string"
        },
        {
          "name": "_clusterId",
          "type": "string",
          "internalType": "string"
        }
      ],
      "outputs": [],
      "stateMutability": "nonpayable"
    },
    {
      "type": "function",
      "name": "getCurrentEpoch",
      "inputs": [],
      "outputs": [
        {
          "name": "epoch",
          "type": "uint48",
          "internalType": "uint48"
        }
      ],
      "stateMutability": "view"
    },
    {
      "type": "function",
      "name": "getEpochAtTs",
      "inputs": [
        {
          "name": "timestamp",
          "type": "uint48",
          "internalType": "uint48"
        }
      ],
      "outputs": [
        {
          "name": "epoch",
          "type": "uint48",
          "internalType": "uint48"
        }
      ],
      "stateMutability": "view"
    },
    {
      "type": "function",
      "name": "getEpochStartTs",
      "inputs": [
        {
          "name": "epoch",
          "type": "uint48",
          "internalType": "uint48"
        }
      ],
      "outputs": [
        {
          "name": "timestamp",
          "type": "uint48",
          "internalType": "uint48"
        }
      ],
      "stateMutability": "view"
    },
    {
      "type": "function",
      "name": "getOperatorStake",
      "inputs": [
        {
          "name": "operator",
          "type": "address",
          "internalType": "address"
        },
        {
          "name": "epoch",
          "type": "uint48",
          "internalType": "uint48"
        }
      ],
      "outputs": [
        {
          "name": "stake",
          "type": "uint256",
          "internalType": "uint256"
        }
      ],
      "stateMutability": "view"
    },
    {
      "type": "function",
      "name": "getSubnetwork",
      "inputs": [
        {
          "name": "index",
          "type": "uint96",
          "internalType": "uint96"
        }
      ],
      "outputs": [
        {
          "name": "",
          "type": "bytes32",
          "internalType": "bytes32"
        }
      ],
      "stateMutability": "view"
    },
    {
      "type": "function",
      "name": "getTotalStake",
      "inputs": [
        {
          "name": "epoch",
          "type": "uint48",
          "internalType": "uint48"
        }
      ],
      "outputs": [
        {
          "name": "",
          "type": "uint256",
          "internalType": "uint256"
        }
      ],
      "stateMutability": "view"
    },
    {
      "type": "function",
      "name": "getValidatorSet",
      "inputs": [
        {
          "name": "epoch",
          "type": "uint48",
          "internalType": "uint48"
        }
      ],
      "outputs": [
        {
          "name": "validatorsData",
          "type": "tuple[]",
          "internalType": "struct IValidationServiceManager.ValidatorData[]",
          "components": [
            {
              "name": "operator",
              "type": "address",
              "internalType": "address"
            },
            {
              "name": "stake",
              "type": "uint256",
              "internalType": "uint256"
            }
          ]
        }
      ],
      "stateMutability": "view"
    },
    {
      "type": "function",
      "name": "isAvtiveVault",
      "inputs": [
        {
          "name": "index",
          "type": "uint256",
          "internalType": "uint256"
        }
      ],
      "outputs": [
        {
          "name": "",
          "type": "bool",
          "internalType": "bool"
        }
      ],
      "stateMutability": "view"
    },
    {
      "type": "function",
      "name": "operatorStakeCache",
      "inputs": [
        {
          "name": "",
          "type": "uint48",
          "internalType": "uint48"
        },
        {
          "name": "",
          "type": "address",
          "internalType": "address"
        }
      ],
      "outputs": [
        {
          "name": "",
          "type": "uint256",
          "internalType": "uint256"
        }
      ],
      "stateMutability": "view"
    },
    {
      "type": "function",
      "name": "owner",
      "inputs": [],
      "outputs": [
        {
          "name": "",
          "type": "address",
          "internalType": "address"
        }
      ],
      "stateMutability": "view"
    },
    {
      "type": "function",
      "name": "pauseOperator",
      "inputs": [
        {
          "name": "operator",
          "type": "address",
          "internalType": "address"
        }
      ],
      "outputs": [],
      "stateMutability": "nonpayable"
    },
    {
      "type": "function",
      "name": "pauseVault",
      "inputs": [
        {
          "name": "vault",
          "type": "address",
          "internalType": "address"
        }
      ],
      "outputs": [],
      "stateMutability": "nonpayable"
    },
    {
      "type": "function",
      "name": "registerOperator",
      "inputs": [
        {
          "name": "operator",
          "type": "address",
          "internalType": "address"
        }
      ],
      "outputs": [],
      "stateMutability": "nonpayable"
    },
    {
      "type": "function",
      "name": "registerVault",
      "inputs": [
        {
          "name": "vault",
          "type": "address",
          "internalType": "address"
        }
      ],
      "outputs": [],
      "stateMutability": "nonpayable"
    },
    {
      "type": "function",
      "name": "renounceOwnership",
      "inputs": [],
      "outputs": [],
      "stateMutability": "nonpayable"
    },
    {
      "type": "function",
      "name": "respondToTask",
      "inputs": [
        {
          "name": "task",
          "type": "tuple",
          "internalType": "struct IValidationServiceManager.Task",
          "components": [
            {
              "name": "commitment",
              "type": "bytes",
              "internalType": "bytes"
            },
            {
              "name": "blockNumber",
              "type": "uint64",
              "internalType": "uint64"
            },
            {
              "name": "rollupId",
              "type": "string",
              "internalType": "string"
            },
            {
              "name": "clusterId",
              "type": "string",
              "internalType": "string"
            },
            {
              "name": "taskCreatedBlock",
              "type": "uint32",
              "internalType": "uint32"
            }
          ]
        },
        {
          "name": "referenceTaskIndex",
          "type": "uint32",
          "internalType": "uint32"
        },
        {
          "name": "signature",
          "type": "bytes",
          "internalType": "bytes"
        }
      ],
      "outputs": [],
      "stateMutability": "nonpayable"
    },
    {
      "type": "function",
      "name": "rollupTaskInfos",
      "inputs": [
        {
          "name": "",
          "type": "string",
          "internalType": "string"
        }
      ],
      "outputs": [
        {
          "name": "latestTaskNumber",
          "type": "uint32",
          "internalType": "uint32"
        }
      ],
      "stateMutability": "view"
    },
    {
      "type": "function",
      "name": "setSubnetworksCnt",
      "inputs": [
        {
          "name": "_subnetworksCnt",
          "type": "uint256",
          "internalType": "uint256"
        }
      ],
      "outputs": [],
      "stateMutability": "nonpayable"
    },
    {
      "type": "function",
      "name": "slash",
      "inputs": [
        {
          "name": "epoch",
          "type": "uint48",
          "internalType": "uint48"
        },
        {
          "name": "operator",
          "type": "address",
          "internalType": "address"
        },
        {
          "name": "amount",
          "type": "uint256",
          "internalType": "uint256"
        }
      ],
      "outputs": [],
      "stateMutability": "nonpayable"
    },
    {
      "type": "function",
      "name": "subnetworksCnt",
      "inputs": [],
      "outputs": [
        {
          "name": "",
          "type": "uint256",
          "internalType": "uint256"
        }
      ],
      "stateMutability": "view"
    },
    {
      "type": "function",
      "name": "totalStakeCache",
      "inputs": [
        {
          "name": "",
          "type": "uint48",
          "internalType": "uint48"
        }
      ],
      "outputs": [
        {
          "name": "",
          "type": "uint256",
          "internalType": "uint256"
        }
      ],
      "stateMutability": "view"
    },
    {
      "type": "function",
      "name": "totalStakeCached",
      "inputs": [
        {
          "name": "",
          "type": "uint48",
          "internalType": "uint48"
        }
      ],
      "outputs": [
        {
          "name": "",
          "type": "bool",
          "internalType": "bool"
        }
      ],
      "stateMutability": "view"
    },
    {
      "type": "function",
      "name": "transferOwnership",
      "inputs": [
        {
          "name": "newOwner",
          "type": "address",
          "internalType": "address"
        }
      ],
      "outputs": [],
      "stateMutability": "nonpayable"
    },
    {
      "type": "function",
      "name": "unpauseOperator",
      "inputs": [
        {
          "name": "operator",
          "type": "address",
          "internalType": "address"
        }
      ],
      "outputs": [],
      "stateMutability": "nonpayable"
    },
    {
      "type": "function",
      "name": "unpauseVault",
      "inputs": [
        {
          "name": "vault",
          "type": "address",
          "internalType": "address"
        }
      ],
      "outputs": [],
      "stateMutability": "nonpayable"
    },
    {
      "type": "function",
      "name": "unregisterOperator",
      "inputs": [
        {
          "name": "operator",
          "type": "address",
          "internalType": "address"
        }
      ],
      "outputs": [],
      "stateMutability": "nonpayable"
    },
    {
      "type": "function",
      "name": "unregisterVault",
      "inputs": [
        {
          "name": "vault",
          "type": "address",
          "internalType": "address"
        }
      ],
      "outputs": [],
      "stateMutability": "nonpayable"
    },
    {
      "type": "event",
      "name": "NewTaskCreated",
      "inputs": [
        {
          "name": "taskIndex",
          "type": "uint32",
          "indexed": true,
          "internalType": "uint32"
        },
        {
          "name": "task",
          "type": "tuple",
          "indexed": false,
          "internalType": "struct IValidationServiceManager.Task",
          "components": [
            {
              "name": "commitment",
              "type": "bytes",
              "internalType": "bytes"
            },
            {
              "name": "blockNumber",
              "type": "uint64",
              "internalType": "uint64"
            },
            {
              "name": "rollupId",
              "type": "string",
              "internalType": "string"
            },
            {
              "name": "clusterId",
              "type": "string",
              "internalType": "string"
            },
            {
              "name": "taskCreatedBlock",
              "type": "uint32",
              "internalType": "uint32"
            }
          ]
        },
        {
          "name": "commitment",
          "type": "bytes",
          "indexed": false,
          "internalType": "bytes"
        },
        {
          "name": "blockNumber",
          "type": "uint64",
          "indexed": false,
          "internalType": "uint64"
        },
        {
          "name": "rollupId",
          "type": "string",
          "indexed": false,
          "internalType": "string"
        },
        {
          "name": "clusterId",
          "type": "string",
          "indexed": false,
          "internalType": "string"
        },
        {
          "name": "taskCreatedBlock",
          "type": "uint32",
          "indexed": false,
          "internalType": "uint32"
        }
      ],
      "anonymous": false
    },
    {
      "type": "event",
      "name": "OwnershipTransferred",
      "inputs": [
        {
          "name": "previousOwner",
          "type": "address",
          "indexed": true,
          "internalType": "address"
        },
        {
          "name": "newOwner",
          "type": "address",
          "indexed": true,
          "internalType": "address"
        }
      ],
      "anonymous": false
    },
    {
      "type": "event",
      "name": "TaskResponded",
      "inputs": [
        {
          "name": "taskIndex",
          "type": "uint32",
          "indexed": true,
          "internalType": "uint32"
        },
        {
          "name": "commitment",
          "type": "bytes",
          "indexed": false,
          "internalType": "bytes"
        },
        {
          "name": "blockNumber",
          "type": "uint64",
          "indexed": false,
          "internalType": "uint64"
        },
        {
          "name": "rollupId",
          "type": "string",
          "indexed": false,
          "internalType": "string"
        },
        {
          "name": "clusterId",
          "type": "string",
          "indexed": false,
          "internalType": "string"
        },
        {
          "name": "taskCreatedBlock",
          "type": "uint32",
          "indexed": false,
          "internalType": "uint32"
        },
        {
          "name": "operator",
          "type": "address",
          "indexed": false,
          "internalType": "address"
        }
      ],
      "anonymous": false
    },
    {
      "type": "error",
      "name": "AlreadyAdded",
      "inputs": []
    },
    {
      "type": "error",
      "name": "AlreadyEnabled",
      "inputs": []
    },
    {
      "type": "error",
      "name": "EnumerableMapNonexistentKey",
      "inputs": [
        {
          "name": "key",
          "type": "bytes32",
          "internalType": "bytes32"
        }
      ]
    },
    {
      "type": "error",
      "name": "InvalidEpoch",
      "inputs": []
    },
    {
      "type": "error",
      "name": "InvalidSubnetworksCnt",
      "inputs": []
    },
    {
      "type": "error",
      "name": "NotEnabled",
      "inputs": []
    },
    {
      "type": "error",
      "name": "NotOperator",
      "inputs": []
    },
    {
      "type": "error",
      "name": "NotVault",
      "inputs": []
    },
    {
      "type": "error",
      "name": "OperarorGracePeriodNotPassed",
      "inputs": []
    },
    {
      "type": "error",
      "name": "OperatorAlreadyRegistred",
      "inputs": []
    },
    {
      "type": "error",
      "name": "OperatorNotActive",
      "inputs": []
    },
    {
      "type": "error",
      "name": "OperatorNotOptedIn",
      "inputs": []
    },
    {
      "type": "error",
      "name": "OperatorNotRegistred",
      "inputs": []
    },
    {
      "type": "error",
      "name": "OwnableInvalidOwner",
      "inputs": [
        {
          "name": "owner",
          "type": "address",
          "internalType": "address"
        }
      ]
    },
    {
      "type": "error",
      "name": "OwnableUnauthorizedAccount",
      "inputs": [
        {
          "name": "account",
          "type": "address",
          "internalType": "address"
        }
      ]
    },
    {
      "type": "error",
      "name": "SafeCastOverflowedUintDowncast",
      "inputs": [
        {
          "name": "bits",
          "type": "uint8",
          "internalType": "uint8"
        },
        {
          "name": "value",
          "type": "uint256",
          "internalType": "uint256"
        }
      ]
    },
    {
      "type": "error",
      "name": "SlashingWindowTooShort",
      "inputs": []
    },
    {
      "type": "error",
      "name": "TooBigSlashAmount",
      "inputs": []
    },
    {
      "type": "error",
      "name": "TooOldEpoch",
      "inputs": []
    },
    {
      "type": "error",
      "name": "UnknownSlasherType",
      "inputs": []
    },
    {
      "type": "error",
      "name": "VaultAlreadyRegistred",
      "inputs": []
    },
    {
      "type": "error",
      "name": "VaultEpochTooShort",
      "inputs": []
    },
    {
      "type": "error",
      "name": "VaultGracePeriodNotPassed",
      "inputs": []
    }
  ],
  "bytecode": {
    "object": "0x6101603461023257601f6131d938819003918201601f1916830191906001600160401b03831184841017610237578160e092859260409586528339810103126102325761004b8261024d565b6100576020840161024d565b9161006381850161024d565b61006f6060860161024d565b61007b6080870161024d565b9161009460c061008d60a08a01610261565b9801610261565b956001600160a01b03958616801561021a57600080546001600160a01b031981168317825587519816907f8be0079c531659141344cd1fd0a4f28419497f9722a3daafe3b4186f6b6457e09080a365ffffffffffff958689168789161061020b57508542116101ed57610140954216865261010097885261012096875260805260a05260e05260c052600180555191612f649384610275853960805184818161030901528181610e97015281816114f00152818161160c015281816116d3015281816119170152612317015260a051848181610f7001526118c1015260c051848181610e29015261193e015260e0518481816111210152611e7c01525183818161059e01528181611fff01526124ff01525182818161069201528181610dd8015281816111c30152818161140e01528181611dcd01528181611e2701526120a40152518181816102ae0152818161203101526124d00152f35b84516306dfcc6560e41b815260306004820152426024820152604490fd5b63188a354160e31b8152600490fd5b8551631e4fbdf760e01b815260006004820152602490fd5b600080fd5b634e487b7160e01b600052604160045260246000fd5b51906001600160a01b038216820361023257565b519065ffffffffffff821682036102325756fe60c080604052600436101561001357600080fd5b60003560e01c90816302ace7fe14611e695750806311369f0f14611e4b57806322207cc714611e085780632633b70f14611d4a5780632827959314611d2757806329ccc9f914611a955780632e5aaf3314611a6c5780632efbab2c14611a43578063321520f414611a0a5780633682a4501461186257806339011ab8146117ef57806348de4b8c146113aa57806367ccd1cb146110c35780636a5af20b14611086578063715018a61461102d57806372f9adab14610f9f57806383ce032214610f5a57806383f582b714610f1c57806384ca5f7d14610ee45780638754613714610ec65780638759e6d114610e815780638da5cb5b14610e5857806393fe388914610e1357806396115bc214610d55578063993640c414610d145780639d94a1e314610cf65780639f02df9f146105ed5780639fee2cdb146105c2578063a70b9f0c1461057f578063b8dc4fe914610407578063b97dd9e2146103d3578063c0bd6f9e14610331578063c3265f0f146102d2578063ddaa26ad1461028f578063ee3738ca146102395763f2fde38b146101ab57600080fd5b34610234576020366003190112610234576101c4611ec0565b6101cc6126e0565b6001600160a01b0390811690811561021b57600054826001600160601b0360a01b821617600055167f8be0079c531659141344cd1fd0a4f28419497f9722a3daafe3b4186f6b6457e0600080a3005b604051631e4fbdf760e01b815260006004820152602490fd5b600080fd5b3461023457604036600319011261023457610252611eab565b65ffffffffffff610261611ed6565b9116600052600460205260406000209060018060a01b03166000526020526020604060002054604051908152f35b3461023457600036600319011261023457602060405165ffffffffffff7f0000000000000000000000000000000000000000000000000000000000000000168152f35b34610234576020366003190112610234576004356001600160601b03811680910361023457602090604051906001600160601b03197f000000000000000000000000000000000000000000000000000000000000000060601b16178152f35b346102345760203660031901126102345761034a611ec0565b6103526126e0565b6001600160a01b031661036481612b33565b9065ffffffffffff808316159081156103c4575b506103b2576103b0916bffffffffffff0000000000006103974261291f565b60301b161781600052600a602052604060002055612ee1565b005b604051633f54562b60e11b8152600490fd5b90508260301c16151583610378565b346102345760003660031901126102345760206103f76103f24261291f565b6124ca565b65ffffffffffff60405191168152f35b346102345760208060031936011261023457610429610424611eab565b611ff3565b6005546104358161269f565b916104436040519384611f4f565b81835261044f8261269f565b601f190160005b81811061055657505060009160005b8181106104c0575050508152604051908282018383528151809152836040840192019360005b8281106104985784840385f35b855180516001600160a01b03168552820151848301529481019460409093019260010161048b565b92836104db6104d2859698979861270c565b909791976127c0565b1561054c576104ea84866122cd565b604051956104f787611f19565b6001600160a01b0316865286860152816000198114610536576001928361052b920196610524828b6126b6565b52886126b6565b505b01949394610465565b634e487b7160e01b600052601160045260246000fd5b600191945061052d565b9480949560405161056681611f19565b6000815260008382015282828901015201949394610456565b3461023457600036600319011261023457602060405165ffffffffffff7f0000000000000000000000000000000000000000000000000000000000000000168152f35b346102345760203660031901126102345760206105e56105e0611eab565b6125e9565b604051908152f35b3461023457600319606036820112610234576001600160401b03600435116102345760a090600435360301126102345760243563ffffffff81168103610234576044356001600160401b0381116102345761064c903690600401611eec565b9091610665336000526006602052604060002054151590565b15610ce4576106796104246103f24261291f565b916106b76106864261291f565b65ffffffffffff9182917f000000000000000000000000000000000000000000000000000000000000000090612058565b1690808516918210610cd2576106cc4261291f565b1610610cc0576005549260005b848110610c6e575b505060405160208082015291925061071161070060048035018061252b565b60a0604086015260e085019161255c565b9160246004350135926001600160401b03841684036102345761078c906001600160401b038516606084015261076861075460446004350160043560040161252b565b603f1986850381016080880152939161255c565b9061077d60646004350160043560040161252b565b918584030160a086015261255c565b6004356084013563ffffffff8116900361023457816107c59163ffffffff608460043501351660c083015203601f198101835282611f4f565b60208151910120600160206107e460446004350160043560040161257d565b91908260405193849283378101600b8152030190200163ffffffff851660005260205260406000205403610c03576002602061082a60446004350160043560040161257d565b91908260405193849283378101600b8152030190200133600052602052604060002063ffffffff84166000526020526108676040600020546125af565b610bab5761088361087c60048035018061257d565b3691611f70565b602081519101206040519060208201907f19457468657265756d205369676e6564204d6573736167653a0a3332000000008252603c830152603c825260608201908282106001600160401b03831117610b50576108fd926108f5926040525190206108ef368589611f70565b90612951565b9190916129c1565b336001600160a01b0390911603610b66576002602061092660446004350160043560040161257d565b91908260405193849283378101600b8152030190200133600052602052604060002063ffffffff84166000526020526040600020906001600160401b038111610b505761097382546125af565b601f8111610b08575b506000601f8211600114610a7e5781907f581650ce2567859e1e98a9f8646ae38a5cedc837ba967906085023699bb256e99596600092610a73575b50508160011b916000199060031b1c19161790555b610a5763ffffffff6109e260048035018061257d565b929093610a496109fc60446004350160043560040161257d565b919092610a1360646004350160043560040161257d565b9390946001600160401b03610a356040519b8c9b60c08d5260c08d019161255c565b931660208a015288830360408a015261255c565b91858303606087015261255c565b9481608460043501351660808401523360a084015216930390a2005b0135905086806109b7565b601f198216908360005260206000209160005b818110610af05750968392916001947f581650ce2567859e1e98a9f8646ae38a5cedc837ba967906085023699bb256e9989910610ad6575b505050811b0190556109cc565b0135600019600384901b60f8161c19169055868080610ac9565b9192602060018192868c013581550194019201610a91565b826000526020600020601f830160051c81019160208410610b46575b601f0160051c01905b818110610b3a575061097c565b60008155600101610b2d565b9091508190610b24565b634e487b7160e01b600052604160045260246000fd5b60405162461bcd60e51b815260206004820152601e60248201527f4d657373616765207369676e6572206973206e6f74206f70657261746f7200006044820152606490fd5b60405162461bcd60e51b815260206004820152602a60248201527f4f70657261746f722068617320616c726561647920726573706f6e64656420746044820152696f20746865207461736b60b01b6064820152608490fd5b60405162461bcd60e51b815260206004820152603d60248201527f737570706c696564207461736b20646f6573206e6f74206d617463682074686560448201527f206f6e65207265636f7264656420696e2074686520636f6e74726163740000006064820152608490fd5b610c778161270c565b916001600160a01b03163314610c915750506001016106d9565b909150610ca0939495506127c0565b15610cae57819084806106e1565b604051631a8660cb60e01b8152600490fd5b60405163d5b25b6360e01b8152600490fd5b6040516312c7b10160e11b8152600490fd5b60405163571208d360e11b8152600490fd5b346102345760203660031901126102345760206103f76103f2611eab565b34610234576020366003190112610234576020610d4b610d396104246103f24261291f565b610d44600435612766565b91506127c0565b6040519015158152f35b3461023457602036600319011261023457610d6e611ec0565b610d766126e0565b6001600160a01b031665ffffffffffff80610d9083612b7d565b60301c16908115918215610dd0575b5050610dbe57806103b091600052600760205260006040812055612dd2565b6040516377a2efc960e01b8152600490fd5b610dfd9192507f000000000000000000000000000000000000000000000000000000000000000090611fd9565b9080610e084261291f565b169116118280610d9f565b34610234576000366003190112610234576040517f00000000000000000000000000000000000000000000000000000000000000006001600160a01b03168152602090f35b34610234576000366003190112610234576000546040516001600160a01b039091168152602090f35b34610234576000366003190112610234576040517f00000000000000000000000000000000000000000000000000000000000000006001600160a01b03168152602090f35b34610234576000366003190112610234576020600154604051908152f35b3461023457604036600319011261023457610efd611ec0565b6024359065ffffffffffff82168203610234576020916105e5916122cd565b346102345760203660031901126102345765ffffffffffff610f3c611eab565b166000526003602052602060ff604060002054166040519015158152f35b34610234576000366003190112610234576040517f00000000000000000000000000000000000000000000000000000000000000006001600160a01b03168152602090f35b3461023457602036600319011261023457610fb8611ec0565b610fc06126e0565b6001600160a01b0316610fd281612b7d565b9065ffffffffffff8083161590811561101e575b506103b2576103b0916bffffffffffff0000000000006110054261291f565b60301b1617816000526007602052604060002055612e7b565b90508260301c16151583610fe6565b34610234576000366003190112610234576110466126e0565b600080546001600160a01b0319811682556001600160a01b03167f8be0079c531659141344cd1fd0a4f28419497f9722a3daafe3b4186f6b6457e08280a3005b34610234576020366003190112610234576004356110a26126e0565b8060015410156110b157600155005b60405163e1115e0160e01b8152600490fd5b3461023457602080600319360112610234576110dd611ec0565b906110e66126e0565b6001600160a01b038281166000818152600984526040902054909190611398576040516302910f8b60e31b81526004810183905283816024817f000000000000000000000000000000000000000000000000000000000000000086165afa90811561129b5760009161136b575b5015611359576040516327f843b560e11b81528381600481865afa90811561129b5760009161133c575b5080916040519063b134427160e01b82528582600481885afa801561129b57869260009161130f575b5016801515806112a7575b611233575b50505065ffffffffffff807f00000000000000000000000000000000000000000000000000000000000000001691161061122157600a61120192826000525260006040812055612ee1565b1561120f576103b090612889565b60405163f411c32760e01b8152600490fd5b60405163121f507960e11b8152600490fd5b60405163e054e08b60e01b81529350839060049082905afa90811561129b576112649260009261126c575b50612058565b8483816111b6565b61128d919250853d8711611294575b6112858183611f4f565b810190612290565b908661125e565b503d61127b565b6040513d6000823e3d90fd5b50604051635d927f4560e11b815291508582600481845afa801561129b576001600160401b0360019188946000916112e2575b5016146111b1565b6113029150853d8711611308575b6112fa8183611f4f565b8101906122ae565b8a6112da565b503d6112f0565b61132f9150833d8511611335575b6113278183611f4f565b81019061223a565b886111a6565b503d61131d565b6113539150843d8611611294576112858183611f4f565b8561117d565b6040516362df054560e01b8152600490fd5b61138b9150843d8611611391575b6113838183611f4f565b81019061220a565b85611153565b503d611379565b604051634e2cce8760e11b8152600490fd5b34610234576060366003190112610234576113c3611eab565b6113cb611ed6565b6113d36126e0565b65ffffffffffff91828116600052600360205260ff60406000205416156117e0575b6113fe81611ff3565b928061143361140c4261291f565b7f000000000000000000000000000000000000000000000000000000000000000090612058565b1690841610610cd25761144690826122cd565b9160443583106117ce576000915b6008548310156103b0578161147461146b8561270c565b909391936127c0565b156117c45760005b6001546001600160601b038216908110156117b557604051630ce9b79360e41b81526020816004816001600160a01b0388165afa90811561129b5761152c91602091600091611798575b50604051906114d482611f34565b6000825260405163e02f693760e01b8152938492839182918c8c7f000000000000000000000000000000000000000000000000000000000000000060601b6bffffffffffffffffffffffff19168b1760048601612259565b03916001600160a01b03165afa90811561129b57600091611766575b506044358082029181159183041417156105365787156117505760405163b134427160e01b81526020816004816001600160a01b0389165afa90811561129b57600091611731575b50604051635d927f4560e11b8152906020826004816001600160a01b0385165afa801561129b576001600160401b038b918994600091611712575b50168061168b575060006020946116396040516115e781611f34565b8381528c604051998a988997889663010d40ab60e11b885204916001600160601b03197f000000000000000000000000000000000000000000000000000000000000000060601b1617600487016128e7565b03926001600160a01b03165af1801561129b57611660575b5061165b90612222565b61147c565b602090813d8311611684575b6116768183611f4f565b810103126102345786611651565b503d61166c565b91939250506001036117005760209189600088936116396040516116ae81611f34565b8381528c604051998a988997889663545ce38960e01b885204916001600160601b03197f000000000000000000000000000000000000000000000000000000000000000060601b1617600487016128e7565b60405163539cea7160e11b8152600490fd5b61172b915060203d602011611308576112fa8183611f4f565b8d6115cb565b61174a915060203d602011611335576113278183611f4f565b89611590565b634e487b7160e01b600052601260045260246000fd5b90506020813d602011611790575b8161178160209383611f4f565b81010312610234575188611548565b3d9150611774565b6117af9150823d8411611335576113278183611f4f565b8a6114c6565b505050916001905b0191611454565b50916001906117bd565b604051638cc309fd60e01b8152600490fd5b6117e98161207d565b506113f5565b34610234576020366003190112610234576004356001600160401b03811161023457366023820112156102345763ffffffff61184e602061183b81943690602481600401359101611f70565b8160405193828580945193849201611fb6565b8101600b8152030190205416604051908152f35b34610234576020806003193601126102345761187c611ec0565b906118856126e0565b6001600160a01b038281166000818152600660205260409020549091906119f8576040516302910f8b60e31b81526004810183905283816024817f000000000000000000000000000000000000000000000000000000000000000086165afa90811561129b576000916119db575b50156119c95782604491604051928380926308834cb560e21b8252866004830152807f00000000000000000000000000000000000000000000000000000000000000001660248301527f0000000000000000000000000000000000000000000000000000000000000000165afa90811561129b576000916119ac575b501561199a57600761198c92826000525260006040812055612e7b565b1561120f576103b090612816565b604051634d1cc09f60e11b8152600490fd5b6119c39150833d8511611391576113838183611f4f565b8461196f565b604051631f0853c160e21b8152600490fd5b6119f29150843d8611611391576113838183611f4f565b856118f3565b604051631f71f46760e21b8152600490fd5b346102345760203660031901126102345765ffffffffffff611a2a611eab565b1660005260026020526020604060002054604051908152f35b34610234576020366003190112610234576103b0611a5f611ec0565b611a676126e0565b612889565b34610234576020366003190112610234576103b0611a88611ec0565b611a906126e0565b612816565b34610234576080366003190112610234576001600160401b0360043581811161023457611ac6903690600401611eec565b91906024358281168091036102345760443583811161023457611aed903690600401611eec565b60a0529360643584811161023457611b09903690600401611eec565b9290611b176103f24261291f565b65ffffffffffff8116600052600360205260ff6040600020541615611d17575b506040519260a084019184831088841117610b50577f9e24369c0f66f9c50696e29764b9bbd7c157c54a03674665c2b8ffca4703a1cc9685611bcd611cc093611c9f99611bc48e611cce9960405260608652602086019a60008c52611bb6604088019860608a52608060608a019960608b52019b60008d523691611f70565b8d528b5260a0513691611f70565b85523691611f70565b815263ffffffff60805260805143168452604051602081019060208252611c0981611bfb604082018c6121a7565b03601f198101835282611f4f565b51902060016040518d60a05190823760208160a0518101600b815203019020016040518d60a05190823760a051810190600b825260208160805193030190205416600052602052604060002055611cad60405160a0518d823760a051810190600b8252602081608051930301902054169a8851975116925191519460805190511696604051998a9960c08b5260c08b01906121a7565b9089820360208b0152612182565b9160408801528682036060880152612182565b908482036080860152612182565b9060a08301520390a26040519060a05190823760208160a0518101600b8152030190208054600160805182160160805181116105365760805163ffffffff199092169116179055005b611d209061207d565b5087611b37565b346102345760203660031901126102345760206105e5611d45611eab565b61207d565b3461023457602036600319011261023457611d63611ec0565b611d6b6126e0565b6001600160a01b031665ffffffffffff80611d8583612b33565b60301c16908115918215611dc5575b5050611db357806103b091600052600a60205260006040812055612cd1565b6040516347a11ef760e11b8152600490fd5b611df29192507f000000000000000000000000000000000000000000000000000000000000000090611fd9565b9080611dfd4261291f565b169116118280611d94565b3461023457600036600319011261023457602060405165ffffffffffff7f0000000000000000000000000000000000000000000000000000000000000000168152f35b346102345760203660031901126102345760206103f7610424611eab565b34610234576000366003190112610234577f00000000000000000000000000000000000000000000000000000000000000006001600160a01b03168152602090f35b6004359065ffffffffffff8216820361023457565b600435906001600160a01b038216820361023457565b602435906001600160a01b038216820361023457565b9181601f84011215610234578235916001600160401b038311610234576020838186019501011161023457565b604081019081106001600160401b03821117610b5057604052565b602081019081106001600160401b03821117610b5057604052565b90601f801991011681019081106001600160401b03821117610b5057604052565b9291926001600160401b038211610b505760405191611f99601f8201601f191660200184611f4f565b829481845281830111610234578281602093846000960137010152565b60005b838110611fc95750506000910152565b8181015183820152602001611fb9565b91909165ffffffffffff8080941691160191821161053657565b65ffffffffffff9081167f000000000000000000000000000000000000000000000000000000000000000082160290811690810361053657612055907f0000000000000000000000000000000000000000000000000000000000000000611fd9565b90565b65ffffffffffff918216908216039190821161053657565b9190820180921161053657565b600091906120c98361208e83611ff3565b926120984261291f565b65ffffffffffff9384917f000000000000000000000000000000000000000000000000000000000000000090612058565b16838516908110610cd257836120de4261291f565b1610610cc05785915b6005548310156121595784906121086120ff8561270c565b909491946127c0565b1561214f57816121469161211e886001956122cd565b80928887168c52602090600482526040918d83812092898060a01b03169052528b2055612070565b925b01916120e7565b9260019150612148565b959150859350916040921681526003602052818120600160ff1982541617905560026020522055565b9060209161219b81518092818552858086019101611fb6565b601f01601f1916010190565b90608063ffffffff816122006121ee6121c9875160a0885260a0880190612182565b6001600160401b03602089015116602088015260408801518782036040890152612182565b60608701518682036060880152612182565b9401511691015290565b90816020910312610234575180151581036102345790565b6001600160601b038091169081146105365760010190565b9081602091031261023457516001600160a01b03811681036102345790565b9081526001600160a01b03909116602082015265ffffffffffff909116604082015260806060820181905261205592910190612182565b90816020910312610234575165ffffffffffff811681036102345790565b9081602091031261023457516001600160401b03811681036102345790565b9060009160009065ffffffffffff831682526020926003845260409060ff82852054166124ac5761230090949394611ff3565b9184600854946001966001546001600160601b03197f000000000000000000000000000000000000000000000000000000000000000060601b16915b888110612350575050505050505050505090565b878a61235e6120ff84612766565b156124a4579086915b612377575b505089905b0161233c565b909b6001600160601b038d168481101561249d578951630ce9b79360e41b81526004916001600160a01b03898385818985165afa92831561249357918a93918f8f8f989795918f918e93839761246c575b5090816123f8939251926123db84611f34565b83525163e02f693760e01b81529a8b988997889617908601612259565b0392165afa91821561246257908d9291899261242a575b506124239161241d91612070565b9d612222565b9190612367565b88809294508193503d831161245b575b6124448183611f4f565b8101031261245757518c9161241d61240f565b8780fd5b503d61243a565b8a513d8a823e3d90fd5b6123f8939291975061248a908a3d8c11611335576113278183611f4f565b969091926123c8565b8d513d8d823e3d90fd5b509b61236c565b919050612371565b50600484528083206001600160a01b03909216835292522054919050565b6124f5907f000000000000000000000000000000000000000000000000000000000000000090612058565b65ffffffffffff807f00000000000000000000000000000000000000000000000000000000000000001691821561175057160490565b9035601e19823603018112156102345701602081359101916001600160401b03821161023457813603831361023457565b908060209392818452848401376000828201840152601f01601f1916010190565b903590601e198136030182121561023457018035906001600160401b0382116102345760200191813603831361023457565b90600182811c921680156125df575b60208310146125c957565b634e487b7160e01b600052602260045260246000fd5b91607f16916125be565b65ffffffffffff808216600052600360205260ff6040600020541661268f57612613600092611ff3565b908061262161140c4261291f565b1690808316918210610cd2576126364261291f565b1610610cc0576005546000915b8183106126505750505090565b9091928161266061146b8661270c565b15612685576001916126758461267b936122cd565b90612070565b935b019190612643565b509260019061267d565b5050600260205260406000205490565b6001600160401b038111610b505760051b60200190565b80518210156126ca5760209160051b010190565b634e487b7160e01b600052603260045260246000fd5b6000546001600160a01b031633036126f457565b60405163118cdaa760e01b8152336004820152602490fd5b6005548110156126ca577f036b6384b5eca791c62761152d0c79bb0604c104a5fb6f4eb0703f3154bb3db001546000818152600760205260409020546001600160a01b039091169165ffffffffffff8083169260301c1690565b6008548110156126ca577ff3f7a9fe364faab93b216da50a3214154f22a0a2b415b23a84c8169e8b636ee301546000818152600a60205260409020546001600160a01b039091169165ffffffffffff8083169260301c1690565b65ffffffffffff90811680151593929084612809575b50836127e3575b50505090565b8116801593509183156127fc575b5050503880806127dd565b16111590503880806127f1565b83831610159350386127d6565b6001600160a01b031661282881612b7d565b9065ffffffffffff91828082161515918261287b575b505061286957612866916128514261291f565b16816000526007602052604060002055612e7b565b50565b604051637952fbad60e11b8152600490fd5b60301c16159050823861283e565b6001600160a01b031661289b81612b33565b9065ffffffffffff9182808216151591826128d9575b505061286957612866916128c44261291f565b1681600052600a602052604060002055612ee1565b60301c1615905082386128b1565b919360a093612055969565ffffffffffff938552600180871b0316602085015260408401521660608201528160808201520190612182565b65ffffffffffff90818111612932571690565b604490604051906306dfcc6560e41b8252603060048301526024820152fd5b81516041810361297e57509061297a916020820151906060604084015193015160001a90612bae565b9091565b6040036129b75760406020830151920151918260ff1c91601b83018093116105365761297a936001600160ff1b03169260ff1690612bae565b5050600090600290565b6005811015612b1d57806129d25750565b60018103612a1f5760405162461bcd60e51b815260206004820152601860248201527f45434453413a20696e76616c6964207369676e617475726500000000000000006044820152606490fd5b60028103612a6c5760405162461bcd60e51b815260206004820152601f60248201527f45434453413a20696e76616c6964207369676e6174757265206c656e677468006044820152606490fd5b60038103612ac45760405162461bcd60e51b815260206004820152602260248201527f45434453413a20696e76616c6964207369676e6174757265202773272076616c604482015261756560f01b6064820152608490fd5b600414612acd57565b60405162461bcd60e51b815260206004820152602260248201527f45434453413a20696e76616c6964207369676e6174757265202776272076616c604482015261756560f01b6064820152608490fd5b634e487b7160e01b600052602160045260246000fd5b80600052600a60205260406000205490811580612b6b575b612b53575090565b6024906040519063015ab34360e11b82526004820152fd5b50600960205260406000205415612b4b565b80600052600760205260406000205490811580612b9c57612b53575090565b50600660205260406000205415612b4b565b9291907f7fffffffffffffffffffffffffffffff5d576e7357a4501ddfe92f46681b20a08311612c575760ff16601b81141580612c4c575b612c40579160809493916020936040519384528484015260408301526060820152600093849182805260015afa15612c335781516001600160a01b03811615612c2d579190565b50600190565b50604051903d90823e3d90fd5b50505050600090600490565b50601c811415612be6565b50505050600090600390565b6008548110156126ca5760086000527ff3f7a9fe364faab93b216da50a3214154f22a0a2b415b23a84c8169e8b636ee30190600090565b6005548110156126ca5760056000527f036b6384b5eca791c62761152d0c79bb0604c104a5fb6f4eb0703f3154bb3db00190600090565b6000818152600960205260408120549091908015612dcd5760001990808201818111612db95760085490838201918211612da557818103612d5a575b5050506008548015612d4657810190612d2582612c63565b909182549160031b1b19169055600855815260096020526040812055600190565b634e487b7160e01b84526031600452602484fd5b612d8f612d69612d7893612c63565b90549060031b1c928392612c63565b819391549060031b91821b91600019901b19161790565b9055845260096020526040842055388080612d0d565b634e487b7160e01b86526011600452602486fd5b634e487b7160e01b85526011600452602485fd5b505090565b6000818152600660205260408120549091908015612dcd5760001990808201818111612db95760055490838201918211612da557818103612e47575b5050506005548015612d4657810190612e2682612c9a565b909182549160031b1b19169055600555815260066020526040812055600190565b612e65612e56612d7893612c9a565b90549060031b1c928392612c9a565b9055845260066020526040842055388080612e0e565b600081815260066020526040812054612edc57600554600160401b811015612ec8579082612eb4612d7884600160409601600555612c9a565b905560055492815260066020522055600190565b634e487b7160e01b82526041600452602482fd5b905090565b600081815260096020526040812054612edc57600854600160401b811015612ec8579082612f1a612d7884600160409601600855612c63565b90556008549281526009602052205560019056fea2646970667358221220569b7fef698544aee3a45e1dede3342982470f63b8703dbf3c131bb659b1466964736f6c63430008190033",
    "linkReferences": {}
  },
  "methodIdentifiers": {
    "EPOCH_DURATION()": "a70b9f0c",
    "NETWORK()": "8759e6d1",
    "OPERATOR_NET_OPTIN()": "93fe3889",
    "OPERATOR_REGISTRY()": "83ce0322",
    "SLASHING_WINDOW()": "22207cc7",
    "START_TIME()": "ddaa26ad",
    "VAULT_REGISTRY()": "02ace7fe",
    "calcAndCacheStakes(uint48)": "28279593",
    "createNewTask(bytes,uint64,string,string)": "29ccc9f9",
    "getCurrentEpoch()": "b97dd9e2",
    "getEpochAtTs(uint48)": "9d94a1e3",
    "getEpochStartTs(uint48)": "11369f0f",
    "getOperatorStake(address,uint48)": "84ca5f7d",
    "getSubnetwork(uint96)": "c3265f0f",
    "getTotalStake(uint48)": "9fee2cdb",
    "getValidatorSet(uint48)": "b8dc4fe9",
    "isAvtiveVault(uint256)": "993640c4",
    "operatorStakeCache(uint48,address)": "ee3738ca",
    "owner()": "8da5cb5b",
    "pauseOperator(address)": "72f9adab",
    "pauseVault(address)": "c0bd6f9e",
    "registerOperator(address)": "3682a450",
    "registerVault(address)": "67ccd1cb",
    "renounceOwnership()": "715018a6",
    "respondToTask((bytes,uint64,string,string,uint32),uint32,bytes)": "9f02df9f",
    "rollupTaskInfos(string)": "39011ab8",
    "setSubnetworksCnt(uint256)": "6a5af20b",
    "slash(uint48,address,uint256)": "48de4b8c",
    "subnetworksCnt()": "87546137",
    "totalStakeCache(uint48)": "321520f4",
    "totalStakeCached(uint48)": "83f582b7",
    "transferOwnership(address)": "f2fde38b",
    "unpauseOperator(address)": "2e5aaf33",
    "unpauseVault(address)": "2efbab2c",
    "unregisterOperator(address)": "96115bc2",
    "unregisterVault(address)": "2633b70f"
  },
  "id": 69
}