{
  "abi": [
    {
      "type": "constructor",
      "inputs": [
        {
          "name": "_network",
          "type": "address",
          "internalType": "address"
        },
        {
          "name": "_vaultFactory",
          "type": "address",
          "internalType": "address"
        },
        {
          "name": "_operatorNetOptIn",
          "type": "address",
          "internalType": "address"
        },
        {
          "name": "_epochDuration",
          "type": "uint48",
          "internalType": "uint48"
        },
        {
          "name": "_slashingWindow",
          "type": "uint48",
          "internalType": "uint48"
        }
      ],
      "stateMutability": "nonpayable"
    },
    {
      "type": "function",
      "name": "EPOCH_DURATION",
      "inputs": [],
      "outputs": [
        {
          "name": "",
          "type": "uint48",
          "internalType": "uint48"
        }
      ],
      "stateMutability": "view"
    },
    {
      "type": "function",
      "name": "NETWORK",
      "inputs": [],
      "outputs": [
        {
          "name": "",
          "type": "address",
          "internalType": "address"
        }
      ],
      "stateMutability": "view"
    },
    {
      "type": "function",
      "name": "OPERATOR_NET_OPT_IN",
      "inputs": [],
      "outputs": [
        {
          "name": "",
          "type": "address",
          "internalType": "address"
        }
      ],
      "stateMutability": "view"
    },
    {
      "type": "function",
      "name": "SLASHING_WINDOW",
      "inputs": [],
      "outputs": [
        {
          "name": "",
          "type": "uint48",
          "internalType": "uint48"
        }
      ],
      "stateMutability": "view"
    },
    {
      "type": "function",
      "name": "START_TIME",
      "inputs": [],
      "outputs": [
        {
          "name": "",
          "type": "uint48",
          "internalType": "uint48"
        }
      ],
      "stateMutability": "view"
    },
    {
      "type": "function",
      "name": "VAULT_FACTORY",
      "inputs": [],
      "outputs": [
        {
          "name": "",
          "type": "address",
          "internalType": "address"
        }
      ],
      "stateMutability": "view"
    },
    {
      "type": "function",
      "name": "calcAndCacheStakes",
      "inputs": [
        {
          "name": "epoch",
          "type": "uint48",
          "internalType": "uint48"
        }
      ],
      "outputs": [
        {
          "name": "totalStake",
          "type": "uint256",
          "internalType": "uint256"
        }
      ],
      "stateMutability": "nonpayable"
    },
    {
      "type": "function",
      "name": "createNewTask",
      "inputs": [
        {
          "name": "_clusterId",
          "type": "string",
          "internalType": "string"
        },
        {
          "name": "_rollupId",
          "type": "string",
          "internalType": "string"
        },
        {
          "name": "_blockNumber",
          "type": "uint256",
          "internalType": "uint256"
        },
        {
          "name": "_blockCommitment",
          "type": "bytes32",
          "internalType": "bytes32"
        }
      ],
      "outputs": [],
      "stateMutability": "nonpayable"
    },
    {
      "type": "function",
      "name": "getCurrentEpoch",
      "inputs": [],
      "outputs": [
        {
          "name": "epoch",
          "type": "uint48",
          "internalType": "uint48"
        }
      ],
      "stateMutability": "view"
    },
    {
      "type": "function",
      "name": "getCurrentOperatorEachTokenStake",
      "inputs": [
        {
          "name": "operator",
          "type": "address",
          "internalType": "address"
        }
      ],
      "outputs": [
        {
          "name": "",
          "type": "tuple[]",
          "internalType": "struct IValidationServiceManager.TokenStake[]",
          "components": [
            {
              "name": "token",
              "type": "address",
              "internalType": "address"
            },
            {
              "name": "stake",
              "type": "uint256",
              "internalType": "uint256"
            }
          ]
        }
      ],
      "stateMutability": "view"
    },
    {
      "type": "function",
      "name": "getCurrentOperatorInfos",
      "inputs": [],
      "outputs": [
        {
          "name": "operatorInfos",
          "type": "tuple[]",
          "internalType": "struct IValidationServiceManager.OperatorInfo[]",
          "components": [
            {
              "name": "operatorAddress",
              "type": "address",
              "internalType": "address"
            },
            {
              "name": "operatingAddress",
              "type": "address",
              "internalType": "address"
            },
            {
              "name": "stakes",
              "type": "tuple[]",
              "internalType": "struct IValidationServiceManager.TokenStake[]",
              "components": [
                {
                  "name": "token",
                  "type": "address",
                  "internalType": "address"
                },
                {
                  "name": "stake",
                  "type": "uint256",
                  "internalType": "uint256"
                }
              ]
            },
            {
              "name": "stake",
              "type": "uint256",
              "internalType": "uint256"
            }
          ]
        }
      ],
      "stateMutability": "view"
    },
    {
      "type": "function",
      "name": "getCurrentOperatorOperatingAddress",
      "inputs": [
        {
          "name": "operator",
          "type": "address",
          "internalType": "address"
        }
      ],
      "outputs": [
        {
          "name": "",
          "type": "address",
          "internalType": "address"
        }
      ],
      "stateMutability": "view"
    },
    {
      "type": "function",
      "name": "getCurrentOperatorStake",
      "inputs": [
        {
          "name": "operator",
          "type": "address",
          "internalType": "address"
        }
      ],
      "outputs": [
        {
          "name": "",
          "type": "uint256",
          "internalType": "uint256"
        }
      ],
      "stateMutability": "view"
    },
    {
      "type": "function",
      "name": "getCurrentOperatorTokenStake",
      "inputs": [
        {
          "name": "operator",
          "type": "address",
          "internalType": "address"
        },
        {
          "name": "token",
          "type": "address",
          "internalType": "address"
        }
      ],
      "outputs": [
        {
          "name": "",
          "type": "uint256",
          "internalType": "uint256"
        }
      ],
      "stateMutability": "view"
    },
    {
      "type": "function",
      "name": "getCurrentTokenTotalStake",
      "inputs": [
        {
          "name": "token",
          "type": "address",
          "internalType": "address"
        }
      ],
      "outputs": [
        {
          "name": "",
          "type": "uint256",
          "internalType": "uint256"
        }
      ],
      "stateMutability": "view"
    },
    {
      "type": "function",
      "name": "getCurrentTotalStake",
      "inputs": [],
      "outputs": [
        {
          "name": "",
          "type": "uint256",
          "internalType": "uint256"
        }
      ],
      "stateMutability": "view"
    },
    {
      "type": "function",
      "name": "getCurrentVaults",
      "inputs": [],
      "outputs": [
        {
          "name": "",
          "type": "address[]",
          "internalType": "address[]"
        }
      ],
      "stateMutability": "view"
    },
    {
      "type": "function",
      "name": "getEpochAtTs",
      "inputs": [
        {
          "name": "timestamp",
          "type": "uint48",
          "internalType": "uint48"
        }
      ],
      "outputs": [
        {
          "name": "epoch",
          "type": "uint48",
          "internalType": "uint48"
        }
      ],
      "stateMutability": "view"
    },
    {
      "type": "function",
      "name": "getEpochStartTs",
      "inputs": [
        {
          "name": "epoch",
          "type": "uint48",
          "internalType": "uint48"
        }
      ],
      "outputs": [
        {
          "name": "timestamp",
          "type": "uint48",
          "internalType": "uint48"
        }
      ],
      "stateMutability": "view"
    },
    {
      "type": "function",
      "name": "getOperatorByOperatingAddress",
      "inputs": [
        {
          "name": "operatingAddress",
          "type": "address",
          "internalType": "address"
        }
      ],
      "outputs": [
        {
          "name": "",
          "type": "address",
          "internalType": "address"
        }
      ],
      "stateMutability": "view"
    },
    {
      "type": "function",
      "name": "getOperatorEachTokenStake",
      "inputs": [
        {
          "name": "operator",
          "type": "address",
          "internalType": "address"
        },
        {
          "name": "epoch",
          "type": "uint48",
          "internalType": "uint48"
        }
      ],
      "outputs": [
        {
          "name": "tokenStakes",
          "type": "tuple[]",
          "internalType": "struct IValidationServiceManager.TokenStake[]",
          "components": [
            {
              "name": "token",
              "type": "address",
              "internalType": "address"
            },
            {
              "name": "stake",
              "type": "uint256",
              "internalType": "uint256"
            }
          ]
        }
      ],
      "stateMutability": "view"
    },
    {
      "type": "function",
      "name": "getOperatorInfos",
      "inputs": [
        {
          "name": "epoch",
          "type": "uint48",
          "internalType": "uint48"
        }
      ],
      "outputs": [
        {
          "name": "operatorInfos",
          "type": "tuple[]",
          "internalType": "struct IValidationServiceManager.OperatorInfo[]",
          "components": [
            {
              "name": "operatorAddress",
              "type": "address",
              "internalType": "address"
            },
            {
              "name": "operatingAddress",
              "type": "address",
              "internalType": "address"
            },
            {
              "name": "stakes",
              "type": "tuple[]",
              "internalType": "struct IValidationServiceManager.TokenStake[]",
              "components": [
                {
                  "name": "token",
                  "type": "address",
                  "internalType": "address"
                },
                {
                  "name": "stake",
                  "type": "uint256",
                  "internalType": "uint256"
                }
              ]
            },
            {
              "name": "stake",
              "type": "uint256",
              "internalType": "uint256"
            }
          ]
        }
      ],
      "stateMutability": "view"
    },
    {
      "type": "function",
      "name": "getOperatorOperatingAddressAt",
      "inputs": [
        {
          "name": "operator",
          "type": "address",
          "internalType": "address"
        },
        {
          "name": "timestamp",
          "type": "uint48",
          "internalType": "uint48"
        }
      ],
      "outputs": [
        {
          "name": "",
          "type": "address",
          "internalType": "address"
        }
      ],
      "stateMutability": "view"
    },
    {
      "type": "function",
      "name": "getOperatorStake",
      "inputs": [
        {
          "name": "operator",
          "type": "address",
          "internalType": "address"
        },
        {
          "name": "epoch",
          "type": "uint48",
          "internalType": "uint48"
        }
      ],
      "outputs": [
        {
          "name": "stake",
          "type": "uint256",
          "internalType": "uint256"
        }
      ],
      "stateMutability": "view"
    },
    {
      "type": "function",
      "name": "getOperatorTokenStake",
      "inputs": [
        {
          "name": "operator",
          "type": "address",
          "internalType": "address"
        },
        {
          "name": "token",
          "type": "address",
          "internalType": "address"
        },
        {
          "name": "epoch",
          "type": "uint48",
          "internalType": "uint48"
        }
      ],
      "outputs": [
        {
          "name": "stake",
          "type": "uint256",
          "internalType": "uint256"
        }
      ],
      "stateMutability": "view"
    },
    {
      "type": "function",
      "name": "getSubnetwork",
      "inputs": [
        {
          "name": "index",
          "type": "uint96",
          "internalType": "uint96"
        }
      ],
      "outputs": [
        {
          "name": "",
          "type": "bytes32",
          "internalType": "bytes32"
        }
      ],
      "stateMutability": "view"
    },
    {
      "type": "function",
      "name": "getTokenAddress",
      "inputs": [
        {
          "name": "collateralOrToken",
          "type": "address",
          "internalType": "address"
        }
      ],
      "outputs": [
        {
          "name": "",
          "type": "address",
          "internalType": "address"
        }
      ],
      "stateMutability": "view"
    },
    {
      "type": "function",
      "name": "getTokenTotalStake",
      "inputs": [
        {
          "name": "token",
          "type": "address",
          "internalType": "address"
        },
        {
          "name": "epoch",
          "type": "uint48",
          "internalType": "uint48"
        }
      ],
      "outputs": [
        {
          "name": "",
          "type": "uint256",
          "internalType": "uint256"
        }
      ],
      "stateMutability": "view"
    },
    {
      "type": "function",
      "name": "getTotalStake",
      "inputs": [
        {
          "name": "epoch",
          "type": "uint48",
          "internalType": "uint48"
        }
      ],
      "outputs": [
        {
          "name": "",
          "type": "uint256",
          "internalType": "uint256"
        }
      ],
      "stateMutability": "view"
    },
    {
      "type": "function",
      "name": "getVaults",
      "inputs": [
        {
          "name": "epoch",
          "type": "uint48",
          "internalType": "uint48"
        }
      ],
      "outputs": [
        {
          "name": "",
          "type": "address[]",
          "internalType": "address[]"
        }
      ],
      "stateMutability": "view"
    },
    {
      "type": "function",
      "name": "isActiveVault",
      "inputs": [
        {
          "name": "vault",
          "type": "address",
          "internalType": "address"
        }
      ],
      "outputs": [
        {
          "name": "",
          "type": "bool",
          "internalType": "bool"
        }
      ],
      "stateMutability": "view"
    },
    {
      "type": "function",
      "name": "operatorStakeCache",
      "inputs": [
        {
          "name": "",
          "type": "uint48",
          "internalType": "uint48"
        },
        {
          "name": "",
          "type": "address",
          "internalType": "address"
        }
      ],
      "outputs": [
        {
          "name": "",
          "type": "uint256",
          "internalType": "uint256"
        }
      ],
      "stateMutability": "view"
    },
    {
      "type": "function",
      "name": "operatorTokenStakeCache",
      "inputs": [
        {
          "name": "",
          "type": "uint48",
          "internalType": "uint48"
        },
        {
          "name": "",
          "type": "address",
          "internalType": "address"
        },
        {
          "name": "",
          "type": "address",
          "internalType": "address"
        }
      ],
      "outputs": [
        {
          "name": "",
          "type": "uint256",
          "internalType": "uint256"
        }
      ],
      "stateMutability": "view"
    },
    {
      "type": "function",
      "name": "owner",
      "inputs": [],
      "outputs": [
        {
          "name": "",
          "type": "address",
          "internalType": "address"
        }
      ],
      "stateMutability": "view"
    },
    {
      "type": "function",
      "name": "pauseOperator",
      "inputs": [
        {
          "name": "operator",
          "type": "address",
          "internalType": "address"
        }
      ],
      "outputs": [],
      "stateMutability": "nonpayable"
    },
    {
      "type": "function",
      "name": "pauseToken",
      "inputs": [
        {
          "name": "token",
          "type": "address",
          "internalType": "address"
        }
      ],
      "outputs": [],
      "stateMutability": "nonpayable"
    },
    {
      "type": "function",
      "name": "pauseVault",
      "inputs": [
        {
          "name": "vault",
          "type": "address",
          "internalType": "address"
        }
      ],
      "outputs": [],
      "stateMutability": "nonpayable"
    },
    {
      "type": "function",
      "name": "registerOperator",
      "inputs": [
        {
          "name": "operator",
          "type": "address",
          "internalType": "address"
        },
        {
          "name": "operatingAddress",
          "type": "address",
          "internalType": "address"
        }
      ],
      "outputs": [],
      "stateMutability": "nonpayable"
    },
    {
      "type": "function",
      "name": "registerToken",
      "inputs": [
        {
          "name": "token",
          "type": "address",
          "internalType": "address"
        }
      ],
      "outputs": [],
      "stateMutability": "nonpayable"
    },
    {
      "type": "function",
      "name": "registerVault",
      "inputs": [
        {
          "name": "vault",
          "type": "address",
          "internalType": "address"
        }
      ],
      "outputs": [],
      "stateMutability": "nonpayable"
    },
    {
      "type": "function",
      "name": "renounceOwnership",
      "inputs": [],
      "outputs": [],
      "stateMutability": "nonpayable"
    },
    {
      "type": "function",
      "name": "respondToTask",
      "inputs": [
        {
          "name": "clusterId",
          "type": "string",
          "internalType": "string"
        },
        {
          "name": "rollupId",
          "type": "string",
          "internalType": "string"
        },
        {
          "name": "referenceTaskIndex",
          "type": "uint32",
          "internalType": "uint32"
        },
        {
          "name": "response",
          "type": "bool",
          "internalType": "bool"
        }
      ],
      "outputs": [],
      "stateMutability": "nonpayable"
    },
    {
      "type": "function",
      "name": "rollupTaskInfos",
      "inputs": [
        {
          "name": "",
          "type": "string",
          "internalType": "string"
        }
      ],
      "outputs": [
        {
          "name": "latestTaskNumber",
          "type": "uint256",
          "internalType": "uint256"
        }
      ],
      "stateMutability": "view"
    },
    {
      "type": "function",
      "name": "setSubnetworksCnt",
      "inputs": [
        {
          "name": "_subnetworksCnt",
          "type": "uint256",
          "internalType": "uint256"
        }
      ],
      "outputs": [],
      "stateMutability": "nonpayable"
    },
    {
      "type": "function",
      "name": "slash",
      "inputs": [
        {
          "name": "epoch",
          "type": "uint48",
          "internalType": "uint48"
        },
        {
          "name": "operator",
          "type": "address",
          "internalType": "address"
        },
        {
          "name": "amount",
          "type": "uint256",
          "internalType": "uint256"
        }
      ],
      "outputs": [],
      "stateMutability": "nonpayable"
    },
    {
      "type": "function",
      "name": "subnetworksCnt",
      "inputs": [],
      "outputs": [
        {
          "name": "",
          "type": "uint256",
          "internalType": "uint256"
        }
      ],
      "stateMutability": "view"
    },
    {
      "type": "function",
      "name": "tokenTotalStakeCache",
      "inputs": [
        {
          "name": "",
          "type": "uint48",
          "internalType": "uint48"
        },
        {
          "name": "",
          "type": "address",
          "internalType": "address"
        }
      ],
      "outputs": [
        {
          "name": "",
          "type": "uint256",
          "internalType": "uint256"
        }
      ],
      "stateMutability": "view"
    },
    {
      "type": "function",
      "name": "totalStakeCache",
      "inputs": [
        {
          "name": "",
          "type": "uint48",
          "internalType": "uint48"
        }
      ],
      "outputs": [
        {
          "name": "",
          "type": "uint256",
          "internalType": "uint256"
        }
      ],
      "stateMutability": "view"
    },
    {
      "type": "function",
      "name": "totalStakeCached",
      "inputs": [
        {
          "name": "",
          "type": "uint48",
          "internalType": "uint48"
        }
      ],
      "outputs": [
        {
          "name": "",
          "type": "bool",
          "internalType": "bool"
        }
      ],
      "stateMutability": "view"
    },
    {
      "type": "function",
      "name": "transferOwnership",
      "inputs": [
        {
          "name": "newOwner",
          "type": "address",
          "internalType": "address"
        }
      ],
      "outputs": [],
      "stateMutability": "nonpayable"
    },
    {
      "type": "function",
      "name": "unpauseOperator",
      "inputs": [
        {
          "name": "operator",
          "type": "address",
          "internalType": "address"
        }
      ],
      "outputs": [],
      "stateMutability": "nonpayable"
    },
    {
      "type": "function",
      "name": "unpauseToken",
      "inputs": [
        {
          "name": "token",
          "type": "address",
          "internalType": "address"
        }
      ],
      "outputs": [],
      "stateMutability": "nonpayable"
    },
    {
      "type": "function",
      "name": "unpauseVault",
      "inputs": [
        {
          "name": "vault",
          "type": "address",
          "internalType": "address"
        }
      ],
      "outputs": [],
      "stateMutability": "nonpayable"
    },
    {
      "type": "function",
      "name": "unregisterOperator",
      "inputs": [
        {
          "name": "operator",
          "type": "address",
          "internalType": "address"
        }
      ],
      "outputs": [],
      "stateMutability": "nonpayable"
    },
    {
      "type": "function",
      "name": "unregisterToken",
      "inputs": [
        {
          "name": "token",
          "type": "address",
          "internalType": "address"
        }
      ],
      "outputs": [],
      "stateMutability": "nonpayable"
    },
    {
      "type": "function",
      "name": "unregisterVault",
      "inputs": [
        {
          "name": "vault",
          "type": "address",
          "internalType": "address"
        }
      ],
      "outputs": [],
      "stateMutability": "nonpayable"
    },
    {
      "type": "function",
      "name": "updateOperatingAddress",
      "inputs": [
        {
          "name": "operator",
          "type": "address",
          "internalType": "address"
        },
        {
          "name": "operatingAddress",
          "type": "address",
          "internalType": "address"
        }
      ],
      "outputs": [],
      "stateMutability": "nonpayable"
    },
    {
      "type": "function",
      "name": "verify",
      "inputs": [
        {
          "name": "rollupId",
          "type": "string",
          "internalType": "string"
        },
        {
          "name": "blockNumber",
          "type": "uint64",
          "internalType": "uint64"
        },
        {
          "name": "order",
          "type": "uint256",
          "internalType": "uint256"
        },
        {
          "name": "proof",
          "type": "bytes32[]",
          "internalType": "bytes32[]"
        },
        {
          "name": "leaf",
          "type": "bytes32",
          "internalType": "bytes32"
        }
      ],
      "outputs": [
        {
          "name": "",
          "type": "bool",
          "internalType": "bool"
        }
      ],
      "stateMutability": "view"
    },
    {
      "type": "event",
      "name": "NewTaskCreated",
      "inputs": [
        {
          "name": "clusterId",
          "type": "string",
          "indexed": false,
          "internalType": "string"
        },
        {
          "name": "rollupId",
          "type": "string",
          "indexed": false,
          "internalType": "string"
        },
        {
          "name": "referenceTaskIndex",
          "type": "uint256",
          "indexed": false,
          "internalType": "uint256"
        },
        {
          "name": "blockNumber",
          "type": "uint256",
          "indexed": false,
          "internalType": "uint256"
        },
        {
          "name": "blockCommitment",
          "type": "bytes32",
          "indexed": false,
          "internalType": "bytes32"
        },
        {
          "name": "taskCreatedBlock",
          "type": "uint256",
          "indexed": false,
          "internalType": "uint256"
        }
      ],
      "anonymous": false
    },
    {
      "type": "event",
      "name": "OwnershipTransferred",
      "inputs": [
        {
          "name": "previousOwner",
          "type": "address",
          "indexed": true,
          "internalType": "address"
        },
        {
          "name": "newOwner",
          "type": "address",
          "indexed": true,
          "internalType": "address"
        }
      ],
      "anonymous": false
    },
    {
      "type": "event",
      "name": "RegisterOperator",
      "inputs": [
        {
          "name": "operator",
          "type": "address",
          "indexed": false,
          "internalType": "address"
        },
        {
          "name": "operatingAddress",
          "type": "address",
          "indexed": false,
          "internalType": "address"
        }
      ],
      "anonymous": false
    },
    {
      "type": "event",
      "name": "RegisterToken",
      "inputs": [
        {
          "name": "token",
          "type": "address",
          "indexed": false,
          "internalType": "address"
        }
      ],
      "anonymous": false
    },
    {
      "type": "event",
      "name": "RegisterVault",
      "inputs": [
        {
          "name": "vault",
          "type": "address",
          "indexed": false,
          "internalType": "address"
        }
      ],
      "anonymous": false
    },
    {
      "type": "event",
      "name": "TaskResponded",
      "inputs": [
        {
          "name": "clusterId",
          "type": "string",
          "indexed": false,
          "internalType": "string"
        },
        {
          "name": "rollupId",
          "type": "string",
          "indexed": false,
          "internalType": "string"
        },
        {
          "name": "referenceTaskIndex",
          "type": "uint256",
          "indexed": false,
          "internalType": "uint256"
        },
        {
          "name": "response",
          "type": "bool",
          "indexed": false,
          "internalType": "bool"
        }
      ],
      "anonymous": false
    },
    {
      "type": "event",
      "name": "UnregisterOperator",
      "inputs": [
        {
          "name": "operator",
          "type": "address",
          "indexed": false,
          "internalType": "address"
        }
      ],
      "anonymous": false
    },
    {
      "type": "event",
      "name": "UnregisterToken",
      "inputs": [
        {
          "name": "token",
          "type": "address",
          "indexed": false,
          "internalType": "address"
        }
      ],
      "anonymous": false
    },
    {
      "type": "event",
      "name": "UnregisterVault",
      "inputs": [
        {
          "name": "vault",
          "type": "address",
          "indexed": false,
          "internalType": "address"
        }
      ],
      "anonymous": false
    },
    {
      "type": "event",
      "name": "UpdateOperating",
      "inputs": [
        {
          "name": "operator",
          "type": "address",
          "indexed": false,
          "internalType": "address"
        },
        {
          "name": "operatingAddress",
          "type": "address",
          "indexed": false,
          "internalType": "address"
        }
      ],
      "anonymous": false
    },
    {
      "type": "error",
      "name": "AlreadyAdded",
      "inputs": []
    },
    {
      "type": "error",
      "name": "AlreadyEnabled",
      "inputs": []
    },
    {
      "type": "error",
      "name": "CheckpointUnorderedInsertion",
      "inputs": []
    },
    {
      "type": "error",
      "name": "DuplicateOperatingAddress",
      "inputs": []
    },
    {
      "type": "error",
      "name": "EnumerableMapNonexistentKey",
      "inputs": [
        {
          "name": "key",
          "type": "bytes32",
          "internalType": "bytes32"
        }
      ]
    },
    {
      "type": "error",
      "name": "InvalidEpoch",
      "inputs": []
    },
    {
      "type": "error",
      "name": "InvalidSubnetworksCnt",
      "inputs": []
    },
    {
      "type": "error",
      "name": "NotEnabled",
      "inputs": []
    },
    {
      "type": "error",
      "name": "OperatorAlreadyRegistered",
      "inputs": []
    },
    {
      "type": "error",
      "name": "OperatorGracePeriodNotPassed",
      "inputs": []
    },
    {
      "type": "error",
      "name": "OperatorNotActive",
      "inputs": []
    },
    {
      "type": "error",
      "name": "OperatorNotOptedIn",
      "inputs": []
    },
    {
      "type": "error",
      "name": "OperatorNotRegistered",
      "inputs": []
    },
    {
      "type": "error",
      "name": "OwnableInvalidOwner",
      "inputs": [
        {
          "name": "owner",
          "type": "address",
          "internalType": "address"
        }
      ]
    },
    {
      "type": "error",
      "name": "OwnableUnauthorizedAccount",
      "inputs": [
        {
          "name": "account",
          "type": "address",
          "internalType": "address"
        }
      ]
    },
    {
      "type": "error",
      "name": "SafeCastOverflowedUintDowncast",
      "inputs": [
        {
          "name": "bits",
          "type": "uint8",
          "internalType": "uint8"
        },
        {
          "name": "value",
          "type": "uint256",
          "internalType": "uint256"
        }
      ]
    },
    {
      "type": "error",
      "name": "SlashingWindowTooShort",
      "inputs": []
    },
    {
      "type": "error",
      "name": "TokenAlreadyRegistered",
      "inputs": []
    },
    {
      "type": "error",
      "name": "TokenGracePeriodNotPassed",
      "inputs": []
    },
    {
      "type": "error",
      "name": "TokenNotWhitelisted",
      "inputs": []
    },
    {
      "type": "error",
      "name": "TooBigSlashAmount",
      "inputs": []
    },
    {
      "type": "error",
      "name": "TooOldEpoch",
      "inputs": []
    },
    {
      "type": "error",
      "name": "UnknownSlasherType",
      "inputs": []
    },
    {
      "type": "error",
      "name": "VaultAlreadyRegistered",
      "inputs": []
    },
    {
      "type": "error",
      "name": "VaultEpochTooShort",
      "inputs": []
    },
    {
      "type": "error",
      "name": "VaultGracePeriodNotPassed",
      "inputs": []
    },
    {
      "type": "error",
      "name": "VaultNotRegisteredInSymbiotic",
      "inputs": []
    }
  ],
  "bytecode": {
    "object": "0x610140346101f357601f613f3838819003918201601f1916830191906001600160401b038311848410176101f8578160a092859260409586528339810103126101f35761004b8261020e565b906100586020840161020e565b9261006482820161020e565b61007c608061007560608501610222565b9301610222565b9433156101db5760008054336001600160a01b03198216811783558651979290916001600160a01b0316907f8be0079c531659141344cd1fd0a4f28419497f9722a3daafe3b4186f6b6457e09080a365ffffffffffff95868516878916106101cc57508542116101ae57610120954216865260805260c05260a05260e05261010092835260016005555190613d029283610236843960805183818161169501528181611c1101528181611c8d0152818161278e0152612de1015260a051838181610d4f0152611cbf015260c05183818161051e0152610e57015260e051838181611a8b015281816120420152612a870152518281816106cc015281816107de01528181610f4f01528181611519015281816117b60152613452015251818181611e16015281816120740152612a580152f35b84516306dfcc6560e41b815260306004820152426024820152604490fd5b63188a354160e31b8152600490fd5b8351631e4fbdf760e01b815260006004820152602490fd5b600080fd5b634e487b7160e01b600052604160045260246000fd5b51906001600160a01b03821682036101f357565b519065ffffffffffff821682036101f35756fe6080604052600436101561001257600080fd5b60003560e01c806305a1fb22146103b757806309824a80146103b25780630d8285d2146103ad578063103f2907146103a857806311369f0f146103a35780631209fe741461039e578063212c9c0e1461039957806322207cc714610394578063235d87ab1461038f5780632633b70f1461038a57806327d747561461038557806328279593146103805780632e5aaf331461037b5780632efbab2c14610376578063321520f41461037157806332a90e1b1461036c57806339011ab8146103675780633a003510146103625780633b3bff0f1461035d5780634719eff81461035857806348de4b8c146103535780635972671f1461034e5780636383eeb71461034957806366873c6e1461034457806367ccd1cb1461033f5780636a5af20b1461033a578063715018a61461033557806372f9adab1461033057806377329af81461032b57806377860cdd146103265780637c41ad2c146103215780637faffcdd1461031c57806383f582b71461031757806384ca5f7d14610312578063875461371461030d5780638759e6d1146103085780638da5cb5b1461030357806395187eac146102fe57806396115bc2146102f95780639807564a146102f45780639d94a1e3146102ef5780639eea016c146102ea5780639fee2cdb146102e5578063a70b9f0c146102e0578063b29331c4146102db578063b879566c146102d6578063b8d7b669146102d1578063b97dd9e2146102cc578063c0bd6f9e146102c7578063c3265f0f146102c2578063ce49f361146102bd578063ce5bd5e3146102b8578063ddaa26ad146102b3578063e0a4f897146102ae578063e3111cda146102a9578063ee3738ca146102a4578063f2fde38b1461029f5763f997443f1461029a57600080fd5b611f73565b611ee7565b611ea8565b611e68565b611e3a565b611df7565b611d77565b611c3a565b611bd6565b611b47565b611b28565b611b01565b611ac2565b611aaf565b611a6c565b611a4a565b611906565b6118e4565b611819565b61171c565b6116ed565b6116c4565b61167f565b611661565b611648565b611606565b6115e3565b611554565b61147f565b6112e2565b61120a565b6111ac565b61116f565b610dde565b610d96565b610d39565b610d13565b610c41565b610c1e565b610bf1565b610bcc565b610b54565b610a32565b6109b0565b610983565b610954565b61092d565b6108f5565b61073a565b6106f0565b6106ad565b6105e3565b610594565b61055d565b610508565b6104c7565b61040b565b6103d2565b6001600160a01b038116036103cd57565b600080fd5b346103cd5760203660031901126103cd5760206103f96004356103f4816103bc565b611f8c565b6040516001600160a01b039091168152f35b346103cd5760203660031901126103cd57600435610428816103bc565b610430612ffc565b6001600160a01b0381166000818152601260205260408120549092906104b557818352601360205282604081205561046782613b73565b156104a3577ff7fe8023cb2e36bde1d59a88ac5763a8c11be6d25e6819f71bb7e23e5bf0dc1691610499602092613071565b604051908152a180f35b60405163f411c32760e01b8152600490fd5b604051633ea7ffd960e11b8152600490fd5b346103cd5760203660031901126103cd5760206105006004356104e9816103bc565b6104fa6104f5426135d6565b612a52565b90612c2d565b604051908152f35b346103cd5760003660031901126103cd576040517f00000000000000000000000000000000000000000000000000000000000000006001600160a01b03168152602090f35b65ffffffffffff8116036103cd57565b346103cd5760203660031901126103cd57602061058460043561057f8161054d565b612036565b65ffffffffffff60405191168152f35b346103cd5760003660031901126103cd5760206105006105b66104f5426135d6565b612b99565b60409060031901126103cd576004356105d3816103bc565b906024356105e0816103bc565b90565b346103cd576105f1366105bb565b6001600160a01b0382166000818152600c60205260409020541561069b5733036106655781610641827f096de0de30acea7313021d724ccec407c19b684dc6209ee5149c75f9aeb8fcf6946131a0565b604080516001600160a01b039283168152929091166020830152819081015b0390a1005b60405162461bcd60e51b815260206004820152600e60248201526d139bdd08185d5d1a1bdc9a5e995960921b6044820152606490fd5b6040516325ec6c1f60e01b8152600490fd5b346103cd5760003660031901126103cd57602060405165ffffffffffff7f0000000000000000000000000000000000000000000000000000000000000000168152f35b346103cd5760203660031901126103cd576020610730600435610712816103bc565b61072a61072461057f6104f5426135d6565b9161328c565b906132d5565b6040519015158152f35b346103cd5760203660031901126103cd57600435610757816103bc565b61075f612ffc565b6107688161328c565b905065ffffffffffff808216159182156107d6575b50506107c4577f87959c3c7654d20b2d42011ac741ae4d7722f97dd4e8ffda70d9874c82be49ec906020906001600160a01b03166107ba81613608565b50604051908152a1005b6040516347a11ef760e11b8152600490fd5b6108039192507f000000000000000000000000000000000000000000000000000000000000000090612017565b908061080e426135d6565b16911611388061077d565b6020808201908083528351809252604092604081018260408560051b840101960194600080935b86851061085257505050505050505090565b9091929394959697603f1982820301855286895160809081840160018060a01b0380835116865284830151168486015287820151928886015282518091528360a0860193019087905b8082106108c557505050606090810151930192909252909881019796956001019401929190610840565b825180516001600160a01b03168652602090810151908601528c956040909501949092019160019091019061089b565b346103cd5760203660031901126103cd5761092961091d6004356109188161054d565b6120d6565b60405191829182610819565b0390f35b346103cd5760203660031901126103cd57602061050060043561094f8161054d565b61223d565b346103cd5760203660031901126103cd57610981600435610974816103bc565b61097c612ffc565b6130e4565b005b346103cd5760203660031901126103cd576109816004356109a3816103bc565b6109ab612ffc565b613142565b346103cd5760203660031901126103cd5765ffffffffffff6004356109d48161054d565b1660005260076020526020604060002054604051908152f35b602090602060408183019282815285518094520193019160005b828110610a15575050505090565b83516001600160a01b031685529381019392810192600101610a07565b346103cd5760203660031901126103cd57610929610a5a600435610a558161054d565b6123e4565b604051918291826109ed565b634e487b7160e01b600052604160045260246000fd5b604081019081106001600160401b03821117610a9757604052565b610a66565b90601f801991011681019081106001600160401b03821117610a9757604052565b60405190608082018281106001600160401b03821117610a9757604052565b60405190610ae982610a7c565b565b9291926001600160401b038211610a975760405191610b14601f8201601f191660200184610a9c565b8294818452818301116103cd578281602093846000960137010152565b60005b838110610b445750506000910152565b8181015183820152602001610b34565b346103cd5760203660031901126103cd576004356001600160401b0381116103cd57366023820112156103cd57610bb06020610b9d610929933690602481600401359101610aeb565b8160405193828580945193849201610b31565b8101601481520301902054604051918291829190602083019252565b346103cd576020610500610bdf366105bb565b610beb6104f5426135d6565b91612cd2565b346103cd5760203660031901126103cd57610981600435610c11816103bc565b610c19612ffc565b613071565b346103cd5760003660031901126103cd57610929610a5a610a556104f5426135d6565b346103cd5760603660031901126103cd57600435610c5e8161054d565b610c696024356103bc565b610c71612ffc565b65ffffffffffff8116600052600660205260ff6040600020541615610c9257005b6109819061223d565b60409060031901126103cd57600435610cb3816103bc565b906024356105e08161054d565b602090602060408183019282815285518094520193019160005b828110610ce8575050505090565b835180516001600160a01b031686526020908101519086015260409094019392810192600101610cda565b346103cd57610929610d2d610d2736610c9b565b90612477565b60405191829182610cc0565b346103cd5760003660031901126103cd576040517f00000000000000000000000000000000000000000000000000000000000000006001600160a01b03168152602090f35b60409060031901126103cd576004356105d38161054d565b346103cd576020610dd565ffffffffffff610db036610d7e565b91166000526008835260406000209060018060a01b0316600052602052604060002090565b54604051908152f35b346103cd576020806003193601126103cd57600490813591610dff836103bc565b610e07612ffc565b6001600160a01b038381166000818152600f602052604090205491939161115e57604080516302910f8b60e31b81526001600160a01b0387168582019081529195918490829081906020010381857f0000000000000000000000000000000000000000000000000000000000000000165afa90811561103d57600091611131575b501561112157845163d8dfeb4560e01b815283818681865afa801561103d57610ec0610edd91610ee193600091611104575b50612c7b565b6001600160a01b0316600090815260126020526040902054151590565b1590565b6110f45784516327f843b560e11b81529083828681865afa90811561103d5785926000926110d5575b5084829488519485809263b134427160e01b82525afa801561103d5786936000916110a8575b501680151580611042575b610fd4575b505050905065ffffffffffff807f000000000000000000000000000000000000000000000000000000000000000016911610610fc6577f468adcfd40030ef2c9e5a66d79b4a16eac33fa50faab1226dbf838ddd82d98536106608484610fa582613028565b610fae82613142565b516001600160a01b0390911681529081906020820190565b905163121f507960e11b8152fd5b849192935086519384809263e054e08b60e01b82525afa91821561103d576110059360009361100e575b50506125c4565b80823880610f40565b61102e929350803d10611036575b6110268183610a9c565b81019061259a565b903880610ffe565b503d61101c565b612579565b508651635d927f4560e11b8152925084838781845afa801561103d576001600160401b03600191889560009161107b575b501614610f3b565b61109b9150883d8a116110a1575b6110938183610a9c565b8101906125af565b38611073565b503d611089565b6110c89150863d88116110ce575b6110c08183610a9c565b810190612585565b38610f30565b503d6110b6565b6110ed919250853d8711611036576110268183610a9c565b9038610f0a565b84516307c241ad60e51b81528490fd5b61111b9150873d89116110ce576110c08183610a9c565b38610eba565b8451634ba0b1df60e01b81528490fd5b6111519150843d8611611157575b6111498183610a9c565b810190612564565b38610e88565b503d61113f565b6040516324ec133760e11b81528390fd5b346103cd5760203660031901126103cd5760043561118b612ffc565b80600554101561119a57600555005b60405163e1115e0160e01b8152600490fd5b346103cd57600080600319360112611207576111c6612ffc565b80546001600160a01b03198116825581906001600160a01b03167f8be0079c531659141344cd1fd0a4f28419497f9722a3daafe3b4186f6b6457e08280a380f35b80fd5b346103cd5760203660031901126103cd57600435611227816103bc565b61122f612ffc565b6001600160a01b031661124181613653565b9065ffffffffffff8083161590811561129c575b5061128a576109819165ffffffffffff60301b611271426135d6565b60301b161781600052600d602052604060002055613bea565b604051633f54562b60e11b8152600490fd5b90508260301c16151538611255565b9181601f840112156103cd578235916001600160401b0383116103cd57602083818601950101116103cd57565b801515036103cd57565b346103cd5760803660031901126103cd576001600160401b036004358181116103cd576113139036906004016112ab565b90916024359081116103cd5761132d9036906004016112ab565b929060443563ffffffff811681036103cd576064359061134c826112d8565b6113616001611359613524565b1515146125dc565b60ff6113ae8261139960036040518b8982376020818d81016014815203019020013360018060a01b0316600052602052604060002090565b9063ffffffff16600052602052604060002090565b5416611427577f15f09ac3be4dd510cf733b625bc167cb7ddc800a47db359e81bbb1aaf8d4411a956106609361141b8461140a856113993360036113f28989612628565b019060018060a01b0316600052602052604060002090565b9060ff801983541691151516179055565b60405196879687612662565b60405162461bcd60e51b815260206004820152602a60248201527f4f70657261746f722068617320616c726561647920726573706f6e64656420746044820152696f20746865207461736b60b01b6064820152608490fd5b346103cd5760203660031901126103cd5760043561149c816103bc565b6114a4612ffc565b6114ad816132b1565b905065ffffffffffff80821615918215611511575b50506114ff577fca2a890939276223a9122217752c67608466faee388aff53f077d00a186a389b906020906001600160a01b03166107ba81613621565b60405163a53697ff60e01b8152600490fd5b61153e9192507f000000000000000000000000000000000000000000000000000000000000000090612017565b9080611549426135d6565b1691161138806114c2565b346103cd5760203660031901126103cd57600435611571816103bc565b611579612ffc565b6001600160a01b031661158b8161369d565b9065ffffffffffff808316159081156115d4575b5061128a576109819165ffffffffffff60301b6115bb426135d6565b60301b1617816000526013602052604060002055613b73565b90508260301c1615153861159f565b346103cd5760003660031901126103cd5761092961091d6109186104f5426135d6565b346103cd5760203660031901126103cd5765ffffffffffff60043561162a8161054d565b166000526006602052602060ff604060002054166040519015158152f35b346103cd57602061050061165b36610c9b565b9061274b565b346103cd5760003660031901126103cd576020600554604051908152f35b346103cd5760003660031901126103cd576040517f00000000000000000000000000000000000000000000000000000000000000006001600160a01b03168152602090f35b346103cd5760003660031901126103cd576000546040516001600160a01b039091168152602090f35b346103cd5760203660031901126103cd57610929610d2d600435611710816103bc565b610d276104f5426135d6565b346103cd5760203660031901126103cd57600435611739816103bc565b611741612ffc565b61174a816132c3565b905065ffffffffffff808216159182156117ae575b505061179c577fd1b48d1e49885298af5dc8adc7777836ef804b38af88eabf4e079c04ee1538a7906020906001600160a01b03166107ba8161363a565b60405163f1c9810160e01b8152600490fd5b6117db9192507f000000000000000000000000000000000000000000000000000000000000000090612017565b90806117e6426135d6565b16911611388061175f565b6001600160401b038116036103cd57565b6001600160401b038111610a975760051b60200190565b346103cd5760a03660031901126103cd576001600160401b036004358181116103cd5761184a9036906004016112ab565b91906118576024356117f1565b6064359182116103cd57366023830112156103cd57816004013561187a81611802565b926118886040519485610a9c565b8184526020916024602086019160051b830101913683116103cd57602401905b8282106118d5576109296118c3608435886044358b8a61297f565b60405190151581529081906020820190565b813581529083019083016118a8565b346103cd5760203660031901126103cd5760206105846004356104f58161054d565b346103cd5760803660031901126103cd576001600160401b036004358181116103cd576119379036906004016112ab565b906024359283116103cd576106606119747f867e4ccb654193f5047ed531c07c97706fbf63a4b3da809d284ed210da37ecf49436906004016112ab565b604435606435916119886001611359613524565b611990612ac9565b9061199c368989610aeb565b82526119a9368287610aeb565b6020830152826040830152836060830152608082014381526119cb8287612628565b54926119d78388612628565b6119e18154612222565b905585611a048560016119f4878c612628565b0190600052602052604060002090565b55604051611a2881611a1a602082019485612b06565b03601f198101835282610a9c565b519020611a3b8460026119f4868b612628565b55519460405198899889612b58565b346103cd5760203660031901126103cd5760206105006004356105b68161054d565b346103cd5760003660031901126103cd57602060405165ffffffffffff7f0000000000000000000000000000000000000000000000000000000000000000168152f35b346103cd5760206105006104fa36610c9b565b346103cd5760203660031901126103cd576020600435611ae1816103bc565b60018060a01b038091166000526002825260406000205416604051908152f35b346103cd5760203660031901126103cd5760206103f9600435611b23816103bc565b612c7b565b346103cd5760003660031901126103cd5760206105846104f5426135d6565b346103cd5760203660031901126103cd57600435611b64816103bc565b611b6c612ffc565b6001600160a01b0316611b7e816136ce565b9065ffffffffffff80831615908115611bc7575b5061128a576109819165ffffffffffff60301b611bae426135d6565b60301b1617816000526010602052604060002055613c5b565b90508260301c16151538611b92565b346103cd5760203660031901126103cd576004356001600160601b03811681036103cd576020906001600160601b03166001600160601b03197f000000000000000000000000000000000000000000000000000000000000000060601b1617610500565b346103cd57611c48366105bb565b611c50612ffc565b6001600160a01b038281166000908152600c6020526040902054611d65576040516308834cb560e21b81526001600160a01b0384811660048301527f000000000000000000000000000000000000000000000000000000000000000016602482015290602090829060449082907f0000000000000000000000000000000000000000000000000000000000000000165afa90811561103d57600091611d46575b5015611d345781611d22827f6b79465d2d89e9355c00340dada48ce0cd05e807af465c48faed547fce4b5a70946131a0565b611d2b81613050565b610641816130e4565b604051634d1cc09f60e11b8152600490fd5b611d5f915060203d602011611157576111498183610a9c565b38611cf0565b6040516342ee68b560e01b8152600490fd5b346103cd5760603660031901126103cd576020610dd5600435611d998161054d565b611de0602435611da8816103bc565b65ffffffffffff60443593611dbc856103bc565b16600052600a855260406000209060018060a01b0316600052602052604060002090565b9060018060a01b0316600052602052604060002090565b346103cd5760003660031901126103cd57602060405165ffffffffffff7f0000000000000000000000000000000000000000000000000000000000000000168152f35b346103cd5760203660031901126103cd576020610500600435611e5c816103bc565b61165b6104f5426135d6565b346103cd5760603660031901126103cd576020610500600435611e8a816103bc565b602435611e96816103bc565b60443591611ea38361054d565b612cd2565b346103cd576020610dd565ffffffffffff611ec236610d7e565b91166000526009835260406000209060018060a01b0316600052602052604060002090565b346103cd5760203660031901126103cd57600435611f04816103bc565b611f0c612ffc565b6001600160a01b039081168015611f5a57600080546001600160a01b03198116831782559092167f8be0079c531659141344cd1fd0a4f28419497f9722a3daafe3b4186f6b6457e08380a380f35b604051631e4fbdf760e01b815260006004820152602490fd5b346103cd5760206103f9611f8636610c9b565b90612f03565b6001600160a01b039081166000908152600160205260408120805480611fe2575050805b6001600160d01b03821615611fdc57506001600160d01b03166000908152600360205260409020541690565b91505090565b6000199181838101116120015783526020832001015460301c90611fb0565b634e487b7160e01b600052601160045260246000fd5b91909165ffffffffffff8080941691160191821161203157565b612001565b65ffffffffffff9081167f0000000000000000000000000000000000000000000000000000000000000000821602908116908103612031576105e0907f0000000000000000000000000000000000000000000000000000000000000000612017565b60001981146120315760010190565b634e487b7160e01b600052603260045260246000fd5b80518210156120d15760209160051b010190565b6120a7565b6120df90612036565b90600b54916120ed83611802565b6040916120fd6040519283610a9c565b848252601f1961210c86611802565b0160005b8181106121db5750508194600093845b82811061212e575050505052565b839561214b610edd6121428497969761332b565b909a919a6132d5565b6121d157906121c6600192612160868a612f03565b61216a878b612477565b6121a2612177898d61274b565b92612192612183610abd565b6001600160a01b03909e168e52565b6001600160a01b031660208d0152565b868b015260608a01526121b481612098565b986121bf828a6120bd565b52876120bd565b505b01929192612120565b95506001906121c8565b84969296519060808201918083106001600160401b03841117610a97576020928752600081528260008183015260006060808a850152830152828701015201959195612110565b906001820180921161203157565b9190820180921161203157565b60009060009261224c82612036565b9061225682613439565b6000935b600b5485101561232a5790829161227f610edd6122768861332b565b909791976132d5565b61231d576122b990612291868661274b565b90816122b387611de08a65ffffffffffff166000526009602052604060002090565b55612230565b90865b60115481101561230a57806122d2600192613385565b505061230387611de06122e6898584612cd2565b93611de08c65ffffffffffff16600052600a602052604060002090565b55016122bc565b5094600191969293505b0193909461225a565b9591925093600190612314565b9450925060005b8460115482101561239557508082612359610edd612350600195613385565b909491946132d5565b61238f5761238761236a86836134b6565b91611de08765ffffffffffff166000526008602052604060002090565b555b01612331565b50612389565b9290506123e191506123c96123bc8265ffffffffffff166000526006602052604060002090565b805460ff19166001179055565b65ffffffffffff166000526007602052604060002090565b55565b6123ed90612036565b600e546123f981611802565b916124076040519384610a9c565b818352601f1961241683611802565b013660208501376000805b83811061242f575050505090565b808361244861243f6001946133df565b909391936132d5565b156124715761246061245985612098565b94886120bd565b90838060a01b031690525b01612421565b5061246b565b919061248290612036565b916011549261249084611802565b9060406124a06040519384610a9c565b858352601f196124af87611802565b019060005b82811061253a575050508194600093845b8281106124d3575050505052565b83956124e7610edd61214284979697613385565b61253057906125256001926124fd868a87612cd2565b612517612508610adc565b6001600160a01b03909b168b52565b60208a01526121b481612098565b505b019291926124c5565b9550600190612527565b602090829894985161254b81610a7c565b60008152826000818301528288010152019692966124b4565b908160209103126103cd57516105e0816112d8565b6040513d6000823e3d90fd5b908160209103126103cd57516105e0816103bc565b908160209103126103cd57516105e08161054d565b908160209103126103cd57516105e0816117f1565b65ffffffffffff918216908216039190821161203157565b156125e357565b60405162461bcd60e51b815260206004820152601a60248201527f4f70657261746f72206973206e6f7420726567697374657265640000000000006044820152606490fd5b6020908260405193849283378101601481520301902090565b908060209392818452848401376000828201840152601f01601f1916010190565b949695926060946126846126929363ffffffff9560808a5260808a0191612641565b918783036020890152612641565b951660408401521515910152565b6001600160601b038091169081146120315760010190565b604051602081018181106001600160401b03821117610a975760405260008152906000368137565b908160209103126103cd575190565b9060209161270881518092818552858086019101610b31565b601f01601f1916010190565b9081526001600160a01b03909116602082015265ffffffffffff90911660408201526080606082018190526105e0929101906126ef565b6000916000906127776127708265ffffffffffff166000526006602052604060002090565b5460ff1690565b6129595761278490612036565b600e5460055490927f000000000000000000000000000000000000000000000000000000000000000060005b8581106127c1575050505050505090565b846127d1610edd612350846133df565b612950576040805163d8dfeb4560e01b81526001600160a01b039283169260209290916004919084818481895afa801561103d5761281c918a91612933575b50959493929195612c7b565b5087945b896001600160601b03871610612840575050505050506001905b016127b0565b90919293949c8151630ce9b79360e41b8152858185818a5afa90811561103d578f8f90928e9389938e92612910575b506001600160601b03166001600160601b031960608e901b16175b88886128b16128976126b8565b8a5163e02f693760e01b8152988997889687958601612714565b0392165afa801561103d576128d7926128d1928c926128e1575b50612230565b9d6126a0565b9493929190612820565b612902919250883d8a11612909575b6128fa8183610a9c565b8101906126e0565b90386128cb565b503d6128f0565b61288a91925061292c90853d87116110ce576110c08183610a9c565b919061286f565b61294a9150863d88116110ce576110c08183610a9c565b38612810565b5060019061283a565b61297b9350611de0915065ffffffffffff166000526009602052604060002090565b5490565b6129af90949192946129a060019460016129998285612628565b0192612628565b54600052602052604060002090565b54938415612a4857918091936000915b6129cc575b505050501490565b8051821015612a4357828094956129e384846120bd565b51878316612a1a57604080516020810193845290810191909152612a0a8160608101611a1a565b519020955b811c920191936129bf565b60408051602081019283529081019290925290612a3a8160608101611a1a565b51902095612a0f565b6129c4565b5050505050600090565b612a7d907f0000000000000000000000000000000000000000000000000000000000000000906125c4565b65ffffffffffff807f000000000000000000000000000000000000000000000000000000000000000016918215612ab357160490565b634e487b7160e01b600052601260045260246000fd5b6040519060a082018281106001600160401b03821117610a9757604052600060808360608152606060208201528260408201528260608201520152565b6020815260a06080612b3c612b26855184602087015260c08601906126ef565b6020860151858203601f190160408701526126ef565b9360408101516060850152606081015182850152015191015290565b9498979693612b7760a0979492612b859460c0895260c0890191612641565b918683036020880152612641565b966040840152606083015260808201520152565b65ffffffffffff8116600052600660205260ff60406000205416612c1e57612bc2600091612036565b612bcb81613439565b600b546000915b818310612bdf5750505090565b90919281612bef61243f8661332b565b15612c145782612bfe9161274b565b810180911161203157600190935b019190612bd2565b5092600190612c0c565b50600760205260406000205490565b9065ffffffffffff8116600052600660205260ff60406000205416612c55576105e0916134b6565b5061297b90600860205260406000209060018060a01b0316600052602052604060002090565b6040516338d52e0f60e01b81526020816004816001600160a01b0386165afa60009181612cb1575b50612cac575090565b905090565b612ccb91925060203d6020116110ce576110c08183610a9c565b9038612ca3565b90600092612cf56127708265ffffffffffff166000526006602052604060002090565b612ede57612d0590929192612036565b90600091600e5493600554935b858110612d225750505050505090565b612d2b816133df565b60405163d8dfeb4560e01b8152916020836004816001600160a01b0388165afa92831561103d578793612d6591600091612ec55750612c7b565b6001600160a01b03878116911603612eb95791610edd91612d85936132d5565b612eb0576000905b866001600160601b03831610612da95750506001905b01612d12565b604051630ce9b79360e41b8152919890916020816004816001600160a01b0387165afa90811561103d57600091612e91575b506020867f000000000000000000000000000000000000000000000000000000000000000060601b6001600160601b0319166001600160601b038d16179289612e226126b8565b94612e436040519687958694859463e02f693760e01b865260048601612714565b03916001600160a01b03165afa801561103d57612e7192612e6b92600092612e775750612230565b986126a0565b90612d8d565b61290291925060203d602011612909576128fa8183610a9c565b612eaa915060203d6020116110ce576110c08183610a9c565b38612ddb565b50600190612da3565b50505050600190612da3565b61111b915060203d6020116110ce576110c08183610a9c565b61297b935090611de0611de09265ffffffffffff16600052600a602052604060002090565b6001600160a01b0316600090815260016020818152604083208054939490939285915b848310612f9c57505050508015600014612f72575050805b6001600160d01b03821615612cac57506001600160d01b03166000908152600360205260409020546001600160a01b031690565b612f9691612f82612f8f92612fed565b9060005260206000200190565b5460301c90565b90612f3e565b9091929380841690808518841c82018092116120315786885265ffffffffffff8083888b2001541690841610600014612fda5750935b929190612f26565b9493508281018091116120315792612fd2565b60001981019190821161203157565b6000546001600160a01b0316330361301057565b60405163118cdaa760e01b8152336004820152602490fd5b6001600160a01b031660008181526010602052604081205561304990613c5b565b156104a357565b6001600160a01b03166000818152600d602052604081205561304990613bea565b6001600160a01b03166130838161369d565b9065ffffffffffff9182808216151591826130d6575b50506130c4576130c1916130ac426135d6565b16816000526013602052604060002055613b73565b50565b604051637952fbad60e11b8152600490fd5b60301c161590508238613099565b6001600160a01b03166130f681613653565b9065ffffffffffff918280821615159182613134575b50506130c4576130c19161311f426135d6565b1681600052600d602052604060002055613bea565b60301c16159050823861310c565b6001600160a01b0316613154816136ce565b9065ffffffffffff918280821615159182613192575b50506130c4576130c19161317d426135d6565b16816000526010602052604060002055613c5b565b60301c16159050823861316a565b60018060a01b039182811660009080825260026020528460408320541661327a576004546001600160d01b038082169687821461203157613236604096613251946001610ae99b019485169065ffffffffffff60d01b16176004556132178460018060d01b03166000526003602052604060002090565b80546001600160a01b0319166001600160a01b03909216919091179055565b86168452600160205284842061324b426135d6565b906137f3565b5050815260026020522080546001600160a01b0319166001600160a01b03909216919091179055565b604051637b64317b60e01b8152600490fd5b61329e906001600160a01b03166136ce565b9065ffffffffffff8083169260301c1690565b61329e906001600160a01b031661369d565b61329e906001600160a01b0316613653565b65ffffffffffff9081168015159392908461331e575b50836132f8575b50505090565b811680159350918315613311575b5050503880806132f2565b1611159050388080613306565b83831610159350386132eb565b600b548110156120d1577f0175b7a638427703f0dbe7bb9bbf987a2551717b34e79f33b5b1008d1fa01db901546000818152600d60205260409020546001600160a01b039091169165ffffffffffff8083169260301c1690565b6011548110156120d1577f31ecc21a745e3968a04e9570e4425bc18fa8019c68028196b546d1669c200c6801546000818152601360205260409020546001600160a01b039091169165ffffffffffff8083169260301c1690565b600e548110156120d1577fbb7b4a454dc3493923482f07822329ed19e8244eff582cc204f8554c3620c3fd01546000818152601060205260409020546001600160a01b039091169165ffffffffffff8083169260301c1690565b613477613445426135d6565b65ffffffffffff809281927f0000000000000000000000000000000000000000000000000000000000000000906125c4565b1692169182106134a45761348a426135d6565b161061349257565b60405163d5b25b6360e01b8152600490fd5b6040516312c7b10160e11b8152600490fd5b600092916134c390612036565b906134cd82613439565b600091600b54915b8284106134e25750505050565b90919294826134f361243f8861332b565b1561351a57838361350392612cd2565b810180911161203157600190955b019291906134d5565b5094600190613511565b600090613541610edd33600052600c602052604060002054151590565b61069b5761355461057f6104f5426135d6565b61356b613560426135d6565b65ffffffffffff1690565b65ffffffffffff82161161349257600b5460005b81811061358b57505050565b6135948161332b565b916001600160a01b031633146135ae57505060010161357f565b610edd93506135be9492506132d5565b6135c457565b604051631a8660cb60e01b8152600490fd5b65ffffffffffff908181116135e9571690565b604490604051906306dfcc6560e41b8252603060048301526024820152fd5b6105e090806000526010602052600060408120556139bb565b6105e09080600052601360205260006040812055613a67565b6105e09080600052600d60205260006040812055613aed565b80600052600d6020526040600020549081158061368b575b613673575090565b6024906040519063015ab34360e11b82526004820152fd5b50600c6020526040600020541561366b565b806000526013602052604060002054908115806136bc57613673575090565b5060126020526040600020541561366b565b806000526010602052604060002054908115806136ed57613673575090565b50600f6020526040600020541561366b565b600e548110156120d157600e6000527fbb7b4a454dc3493923482f07822329ed19e8244eff582cc204f8554c3620c3fd0190600090565b6011548110156120d15760116000527f31ecc21a745e3968a04e9570e4425bc18fa8019c68028196b546d1669c200c680190600090565b600b548110156120d157600b6000527f0175b7a638427703f0dbe7bb9bbf987a2551717b34e79f33b5b1008d1fa01db90190600090565b908154600160401b811015610a9757600181018084558110156120d15760009283526020928390208251929093015160301b65ffffffffffff191665ffffffffffff9290921691909117910155565b805492939280156138a85761380a61381791612fed565b8260005260206000200190565b9182549265ffffffffffff918285169281168084116138965787930361385d575061385692509065ffffffffffff82549181199060301b169116179055565b60301c9190565b9150506138919161387d61386f610adc565b65ffffffffffff9093168352565b6001600160d01b03861660208301526137a4565b613856565b604051632520601d60e01b8152600490fd5b50906138cd916138b961386f610adc565b6001600160d01b03851660208301526137a4565b60009190565b600e54801561391957600019810190808210156120d1577fbb7b4a454dc3493923482f07822329ed19e8244eff582cc204f8554c3620c3fc600091600e83520155600e55565b634e487b7160e01b600052603160045260246000fd5b601154801561391957600019810190808210156120d1577f31ecc21a745e3968a04e9570e4425bc18fa8019c68028196b546d1669c200c67600091601183520155601155565b600b54801561391957600019810190808210156120d1577f0175b7a638427703f0dbe7bb9bbf987a2551717b34e79f33b5b1008d1fa01db8600091600b83520155600b55565b6000818152600f60205260409020548015613a6057600019918183019180831161203157600e54938401938411612031578383600095613a169503613a1c575b505050613a066138d3565b600052600f602052604060002090565b55600190565b613a06613a3e91613a2f613a57946136ff565b90549060031b1c9283916136ff565b90919082549060031b91821b91600019901b1916179055565b553880806139fb565b5050600090565b6000818152601260205260409020548015613a6057600019918183019180831161203157601154938401938411612031578383600095613a169503613ac2575b505050613ab261392f565b6000526012602052604060002090565b613ab2613a3e91613ad5613ae494613736565b90549060031b1c928391613736565b55388080613aa7565b6000818152600c60205260409020548015613a6057600019918183019180831161203157600b54938401938411612031578383600095613a169503613b48575b505050613b38613975565b600052600c602052604060002090565b613b38613a3e91613b5b613b6a9461376d565b90549060031b1c92839161376d565b55388080613b2d565b80600052601260205260406000205415600014613be457601154600160401b811015610a975760018101806011558110156120d15781907f31ecc21a745e3968a04e9570e4425bc18fa8019c68028196b546d1669c200c680155601154906000526012602052604060002055600190565b50600090565b80600052600c60205260406000205415600014613be457600b54600160401b811015610a97576001810180600b558110156120d15781907f0175b7a638427703f0dbe7bb9bbf987a2551717b34e79f33b5b1008d1fa01db90155600b5490600052600c602052604060002055600190565b80600052600f60205260406000205415600014613be457600e54600160401b811015610a97576001810180600e558110156120d15781907fbb7b4a454dc3493923482f07822329ed19e8244eff582cc204f8554c3620c3fd0155600e5490600052600f60205260406000205560019056fea2646970667358221220e9c16e66b4e9ce96e58392c859713da76a8c129cb14099bed885a0c3aaa37fa364736f6c63430008190033",
    "linkReferences": {}
  },
  "methodIdentifiers": {
    "EPOCH_DURATION()": "a70b9f0c",
    "NETWORK()": "8759e6d1",
    "OPERATOR_NET_OPT_IN()": "6383eeb7",
    "SLASHING_WINDOW()": "22207cc7",
    "START_TIME()": "ddaa26ad",
    "VAULT_FACTORY()": "103f2907",
    "calcAndCacheStakes(uint48)": "28279593",
    "createNewTask(string,string,uint256,bytes32)": "9eea016c",
    "getCurrentEpoch()": "b97dd9e2",
    "getCurrentOperatorEachTokenStake(address)": "95187eac",
    "getCurrentOperatorInfos()": "7faffcdd",
    "getCurrentOperatorOperatingAddress(address)": "05a1fb22",
    "getCurrentOperatorStake(address)": "e0a4f897",
    "getCurrentOperatorTokenStake(address,address)": "3a003510",
    "getCurrentTokenTotalStake(address)": "0d8285d2",
    "getCurrentTotalStake()": "1209fe74",
    "getCurrentVaults()": "4719eff8",
    "getEpochAtTs(uint48)": "9d94a1e3",
    "getEpochStartTs(uint48)": "11369f0f",
    "getOperatorByOperatingAddress(address)": "b879566c",
    "getOperatorEachTokenStake(address,uint48)": "5972671f",
    "getOperatorInfos(uint48)": "27d74756",
    "getOperatorOperatingAddressAt(address,uint48)": "f997443f",
    "getOperatorStake(address,uint48)": "84ca5f7d",
    "getOperatorTokenStake(address,address,uint48)": "e3111cda",
    "getSubnetwork(uint96)": "c3265f0f",
    "getTokenAddress(address)": "b8d7b669",
    "getTokenTotalStake(address,uint48)": "b29331c4",
    "getTotalStake(uint48)": "9fee2cdb",
    "getVaults(uint48)": "32a90e1b",
    "isActiveVault(address)": "235d87ab",
    "operatorStakeCache(uint48,address)": "ee3738ca",
    "operatorTokenStakeCache(uint48,address,address)": "ce5bd5e3",
    "owner()": "8da5cb5b",
    "pauseOperator(address)": "72f9adab",
    "pauseToken(address)": "7c41ad2c",
    "pauseVault(address)": "c0bd6f9e",
    "registerOperator(address,address)": "ce49f361",
    "registerToken(address)": "09824a80",
    "registerVault(address)": "67ccd1cb",
    "renounceOwnership()": "715018a6",
    "respondToTask(string,string,uint32,bool)": "77329af8",
    "rollupTaskInfos(string)": "39011ab8",
    "setSubnetworksCnt(uint256)": "6a5af20b",
    "slash(uint48,address,uint256)": "48de4b8c",
    "subnetworksCnt()": "87546137",
    "tokenTotalStakeCache(uint48,address)": "66873c6e",
    "totalStakeCache(uint48)": "321520f4",
    "totalStakeCached(uint48)": "83f582b7",
    "transferOwnership(address)": "f2fde38b",
    "unpauseOperator(address)": "2e5aaf33",
    "unpauseToken(address)": "3b3bff0f",
    "unpauseVault(address)": "2efbab2c",
    "unregisterOperator(address)": "96115bc2",
    "unregisterToken(address)": "77860cdd",
    "unregisterVault(address)": "2633b70f",
    "updateOperatingAddress(address,address)": "212c9c0e",
    "verify(string,uint64,uint256,bytes32[],bytes32)": "9807564a"
  },
  "id": 174
}