{
  "abi": [
    {
      "type": "constructor",
      "inputs": [
        {
          "name": "_owner",
          "type": "address",
          "internalType": "address"
        },
        {
          "name": "_network",
          "type": "address",
          "internalType": "address"
        },
        {
          "name": "_operatorRegistry",
          "type": "address",
          "internalType": "address"
        },
        {
          "name": "_vaultRegistry",
          "type": "address",
          "internalType": "address"
        },
        {
          "name": "_operatorNetOptin",
          "type": "address",
          "internalType": "address"
        },
        {
          "name": "_epochDuration",
          "type": "uint48",
          "internalType": "uint48"
        },
        {
          "name": "_slashingWindow",
          "type": "uint48",
          "internalType": "uint48"
        }
      ],
      "stateMutability": "nonpayable"
    },
    {
      "type": "function",
      "name": "EPOCH_DURATION",
      "inputs": [],
      "outputs": [
        {
          "name": "",
          "type": "uint48",
          "internalType": "uint48"
        }
      ],
      "stateMutability": "view"
    },
    {
      "type": "function",
      "name": "NETWORK",
      "inputs": [],
      "outputs": [
        {
          "name": "",
          "type": "address",
          "internalType": "address"
        }
      ],
      "stateMutability": "view"
    },
    {
      "type": "function",
      "name": "OPERATOR_NET_OPTIN",
      "inputs": [],
      "outputs": [
        {
          "name": "",
          "type": "address",
          "internalType": "address"
        }
      ],
      "stateMutability": "view"
    },
    {
      "type": "function",
      "name": "OPERATOR_REGISTRY",
      "inputs": [],
      "outputs": [
        {
          "name": "",
          "type": "address",
          "internalType": "address"
        }
      ],
      "stateMutability": "view"
    },
    {
      "type": "function",
      "name": "SLASHING_WINDOW",
      "inputs": [],
      "outputs": [
        {
          "name": "",
          "type": "uint48",
          "internalType": "uint48"
        }
      ],
      "stateMutability": "view"
    },
    {
      "type": "function",
      "name": "START_TIME",
      "inputs": [],
      "outputs": [
        {
          "name": "",
          "type": "uint48",
          "internalType": "uint48"
        }
      ],
      "stateMutability": "view"
    },
    {
      "type": "function",
      "name": "VAULT_REGISTRY",
      "inputs": [],
      "outputs": [
        {
          "name": "",
          "type": "address",
          "internalType": "address"
        }
      ],
      "stateMutability": "view"
    },
    {
      "type": "function",
      "name": "calcAndCacheStakes",
      "inputs": [
        {
          "name": "epoch",
          "type": "uint48",
          "internalType": "uint48"
        }
      ],
      "outputs": [
        {
          "name": "totalStake",
          "type": "uint256",
          "internalType": "uint256"
        }
      ],
      "stateMutability": "nonpayable"
    },
    {
      "type": "function",
      "name": "createNewTask",
      "inputs": [
        {
          "name": "_clusterId",
          "type": "string",
          "internalType": "string"
        },
        {
          "name": "_rollupId",
          "type": "string",
          "internalType": "string"
        },
        {
          "name": "_blockNumber",
          "type": "uint256",
          "internalType": "uint256"
        },
        {
          "name": "_blockCommitment",
          "type": "bytes32",
          "internalType": "bytes32"
        }
      ],
      "outputs": [],
      "stateMutability": "nonpayable"
    },
    {
      "type": "function",
      "name": "getCurrentEpoch",
      "inputs": [],
      "outputs": [
        {
          "name": "epoch",
          "type": "uint48",
          "internalType": "uint48"
        }
      ],
      "stateMutability": "view"
    },
    {
      "type": "function",
      "name": "getCurrentOperatorOperatingAddress",
      "inputs": [
        {
          "name": "operator",
          "type": "address",
          "internalType": "address"
        }
      ],
      "outputs": [
        {
          "name": "",
          "type": "address",
          "internalType": "address"
        }
      ],
      "stateMutability": "view"
    },
    {
      "type": "function",
      "name": "getEpochAtTs",
      "inputs": [
        {
          "name": "timestamp",
          "type": "uint48",
          "internalType": "uint48"
        }
      ],
      "outputs": [
        {
          "name": "epoch",
          "type": "uint48",
          "internalType": "uint48"
        }
      ],
      "stateMutability": "view"
    },
    {
      "type": "function",
      "name": "getEpochStartTs",
      "inputs": [
        {
          "name": "epoch",
          "type": "uint48",
          "internalType": "uint48"
        }
      ],
      "outputs": [
        {
          "name": "timestamp",
          "type": "uint48",
          "internalType": "uint48"
        }
      ],
      "stateMutability": "view"
    },
    {
      "type": "function",
      "name": "getOperatorByOperatingAddress",
      "inputs": [
        {
          "name": "operatingAddress",
          "type": "address",
          "internalType": "address"
        }
      ],
      "outputs": [
        {
          "name": "",
          "type": "address",
          "internalType": "address"
        }
      ],
      "stateMutability": "view"
    },
    {
      "type": "function",
      "name": "getOperatorOperatingAddressAt",
      "inputs": [
        {
          "name": "operator",
          "type": "address",
          "internalType": "address"
        },
        {
          "name": "timestamp",
          "type": "uint48",
          "internalType": "uint48"
        }
      ],
      "outputs": [
        {
          "name": "",
          "type": "address",
          "internalType": "address"
        }
      ],
      "stateMutability": "view"
    },
    {
      "type": "function",
      "name": "getOperatorStake",
      "inputs": [
        {
          "name": "operator",
          "type": "address",
          "internalType": "address"
        },
        {
          "name": "epoch",
          "type": "uint48",
          "internalType": "uint48"
        }
      ],
      "outputs": [
        {
          "name": "stake",
          "type": "uint256",
          "internalType": "uint256"
        }
      ],
      "stateMutability": "view"
    },
    {
      "type": "function",
      "name": "getSubnetwork",
      "inputs": [
        {
          "name": "index",
          "type": "uint96",
          "internalType": "uint96"
        }
      ],
      "outputs": [
        {
          "name": "",
          "type": "bytes32",
          "internalType": "bytes32"
        }
      ],
      "stateMutability": "view"
    },
    {
      "type": "function",
      "name": "getTotalStake",
      "inputs": [
        {
          "name": "epoch",
          "type": "uint48",
          "internalType": "uint48"
        }
      ],
      "outputs": [
        {
          "name": "",
          "type": "uint256",
          "internalType": "uint256"
        }
      ],
      "stateMutability": "view"
    },
    {
      "type": "function",
      "name": "getValidatorSet",
      "inputs": [
        {
          "name": "epoch",
          "type": "uint48",
          "internalType": "uint48"
        }
      ],
      "outputs": [
        {
          "name": "validatorsData",
          "type": "tuple[]",
          "internalType": "struct IValidationServiceManager.ValidatorData[]",
          "components": [
            {
              "name": "operatingAddress",
              "type": "address",
              "internalType": "address"
            },
            {
              "name": "stake",
              "type": "uint256",
              "internalType": "uint256"
            }
          ]
        }
      ],
      "stateMutability": "view"
    },
    {
      "type": "function",
      "name": "isActiveVault",
      "inputs": [
        {
          "name": "index",
          "type": "uint256",
          "internalType": "uint256"
        }
      ],
      "outputs": [
        {
          "name": "",
          "type": "bool",
          "internalType": "bool"
        }
      ],
      "stateMutability": "view"
    },
    {
      "type": "function",
      "name": "operatorStakeCache",
      "inputs": [
        {
          "name": "",
          "type": "uint48",
          "internalType": "uint48"
        },
        {
          "name": "",
          "type": "address",
          "internalType": "address"
        }
      ],
      "outputs": [
        {
          "name": "",
          "type": "uint256",
          "internalType": "uint256"
        }
      ],
      "stateMutability": "view"
    },
    {
      "type": "function",
      "name": "owner",
      "inputs": [],
      "outputs": [
        {
          "name": "",
          "type": "address",
          "internalType": "address"
        }
      ],
      "stateMutability": "view"
    },
    {
      "type": "function",
      "name": "pauseOperator",
      "inputs": [
        {
          "name": "operator",
          "type": "address",
          "internalType": "address"
        }
      ],
      "outputs": [],
      "stateMutability": "nonpayable"
    },
    {
      "type": "function",
      "name": "pauseVault",
      "inputs": [
        {
          "name": "vault",
          "type": "address",
          "internalType": "address"
        }
      ],
      "outputs": [],
      "stateMutability": "nonpayable"
    },
    {
      "type": "function",
      "name": "registerOperator",
      "inputs": [
        {
          "name": "operator",
          "type": "address",
          "internalType": "address"
        },
        {
          "name": "operatingAddress",
          "type": "address",
          "internalType": "address"
        }
      ],
      "outputs": [],
      "stateMutability": "nonpayable"
    },
    {
      "type": "function",
      "name": "registerVault",
      "inputs": [
        {
          "name": "vault",
          "type": "address",
          "internalType": "address"
        }
      ],
      "outputs": [],
      "stateMutability": "nonpayable"
    },
    {
      "type": "function",
      "name": "renounceOwnership",
      "inputs": [],
      "outputs": [],
      "stateMutability": "nonpayable"
    },
    {
      "type": "function",
      "name": "respondToTask",
      "inputs": [
        {
          "name": "clusterId",
          "type": "string",
          "internalType": "string"
        },
        {
          "name": "rollupId",
          "type": "string",
          "internalType": "string"
        },
        {
          "name": "referenceTaskIndex",
          "type": "uint32",
          "internalType": "uint32"
        },
        {
          "name": "response",
          "type": "bool",
          "internalType": "bool"
        }
      ],
      "outputs": [],
      "stateMutability": "nonpayable"
    },
    {
      "type": "function",
      "name": "rollupTaskInfos",
      "inputs": [
        {
          "name": "",
          "type": "string",
          "internalType": "string"
        }
      ],
      "outputs": [
        {
          "name": "latestTaskNumber",
          "type": "uint256",
          "internalType": "uint256"
        }
      ],
      "stateMutability": "view"
    },
    {
      "type": "function",
      "name": "setSubnetworksCnt",
      "inputs": [
        {
          "name": "_subnetworksCnt",
          "type": "uint256",
          "internalType": "uint256"
        }
      ],
      "outputs": [],
      "stateMutability": "nonpayable"
    },
    {
      "type": "function",
      "name": "slash",
      "inputs": [
        {
          "name": "epoch",
          "type": "uint48",
          "internalType": "uint48"
        },
        {
          "name": "operator",
          "type": "address",
          "internalType": "address"
        },
        {
          "name": "amount",
          "type": "uint256",
          "internalType": "uint256"
        }
      ],
      "outputs": [],
      "stateMutability": "nonpayable"
    },
    {
      "type": "function",
      "name": "subnetworksCnt",
      "inputs": [],
      "outputs": [
        {
          "name": "",
          "type": "uint256",
          "internalType": "uint256"
        }
      ],
      "stateMutability": "view"
    },
    {
      "type": "function",
      "name": "totalStakeCache",
      "inputs": [
        {
          "name": "",
          "type": "uint48",
          "internalType": "uint48"
        }
      ],
      "outputs": [
        {
          "name": "",
          "type": "uint256",
          "internalType": "uint256"
        }
      ],
      "stateMutability": "view"
    },
    {
      "type": "function",
      "name": "totalStakeCached",
      "inputs": [
        {
          "name": "",
          "type": "uint48",
          "internalType": "uint48"
        }
      ],
      "outputs": [
        {
          "name": "",
          "type": "bool",
          "internalType": "bool"
        }
      ],
      "stateMutability": "view"
    },
    {
      "type": "function",
      "name": "transferOwnership",
      "inputs": [
        {
          "name": "newOwner",
          "type": "address",
          "internalType": "address"
        }
      ],
      "outputs": [],
      "stateMutability": "nonpayable"
    },
    {
      "type": "function",
      "name": "unpauseOperator",
      "inputs": [
        {
          "name": "operator",
          "type": "address",
          "internalType": "address"
        }
      ],
      "outputs": [],
      "stateMutability": "nonpayable"
    },
    {
      "type": "function",
      "name": "unpauseVault",
      "inputs": [
        {
          "name": "vault",
          "type": "address",
          "internalType": "address"
        }
      ],
      "outputs": [],
      "stateMutability": "nonpayable"
    },
    {
      "type": "function",
      "name": "unregisterOperator",
      "inputs": [
        {
          "name": "operator",
          "type": "address",
          "internalType": "address"
        }
      ],
      "outputs": [],
      "stateMutability": "nonpayable"
    },
    {
      "type": "function",
      "name": "unregisterVault",
      "inputs": [
        {
          "name": "vault",
          "type": "address",
          "internalType": "address"
        }
      ],
      "outputs": [],
      "stateMutability": "nonpayable"
    },
    {
      "type": "function",
      "name": "updateOperatorOperatingAddress",
      "inputs": [
        {
          "name": "operator",
          "type": "address",
          "internalType": "address"
        },
        {
          "name": "operatingAddress",
          "type": "address",
          "internalType": "address"
        }
      ],
      "outputs": [],
      "stateMutability": "nonpayable"
    },
    {
      "type": "function",
      "name": "verify",
      "inputs": [
        {
          "name": "rollupId",
          "type": "string",
          "internalType": "string"
        },
        {
          "name": "blockNumber",
          "type": "uint64",
          "internalType": "uint64"
        },
        {
          "name": "order",
          "type": "uint256",
          "internalType": "uint256"
        },
        {
          "name": "proof",
          "type": "bytes32[]",
          "internalType": "bytes32[]"
        },
        {
          "name": "partialProof",
          "type": "bytes32[]",
          "internalType": "bytes32[]"
        },
        {
          "name": "leaf",
          "type": "bytes32",
          "internalType": "bytes32"
        }
      ],
      "outputs": [
        {
          "name": "",
          "type": "bool",
          "internalType": "bool"
        }
      ],
      "stateMutability": "view"
    },
    {
      "type": "event",
      "name": "NewTaskCreated",
      "inputs": [
        {
          "name": "clusterId",
          "type": "string",
          "indexed": false,
          "internalType": "string"
        },
        {
          "name": "rollupId",
          "type": "string",
          "indexed": false,
          "internalType": "string"
        },
        {
          "name": "referenceTaskIndex",
          "type": "uint256",
          "indexed": false,
          "internalType": "uint256"
        },
        {
          "name": "blockNumber",
          "type": "uint256",
          "indexed": false,
          "internalType": "uint256"
        },
        {
          "name": "blockCommitment",
          "type": "bytes32",
          "indexed": false,
          "internalType": "bytes32"
        },
        {
          "name": "taskCreatedBlock",
          "type": "uint256",
          "indexed": false,
          "internalType": "uint256"
        }
      ],
      "anonymous": false
    },
    {
      "type": "event",
      "name": "OwnershipTransferred",
      "inputs": [
        {
          "name": "previousOwner",
          "type": "address",
          "indexed": true,
          "internalType": "address"
        },
        {
          "name": "newOwner",
          "type": "address",
          "indexed": true,
          "internalType": "address"
        }
      ],
      "anonymous": false
    },
    {
      "type": "event",
      "name": "TaskResponded",
      "inputs": [
        {
          "name": "clusterId",
          "type": "string",
          "indexed": false,
          "internalType": "string"
        },
        {
          "name": "rollupId",
          "type": "string",
          "indexed": false,
          "internalType": "string"
        },
        {
          "name": "referenceTaskIndex",
          "type": "uint256",
          "indexed": false,
          "internalType": "uint256"
        },
        {
          "name": "response",
          "type": "bool",
          "indexed": false,
          "internalType": "bool"
        }
      ],
      "anonymous": false
    },
    {
      "type": "error",
      "name": "AlreadyAdded",
      "inputs": []
    },
    {
      "type": "error",
      "name": "AlreadyEnabled",
      "inputs": []
    },
    {
      "type": "error",
      "name": "CheckpointUnorderedInsertion",
      "inputs": []
    },
    {
      "type": "error",
      "name": "DuplicateOperatingAddress",
      "inputs": []
    },
    {
      "type": "error",
      "name": "EnumerableMapNonexistentKey",
      "inputs": [
        {
          "name": "key",
          "type": "bytes32",
          "internalType": "bytes32"
        }
      ]
    },
    {
      "type": "error",
      "name": "InvalidEpoch",
      "inputs": []
    },
    {
      "type": "error",
      "name": "InvalidSubnetworksCnt",
      "inputs": []
    },
    {
      "type": "error",
      "name": "NotEnabled",
      "inputs": []
    },
    {
      "type": "error",
      "name": "NotOperator",
      "inputs": []
    },
    {
      "type": "error",
      "name": "NotVault",
      "inputs": []
    },
    {
      "type": "error",
      "name": "OperarorGracePeriodNotPassed",
      "inputs": []
    },
    {
      "type": "error",
      "name": "OperatorAlreadyRegistred",
      "inputs": []
    },
    {
      "type": "error",
      "name": "OperatorNotActive",
      "inputs": []
    },
    {
      "type": "error",
      "name": "OperatorNotOptedIn",
      "inputs": []
    },
    {
      "type": "error",
      "name": "OperatorNotRegistred",
      "inputs": []
    },
    {
      "type": "error",
      "name": "OwnableInvalidOwner",
      "inputs": [
        {
          "name": "owner",
          "type": "address",
          "internalType": "address"
        }
      ]
    },
    {
      "type": "error",
      "name": "OwnableUnauthorizedAccount",
      "inputs": [
        {
          "name": "account",
          "type": "address",
          "internalType": "address"
        }
      ]
    },
    {
      "type": "error",
      "name": "SafeCastOverflowedUintDowncast",
      "inputs": [
        {
          "name": "bits",
          "type": "uint8",
          "internalType": "uint8"
        },
        {
          "name": "value",
          "type": "uint256",
          "internalType": "uint256"
        }
      ]
    },
    {
      "type": "error",
      "name": "SlashingWindowTooShort",
      "inputs": []
    },
    {
      "type": "error",
      "name": "TooBigSlashAmount",
      "inputs": []
    },
    {
      "type": "error",
      "name": "TooOldEpoch",
      "inputs": []
    },
    {
      "type": "error",
      "name": "UnknownSlasherType",
      "inputs": []
    },
    {
      "type": "error",
      "name": "VaultAlreadyRegistred",
      "inputs": []
    },
    {
      "type": "error",
      "name": "VaultEpochTooShort",
      "inputs": []
    },
    {
      "type": "error",
      "name": "VaultGracePeriodNotPassed",
      "inputs": []
    }
  ],
  "bytecode": {
    "object": "0x6101603461021757601f6131ae38819003918201601f1916830191906001600160401b0383118484101761021c578160e092859260409586528339810103126102175761004b82610232565b61005760208401610232565b91610063818501610232565b61006f60608601610232565b61007b60808701610232565b9161009460c061008d60a08a01610246565b9801610246565b956001600160a01b0395861680156101ff57600080546001600160a01b031981168317825587519816907f8be0079c531659141344cd1fd0a4f28419497f9722a3daafe3b4186f6b6457e09080a365ffffffffffff95868916878916106101f057508542116101d257610140954216865261010097885261012096875260805260a05260e05260c05260016005555191612f54938461025a85396080518481816108e70152818161114e015281816117130152818161181401526120df015260a05184818161106801526117bd015260c0518481816111bc0152611845015260e0518481816102bd0152610b3f01525183818161148901528181611b5301526122130152518281816103a10152818161044e0152818161089b01528181610be0015261127201525181818161192201528181611b8501526121e40152f35b84516306dfcc6560e41b815260306004820152426024820152604490fd5b63188a354160e31b8152600490fd5b8551631e4fbdf760e01b815260006004820152602490fd5b600080fd5b634e487b7160e01b600052604160045260246000fd5b51906001600160a01b038216820361021757565b519065ffffffffffff821682036102175756fe6080604052600436101561001257600080fd5b60003560e01c806302ace7fe146102a757806305a1fb22146102a257806311369f0f1461029d57806322207cc7146102985780632633b70f14610293578063282795931461028e5780632e5aaf33146102895780632efbab2c14610284578063321520f41461027f57806339011ab81461027a5780633fc935b61461027557806342000c661461027057806348de4b8c1461026b57806367ccd1cb146102665780636a5af20b14610261578063715018a61461025c57806372f9adab1461025757806377329af81461025257806383ce03221461024d57806383f582b71461024857806384ca5f7d14610243578063875461371461023e5780638759e6d1146102395780638da5cb5b1461023457806393fe38891461022f57806396115bc21461022a5780639d94a1e3146102255780639eea016c146102205780639fee2cdb1461021b578063a70b9f0c14610216578063b879566c14610211578063b8dc4fe91461020c578063b97dd9e214610207578063c0bd6f9e14610202578063c3265f0f146101fd578063ce49f361146101f8578063ddaa26ad146101f3578063ea1bc863146101ee578063ee3738ca146101e9578063f2fde38b146101e45763f997443f146101df57600080fd5b611a84565b6119f8565b611995565b611946565b611903565b611761565b6116d8565b611646565b611627565b61153f565b6114ad565b61146a565b611443565b6112cf565b6112ad565b6111eb565b6111a6565b61117d565b611138565b61111a565b611101565b611097565b611052565b610ec5565b610e17565b610db9565b610d7c565b610ac6565b610821565b61078a565b61068f565b610613565b610512565b6104e5565b6104b8565b610489565b6103c5565b610382565b61034b565b610302565b346102ec5760003660031901126102ec576040517f00000000000000000000000000000000000000000000000000000000000000006001600160a01b03168152602090f35b600080fd5b6001600160a01b038116036102ec57565b346102ec5760203660031901126102ec576020610329600435610324816102f1565b611a9d565b6040516001600160a01b039091168152f35b65ffffffffffff8116036102ec57565b346102ec5760203660031901126102ec57602061037260043561036d8161033b565b611b47565b65ffffffffffff60405191168152f35b346102ec5760003660031901126102ec57602060405165ffffffffffff7f0000000000000000000000000000000000000000000000000000000000000000168152f35b346102ec5760203660031901126102ec576004356103e2816102f1565b6103ea612546565b6001600160a01b031665ffffffffffff8061040483612a4a565b60301c16908115918215610446575b5050610434578061043291600052600e60205260006040812055612d04565b005b6040516347a11ef760e11b8152600490fd5b6104739192507f000000000000000000000000000000000000000000000000000000000000000090611b28565b908061047e42612a18565b169116113880610413565b346102ec5760203660031901126102ec5760206104b06004356104ab8161033b565b611bdc565b604051908152f35b346102ec5760203660031901126102ec576104326004356104d8816102f1565b6104e0612546565b61267c565b346102ec5760203660031901126102ec57610432600435610505816102f1565b61050d612546565b6126ef565b346102ec5760203660031901126102ec5765ffffffffffff6004356105368161033b565b1660005260066020526020604060002054604051908152f35b634e487b7160e01b600052604160045260246000fd5b90601f801991011681019081106001600160401b0382111761058657604052565b61054f565b60405190604082018281106001600160401b0382111761058657604052565b9291926001600160401b03821161058657604051916105d3601f8201601f191660200184610565565b8294818452818301116102ec578281602093846000960137010152565b60005b8381106106035750506000910152565b81810151838201526020016105f3565b346102ec5760203660031901126102ec576004356001600160401b0381116102ec57366023820112156102ec5761066f602061065c61068b9336906024816004013591016105aa565b81604051938285809451938492016105f0565b8101600f81520301902054604051918291829190602083019252565b0390f35b346102ec5760203660031901126102ec5760206106cb6106b961036d6106b442612a18565b6121de565b6106c4600435612572565b9150612626565b6040519015158152f35b9181601f840112156102ec578235916001600160401b0383116102ec57602083818601950101116102ec57565b6001600160401b038116036102ec57565b6001600160401b0381116105865760051b60200190565b9080601f830112156102ec57602090823561074481610713565b936107526040519586610565565b81855260208086019260051b8201019283116102ec57602001905b82821061077b575050505090565b8135815290830190830161076d565b346102ec5760c03660031901126102ec576001600160401b036004358181116102ec576107bb9036906004016106d5565b6107c9602493929335610702565b6064358281116102ec576107e190369060040161072a565b926084359283116102ec5761068b9361080161080f94369060040161072a565b9160a4359360443591611d75565b60405190151581529081906020820190565b346102ec5760603660031901126102ec5760048035906108408261033b565b6024359161084d836102f1565b60443592610859612546565b65ffffffffffff90600093828416855260206007815260409460ff60408820541615610ab7575b61088981611b47565b946108cb6108c061089942612a18565b7f000000000000000000000000000000000000000000000000000000000000000090611ba9565b65ffffffffffff1690565b90861610610aa5576108dd908461201e565b878110610a9357867f00000000000000000000000000000000000000000000000000000000000000005b600c54891015610a8f57908693929161093261092e6109258c6125cc565b90989198612626565b1590565b610a8257815b6005546001600160601b0382161015610a7157606082901b6001600160601b0319166001600160601b038216178a51630ce9b79360e41b81526001600160a01b0392919087818b818c88165afa938415610a39578c94838f928d8f948d968c95610a3e575b506109c4906109aa611eda565b905163e02f693760e01b81529a8b97889687958601611f36565b0392165afa8015610a39578a8f928a6109fa8f946109f58c91610a00988f9b610a059c8f93610a0a575b5050611f6d565b611d66565b93612785565b611ea1565b610938565b610a2a929350803d10610a32575b610a228183610565565b810190611f02565b908f806109ee565b503d610a18565b611ece565b6109c4919550610a6390883d8a11610a6a575b610a5b8183610565565b810190611eb9565b949061099d565b503d610a51565b5098600191929394505b0197610907565b9860019192939450610a7b565b5080f35b604051638cc309fd60e01b8152600490fd5b6040516312c7b10160e11b8152600490fd5b610ac081611bdc565b50610880565b346102ec576020806003193601126102ec57600490813590610ae7826102f1565b610aef612546565b6001600160a01b038281166000818152600d6020526040902054919291610d6b57604080516302910f8b60e31b81526001600160a01b0386168782019081529194918490829081906020010381857f0000000000000000000000000000000000000000000000000000000000000000165afa908115610a3957600091610d3e575b5015610d2e5783516327f843b560e11b81529083828881865afa908115610a39578792600092610d0f575b5084829487519485809263b134427160e01b82525afa8015610a39578893600091610cf2575b501680151580610c8c575b610c23575b505050905065ffffffffffff807f000000000000000000000000000000000000000000000000000000000000000016911610610c14576104328261050d816128cf565b5163121f507960e11b81529050fd5b849192935085519384809263e054e08b60e01b82525afa918215610a3957610c5493600093610c5d575b5050611ba9565b80843880610bd1565b610c7d929350803d10610c85575b610c758183610565565b810190611f95565b903880610c4d565b503d610c6b565b508551635d927f4560e11b8152925084838981845afa8015610a39576001600160401b036001918a95600091610cc5575b501614610bcc565b610ce59150883d8a11610ceb575b610cdd8183610565565b810190611faa565b38610cbd565b503d610cd3565b610d099150863d8811610a6a57610a5b8183610565565b38610bc1565b610d27919250853d8711610c8557610c758183610565565b9038610b9b565b83516362df054560e01b81528690fd5b610d5e9150843d8611610d64575b610d568183610565565b810190611f80565b38610b70565b503d610d4c565b604051634e2cce8760e11b81528590fd5b346102ec5760203660031901126102ec57600435610d98612546565b806005541015610da757600555005b60405163e1115e0160e01b8152600490fd5b346102ec57600080600319360112610e1457610dd3612546565b80546001600160a01b03198116825581906001600160a01b03167f8be0079c531659141344cd1fd0a4f28419497f9722a3daafe3b4186f6b6457e08280a380f35b80fd5b346102ec5760203660031901126102ec57600435610e34816102f1565b610e3c612546565b6001600160a01b0316610e4e81612a94565b9065ffffffffffff80831615908115610eac575b50610e9a57610432916bffffffffffff000000000000610e8142612a18565b60301b161781600052600b602052604060002055612e36565b604051633f54562b60e11b8152600490fd5b90508260301c16151538610e62565b801515036102ec57565b346102ec5760803660031901126102ec576001600160401b036004358181116102ec57610ef69036906004016106d5565b90916024359081116102ec57610f109036906004016106d5565b929060443563ffffffff811681036102ec5760643590610f2f82610ebb565b60ff610f7c82610f6760036040518b8982376020818d8101600f815203019020013360018060a01b0316600052602052604060002090565b9063ffffffff16600052602052604060002090565b5416610ffa577f15f09ac3be4dd510cf733b625bc167cb7ddc800a47db359e81bbb1aaf8d4411a95610ff593610fe984610fd885610f67336003610fc08989611d08565b019060018060a01b0316600052602052604060002090565b9060ff801983541691151516179055565b60405196879687611fe0565b0390a1005b60405162461bcd60e51b815260206004820152602a60248201527f4f70657261746f722068617320616c726561647920726573706f6e64656420746044820152696f20746865207461736b60b01b6064820152608490fd5b346102ec5760003660031901126102ec576040517f00000000000000000000000000000000000000000000000000000000000000006001600160a01b03168152602090f35b346102ec5760203660031901126102ec5765ffffffffffff6004356110bb8161033b565b166000526007602052602060ff604060002054166040519015158152f35b60409060031901126102ec576004356110f1816102f1565b906024356110fe8161033b565b90565b346102ec5760206104b0611114366110d9565b9061201e565b346102ec5760003660031901126102ec576020600554604051908152f35b346102ec5760003660031901126102ec576040517f00000000000000000000000000000000000000000000000000000000000000006001600160a01b03168152602090f35b346102ec5760003660031901126102ec576000546040516001600160a01b039091168152602090f35b346102ec5760003660031901126102ec576040517f00000000000000000000000000000000000000000000000000000000000000006001600160a01b03168152602090f35b346102ec5760203660031901126102ec57600435611208816102f1565b611210612546565b6001600160a01b031665ffffffffffff8061122a83612a94565b60301c1690811591821561126a575b5050611258578061043291600052600b60205260006040812055612db0565b6040516377a2efc960e01b8152600490fd5b6112979192507f000000000000000000000000000000000000000000000000000000000000000090611b28565b90806112a242612a18565b169116113880611239565b346102ec5760203660031901126102ec5760206103726004356106b48161033b565b346102ec5760803660031901126102ec576001600160401b036004358181116102ec576113009036906004016106d5565b906024359283116102ec57610ff561133d7f867e4ccb654193f5047ed531c07c97706fbf63a4b3da809d284ed210da37ecf49436906004016106d5565b604435606435916113506106b442612a18565b65ffffffffffff8116600052600760205260ff6040600020541615611433575b5061137961223f565b906113853689896105aa565b82526113923682876105aa565b6020830152826040830152836060830152608082014381526113b48287611d08565b54926113c08388611d08565b6113ca8154611bc1565b9055856113ed8560016113dd878c611d08565b0190600052602052604060002090565b556040516114118161140360208201948561227c565b03601f198101835282610565565b5190206114248460026113dd868b611d08565b555194604051988998896122ce565b61143c90611bdc565b5038611370565b346102ec5760203660031901126102ec5760206104b06004356114658161033b565b61230f565b346102ec5760003660031901126102ec57602060405165ffffffffffff7f0000000000000000000000000000000000000000000000000000000000000000168152f35b346102ec5760203660031901126102ec5760206004356114cc816102f1565b60018060a01b038091166000526002825260406000205416604051908152f35b60208082019080835283518092528060408094019401926000905b83821061151657505050505090565b845180516001600160a01b03168752830151868401529485019493820193600190910190611507565b346102ec576020806003193601126102ec5761156060043561036d8161033b565b906009549161156e836123c9565b9160009182945b80861061158d578385526040518061068b87826114ec565b919481936115a061092e610925846125cc565b61161d576115ae8386612448565b946001600160a01b0386161561161257600192916115cf856116089361201e565b6115e96115da61058b565b6001600160a01b039099168952565b898801526115f681612439565b96611601828a611d37565b5287611d37565b505b019491611575565b50935060019061160a565b935060019061160a565b346102ec5760003660031901126102ec5760206103726106b442612a18565b346102ec5760203660031901126102ec57600435611663816102f1565b61166b612546565b6001600160a01b031661167d81612a4a565b9065ffffffffffff808316159081156116c9575b50610e9a57610432916bffffffffffff0000000000006116b042612a18565b60301b161781600052600e602052604060002055612ead565b90508260301c16151538611691565b346102ec5760203660031901126102ec576004356001600160601b03811681036102ec576020906001600160601b03166001600160601b03197f000000000000000000000000000000000000000000000000000000000000000060601b16176104b0565b60409060031901126102ec57600435611754816102f1565b906024356110fe816102f1565b346102ec5761176f3661173c565b90611778612546565b6001600160a01b038181166000908152600a60205260409020546118f1576040516302910f8b60e31b81526001600160a01b03831660048201526020919082816024817f000000000000000000000000000000000000000000000000000000000000000086165afa908115610a39576000916118d4575b50156118c2576040516308834cb560e21b81526001600160a01b0384811660048301527f0000000000000000000000000000000000000000000000000000000000000000166024820152908290829060449082907f0000000000000000000000000000000000000000000000000000000000000000165afa918215610a39576000926118a5575b5050156118935761188a610432928261292a565b6104e081612909565b604051634d1cc09f60e11b8152600490fd5b6118bb9250803d10610d6457610d568183610565565b3880611876565b604051631f0853c160e21b8152600490fd5b6118eb9150833d8511610d6457610d568183610565565b386117ef565b604051631f71f46760e21b8152600490fd5b346102ec5760003660031901126102ec57602060405165ffffffffffff7f0000000000000000000000000000000000000000000000000000000000000000168152f35b346102ec576119543661173c565b61195c612546565b6001600160a01b0382166000908152600a602052604090205415611983576104329161292a565b60405163571208d360e11b8152600490fd5b346102ec5760403660031901126102ec5760206119ef6004356119b78161033b565b65ffffffffffff602435916119cb836102f1565b166000526008835260406000209060018060a01b0316600052602052604060002090565b54604051908152f35b346102ec5760203660031901126102ec57600435611a15816102f1565b611a1d612546565b6001600160a01b039081168015611a6b57600080546001600160a01b03198116831782559092167f8be0079c531659141344cd1fd0a4f28419497f9722a3daafe3b4186f6b6457e08380a380f35b604051631e4fbdf760e01b815260006004820152602490fd5b346102ec576020610329611a97366110d9565b90612448565b6001600160a01b039081166000908152600160205260408120805480611af3575050805b6001600160d01b03821615611aed57506001600160d01b03166000908152600360205260409020541690565b91505090565b600019918183810111611b125783526020832001015460301c90611ac1565b634e487b7160e01b600052601160045260246000fd5b91909165ffffffffffff80809416911601918211611b4257565b611b12565b65ffffffffffff9081167f0000000000000000000000000000000000000000000000000000000000000000821602908116908103611b42576110fe907f0000000000000000000000000000000000000000000000000000000000000000611b28565b65ffffffffffff9182169082160391908211611b4257565b9060018201809211611b4257565b91908201809211611b4257565b90600091611be981611b47565b611bf86108c061089942612a18565b65ffffffffffff8216908110610aa557611c146108c042612a18565b10611cf6576000935b600954851015611ca75781611c4061092e611c37886125cc565b90949194612626565b611c9d57611c8e60019282611c5887611c949561201e565b928391611c778965ffffffffffff166000526008602052604060002090565b9060018060a01b0316600052602052604060002090565b55611bcf565b945b0193611c1d565b5093600190611c96565b935050611cf38391611cdb611cce8265ffffffffffff166000526007602052604060002090565b805460ff19166001179055565b65ffffffffffff166000526006602052604060002090565b55565b60405163d5b25b6360e01b8152600490fd5b6020908260405193849283378101600f81520301902090565b634e487b7160e01b600052603260045260246000fd5b8051821015611d4b5760209160051b010190565b611d21565b634e487b7160e01b600052601260045260246000fd5b8115611d70570490565b611d50565b611da5909591939495611d9660019586611d8f8285611d08565b0192611d08565b54600052602052604060002090565b54948515611e96578051855110611e9657600090845b611e54575b505091809192936000915b611dd8575b505050501490565b8051821015611e4f5782809495611def8484611d37565b51878316611e2657604080516020810193845290810191909152611e168160608101611403565b519020955b811c92019193611dcb565b60408051602081019283529081019290925290611e468160608101611403565b51902095611e1b565b611dd0565b848151831015611e905750611e698282611d37565b51611e748388611d37565b5103611e84578480920191611dbb565b50505050505050600090565b50611dc0565b505050505050600090565b6001600160601b03809116908114611b425760010190565b908160209103126102ec57516110fe816102f1565b6040513d6000823e3d90fd5b604051602081018181106001600160401b038211176105865760405260008152906000368137565b908160209103126102ec575190565b90602091611f2a815180928185528580860191016105f0565b601f01601f1916010190565b9081526001600160a01b03909116602082015265ffffffffffff90911660408201526080606082018190526110fe92910190611f11565b81810292918115918404141715611b4257565b908160209103126102ec57516110fe81610ebb565b908160209103126102ec57516110fe8161033b565b908160209103126102ec57516110fe81610702565b908060209392818452848401376000828201840152601f01601f1916010190565b949695926060946120026120109363ffffffff9560808a5260808a0191611fbf565b918783036020890152611fbf565b951660408401521515910152565b6000916120476120408265ffffffffffff166000526007602052604060002090565b5460ff1690565b6121b95761205490611b47565b600090600c5492600554925b84811061206f57505050505090565b8261207f61092e611c3784612572565b6121b0576000905b856001600160601b038316106120a35750506001905b01612060565b60408051630ce9b79360e41b8152929891926020816004816001600160a01b0388165afa908115610a39576020918891600091612193575b50877f000000000000000000000000000000000000000000000000000000000000000060601b6001600160601b0319166001600160601b038e161761213d612121611eda565b965163e02f693760e01b81529687958694859460048601611f36565b03916001600160a01b03165afa8015610a395761216c9261216692600092612172575b50611bcf565b97611ea1565b90612087565b61218c91925060203d602011610a3257610a228183610565565b9038612160565b6121aa9150833d8511610a6a57610a5b8183610565565b386120db565b5060019061209d565b6121da9250611c779065ffffffffffff166000526008602052604060002090565b5490565b612209907f000000000000000000000000000000000000000000000000000000000000000090611ba9565b65ffffffffffff807f000000000000000000000000000000000000000000000000000000000000000016918215611d7057160490565b6040519060a082018281106001600160401b0382111761058657604052600060808360608152606060208201528260408201528260608201520152565b6020815260a060806122b261229c855184602087015260c0860190611f11565b6020860151858203601f19016040870152611f11565b9360408101516060850152606081015182850152015191015290565b94989796936122ed60a09794926122fb9460c0895260c0890191611fbf565b918683036020880152611fbf565b966040840152606083015260808201520152565b65ffffffffffff808216600052600760205260ff604060002054166123b957612339600092611b47565b906123496108c061089942612a18565b908216908110610aa55761235f6108c042612a18565b10611cf6576009546000915b8183106123785750505090565b9091928161238b61092e611c37876125cc565b6123af5760019161239f846123a59361201e565b90611bcf565b935b01919061236b565b50926001906123a7565b5050600660205260406000205490565b906123d382610713565b60406123e26040519283610565565b83825281936123f3601f1991610713565b01906000805b838110612407575050505050565b825190838201918083106001600160401b038411176105865760209285528381528284818301528288010152016123f9565b6000198114611b425760010190565b6001600160a01b0316600090815260016020818152604083208054939490939285915b8483106124e6575050505080156000146124bc575050805b6001600160d01b038216156124b757506001600160d01b03166000908152600360205260409020546001600160a01b031690565b905090565b6124e0916124cc6124d992612537565b9060005260206000200190565b5460301c90565b90612483565b9091929380841690808518841c8201809211611b425786885265ffffffffffff8083888b20015416908416106000146125245750935b92919061246b565b949350828101809111611b42579261251c565b600019810191908211611b4257565b6000546001600160a01b0316330361255a57565b60405163118cdaa760e01b8152336004820152602490fd5b600c54811015611d4b577fdf6966c971051c3d54ec59162606531493a51404a002842f56009d7e5cf4a8c701546000818152600e60205260409020546001600160a01b039091169165ffffffffffff8083169260301c1690565b600954811015611d4b577f6e1540171b6c0c960b71a7020d9f60077f6af931a8bbf590da0223dacf75c7af01546000818152600b60205260409020546001600160a01b039091169165ffffffffffff8083169260301c1690565b65ffffffffffff9081168015159392908461266f575b5083612649575b50505090565b811680159350918315612662575b505050388080612643565b1611159050388080612657565b838316101593503861263c565b6001600160a01b031661268e81612a94565b9065ffffffffffff9182808216151591826126e1575b50506126cf576126cc916126b742612a18565b1681600052600b602052604060002055612e36565b50565b604051637952fbad60e11b8152600490fd5b60301c1615905082386126a4565b6001600160a01b031661270181612a4a565b9065ffffffffffff91828082161515918261273f575b50506126cf576126cc9161272a42612a18565b1681600052600e602052604060002055612ead565b60301c161590508238612717565b919360a0936110fe969565ffffffffffff938552600180871b0316602085015260408401521660608201528160808201520190611f11565b60405163b134427160e01b8152602095919491926001600160a01b03919087908290600490829086165afa908115610a39576000916128b2575b50169060405193635d927f4560e11b85528685600481865afa948515610a395787956001600160401b0391600091612895575b50168061284d5750600090612825612808611eda565b60405163010d40ab60e11b8152988997889687956004870161274d565b03925af18015610a3957612837575050565b816126cc92903d10610a3257610a228183610565565b9094506001036128835760008694612825612866611eda565b60405163545ce38960e01b8152988997889687956004870161274d565b60405163539cea7160e11b8152600490fd5b6128ac9150873d8911610ceb57610cdd8183610565565b386127f2565b6128c99150873d8911610a6a57610a5b8183610565565b386127bf565b6001600160a01b03166000818152600e60205260408120556128f090612ead565b156128f757565b60405163f411c32760e01b8152600490fd5b6001600160a01b03166000818152600b60205260408120556128f090612e36565b60018060a01b0391828116600090808252600260205284604083205416612a06576004546001600160d01b0380821696878214611b42576129c06040966129db946001612a049b019485169065ffffffffffff60d01b16176004556129a18460018060d01b03166000526003602052604060002090565b80546001600160a01b0319166001600160a01b03909216919091179055565b8616845260016020528484206129d542612a18565b90612b82565b5050815260026020522080546001600160a01b0319166001600160a01b03909216919091179055565b565b604051637b64317b60e01b8152600490fd5b65ffffffffffff90818111612a2b571690565b604490604051906306dfcc6560e41b8252603060048301526024820152fd5b80600052600e60205260406000205490811580612a82575b612a6a575090565b6024906040519063015ab34360e11b82526004820152fd5b50600d60205260406000205415612a62565b80600052600b60205260406000205490811580612ab357612a6a575090565b50600a60205260406000205415612a62565b600c54811015611d4b57600c6000527fdf6966c971051c3d54ec59162606531493a51404a002842f56009d7e5cf4a8c70190600090565b600954811015611d4b5760096000527f6e1540171b6c0c960b71a7020d9f60077f6af931a8bbf590da0223dacf75c7af0190600090565b908154600160401b8110156105865760018101808455811015611d4b5760009283526020928390208251929093015160301b65ffffffffffff191665ffffffffffff9290921691909117910155565b80549293928015612c3757612b99612ba691612537565b8260005260206000200190565b9182549265ffffffffffff91828516928116808411612c2557879303612bec5750612be592509065ffffffffffff82549181199060301b169116179055565b60301c9190565b915050612c2091612c0c612bfe61058b565b65ffffffffffff9093168352565b6001600160d01b0386166020830152612b33565b612be5565b604051632520601d60e01b8152600490fd5b5090612c5c91612c48612bfe61058b565b6001600160d01b0385166020830152612b33565b60009190565b600c548015612ca85760001981019080821015611d4b577fdf6966c971051c3d54ec59162606531493a51404a002842f56009d7e5cf4a8c6600091600c83520155600c55565b634e487b7160e01b600052603160045260246000fd5b6009548015612ca85760001981019080821015611d4b577f6e1540171b6c0c960b71a7020d9f60077f6af931a8bbf590da0223dacf75c7ae600091600983520155600955565b6000818152600d60205260409020548015612da9576000199181830191808311611b4257600c54938401938411611b42578383600095612d5f9503612d65575b505050612d4f612c62565b600052600d602052604060002090565b55600190565b612d4f612d8791612d78612da094612ac5565b90549060031b1c928391612ac5565b90919082549060031b91821b91600019901b1916179055565b55388080612d44565b5050600090565b6000818152600a60205260409020548015612da9576000199181830191808311611b4257600954938401938411611b42578383600095612d5f9503612e0b575b505050612dfb612cbe565b600052600a602052604060002090565b612dfb612d8791612e1e612e2d94612afc565b90549060031b1c928391612afc565b55388080612df0565b80600052600a60205260406000205415600014612ea757600954600160401b811015610586576001810180600955811015611d4b5781907f6e1540171b6c0c960b71a7020d9f60077f6af931a8bbf590da0223dacf75c7af015560095490600052600a602052604060002055600190565b50600090565b80600052600d60205260406000205415600014612ea757600c54600160401b811015610586576001810180600c55811015611d4b5781907fdf6966c971051c3d54ec59162606531493a51404a002842f56009d7e5cf4a8c70155600c5490600052600d60205260406000205560019056fea2646970667358221220725617d7735149b08af444c09aa25b979a4080f14ee21ac91196a43523ff77d364736f6c63430008190033",
    "linkReferences": {}
  },
  "methodIdentifiers": {
    "EPOCH_DURATION()": "a70b9f0c",
    "NETWORK()": "8759e6d1",
    "OPERATOR_NET_OPTIN()": "93fe3889",
    "OPERATOR_REGISTRY()": "83ce0322",
    "SLASHING_WINDOW()": "22207cc7",
    "START_TIME()": "ddaa26ad",
    "VAULT_REGISTRY()": "02ace7fe",
    "calcAndCacheStakes(uint48)": "28279593",
    "createNewTask(string,string,uint256,bytes32)": "9eea016c",
    "getCurrentEpoch()": "b97dd9e2",
    "getCurrentOperatorOperatingAddress(address)": "05a1fb22",
    "getEpochAtTs(uint48)": "9d94a1e3",
    "getEpochStartTs(uint48)": "11369f0f",
    "getOperatorByOperatingAddress(address)": "b879566c",
    "getOperatorOperatingAddressAt(address,uint48)": "f997443f",
    "getOperatorStake(address,uint48)": "84ca5f7d",
    "getSubnetwork(uint96)": "c3265f0f",
    "getTotalStake(uint48)": "9fee2cdb",
    "getValidatorSet(uint48)": "b8dc4fe9",
    "isActiveVault(uint256)": "3fc935b6",
    "operatorStakeCache(uint48,address)": "ee3738ca",
    "owner()": "8da5cb5b",
    "pauseOperator(address)": "72f9adab",
    "pauseVault(address)": "c0bd6f9e",
    "registerOperator(address,address)": "ce49f361",
    "registerVault(address)": "67ccd1cb",
    "renounceOwnership()": "715018a6",
    "respondToTask(string,string,uint32,bool)": "77329af8",
    "rollupTaskInfos(string)": "39011ab8",
    "setSubnetworksCnt(uint256)": "6a5af20b",
    "slash(uint48,address,uint256)": "48de4b8c",
    "subnetworksCnt()": "87546137",
    "totalStakeCache(uint48)": "321520f4",
    "totalStakeCached(uint48)": "83f582b7",
    "transferOwnership(address)": "f2fde38b",
    "unpauseOperator(address)": "2e5aaf33",
    "unpauseVault(address)": "2efbab2c",
    "unregisterOperator(address)": "96115bc2",
    "unregisterVault(address)": "2633b70f",
    "updateOperatorOperatingAddress(address,address)": "ea1bc863",
    "verify(string,uint64,uint256,bytes32[],bytes32[],bytes32)": "42000c66"
  },
  "id": 169
}